:020000040000fa
:10000000f07f0020958b0000f7590000ef620000a0
:1000100000000000000000000000000000000000e0
:10002000000000000000000000000000c777000092
:100030000000000000000000718c0000599a0000d0
:10004000534f0000534f0000534f0000534f000028
:1000500011810000534f0000534f0000534f000028
:10006000534f0000534f0000534f0000534f000008
:10007000534f0000a5460000d9870000534f0000f1
:10008000534f0000534f0000dd980000534f000015
:10009000534f00000000000000000000534f00001c
:1000a000534f0000534f0000534f0000534f0000c8
:020000040000fa
:1000b000f8b5c046f8bc08bc9e4670472d8b0000c2
:1000c000f8b5c046f8bc08bc9e467047058b0000da
:020000040000fa
:1000d000564d0000010000003861000001000000e2
:020000040000fa
:1000e000427573206572726f72202835292e25643f
:1000f00020256c780d0a00004661696c65642074e7
:100100006f2077616b652075702074686520636867
:1001100069700d0a000000006661696c65642074f6
:100120006f206c6f6164206669726d776172652003
:1001300066726f6d20666c6173682e0d0a00000098
:10014000447269766572566572496e666f3a203000
:10015000782530386c780d0a0000000025782025bd
:10016000782025780d0a000054696d65206f75743c
:1001700020666f722077616974206669726d77619d
:1001800072652052756e0a006661696c6564207440
:100190006f2064652d696e697469616c697a650d9b
:1001a0000a0000005b6e6d692073746172745d3ac1
:1001b000206661696c20696e6974206275730d0a2e
:1001c000000000004368697020494420256c780dc8
:1001d0000a0000005b6e6d692073746172745d3a91
:1001e000206661696c20696e6974207370690d0afc
:1001f000000000006661696c656420746f20656ea4
:1002000061626c6520696e74657272757074732eac
:100210002e0d0a005b6e6d692073746f705d3a205d
:10022000636869705f6465696e6974206661696c92
:100230000d0a00005b6e6d692073746f705d3a206b
:1002400053504920666c6173682064697361626c05
:1002500065206661696c0d0a000000005b6e6d69c7
:100260002073746f705d3a206661696c20696e69f5
:1002700074206275730d0a004572726f7220726588
:1002800063656976696e672053534c2066726f6da3
:1002900020746865204849460d0a00006869665f59
:1002a00072656769737465725f636228292066618d
:1002b000696c65642077697468207265743d256493
:1002c000000000005b7370695f636d645d3a2046f7
:1002d00061696c656420636d642077726974652c54
:1002e00020627573206572726f722e2e2e0d0a00b9
:1002f0000d5b7370695f636d645f7273705d3a204c
:100300004661696c656420636d6420726573706f0b
:100310006e736520726561642c206275732065724e
:10032000726f722e2e2e0d0a000000000d5b73708e
:10033000695f636d645f7273705d3a204661696cda
:10034000656420636d6420726573706f6e736520e1
:10035000726561640a0000005b7370695f646174b8
:10036000615f726561645d3a204661696c65642015
:100370006461746120726573706f6e73652072655d
:1003800061642c20627573206572726f722e2e2e3e
:100390000d0a00005b7370695f646174615f726570
:1003a00061645d3a204661696c65642064617461d2
:1003b00020726573706f6e736520726561642e2e96
:1003c0002e2825303278290d0a0000005b737069f1
:1003d0005f646174615f726561645d3a2046616962
:1003e0006c6564206461746120626c6f636b207261
:1003f0006561642c20627573206572726f722e2e97
:100400002e0d0a005b7370695f646174615f7265d1
:1004100061645d3a204661696c6564206461746161
:1004200020626c6f636b2043524320726561642cc1
:1004300020627573206572726f722e2e2e0d0a0067
:100440005b7370695f726561645f7265675d3a20b6
:100450004661696c656420636d642c20726561641b
:100460002072656720282530386c78292e2e2e0db5
:100470000a0000005b7370695f726561645f72659a
:10048000675d3a204661696c656420636d64207223
:100490006573706f6e73652c207265616420726580
:1004a0006720282530386c78292e2e2e0d0a000062
:1004b0005b7370695f726561645f7265675d3a2046
:1004c0004661696c65642064617461207265616471
:1004d0002e2e2e0d0a000000526573657420616e89
:1004e0006420726574727920256420256c780d0a69
:1004f000000000005b7370695f77726974655f72fa
:1005000065675d3a204661696c656420636d642ca3
:100510002077726974652072656720282530386cf1
:1005200078292e2e2e0d0a005b7370695f77726931
:1005300074655f7265675d3a204661696c65642029
:10054000636d6420726573706f6e73652c207772b3
:100550006974652072656720282530386c78292eeb
:100560002e2e0d0a00000000526573657420616e26
:100570006420726574727920256420256c782025aa
:100580006c780d0a000000005b6e6d5f7370695f30
:10059000696e69745d3a204661696c656420696eb4
:1005a0007465726e616c20726561642070726f7424
:1005b0006f636f6c207769746820435243206f6ebd
:1005c0002c207265747279696e672077697468206f
:1005d000435243206f66662e2e2e0d0a0000000047
:1005e0005b6e6d5f7370695f696e69745d3a20461a
:1005f00061696c656420696e7465726e616c2072ed
:100600006561642070726f746f636f6c2e2e2e0d97
:100610000a0000005b6e6d5f7370695f696e6974dc
:100620005d3a204661696c656420696e7465726e1e
:10063000616c2077726974652070726f746f636f7c
:100640006c207265672e2e2e0d0a00005b6e6d5faa
:100650007370695f696e69745d3a204661696c20e8
:10066000636d6420726561642063686970206964e9
:100670002e2e2e0d0a0000005b6e6d5f7370695f99
:10068000696e69745d3a2063686970696420282521
:10069000303878290d0a00005b7370695f726561fc
:1006a000645f626c6f636b5d3a204661696c656480
:1006b00020636d642c207265616420626c6f636bd3
:1006c00020282530386c78292e2e2e0d0a000000a7
:1006d0005b7370695f726561645f626c6f636b5db1
:1006e0003a204661696c656420636d6420726573ad
:1006f000706f6e73652c207265616420626c6f632d
:100700006b20282530386c78292e2e2e0d0a0000fb
:100710005b7370695f726561645f626c6f636b5d70
:100720003a204661696c656420626c6f636b20647b
:1007300061746120726561642e2e2e0d0a00000026
:10074000526573657420616e6420726574727920dd
:10075000256420256c782025640d0a005b73706980
:100760005f77726974655f626c6f636b5d3a204698
:1007700061696c656420636d642c207772697465af
:1007800020626c6f636b20282530386c78292e2e00
:100790002e0d0a005b7370695f77726974655f6222
:1007a0006c6f636b5d3a204661696c656420636db4
:1007b0006420726573706f6e73652c207772697434
:1007c0006520626c6f636b20282530386c78292e89
:1007d0002e2e0d0a000000005b7370695f64617467
:1007e000615f77726974655d3a204661696c656422
:1007f000206461746120626c6f636b20636d6420a0
:1008000077726974652c20627573206572726f72dd
:100810002e2e2e0d0a0000005b7370695f646174f8
:10082000615f77726974655d3a204661696c6564e1
:10083000206461746120626c6f636b2077726974ed
:10084000652c20627573206572726f722e2e2e0dcc
:100850000a0000005b7370695f646174615f7772a6
:100860006974655d3a204661696c656420646174f1
:100870006120626c6f636b2043524320777269740e
:10088000652c20627573206572726f722e2e2e0d8c
:100890000a0000005b7370695f77726974655f625c
:1008a0006c6f636b5d3a204661696c656420626cb5
:1008b0006f636b20646174612077726974652e2e9a
:1008c0002e0d0a005b7370695f77726974655f62f1
:1008d0006c6f636b5d3a204661696c65642062757c
:1008e00073206572726f722e2e2e0d0a00000000aa
:1008f0005b7370695f77726974655f626c6f636b5d
:100900005d3a204661696c6564206461746120729f
:100910006573706f6e736520726561642c20257835
:100920002025782025780d0a00000000536c6f7791
:10093000696e6720646f776e2e2e2e0d0a00000000
:100940004661696c656420746f20616c6c6f632014
:1009500072782073697a652025640d0a0000000012
:1009600028484946294661696c656420746f207780
:10097000616b6575702074686520636869700d0a25
:1009800000000000484946206d657373616765206b
:100990006c656e6774682028256429206578636516
:1009a000656473206d6178206c656e6774682028bb
:1009b0002564290d0a000000286869662920574926
:1009c00046495f484f53545f5243565f4354524c1d
:1009d0005f3120627573206661696c0d0a0000004a
:1009e0002868696629206164647265737320627582
:1009f00073206661696c0d0a000000002868696652
:100a00002920436f72727570746564207061636b26
:100a100065742053697a65203d202575203c4c2063
:100a20003d2025752c2047203d2025752c204f503a
:100a3000203d20253032583e0d0a000057494649d6
:100a40002063616c6c6261636b206973206e6f74ec
:100a500020726567697374657265640d0a00000031
:100a6000536f636b65742063616c6c6261636b20b0
:100a70006973206e6f74207265676973746572653f
:100a8000640d0a004f74612063616c6c6261636b7a
:100a9000206973206e6f7420726567697374657264
:100aa00065640d0a0000000043727970746f206362
:100ab000616c6c6261636b206973206e6f7420726d
:100ac0006567697374657265640d0a005369676dc3
:100ad000612063616c6c6261636b206973206e6f6f
:100ae0007420726567697374657265640d0a00002d
:100af00053534c2063616c6c6261636b206973209b
:100b00006e6f7420726567697374657265640d0a2f
:100b100000000000286869662920696e76616c69aa
:100b2000642067726f75702049440d0a0000000050
:100b3000286869662920686f73742061707020646a
:100b400069646e27742073657420525820446f6e58
:100b500065203c25753e3c25583e0d0a00000000ee
:100b600028686966292057726f6e672073697a65f5
:100b70000d0a000028686966292046616c736520ab
:100b8000696e7465727275707420256c780d0a0038
:100b90002868696629204661696c656420746f2045
:100ba0007265616420696e7465727275707420720a
:100bb00065670d0a00000000286869662920466103
:100bc000696c20746f2068616e646c6520696e7456
:100bd0006572727570742025642074727920616763
:100be00061696e2e2e0d0a00206869665f7265636a
:100bf000656976653a20496e76616c696420617238
:100c000067756d656e740d0a00000000415050203c
:100c10005265717565737465642053697a652069de
:100c200073206c6172676572207468616e207468ed
:100c300065207265636569766564206275666665c0
:100c4000722073697a65203c25753e3c256c753ea3
:100c50000d0a00004150502052657175657374652e
:100c6000642041646472657373206265796f6e6499
:100c700020746865207265636569766564206275b5
:100c800066666572206164647265737320616e6468
:100c9000206c656e6774680d0a0000004752702072
:100ca0003f2025640d0a000047656e65726174651a
:100cb0006420486f737446696c6548616e646c6546
:100cc0007249442069732025750d0a00496e7661ca
:100cd0006c6964204f544120726573702025642034
:100ce0003f0d0a0057494e43206973206e6f7420f0
:100cf000696e20616e20617070726f7072696174cc
:100d00006520737461746520666f722074686973fe
:100d1000206f7065726174696f6e210d0a000000aa
:100d2000556e61626c6520746f207265616420533a
:100d3000504920466c6173680d0a0000436f6e666f
:100d40006c696374656420495020222025752e2526
:100d5000752e25752e257520220d0a00524551202d
:100d60004e6f7420646566696e65642025640d0aa3
:100d7000000000000a57494e4331353030204669a3
:100d8000726d7761726520446174613a0d0a0000ea
:100d90004669726d77617265205665723a202575d5
:100da0002e25752e25752053564e2052657620250a
:100db000750d0a004669726d77617265204275692a
:100dc0006c742061742025732054696d652025732f
:100dd0000d0a00004669726d77617265204d696e7b
:100de00020447269766572205665723a2025752e08
:100df00025752e25750d0a00447269766572205698
:100e000065723a2025752e25752e25750d0a000070
:100e100032333a35353a3437000000004a756e20d7
:100e200031392032303236004472697665722042a0
:100e300075696c742061742025732054696d652078
:100e400025730d0a0d0a00004d69736d61746368a6
:100e5000204669726d776172652056657273696f9d
:100e60006e0d0a00536f636b6574202564207365f3
:100e70007373696f6e204944203d2025640d0a007c
:100e8000726563762063616c6c6261636b2073656d
:100e90007373696f6e204944203d2025640d0a005c
:100ea00043757272656e74203c25643e0d0a000025
:100eb0004469736361726420726563762063616c58
:100ec0006c6261636b2025642025640d0a000000bc
:100ed00068696620727820646f6e65206661696c4f
:100ee00065640d0a0000000073656e642063616c28
:100ef0006c6261636b2073657373696f6e20494424
:100f0000203d2025640d0a004469736361726420ea
:100f100073656e642063616c6c6261636b20256431
:100f20002025640d0a0000000d57494e433a204920
:100f30006e697469616c697a696e672e2e2e0d0a6e
:100f4000000000006d326d5f776966695f696e69e8
:100f5000745f686f6c64206661696c65640d0a007b
:100f60006d326d5f776966695f696e69745f73740e
:100f7000617274206661696c65640d0a000000008e
:100f800057494e433a20496e697469616c697a69c0
:100f90006e672e2e2e636f6d706c6574650d0a0082
:100fa0000d52656365697665642076616c756520b0
:100fb0006973203a256420616e64207461736b202c
:100fc00069642069732025640a0000005461736b12
:100fd0004c65644d677200005461736b53656375b3
:100fe000726974794d6772005461736b57696669f1
:100ff0004d6772006c6564510000000073656351b9
:1010000000000000776966695100000049444c45c2
:10101000000000000d0a204c6564206d6772206995
:101020006e69742066756e6374696f6e0a000000e5
:101030000d0a205365637572697479206d6772209b
:10104000696e69742066756e6374696f6e0a00005c
:101050000d0a2057696669206d677220696e697490
:0b1060002066756e6374696f6e0a00f5
:020000040000fa
:10106c00f0b59db012930b6814900b934b681191d3
:10107c0004938b680d930b691593cb6808931368d5
:10108c00546806930794069807990022002307f0ea
:10109c00d0ff00280dd10b9b5b073ed408230b9a85
:1010ac001a400c920d9a09920b9a1a4213d01833cb
:1010bc000ae080200006844606990a0007996144dc
:1010cc000b00069207932d23089a13700d9b013b7e
:1010dc00099301230c93079b06995b00c74a5b0895
:1010ec0000291cd193421ad1089a129b94460c9851
:1010fc00413bc3496044192b00d9c24909f016f988
:10110c00089808f009ff0b9b0200009308990d9baf
:10111c00149806f087fc1db0f0bd2b23d4e7934246
:10112c0002d80cd100290ad0089a129b94460c982c
:10113c00413bb5496044192be0d9b449dee70022a4
:10114c0006980799002308f013fb0026b04f0028df
:10115c0000d120e100230393129809f097f8c3b251
:10116c001093049b002b00daebe1109b0a93672b86
:10117c0012d1049b002b01d10133049365230a93f4
:10118c00039b04331ddb039b049a934219da6623f9
:10119c000a93039b002b14da049b013304930a9be0
:1011ac00662b0ed1039b002b03da00230026984fed
:1011bc000393109b672b04d0039a049b94466344bf
:1011cc000493069a079b0e920f93002334003d0064
:1011dc00139322000e980f992b0005f051fb05f08c
:1011ec00cdfc8022120694460e9b169017911893f4
:1011fc000f9b63441993189a199b00920193220038
:10120c002b0009f025f880231b06cb18002229009f
:10121c000e900f9320007f4b05f032fb139b0400c4
:10122c0001331393139a049b0d009342d1d10022e6
:10123c00794b02f099fe0e9a0f9b04000d0007f0fb
:10124c00d9fe002800d0d5e00e9a0f9b2000290073
:10125c0008f08efa002806d01698179908f0aef907
:10126c00c00700d4c6e00698079922002b0002f0b4
:10127c00f9fa002206900791664b3000390002f013
:10128c0073fe069a079b0e900f9107f02ffd002816
:10129c0000d1c7e0039b013303930a9b662b00d05c
:1012ac00c2e0049b039d0133049300263700049b8a
:1012bc000c9ceb1a1693169b9d4200d0dee0002f7f
:1012cc0000d11de10026089b1f190a9b3e70652b5f
:1012dc002dd1159b5d1e089b5e55039bb34202da14
:1012ec005b4203930136039b002b00d011e1159b4d
:1012fc00eb1a0333002b00dd0be12b236a1e002eaf
:10130c0000d002330899023d8b54129b413b192ba0
:10131c0001d845230a93089b59190a9b0b70ac42c0
:10132c0002da380009f002f8099b023b0993032307
:10133c000b9a1340022b00d0e2e6099b002b00dc39
:10134c00dee6089808f0e8fd0c9b834200dcf1e037
:10135c001800089b30219c46099a604408f0befe98
:10136c0000230d93cce626002f00039b013303933f
:10137c000022284b3000390002f0f6fd04000d006d
:10138c0002000b000698079907f053fe0028ead0dc
:10139c000024012523e00390eae7204b039a9a42ac
:1013ac0012da002c10d10698079900221c4b02f07f
:1013bc00dbfd002206900791194b3000390002f03a
:1013cc00d3fd2c0006000f0030003900114b002219
:1013dc0005f056fa06000f00039b013b0393320005
:1013ec00069807993b0007f024fe0028d5d1b3e6f8
:1013fc000623c2e60024002535e7c0460000f07f36
:10140c00d09a0000d49a0000d89a0000dc9a000010
:10141c000000f03f0000244000001440d4feffff09
:10142c00000050430e960f970a9d653d6b1e9d4123
:10143c00039b6d421d4038e7002f0ad1002d08dabe
:10144c002e23089a139901345354099b0137013bfd
:10145c000993321923009446302102e0089ad154a2
:10146c0001336345fad1099a3419961b089a303026
:10147c00d054731e01340026099320e0119b139461
:10148c001b69053ba34200d819e70e9a0f9b0698df
:10149c00079905f0f5f905f071fb0490059108f03a
:1014ac008df8092800dd092010230b9a1340034303
:1014bc00c2d1109b672bbfd1002dbdda0136802223
:1014cc000e980f9912069446069b013d1a93079ba2
:1014dc0063441b931a9a1b9b00920193049a059bdd
:1014ec0008f0b6fe80231b06cb18069007930e98c7
:1014fc000f990022174b05f0c3f90e900f91dae605
:10150c000b9bdb0600d4dde62e23089a1355013421
:10151c00d8e603980a2105f093fd089b3031013d74
:10152c00595503980a2105f041fd099b0390013b95
:10153c000993d8e6089b09991a5c5b181a54013870
:10154c0002e7109b672b00d152e70a930623049302
:08155c0022e6c0460000244015
:020000040000fa
:10156400f0b599b012930b68cf680a934b68169044
:101574000e938b680b930b6911931368546806934d
:101584000794069807990022002307f056fd0028c7
:101594000ed10a9b5b072ed408230a9a0a991a4093
:1015a40005920b9a194213d018333b7013000ce0c8
:1015b40080200006844606990a00079961440b00be
:1015c400069207932d233b700b9b5a1e0123059310
:1015d400079b06995b005b0800290ed1af48834244
:1015e4000bd1129b059a413bad4cae49b818192b4f
:1015f40011d921000fe02b23e5e7a848834202d844
:1016040018d1002916d0129b059a413ba64ca74934
:10161400b818192bedd808f08dfe200008f080fcd6
:101624000a9b0200009339000b9b169806f0fef902
:1016340019b0f0bd059b0598591c30233b54129bef
:10164400413b0f930f987823192800d8203b059825
:101654007b540230931e0590099300220698079943
:10166400002308f089f8002800d16de10023904c94
:10167400089302930394182310930e9b002b00db12
:1016840010930026029c039d109b01331793069a26
:10169400079b0c920d930c980d9922002b0005f0da
:1016a400f3f805f06ffa22002b001490159102f064
:1016b4005ffc02000b000c980d9908f0d5fd7d4be2
:1016c4000c900d9100222000290002f051fc0e9b89
:1016d40004000d000136002b07da0c980d99002246
:1016e400002308f049f8002804d1179b9e42d2d168
:1016f400109e01360022200029006f4b02f038fcb6
:1017040004000d0002000b000c980d9907f095fce5
:10171400002800d01ee10c980d9922002b0008f03f
:101724002bf8002806d01498159907f04bffc00732
:1017340000d40fe10698079922002b0002f096f8d6
:1017440006900791079b069a5b005b08002a03d169
:10175400524a934200d144e7119b059a053b1493e6
:10176400934200d83de100257342140016001793fc
:1017740010950c95029a039b0698079905f084f836
:1017840005f000fa1290139107f01cff031e00d01d
:10179400e3e00c9a002a00d1dfe00135029a039bb2
:1017a4001298139902f0e4fb02000b0006980799c3
:1017b40008f05afd002206900791029803993d4bc8
:1017c40002f0d6fb0c9b179a013b029003910c93f9
:1017d400934203d0149b26009c42cbd3109b002b36
:1017e4001ad1002d00dcfde00e9b002b00dcf9e09b
:1017f4000a9bdb0700d5f5e02e2230213b191a7035
:101804002a19ba18597001339342fbd16419ed4374
:10181400099b0134eb18099300263b191e700293af
:10182400119b5d1e089b7e55b34202da5b4208930e
:101834000136089b002b00d0bce0119beb1a01334e
:1018440000d1b7e02b236a1e002e00d00233bb5414
:101854000f9a7023023d192a00d8203b79190b7086
:10186400ac4202da029808f065fd03230a9a134099
:10187400022b11d1099b9c1e002c0ddd380008f0b1
:101884004ffb059b984200dba4e0f81822003021ae
:1018940008f028fc00230b933800bfe60000f07f1b
:1018a400d49a0000d09a0000dc9a0000d89a000074
:1018b4000000f03f0000b03f00002040089b02946d
:1018c400039501330893029a039b1000190001f059
:1018d400cdff04000d0002000b000698079907f0e5
:1018e400acfb0028ead0029a039b0698079907f0fc
:1018f400a4fb002800d1bee60298039900223d4bc8
:1019040002f036fb0022002307f036ff00280fd038
:10191400029803990022384b02f02afb002202901d
:10192400039106980799344b02f022fb0690079125
:10193400029803992f4b002202f01afb089b029095
:101944000391013b0893cee700232c4c08900293ab
:101954000394b8e700240025ece6109a002a0ad183
:101964000c9a002a07d02e22ba55099a0134013a5a
:1019740009920122109230222e1901e03a550134c5
:10198400b442fbd11800099a5730551b092b01dcce
:10199400303318000f9b192b06d820230343613bd7
:1019a400192b01d808f07dfc6b1e741c0025b8555a
:1019b4000993f3e608980a2105f046fb013d30310e
:1019c400089879550a2105f0f5fa099b0890013b1e
:1019d40009932ee7099b3a5c023bfb181a54013821
:1019e4004fe7059c0a9bdb0600d415e72e233b55e5
:1019f400013411e70000e03f000050430000f03fd5
:020000040000fa
:101a0400f0b5d6464f464646c0b596b00c00150014
:101a14000300413bdab2162a13d89300b54ad358cf
:101a24009f4606260023102201a9280004f09efdeb
:101a3400002806d101ab0c27df571b7b0a2b00d8eb
:101a44001fe116b0e0bcba46b146a846f0bd072473
:101a54000023082205a9280004f088fd0028f0d1fd
:101a640005ab00255d571b780a2bead805ab9e8889
:101a740008f042fc032800d9c7e105ab5a8801ab42
:101a84001a809d4b2a019b18db889bb2b34200d07d
:101a9400c2e19a4b1b68002bd3d0984b1b6801aa58
:101aa400210028009847cce70023042205a9280038
:101ab40004f05cfd0028c4d105ab5a7801ab1a7060
:101ac4008e4b1b68002bbcd08c4b1b6805aa0020d6
:101ad400105601aa01219847b3e70023042205a95f
:101ae400280004f043fd0028abd105ab5a7801abc4
:101af4001a70824b1b68002ba3d0804b1b6805aa6d
:101b04000020105601aa022198479ae700230c22cc
:101b140001a9280004f02afd002800d091e701abb8
:101b240009229a565b7a0a2b28d801a80821415623
:101b3400714b09015918c97ac9b214011b19d97218
:101b4400012199724189083989b219816c490b883c
:101b540001339bb20b800b889bb2002b03d10b8803
:101b640001339bb20b80664b198889b2624b120118
:101b74009b18d98008f0c0fb032817d805ab01aa2d
:101b8400517a1970022199805188d980029a07925a
:101b94005a4b1b68002b00d153e7584b1b6801aa12
:101ba4000820105605aa042198474ae708f09efb2e
:101bb400534b1b889bb201aa527a52b2514906f088
:101bc40003f9dbe70023059306935738431e984136
:101bd400424203239a430832002305a9280004f053
:101be400c5fc002800d02ce705ab002018561b7854
:101bf4000a2b00d925e701ab187005aa527852b216
:101c04005a703d4b01015b181b899bb2591e8b41d5
:101c14005b42052119400531002a13d105ac6288c5
:101c2400083a92b2344b05015b191a8122795a732e
:101c3400324b1b68002b00d103e7304b1b6801aa11
:101c44009847fee605aa94782b4b05015b199c7313
:101c5400d278da73ece70023442205a9280004f0c3
:101c640085fc002800d0ece6274b1b68002b00d134
:101c7400e7e6254b1b68159905a89847e1e6092670
:101c8400d0e601abdb89984608f036fb03282ad856
:101c9400194b3a019b1800221a7301aa0821505ebd
:101ca400824651898c4605a950884881029a089237
:101cb400db889bb2434500d07ee05346002b01dd18
:101cc400a24525db05ab52469a80002305930b4bb6
:101cd4001b68002b00d1b4e6084b1b6805aa310031
:101ce40038009847ade608f001fb0849424606f083
:101cf4006bf8cde73c830000902c00201c310020c1
:101d040084310020640e000018310020800e000091
:101d14009cb2cc80564b3a01d358002b00d190e6ac
:101d2400534b9b189b889bb2002b00d189e6504be8
:101d34009b189b7a012b00d083e64d4b9b189b8804
:101d4400e31a1bb2a046002b04dd494b9b189b8869
:101d54009bb29846464b3a01d1582800604401236f
:101d6400424604f003fc00281ad1414b3a01d058f2
:101d740005a9059040468880c8884446001bc88051
:101d8400981800218180d1503a4b1b688b4200d1b6
:101d940057e6384b1b6805aa31003800984750e6cf
:101da40008f0aafa002800d14be608f09ffa32495d
:101db400220006f009f844e608f09efa032816d833
:101dc400102c00d83de6012300220021002004f05d
:101dd400cdfb002800d134e608f08efa002800d1ab
:101de4002fe608f083fa254905f0eeff29e608f00e
:101df4007dfa1f4b3f01db19db889bb22049424629
:101e040005f0e2ffdce7082422e608f06ffa1d493a
:101e1400320005f0d9ff30e608f06efa032800d846
:101e24000fe608f063fa124b2d015b19db889bb2b5
:101e34001549320005f0c8ff03e60123142205a961
:101e4400280004f093fb002800d0fae50f4b069a13
:101e54001b689a4200d0f4e50d4b1b68002b00d19f
:101e6400efe505a90a7c079905989847e9e5c04676
:101e7400902c00201c310020a00e0000d00e000089
:101e8400b00e0000e80e0000080f00001031002022
:041e940014310020e5
:020000040000fa
:101e9800f0b5c64600b5eab00c1e00d1bce0c54b93
:101ea8005d68002d00d1b7e00438c3b22e2b00d9ed
:101eb800b2e09800c04b1b589f46eb7b002b00d12b
:101ec800aae00023eb730123cb56002b12d10b7829
:101ed8006b74002b0ad18823ec58002c00d19be0ae
:101ee800b448002300220021a04795e0287c07f091
:101ef80076fe91e000236b748ee0280034300431c4
:101f0800062208f0e3f801263a23ee54273b9846c8
:101f1800a84427000a3720223900404608f0d6f89e
:101f28002121380008f006f83323e8540122a2568c
:101f38000a33ea54a2780133ea54e278033bea54bc
:101f4800ae744d33ec58002c66d06a7c297c013184
:101f5800c9b298484346a047002805d1954b5a680e
:101f680088230021d15057e0924b5b681c7c0134d8
:101f7800e4b21c7408f09af9844205d38d4b5a6870
:101f880088230021d15047e08a4c6368187c07f009
:101f980026fe636800229a743ee00b78012b0ed06f
:101fa800002b02d1ab735422ab548c23ed58002d77
:101fb80032d08048637822780100a8472ce0ab73c0
:101fc800a133eb5c002bf0d1a433eb58002becd001
:101fd800a1230122ea54e8e78c23ed58002d1bd0f9
:101fe80000228a56130015331ad0130014330bda63
:101ff8000523110017310bd0163253425a41534270
:1020080003229343073303e01432531e9a41931d6e
:10201800684800220100a8476ab080bcb846f0bdf5
:102028000123f5e72b7b002b02d1a1330122ea54cf
:10203800e1780906a3781b041943237819436378c8
:102048001b021943a423e9501433eb58002be3d0a7
:1020580058489847e0e7080005f0aefa011edbd0c3
:10206800544b5a689023d358002bd5d051489847e1
:10207800d2e7c023eb58002bced02121200007f057
:1020880059ff0600c3b203a920228b54202bc3d8c2
:10209800002103a808f024f8ff223240210003a8f9
:1020a80008f014f86223e35c0eaa1370022b0fd019
:1020b8006323e35c5a425341dbb23e4cc026ad5920
:1020c8000eaa03a92000a847636800229a51a3e733
:1020d80027002137380007f021ff06000eab1871e2
:1020e800402200213d236b44180007f0f9ffff222e
:1020f800324039003d236b44180007f0e7ffd7e76b
:102108002121200007f016ff0600c3b27522ab5448
:10211800202b00d980e72f005537553a0021380089
:1021280007f0deffff2232402100380007f0ceff23
:102138002123e65c6333ee545f3be35c1b062422f9
:10214800a25c120413432222a25c13432322a25c42
:1021580012021343ab677c239846a8440622210049
:102168002631404607f0b2ff01238222ab542e3ab3
:10217800ab549333ed58002d00d14de70d48683b23
:10218800e3560193009643463a000100a84743e707
:1021980000228a564e23ea544a33eb58002b00d1ca
:1021a8003ae7044c210020009847626898230021f0
:1021b800d15031e77c300020cc6a00009c23eb58da
:1021c800002b00d128e703a807f046faa51c212117
:1021d800280007f0affec2b2290003a806f068fc89
:1021e800617803a807f098fa2378012b09d0022b0d
:1021f80012d00f4842689c23d358002200219847e8
:102208000ae70ea807f0deff094842689c23d35866
:102218000eaa03a99847ffe623344121200007f0be
:1022280089fec2b221000ea806f0e6fdece7c04622
:042238007c300020d6
:020000040000fa
:10223c00ec2f00201c000000000000008131002069
:10224c0001000000000000006c30002010000000b5
:10225c0000000000542f00200400000000000000cb
:10226c008e3100200100000001000000040000007d
:10227c00d83000200c000000000000008631002047
:10228c000100000000000000e4310020020000000a
:10229c000100000000080000c42f002028000000ee
:1022ac0000000000e43000200c00000000000000e2
:1022bc008f3100200100000001000000ff00000031
:1022cc00c03000200800000000000000f0300020aa
:1022dc001400000000000000823100200200000009
:1022ec000000000004310020080000000000000085
:1022fc008731002001000000000000000c3100209c
:10230c0004000000000000008831002002000000e2
:10231c000000000010310020080000000000000048
:10232c008a3100200100000000000000183100205c
:10233c0008000000000000008431002002000000b2
:10234c0000000000902c0020b000000000000000f5
:10235c00002a002008010000000000007c30002052
:10236c001000000000000000d02b0020c000000076
:10237c00000000008b310020010000000000000074
:10238c00982f00202c0000000000000000280020e6
:10239c000002000000000000e02d00208000000082
:1023ac0000000000142f002040000000000000007e
:1023bc00c830002008000000000000002031002080
:1023cc000400000000000000d030002008000000d5
:1023dc00000000009c3000200c00000000000000f9
:1023ec002431002004000000000000008c3100208b
:1023fc000100000000000000082b0020c8000000b5
:10240c0000000000a83000200c00000000000000bc
:10241c008d31002001000000000000002831002058
:10242c000400000000000000402d0020a00000006f
:10243c0000000000582f00204000000000000000a9
:10244c008c300020100000000000000090310020b3
:10245c00500000000100000000000000cc0f000044
:10246c0000010000010000001da20000010000009e
:10247c00d80f000000010000010000003da2000088
:10248c0002000000e80f0000000100000100000045
:10249c004da2000000000000000000000000000041
:1024ac00349a0000aaaaaaaa2c3100200800000025
:1024bc0000000000000000200028000000000000c8
:1024cc00343100202c0000000000000008300020f7
:1024dc001400000000000000603100200400000027
:1024ec00000000001c30002028000000000000004c
:1024fc00643100200800000000000000443000207f
:10250c002800000000000000602e00206400000085
:10251c00000000006c3100200400000000000000ee
:10252c00803100200100000000000000703100200c
:10253c0004000000000000007431002004000000c2
:10254c0000000000e0310020040000000100000049
:10255c0001000000783100200400000000000000a1
:10256c00c42e002050000000000000007c31002030
:10257c000400000000000000b43000200c0000003b
:10258c0000000000000000000000000066666666a7
:020000040000fa
:10259c0070b586b0b54db64c2900200007f020fa76
:1025ac000028f9d003a9b34807f0ddfe041e00d0c3
:1025bc0046e10399cb0700d42fe101239943039102
:1025cc00ac4807f0d4fe041e00d02ae1aa4b01222d
:1025dc009a70039dad042d0d00d10fe100230593de
:1025ec0005a9a64807f0bffe041e1fd10598a24bf3
:1025fc0058609d6004ae0422310006f063f80400bc
:10260c00738800281dd19d4202d0eb1a042b23dcc9
:10261c00974807f015fc6b461b7c072b00d9d5e0bf
:10262c006b461b7c9b00964ad3589f4607f060fe76
:10263c00002800d1f5e007f055fe924905f0c0fbeb
:10264c00efe007f055fe002800d1eae007f04afe63
:10265c008d4905f0b5fbe4e007f04afe002802d1f5
:10266c0006246442dde007f03dfe04aa5388874946
:10267c0054780194127800922a0005f0a1fb0624ec
:10268c006442cee07c4bdb68002b17d07a4bdd68c4
:10269c00059a083204ab5988083989b25878a8478a
:1026ac00754b9b78002b00d1bee007f021fe002873
:1026bc0000d09ae006f0e2fe0400b5e007f018fe48
:1026cc000028edd007f00efe714905f079fbe7e725
:1026dc00694b1b69002b0ad0674b1d69059a0832a0
:1026ec0004ab5988083989b25878a847d8e707f05d
:1026fc00fffd0028d4d007f0f5fd664905f060fb1e
:10270c00cee75d4b5b69002b0ad05b4b5d69059a8c
:10271c00083204ab5988083989b25878a847bfe702
:10272c0007f0e6fd0028bbd007f0dcfd5a4905f0a8
:10273c0047fbb5e7504b1b6a002b0ad04e4b1d6a6a
:10274c00059a083204ab5988083989b25878a847d9
:10275c00a6e707f0cdfd0028a2d007f0c3fd4f4936
:10276c0005f02efb9ce7444b9b69002b0ad0424b97
:10277c009d69059a083204ab5988083989b2587892
:10278c00a8478de707f0b4fd002889d007f0aafd13
:10279c00434905f015fb83e7374b5b6a002b0ad0e6
:1027ac00354b5d6a059a083204ab5988083989b2f1
:1027bc005878a84774e707f09bfd002800d16fe715
:1027cc0007f090fd374905f0fbfa69e707f090fd3b
:1027dc00002802d10624644226e007f083fd32492a
:1027ec0005f0eefa062464421ee007f07bfd04aa15
:1027fc00537812782d4905f0e3fa5be707f078fd82
:10280c00002802d1022464420be007f06bfd28493a
:10281c0005f0d6fa0224644203e007f069fd0028b3
:10282c0007d1134807f00cfb002c13d1200006b085
:10283c0070bd07f057fd039a1e4905f0c1faf0e789
:10284c0007f056fd0028ecd007f04cfd1a4905f0b6
:10285c00b7fae6e707f04cfd0028e7d007f042fd99
:10286c001649220005f0acfae0e7c046ffff000075
:10287c00e430002070100000c42f002084100000f1
:10288c00e89a0000b8090000e0090000fc0900000b
:10289c003c0a0000600a0000840a0000a80a00003c
:1028ac00cc0a0000f00a0000140b0000300b0000f2
:1028bc00600b0000740b0000900b0000b80b0000c4
:020000040000fa
:1028cc00f0b59fb004001500031fd9b2612900d9df
:1028dc006be18b00bb4ad3589f460023042203a90b
:1028ec00280003f03ffe002864d1b74b1b68002b77
:1028fc0060d003a92c3098475ce00023082203a980
:10290c00280003f02ffe002854d1af4b1b68002b7e
:10291c0050d003a91b3098474ce00123302203a967
:10292c00280003f01ffe002844d1a74b1b68002b86
:10293c0040d003a9063098473ce00023182203a995
:10294c00280003f00ffe002834d19f4b1b68002b8e
:10295c0030d003a9323098472ce00123002200210b
:10296c00280003f0fffd002824d1974b1b68002b97
:10297c0020d000213d3098471ce06422002103a8a0
:10298c0007f0acfb0023642203a9280003f0eafd46
:10299c0000280fd18c4b1b68002b0bd003a92f30b8
:1029ac00984707e00023042203a9280003f0dafd6e
:1029bc00002801d01fb0f0bd07f09afc012807d801
:1029cc00814b1b68002bf5d0002134209847f1e790
:1029dc0007f088fc039c230cff252b40220e7b491f
:1029ec002e0026400196240a2540009505f0e8f9b2
:1029fc00e6e7774b00221a700023043203a9280063
:102a0c0003f0b0fd0028d5d103ab1a78714b1a70c6
:102a1c006d4b1b68002bcdd003a911309847c9e72b
:102a2c0000232c2203a9280003f09cfd0028c1d10f
:102a3c00654b1b68002bbdd003a913309847b9e731
:102a4c00002304221ca9280003f08cfd0028b1d11e
:102a5c005d4b1b68002badd01ca904309847a9e72f
:102a6c00002304221ca9280003f07cfd0028a1d11e
:102a7c00554b1b68002b9dd01ca96530984799e7d6
:102a8c000123642203a9280003f06cfd002800d068
:102a9c0090e74d4b1b68002b00d18be703a9093045
:102aac00984787e70123042203a9280003f05afd65
:102abc00002800d07ee7444b1b68002b00d179e73f
:102acc0003a92a30984775e70023042203a928009c
:102adc0003f048fd002800d06ce73b4b1b68002b33
:102aec0000d167e703a92730984763e70023082242
:102afc0003a9280003f036fd002800d05ae703abe9
:102b0c009a88039928000830012303f02bfd002834
:102b1c0000d04fe72c4b1b68002b00d14ae703a9d0
:102b2c002030984746e70023042202a9280003f02e
:102b3c0019fd002800d03de702ab5f881a8803ab73
:102b4c005a80254b1b68002b00d133e7234b1b68a5
:102b5c00002b00d12ee7224b1b88002b00d129e73c
:102b6c0003ac1f4e19e022801c490968781903f048
:102b7c00f9fc002800d01de723886288d21a6280f5
:102b8c00df19bfb2154b1968134b1b6822001d309f
:102b9c0098476388002b00d10ce7628831880123a9
:102bac008a42e0d90a000023dde707f0a1fb0028e8
:102bbc0000d1ffe607f096fb0a49220005f000f968
:102bcc00f8e6c046c84000000c3100203c0d000067
:102bdc008731002089310020083100200431002089
:082bec00823100205c0d0000a5
:020000040000fa
:102bf4000023f0b51600b1b0039007910493079d2c
:102c04002b78002b00d1cfe001235b420c9310ab57
:102c140000240e9380230b940d940f932b5d002bb3
:102c240001d0252b30d1002c06d029002200039896
:102c34002d1906f03cfe0795079b1a78252a00d02b
:102c4400a7e001331800002105930793243a037881
:102c54002b2b25d02dd8202b25d0232b26d0002973
:102c640000d007902a2b2cd006f022f801250d90d5
:102c74000020079a11000b780132303b092b64d9ec
:102c840000282dd007912be00134c7e701230b99cd
:102c94000b430b9311000130d9e702230b99f7e79b
:102ca40004230b99f4e708230b99f1e710230b99fc
:102cb400eee72d2bead0302befd00029d4d00790ab
:102cc400d2e7336801301a1d1b68079032600d93f8
:102cd400002b05da01220b995b424a400b920d93bb
:102ce4000b9bda0702d5022293430b93079b1a78b6
:102cf4002e2a0dd100270c975a785d1c07952a2a95
:102d040025d10233079333681a1d1b6832600c9374
:102d140007a806f03dfc079d0700287807f0bafadb
:102d2400252800d1d5e06138172800d9dbe007f069
:102d3400edf91fdab63ea6a6a6da3edadadada9cae
:102d44005e7fdadac6da4edada6e280092e7280015
:102d540005f0aeff01210c902a0013780135303bb9
:102d6400092b03d9002fd3d00792d1e70f00f3e743
:102d74003200390008a806f04ffb002800d17be0a0
:102d84006b1c079303982b7808aa0ba9fef7e8fba2
:102d94002418049b1c19a34200dcb0e04f22594bb9
:102da4001a6001235b420493049831b0f0bd3300f0
:102db4000122390008a803f005fb00285cd0013586
:102dc400039808aa0ba9079503f094ffe0e73300e2
:102dd4000022390008a803f0f5fa00284cd0013588
:102de400039808aa0ba9079505f04bfdd0e733001b
:102df4000022390008a803f0e5fa00283cd0013588
:102e0400039808aa0ba9079505f016f8c0e7330044
:102e14000022390008a803f0d5fa00282cd06b1c36
:102e240007932b78039808aa0ba901f063ffafe777
:102e340033000022f02108a803f0c4fa00281bd0b4
:102e4400089b099a0135079513430cd12e4d280090
:102e540007f066f8290002000b9b00930d9b039872
:102e640004f0e4fd94e77823dce7049b39001a19a5
:102e740008a8330004f016fe0135079589e73200ef
:102e8400390008a806f0c8fa0028f5d06b1c07938f
:102e940003982b7808aa0ba9fef7e6f878e7802fa9
:102ea400ead1336801351a1d1b68326008aa137011
:102eb4000123079503980ba905f060fd68e7802faf
:102ec400dad132680135131d336012680023079587
:102ed400f0e7802fd0d10b9b0135009301220b49e1
:102ee4000d9b0795bbe7059b0122079300235242e4
:102ef4000c9206490b930d9300930232afe70494ae
:102f04007de6c04678310020c89a0000ce9a0000c1
:020000040000fa
:102f1400f0b587b00400431e033300d943e1012315
:102f2400c356012b5cd028dc5a1c00d13be1002b9a
:102f340000d036e10378002b00d134e140688223cd
:102f44005b00c35c002b39d1636801221a7163688a
:102f540000225a7107f0b2f902283dd006f0c6faf1
:102f640006f030fd6368986807f0f0f907f014f98b
:102f740007f0faf80023237015e1022b00d010e1ca
:102f840040680130ff30894906f02efd012800d049
:102f940009e10123e356022b00d004e163681b79a5
:102fa4001b0700d5ffe007f0eaf9002800d1fae09a
:102fb40060680130ff3006f047fff4e00130ff3075
:102fc40007f0aef86068d43007f0aaf8626882238c
:102fd4005b000021d154b7e7002006f059febde79d
:102fe4004368002b0ad007f087f9012809d806f0b6
:102ff40033f900280bd1ff236370d4e0ff3343700f
:10300400d1e007f073f96a4904f0defeefe706f059
:103014000fff00280fd007f06ff9012805d8636867
:10302400f5225a71ff236370bde007f05ff961492f
:1030340004f0cafef3e707f0a6f9000c152805d042
:103044006368f5225a71ff236370ace06068013055
:10305400ff3000230a22012105f0defa012802d004
:10306400ff2363709fe063689968200006f0d8fd31
:10307400002302930393049305934f4b019301a8f8
:1030840001f0e4f8002879d106f032f84b4805f055
:10309400c5fc4b4b00251d735d739d73dd739d74df
:1030a40001263f229e54022701329f5401321e21e1
:1030b400995401329f540132b53199540132593136
:1030c400995202329d5208329d541d6506329d5418
:1030d40034329d5004329d5004329d5004329d5030
:1030e40004329d5004329d5004329d5401329d544b
:1030f40001329e5402329d5004329d5004329d5040
:1031040004329d5004322f49995004329d500432a8
:103114009d5004329d5004329d5004329d5004321f
:103124009d500c32ff2199541c329d50264a23395c
:103134005a502649e0201950254904301950fc21e1
:103144005d502448290005f039fe2348330032003d
:10315400290005f061fa626882235b00d654606836
:10316400483006f02ffd677007f0c6f8b0421ad950
:1031740007f0bcf8194904f027fe14e007f0bcf886
:10318400012808d860680130ff3006f0c9ff636881
:10319400f4225a7164e707f0a9f8114904f014fe07
:1031a400f0e7ff23637007b0f0bdc046ffff0000e7
:1031b400280f0000440f0000991e0000056700005e
:1031c400002a0020c0a80a01157f0000f94700006a
:1031d4004d8b00006d8a0000d42a0020800f00006f
:0431e400600f000078
:020000040000fa
:1031e800f0b5de464f464646c0b588b083460e0069
:1031f8000192009310ab04cb90461f8812ab1b883a
:103208009946874d874c2900200006f0ebfb0028e3
:10321800f9d007aa7f23334053705b4613704346a7
:10322800002b33d03b0008334b449bb207aa538092
:103238007d4a934200d9e1e005f01cff041e00d04e
:10324800d1e00023059302aad3800493049b5a4635
:103258001a430492049b36021e430496049a07ab51
:103268005b881b04134304930499704807f081f8a2
:10327800041e0fd006f0eefc6a4806f0e3fd2000bd
:1032880008b0e0bcbb46b146a846f0bd009b083379
:103298009bb2cbe700230493049b022213430493bd
:1032a8000499634807f065f8041ee3d100220592eb
:1032b80002abda8006331b889bb2fa229200934253
:1032c80033d25b4e02ab9c1dfa256d000fe0012046
:1032d80007f03ff8049b9b0721d5238801339bb255
:1032e800238023889bb2fa22920093421dd204a91c
:1032f800300007f03af8002817d123889bb2ab4278
:10330800e8d323889bb2ab42e1d806f0f3ff01284b
:10331800ddd906f0e9ff474904f054fdd7e705a9d0
:10332800454807f022f8041e47d1059b002b47d0db
:10333800059b06930698082207a905f0f1f9041ed3
:1033480000d097e7069b08330693019900290bd014
:103358000698009d2a0005f0e3f9041e00d089e7cd
:10336800069bac46634406934346002b10d0069a4e
:103378004b4600995b1a9b18069306983a004146fb
:1033880005f0cef9041e00d074e7069bfb180693df
:10339800059b9b000493049b022213430493049906
:1033a800264806f0e6ff041e00d063e706f082f820
:1033b80004001c4806f046fd61e70023059359e721
:1033c80006f078f8040006f095ff032802d80324d5
:1033d800644251e706f088ff1949220004f0f2fc24
:1033e8000324644248e706f085ff002800d143e73c
:1033f80006f07aff134904f0e5fc3de706f07aff92
:10340800002802d10124644236e706f06dff07abbd
:103418005a880d49044b04f0d5fc012464422be77b
:10342800ffff0000e43000203c0600008c10000084
:10343800781000002c090000000415006c10000032
:0c34480040090000600900008409000039
:020000040000fa
:10345400f0b5de4657464e464546e0b589b081464e
:103464008a46140004928248824906f0cffa012861
:1034740000d0f8e0012c00d1e4e009239b460027aa
:10348400a5e006f039ff002800d196e006f02efff3
:1034940079494a4604f098fc8fe006f02dff002895
:1034a40000d18ae006f022ff74494a4604f08cfcfd
:1034b40083e03b004246a2427b4102330b2004aa34
:1034c400944660441022524213430370012105f0d4
:1034d400d1f800281ed053469819290005f0caf8df
:1034e40000282bd0664b1b78002b31d0ae1936b296
:1034f400641ba4b2002c3bd0251c444501d96b4667
:10350400dd89adb2002ed4d1a0459b410122934365
:103514000333d3e706f0f0fe002809d106f0ecfef1
:1035240000284ad006f0e2fe564904f04dfc44e07f
:1035340006f0dcfe544904f047fcefe706f0dcfe3d
:103544000028ebd006f0d2fe504904f03dfce5e73c
:10355400022107a805f08ef80028c7d106f0ccfe9a
:103564000028dbd006f0c2fe494904f02dfcd5e763
:10357400434b1c78631e9c410234210007a804f0cd
:10358400f5fd002815d01023e31804aa94466344db
:10359400053b1b78002b3cd11023e41804ab9c465c
:1035a4006444063c2378c32b33d1314806f058fcdd
:1035b40051e006f0a1fe002825d106f09dfe00286a
:1035c40036d106f05ff95b46013b9b463dd300973d
:1035d400049b3a004946c72001f0bafc002800d0f9
:1035e4004fe73900c72002f0f9fa0590002800d00f
:1035f40053e707ab1f80049c3e0080239b01984641
:103604006a46d38178e706f071fe224904f0dcfbb8
:10361400d3e706f071fe0028cfd006f067fe07acb2
:10362400637822781c49a478009404f0cdfbc4e7a5
:1036340006f05cfe1949049b00934b465a4604f07d
:10364400c3fbbee70223049317e7094806f008fc0e
:1036540006235b420593059809b0f0bcbb46b2460d
:10366400a946a046f0bd06235b420593f3e7c04696
:10367400e0300020ffff00005c070000940700001a
:103684008631002094080000d807000018080000c4
:1036940054080000c4080000f008000040070000bf
:020000040000fa
:1036a400f0b50f00060015000022634b87b0921995
:1036b4007b41009201936149019b8b4200d9b8e0a0
:1036c40004d15f4b009a9a4200d9b2e001215d48cf
:1036d40049428019794100235b4a05f0a1fa0600aa
:1036e4000f00131e029208da574a94466344029369
:1036f40001225242d317b6185f410320002107224a
:1037040080197941002305f08bfa131e049201da23
:10371400073304930023300039004c4a05f080fa43
:10372400141e039004da494be4180300013b03938d
:103734002000474903f03efc0600042800d1013e66
:10374400444f454977433f19380003f033fc0400e4
:10375400192800d1013c6e21404bff316343df192e
:10376400380003f027fc042800d101383c4b4343c4
:10377400db1900930023984204d10133002c01d1ba
:10378400734273419922009952003339ff390591ec
:103794000099914203da0a003b32d318059364235b
:1037a400c8227343a4002018c018039b0600c7173f
:1037b400d91703980023520005f0befa002480199b
:1037c4007941284b009ae35c93422ddd092c04ddfa
:1037d40001220023801859410c3c0027224e361840
:1037e4004f41002f25d1e121009b64300133eb6070
:1037f400049b0234ab61059b6861eb61090102988b
:103804002c6103f0d7fb3c21a860029803f0d2fba3
:103814003c2103f019fc029869603c2103f014fc7c
:103824003800296007b0f0bd009a0134d31a009320
:10383400c7e701204042f5e78042f100ff84e2013e
:10384400007b1dfe80a243c780510100b13a0200f3
:10385400ac8e00005471ffffb50500004bfaffff6a
:0c38640093feffff44a3000064000080fe
:020000040000fa
:10387000f0b40125ed070f005f405ad48b4200d110
:10388000824205d950404240504059404b40594037
:103890004e18760ddf187f0d3bd0741c640529d0bf
:1038a000f41b352c26d80e0ddb022b43db0ac90294
:1038b0002943c9121700202c1ed2e741e24057408d
:1038c000e3415a40a340e3405a4000248018594144
:1038d0000ad3b21c520521d0c207012f6241170042
:1038e0004008cb0718434908013636054208af4166
:1038f00060417141f0bc7047203c06d01f00e74199
:10390000e3405f400024012a6741c0186141ebd3c6
:10391000dfe7002eeed129400020ebe7013631052c
:103920000020e7e7e742e5d10020c143090dc904c3
:10393000e0e76b400e00871a9e4104d26e40c01b28
:10394000b141d21973414e18df18ac0ae642e9d2f0
:10395000760d7f0d31d0f41b362ccbd8b4460e0d2e
:10396000db022b43db0ac9022943c90a012c32d8e6
:1039700004d1d4075208df073a435b08ef0a6442d8
:10398000904199411ed0002239424dd12419404125
:1039900049410124394204d10134001849413942d6
:1039a000fad06246a24204d9361b013e3605891977
:1039b000a0e7f10ac90700209ce736429ad100200f
:1039c000002197e70200224394d0b842ded20100e2
:1039d00020002024e3d1202c13dd203ce2411700fd
:1039e000a240e2405740e3415a40a340e3405a40de
:1039f000012fbf410137174300227c42984191417a
:103a00000ce01700e741e2405740e3415a40a34031
:103a1000e3405a407c429041994100220f0303d277
:103a2000013e241940414941013e36054708ac4159
:083a300050417141f0bc7047e8
:020000040000fa
:103a3800f0b583b000900f0001939400200003f0cc
:103a4800fffb061e00d1b5e0542003f0f9fb051e6c
:103a580000d1a9e05422002106f042fb2e63220087
:103a6800a521300006f03cfb043c2e6b36190722da
:103a78009643002f0cd000242a0034323b5d1355a6
:103a8800002b02d00134102cf8d143230022ea5431
:103a9800089f042f00d90427ef626f642c1d2000b3
:103aa80006f09bfc2800183006f097fc2d610523d2
:103ab800db1bab616d62019a0099300006f040f89b
:103ac8002860099b002b00d01d6006f00ffa3b4ac6
:103ad8001368013313603a4b1b68002b0cd0394b29
:103ae8001b68002b0dd1364b1b68da6aeb6a9a42c9
:103af80007d8334b1d6004e0314b1d601368012b60
:103b080033d0314a136801331360e96a2f4b1b68bd
:103b1800994201d92d4b19602d4a8b005b189b00e7
:103b2800d3185b68ab609968e9604c609c60e86a90
:103b3800830019188900891869611918890089583a
:103b480001311b189b00995006f0a2fa1d4b1b6807
:103b58000120002b30d01a4b1b68da6aeb6a9a42b4
:103b68002ad206f0b7f9012026e0194e370064374b
:103b7800300006f01bfa1436be42f9d1154f380052
:103b880006f014fa144e300006f010fa134806f046
:103b98000dfa134806f00afa124806f007fa124b13
:103ba8001f60124b1e60ace7300004f062f8012081
:103bb800404201e00120404203b0f0bd5c310020ea
:103bc8006c31002050310020403100205431002059
:103bd800602e002058300020443000203030002073
:103be8001c3000200830002068310020643100209b
:020000040000fa
:103bf800f0b5de4657464e464546e0b583b05b4bca
:103c08001b68002b00d0a3e0594b1c68621c009273
:103c18001a60002a11d0574b1b6800229346009a5d
:103c280093421dd8544b1b681b68002b12d0524d71
:103c3800524fbc465249019562e04f4a1168514bb8
:103c4800186810601960504a13680133136005f052
:103c580001fee0e700239b46464b012252421a60d0
:103c68004a4b1b68d96a464a8b005b189b009b58d5
:103c7800012b01d901239b46454b1b68002b6dd0b6
:103c880001239b466ae03b4b1a60e9e7dc68546015
:103c980047e000229a622268013a2260dc6a3a68a8
:103ca800944201d962461460a200121992008a183f
:103cb80052689a609468dc6060609060d86a82009c
:103cc8001418a400a046884444465c611418a40053
:103cd8006458a0460124a146c844121892004046e0
:103ce80050502a4a12689046da6a4346db6a9a427a
:103cf80001d901239b46019b1b681b68002babd095
:103d08002b68db68db685a6800989042bbd35a6915
:103d18009c68d868a0609c684460181d54688442f8
:103d2800b4d000245c611468013c14609c6a002cc7
:103d3800b4d0da6992461a6a5646b260de695660ad
:103d48001a00183266689642a3d11a6a6260a0e720
:103d5800104a13680133136000239b46584603b08a
:103d6800f0bcbb46b246a946a046f0bd343100209f
:103d7800583100203c3100206831002054310020a7
:103d8800602e002064310020443100206c31002076
:083d9800483100204c310020ed
:020000040000fa
:103da00030b5a3b00400150003006a3bd9b20e2958
:103db00000d9a4e08b00584ad3589f4600230193b2
:103dc000029303930493102201a9280002f0d0fb70
:103dd000002800d097e0514b1b68002b00d192e0e7
:103de00001a898478fe000230193042201a928002d
:103df00002f0befb002800d085e0494b1b68002b79
:103e000000d180e001aa5178107898477be0002328
:103e1000019302930133082201a9280002f0a8fbb4
:103e2000002870d101ab1879002803d13d4b01aabd
:103e300052791a703c4b1b68002b64d0019a3949a7
:103e400009789847384b00221a605ce00023019300
:103e500002930133082201a9280002f089fb0028ff
:103e600051d101ab1b79002b0dd02f4b1b68002bc0
:103e700049d0019a2b49097801a8007998472a4b23
:103e800000221a603fe0274b01aa52791a7006f00f
:103e900035fa0128e9d906f02bfa224b1a78234982
:103ea00003f094ffe1e78422002101a806f01cf949
:103eb0000123842201a9280002f05afb002822d104
:103ec0001b4b1b68002b1ed001a90a88887802a909
:103ed000984718e0002301930133042201a9280028
:103ee00002f046fb00280ed1124b1b68002b0ad0b3
:103ef00001aa107898470f4b00221a6003e006f0e1
:103f0000fdf9002801d123b030bd06f0f1f90a49ce
:103f1000220003f05bfff6e7b8900000fc300020c1
:103f2000003100208f310020f8300020a80c000064
:0c3f3000f4300020f0300020cc0c000029
:020000040000fa
:103f3c0008d1002806d1f54204d801d3002a01d1ba
:103f4c006d0d09d10020c143090dc904f0bdf9d193
:103f5c001242f7d1640df5d00020c1434905490840
:103f6c00a6e000206146f0bdf0b50127ff070e006a
:103f7c005e403e40b446be0a4c18dd18f442d7d21f
:103f8c00f542e4d2640decd06d0dead06419c9028f
:103f9c003943460dc0023143db023b43db0a10b40c
:103fac008e4685b297b26f43140c6c433e0ca41929
:103fbc00260c2404bfb227439cb26c43a419190ce1
:103fcc006943250ca4b249190d04090c6419000ca1
:103fdc0095b245433e0c76193743bfb2360c150cdf
:103fec004543ad19a6b2240cad192e0437432e0c43
:103ffc0036199db24543ad19acb22e0c89191d0c66
:10400c0045436d182e04290c3443704680b295b28a
:10401c0045433e0c76193743bfb2360c150c45435d
:10402c00ad19a6b2ad19240c2e0437432e0c36193b
:10403c009db24543ad19acb22e0c89191d0c4543ec
:10404c006d182e043443290c75462d0c90b2684320
:10405c003e0c80190604bfb23e43070ca0b23f18b9
:10406c00120c6a43d019020c80b2240ca4189ab218
:10407c006a43121914042043120c89181b0c6b434d
:10408c00c91810bc01273d05294203d1b61940417e
:10409c004941013cff077d0d013d641b0bdb6d00ad
:1040ac00ac4209da240500254208be416841614151
:0a40bc0066463143f0bd54e74ee7bd
:020000040000fa
:0240c600704741
:020000040000fa
:1040c8004c2a0000b62b000026290000b62b000061
:1040d800b62b00008c2a0000b62b0000b62b00007f
:1040e800b62b0000b62b0000c0290000b62b00003c
:1040f800b62b0000fe290000b62b00002c2a000079
:10410800b62b0000b62b0000b62b0000b62b000023
:10411800b62b0000b62b0000b62b000006290000c5
:10412800b62b0000322b0000b62b0000b62b000087
:10413800f82a0000b62b0000b62b0000b62b0000b2
:10414800b62b0000b62b0000b62b0000d42a0000c6
:10415800b62b0000b62b0000b02a0000b62b0000da
:10416800e6280000b62b0000b62b000086290000c8
:10417800b62b0000b62b000046290000b62b000025
:10418800b0290000b62b0000b62b0000b62b0000ab
:10419800b62b0000b62b0000b62b0000b62b000093
:1041a800b62b000066290000b62b0000b62b0000d5
:1041b800b62b0000b62b0000b62b0000b62b000073
:1041c800b62b0000b62b0000b62b0000b62b000063
:1041d800b62b0000b62b0000b62b0000b62b000053
:1041e800b62b0000b62b0000b62b0000b62b000043
:1041f800b62b0000b62b0000b62b0000b62b000033
:10420800b62b0000b62b0000b62b0000b62b000022
:10421800b62b0000b62b0000b62b0000b62b000012
:10422800b62b0000b62b0000b62b0000b62b000002
:10423800b62b0000b62b0000b62b0000b62b0000f2
:08424800b62b00006c2a0000f7
:020000040000fa
:1042500070b58eb00f236b4401221a70002800d174
:1042600093e04b4b02681a604a4b82681a604a4bd3
:10427000c2681a60494b028a1a80837c002b03d0e3
:104280000f236b4404221a70454b00221a700f2032
:10429000684403f0f7ff041e02d020000eb070bd8a
:1042a000404b02221a70002004f0f4ff041e06d0d6
:1042b0003c4b00221a70002003f018fdede73a494c
:1042c000012003f067fc04a802f0eaf8040006f0fd
:1042d00015f8012820d806f011f8012822d806f098
:1042e0000df801282bd806f009f8012831d806f07e
:1042f00005f8012838d806f001f801283dd8230038
:104300000d33cad105f0faff0028c6d005f0f0ff42
:10431000264903f05bfdc0e705f0eaff244903f0fe
:1043200055fdd8e705f0e4ff04ad6b792a79214902
:104330002e8c0196ad79009503f048fdcfe705f08e
:10434000d7ff1d4926236b441a226a4403f03efd21
:10435000c9e705f0cdff04ad2b7aea7917496d7aec
:10436000009503f033fdc2e705f0c2ff14490723af
:104370000093132203f02afdbde705f0b9ff114bae
:10438000114a124903f022fdb9e70c24644284e784
:104390000c3100200831002004310020823100203f
:1043a0008731002088310020cd280000480e000011
:1043b000740d0000900d0000b40d0000d40d00003d
:1043c000f80d0000100e00001c0e0000280e00006a
:020000040000fa
:1043d00070b50500594c247fe0b2002c00d0a7e056
:1043e00000294ad0002d48d0554c66680724344037
:1043f000012c5ed051480560426000244461846114
:1044000004614e488160002a58d04c4ad3604b4a20
:10441000012111774a4a127e520705d5484a0420e5
:10442000916a117e0142fbd1454a518b0420014320
:104430005183117e7c300143117640498a68c968f6
:10444000914203d93d48c168891a01613c494968d4
:10445000490743d139498969914233d2374a1168b2
:10446000087837498862916901319161002b5ad0ef
:10447000334b04229a7501205be0002b59d0002aaf
:1044800057d02f4c666807243440012c0cd02b48a1
:10449000056042600024446184610461002db0d154
:1044a000264900208860aee7002943d1dc07eed51d
:1044b0003fe0cc073dd4002be9d0f7e71f4a0021ad
:1044c000d160a4e71d4a1269002acfd01c4aff21ff
:1044d00091621a490a69013a0a61c7e7174a916865
:1044e00049089160116949081161d1684908d16092
:1044f000916892698a420ad210490a681288d205e4
:10450000d20d0f4882628a6901328a61aee70b4a96
:104510001269002aaad00a4a0a49916207490a691f
:10452000013a0a61a2e7064b01229a75012000e0d8
:10453000002070bdcc07b9d5fbe7c046982f0020fe
:0845400000180042ff01000019
:020000040000fa
:10454800f8b5de4657464e464546e0b505f0cefc82
:104558004a4b1a68013a1a601b680024002b7fd165
:10456800474b1b68002b7bd0464b1b68002b60d049
:10457800444e0020444dac46444b9a46b34609e0ad
:10458800196a516013e0d96851601ee05b461b68e8
:10459800002b4cd0f368db689a6adf69196ab96046
:1045a800df694f601900183157688f42e8d0986268
:1045b8001168013911605a699f68d968b9609f68a4
:1045c8004f601f1d5168b942ddd05861116801392b
:1045d8001160d96a2a68914201d9624611608a003d
:1045e800521892002a498a1852689a609468dc60c6
:1045f80067609760df6aba00d419a400a0468844af
:1046080044465c61d419a4006458a0460124a1461c
:10461800c844d2199200444654501e4a1168da6ab6
:10462800cb6a9a42b2d3012352461360aee705f033
:1046380011f9194b1c68002c0ed0144e012502e00c
:10464800013c002c05d0fff7d3fa0028f8d03560dc
:10465800f6e7114b00221a600c4b1c68002c08d19d
:1046680005f016fd2000f0bcbb46b246a946a046a0
:10467800f8bd05f02ffc0124f2e7c04634310020d4
:104688005c310020303000205431002048310020b7
:0c469800602e00206c3100204c3100200e
:020000040000fa
:1046a40070b5504b586a504b9b7d002b54d04e49eb
:1046b4004c68072214404b4b5a699d699e680b7ed7
:1046c4005b0757d5896a474bdb68934252d9002c64
:1046d40043d1444b5b6899540132434b1b7edb0747
:1046e40016d5414b012119753e4b9b68ab4256d9f7
:1046f4003c4b1b68595d3c4b99620135394b1b6936
:10470400002b01d1b54262d0364bdb68934262d0b4
:10471400344b5a619d61344b1b7e9b0715d5334b3b
:104724001b78002b18d02f4bdb68934211d12d4bf3
:1047340000221a772c4907240c752c490a701b6a2d
:10474400002b09d0274b1b6a9847284b1b78002b5a
:1047540002d0254b02229a7570bd224b5b6854002f
:10476400e1520132204b1b7edb07d1d51e4b0121c8
:10477400197508e01c4b1b7edb07c9d51a4b0121b8
:104784001975002cb0d0174b9b68ab4213d9154b4d
:104794001b686900c95a144b99620135aee7114b85
:1047a4001b69002baad0104bff2199620d490b699c
:1047b400013b0b61a2e70b4b1b69002b9ed00a4bfc
:1047c4000b49996207490b69013b0b6196e7074b5b
:1047d400012119709ce7044b012199750331197566
:1047e40096e7c046982f0020001800428b31002025
:0447f400ffff0000c3
:020000040000fa
:1047f800f0b5d64600b586b00300049105924c4a40
:104808005468002c0bd02600d43600280bd0fc228c
:10481800a458002c03d04648fa3a3100a04706b005
:1048280080bcba46f0bd4349300005f0dbf80128ea
:10483800f5d1336a002b03d0b369059a934272d23b
:10484800300005f0fffaeae7386a049905f03efc03
:104858007b6a049a94469c4462460492ed1a0ce0e2
:104868003b6a002b25d07b6a002b22d0002d3fd03d
:104878007a6aaa422fd2002ae6d100233b627b62e1
:104888002b4b5a68fc23d358002b12d0300005f06c
:10489800d9fa27484268fc23d3589a4600230422b1
:1048a8003100d0472349300005f09cf80128d7d0c3
:1048b800b5e7d4340023a361300005f0c3fa1c4bdc
:1048c8005a68fc23d458002ca9d019480023022286
:1048d8003100a047a3e72700d437386a2a00049993
:1048e80005f0f4fb3b6a5b193b627b6a5b1b7b62ee
:1048f800d434a36905995b1aa36162698c46624442
:104908006261002bd8d0300005f09cfa0848426854
:10491800fc23d35802930023019300930022310013
:1049280000f052fd7be7059d2700d4379ee7c0467f
:084938007c300020ffff0000ad
:020000040000fa
:10494000f0b5c64600b584b0040001910023984636
:1049500000274425002645e0013ba3632368002b84
:104960000bd02369002b0cd105f096fb0123984650
:10497000404604b080bcb846f0bd05f0fbf9a0602d
:10498000efe72000103001f0d3fb0028ecd005f059
:10499000a5fae9e705f080fb00239846e8e702a8be
:1049a00005f0b4fa28e0665530e04523e65432e0dd
:1049b00005f0a0faa06802f0f9f9804605f06cfb5a
:1049c00039e0200002f0c0fefff7befd09e0200044
:1049d00002f0bafefff7b8fd200005f067fb0028e3
:1049e00038d1012705f086faa36b002bb4d1019bc7
:1049f000002bcfd0002fd2d005f04efb05f0fefbf0
:104a000005f078fa635d5bb20133ccd04523e35cfb
:104a10005bb20133c9d005f03ffb01a902a803f046
:104a200073fd0028d3d1200005f040fb0028c8d03a
:104a30002368002bbcd001992000243005f08cf9ac
:104a4000200002f081fefff77ffd0028c9d105f0ac
:104a500045fac6e74346002b00d189e705f04afa3c
:104a6000616a002903d0236b1b680521c91aa0685d
:0e4a700002f01cfd05f010fb0023984678e7cd
:020000040000fa
:024a7e0070477f
:020000040000fa
:104a800030b59db01400062819d0072827d001287a
:104a900000d088e0002370226946200001f068fd04
:104aa000002800d07be0414b1b68002b00d17ae04e
:104ab0003f4970340c6069460130984773e0002329
:104ac00004226946200001f053fd002867d1374bce
:104ad0001b68002b67d069460630984763e00023c7
:104ae00008226946200001f043fd041e4ed16b46aa
:104af0009b886a46d288694648880978002b15d178
:104b00002c4b01251d70121a53425a41d3b202296f
:104b100024d005d8002924d1264a0021117020e094
:104b2000032929d1234a032111701ae09b181b1a6b
:104b30005a425341dbb2022910d006d8002910d1c5
:104b40001c4a1278012a0cd1e6e7032910d1194a30
:104b50001278023afd210a4203d0e3e7154a022106
:104b60001170002b1fd0114b1b68002b12d11ae0c3
:104b7000104a1278022af4d00e4a04211170f0e78c
:104b800005f0b6fb0c4903f021f90ce0074b1b685c
:104b9000002b04d0074907209847002c03d005f0cc
:104ba000adfb0028ecd11db030bdc046dc3000208c
:0c4bb000d83000208e3100207802000078
:020000040000fa
:104bbc00f0b5de4657464e464546e0b583b08346d3
:104bcc000f009246002399462ae005f091fb00283d
:104bdc0007d1013803b0f0bcbb46b246a946a0468b
:104bec00f0bd05f07ffb3c4903f0eaf801204042a0
:104bfc00f0e7002c2edd58464844414603f0b2fa4b
:104c0c00002831d0354b1b78524613434cd04b46c1
:104c1c0043441bb299464346ff1abfb2002f58d0eb
:104c2c003b1c80229201974200d9131c9bb29846e0
:104c3c000a246b46dd1c0f260121280003f092fa92
:104c4c000028c2d02b78b343f02bd2d0013c24b235
:104c5c00631cf1d15346002b0dd0584648444146b5
:104c6c0003f080fa0028d2d105f042fb002813d1c2
:104c7c0001204042aee705f03bfb002802d10120a9
:104c8c004042a7e705f02efb6b46da78144903f097
:104c9c0097f8012040429de705f024fb114903f0f1
:104cac008ff80120404295e7022101a803f05afa3f
:104cbc000028acd105f01cfb002802d10120404299
:104ccc0088e705f00ffb084903f07af80120404211
:104cdc0080e700207ee7c0465803000086310020a4
:0c4cec0094030000cc030000040400004e
:020000040000fa
:104cf800f0b58fb00c934b680d0008938b681600c5
:104d08000993cb680f680393089b0b90002b43db38
:104d180002239f4310233a001a400d92099a0492e5
:104d28001f4206d033687268134302d0099b023bc6
:104d3800049308233b400a935a1e9341049a2c6912
:104d4800d31a04933368039a06937368013c079354
:104d580000231355049b0593012c20dc0d9b002b8d
:104d680050d10a9b002b03d02023039a013c1355f2
:104d78002a69039b013a19190b98099b121b009782
:104d880002f052fe0b9b5b68db0503d56b6898420b
:104d980000da18000fb0f0bd01230893bae7069bac
:104da800079a13430ad1049a089b9b1a059a9b18e1
:104db800002b03dc002ad1ddbb07cfd50f23069ad1
:104dc800013c134018005730092b01dc3033180020
:104dd8000c9b413b192b06d820230343613b192b1d
:104de80001d805f05cfa039b1855059b013b059318
:104df800079b1a07069b1b091a43079b06921b0968
:104e08000793a9e70cce1343abd0039b0c9a1b194d
:0e4e1800013b1a703023039a023c1355a1e7a8
:020000040000fa
:104e2600f0b50d001900002387b0040005931000ab
:104e36009d4207da2b002200002554429d410123a2
:104e46005b420593002907da059b0200db430593c5
:104e56000b0000215042994126002f00029000913c
:104e6600a94200d96fe002d1a04200d96be00099b7
:104e7600029805f090f829000490200005f08bf8c0
:104e8600049b00991b1a1a000298049305f077f800
:104e960000900191a94250d801d1a0424dd8009a64
:104ea600019ba41a9d4101200021049a26002f008f
:104eb60005f065f8049b002b35d0019b009adb07b3
:104ec60052081a43019b00255b080393049b0124a7
:104ed6009c460292039bbb4232d802d1029bb3424c
:104ee6002ed832003b00029e039f921bbb419218b4
:104ef6005b4112196b4116001f0001235b429c4463
:104f06006346002be6d180197941049a04000d000e
:104f16003000390005f027f8049a05f030f8241a15
:104f26008d4120002900059b002b04d003000c00b6
:104f360000215842a14107b0f0bd00200021b9e789
:0c4f4600b6197f41d9e700200021ece7fc
:020000040000fa
:024f5200fee778
:020000040000fa
:104f540070b584b008ac257801ac20703d30c4b283
:104f64000c2c00d97ce0a0003f4c2058874601abb4
:104f74000a0c5a700a0a9a70d97005213b4b1b78a7
:104f8400002b5bd14e1e01aa6b4603335c187f23b2
:104f9400374d5b0010784340eb5c0132a242f8d1fc
:104fa4005b0001aa935501a803f064fb03000020f1
:104fb400002b46d004b070bd0b0adbb2002d01d02b
:104fc4008022134301aa537091700023d3700521ea
:104fd400d4e701abff225a709a70da700521cde74d
:104fe40001aa080c5070080a9070d170190c117144
:104ff400190a517193710821c0e7080ac0b2002d43
:1050040001d08023184301ab58709970110ed970e8
:10501400110c1971110a59719a710821aee701ab8b
:10502400080c5870080a9870d970110e1971110c77
:105034005971110a9971da7109219fe70139c9b2cd
:10504400b1e705f059f9002802d101204042b1e747
:1050540005f04cf9074902f0b7fe01204042a9e7e8
:1050640001204042a6e7c046549400008631002047
:0850740000570000c402000017
:020000040000fa
:10507c00f8b50700394c02e0012005f068f9200072
:10508c0005f06df90028f7da354805f068f9c00726
:10509c000dd4344c344d354e012005f058f9280010
:1050ac0005f05df9013c002c22d0b042f4d1022f66
:1050bc002dd0032f36d0042f3ed02d492d4805f08e
:1050cc0056f9002401f09efc03051b0de82292000a
:1050dc00934237d30220204304f0a4fa05f008f9d8
:1050ec00012833d82449204805f041f90020f8bda7
:1050fc0005f0fef8032802d805204042f7e705f03a
:10510c00f1f81e4902f05cfe05204042efe71c4915
:10511c001c4805f02cf980214903164805f027f9a5
:10512c000024cfe71649174805f021f90021114852
:10513c0005f01df90024c5e70d490e4805f017f9d7
:10514c008024bfe7200004f06dfac7e705f0caf829
:10515c000d49074a02f034fec4e7c04614100000a3
:10516c00bc070200012000000c000c009ed0ad100a
:10517c00771330138c100000612f52ef18010000d0
:0c518c007dd51c3cac0702004001000077
:020000040000fa
:10519800f0b5ce46474680b585b081460d003d48fe
:1051a8003d4904f031fc012800d06fe00023ff22c4
:1051b80049468a425b41dfb2002b04d0c423dbb2ec
:1051c800984609260de0ca23f9e705f093f8002868
:1051d80032d105f08ff800284ad104f051fb013e86
:1051e8004ed300970423002249464046fff7aefeff
:1051f8000028ead13900404600f0eefc002822d110
:105208003a00042103a8fff7d5fc041e26d103aaff
:1052180053781b02917809040b4311780b43d27819
:10522800120613432b601b4804f018fe200005b03b
:10523800c0bcb946b046f0bd05f056f817494a4615
:1052480002f0c0fdc5e705f055f80028c1d005f00b
:105258004bf813494a4602f0b5fdbae705f04af89b
:105268000028b6d005f040f80e4902f0abfdb0e7d3
:1052780005f03af80c494b46320002f0a3fdace7c2
:10528800044804f0ebfd06246442cfe70624644298
:10529800cce7c046e0300020ffff000040040000db
:0c52a80074040000b0040000d8040000f2
:020000040000fa
:1052b40030b583b0002300933d4a137069463d48de
:1052c400fff768ff00282bd1394b1b78002b0dd139
:1052d40000997c3399432c3b19430091354800f0e5
:1052e40045fe00283ed1324b01221a70802001a9cc
:1052f4004001fff74fff041e43d104f0fdff0328d4
:105304004ed82c4d280004f07ffe702301009943f1
:10531400203b1943280000f029fe200003b030bdd3
:10532400234b01221a7004f0e7ff00280cd16946d0
:105334002048fff72fff0028c6d004f0ddff002827
:1053440008d106246442e8e704f0d0ff1a4902f0c9
:105354003bfdece704f0caff184902f035fd0624d2
:105364006442dae704f0c8ff002802d1062464424c
:10537400d3e704f0bbff124902f026fd0624644281
:10538400cbe704f0b9ff002802d106246442c4e745
:1053940004f0acff0b4902f017fd06246442bce79d
:1053a40004f0a4ff019a084902f00efda9e7c046e3
:1053b4008631002024e8000088050000e005000094
:0c53c400140600004c06000078060000f3
:020000040000fa
:1053d000f0b583b004000f0015001e00431e033318
:1053e00000d976e04368002b00d174e0002900d199
:1053f00073e083780120002b01d103b0f0bd01914f
:105400003849380004f0f2fa012868d163681a00bc
:10541000d432019991422fd13a79ff2a2cd0fc2223
:1054200000219950002d05d03d627e62089b7b6172
:10543000099bbb61fb69002b02d07a69934220d99a
:1054400063681b791b072bd5012000f0adfc0028f9
:105450001cd13879099b089a290000f033fc04001c
:10546000002000f0a1fc002815d1002c27d0380026
:1054700004f0ecfc0820c0e7380004f0e7fc022050
:10548000bbe7380004f0e2fc0220b6e7380004f085
:10549000ddfc0820b1e7380004f0d8fc0820ace7b8
:1054a000fb68ba69802a00d980227969387902f0cc
:1054b00017ff002808d16268fc230a99d1503800f0
:1054c00004f0c4fc002098e7380004f0bffc08207a
:1054d00093e7022091e702208fe702208de70d205d
:0854e0008be7c046ffff00004e
:020000040000fa
:1054e800f0b5ce46474680b587b081460f00039198
:1054f800904605ab00221a803848394904f084faee
:10550800012867d14346012b55d0092600250be019
:1055180004f0f0fe002828d104f0ecfe002840d169
:1055280004f0aef9013e4ad3009543462a004946a5
:10553800c820fff70bfd0028ead12900c82000f099
:105548004bfb002818d12a0041463800fff732fbf0
:10555800041e1cd1214804f081fc05ab9f4233d1c5
:1055680005ab1b78039a13702ee004f0bdfe1d49ad
:105578004a4602f027fccfe704f0bcfe0028cbd057
:1055880004f0b2fe18494a4602f01cfcc4e704f0d5
:10559800b1fe0028c0d004f0a7fe144902f012fca6
:1055a800bae704f0a1fe1249434600934b46320085
:1055b80002f008fcb4e705af02239846a5e70748c0
:1055c80004f04cfc06246442200007b0c0bcb94675
:1055d800b046f0bd06246442f6e7c046e03000203d
:1055e800ffff000098060000d0060000100700002a
:0455f8004007000068
:020000040000fa
:1055fc00f0b5de4657464e464546e0b583b00190c1
:10560c008c4600296dd005000123374f374a91464f
:10561c009346160092460de040003549009c0c5410
:10562c00013000240c5451468a605a1c02356345e3
:10563c0047d213005a1e9046796807220a40012a65
:10564c0017d0b068f468421c31698a4289410a401b
:10565c00944237d001990139cc5c00947968884622
:10566c000721444621400129d6d02149009c0c54e5
:10567c00d9e74a469068d468421c494609698a426f
:10568c0089410a4094421dd0697809022c78214343
:10569c0000917c68a046072441460c40012c06d0a2
:1056ac0069460978124c215459468a60bde740007e
:1056bc00694609780e4c215401300099090a21548d
:1056cc00f2e7984604f0eefa002802d0064b0122cd
:1056dc009a75404603b0f0bcbb46b246a946a046fc
:1056ec00f0bd8846eee7c046001c0042142f002097
:0456fc000028002062
:020000040000fa
:105700000009121b242d363f48415a536c657e77a1
:1057100019100b023d342f265158434a757c676e91
:10572000323b2029161f040d7a7368615e574c4581
:105730002b2239300f061d14636a7178474e555c71
:10574000646d767f4049525b2c253e3708011a1361
:105750007d746f6659504b42353c272e1118030a51
:10576000565f444d727b60691e170c053a33282141
:105770004f465d546b627970070e151c232a313831
:105780004148535a656c777e09001b122d243f3621
:1057900058514a437c756e671019020b343d262f11
:1057a000737a6168575e454c3b3229201f160d0401
:1057b0006a6378714e475c55222b3039060f141df1
:1057c000252c373e0108131a6d647f7649405b52e1
:1057d0003c352e2718110a03747d666f5059424bd1
:1057e000171e050c333a21285f564d447b726960c1
:1057f0000e071c152a233831464f545d626b7079b1
:020000040000fa
:10580000f0b5ce4600b584b00400009101921e00b0
:105810000025442730e032000099200002f0f4f91e
:10582000636a002b08d100280fd104f035fc012059
:1058300004b080bcb946f0bd2000243000f078fcf4
:105840000028f2d004f04afbefe704f047fbece756
:1058500004f022fc0020ebe702a804f057fb18e05c
:105860000023e3551fe00022e25421e0200001f074
:105870006bfffef769fe012504f03cfba26be36bb6
:105880009a42c8d3022ec6d0019b002be0d0002d37
:10589000e2d004f001fc04f0b1fc04f02bfbe15d6c
:1058a00049b20131dcd04523e05c40b20130dad0ae
:1058b00004f0f2fb01a902a802f026fe002817d18d
:1058c00004f018fba36b9946e56b04f0e5fba945d2
:1058d000ccd101992000103004f03efa200001f0f4
:1058e00033fffef731fe0028c5d104f0f7fac2e716
:0e58f000200001f029fffef727fe002098e7b8
:020000040000fa
:1058fe00f0b5c64600b584b00400009101920027b1
:10590e0044260023984638e00099200004f0aff8b2
:10591e006b1ea3632369002b06d104f0b6fb012096
:10592e0004b080bcb846f0bd2000103000f0f9fb8a
:10593e000028f2d004f0cbfaefe704f0a6fb00202b
:10594e00eee702a804f0dbfa21e04346a35528e077
:10595e0045234246e25429e0200001f0eefefef718
:10596e00ecfd09e0200001f0e8fefef7e6fd200068
:10597e0004f095fb002835d1012704f0b4faa56b8d
:10598e00002dc1d1019b002bd7d0002fd9d004f010
