:020000040000fa
:10000000f07f002009980000df62000023820000da
:1000100000000000000000000000000000000000e0
:10002000000000000000000000000000d386000077
:10003000000000000000000031990000f9a9000054
:100040003b5800003b5800003b5800003b58000064
:10005000a58c00003b5800003b5800003b580000b6
:100060003b5800003b5800003b5800003b58000044
:100070003b580000f94c0000159300003b5800006d
:100080003b5800003b58000009a800003b58000006
:100090003b58000000000000000000003b5800003a
:1000a0003b5800003b5800003b5800003b58000004
:020000040000fa
:1000b000f8b5c046f8bc08bc9e467047599700008a
:1000c000f8b5c046f8bc08bc9e46704731970000a2
:020000040000fa
:1000d0003e56000001000000206a00000100000000
:020000040000fa
:1000e000427573206572726f72202835292e25643f
:1000f00020256c780d0a0000000000004661696c44
:10010000656420746f2077616b652075702074685a
:100110006520636869700d0a000000006661696c03
:10012000656420746f206c6f6164206669726d77fe
:100130006172652066726f6d20666c6173682e0d4a
:100140000a000000447269766572566572496e66ef
:100150006f3a2030782530386c780d0a00000000a6
:100160006661696c656420746f2064652d696e69d1
:100170007469616c697a650d0a0000005b6e6d69d7
:100180002073746172745d3a206661696c20696ed7
:100190006974206275730d0a00000000436869707d
:1001a00020494420256c780d0a0000005b6e6d69c3
:1001b0002073746172745d3a206661696c20696ea7
:1001c0006974207370690d0a000000006661696c33
:1001d000656420746f20656e61626c6520696e7461
:1001e000657272757074732e2e0d0a005b6e6d69e8
:1001f0002073746f705d3a20636869705f6465692d
:100200006e6974206661696c0d0a00005b6e6d6931
:100210002073746f705d3a2053504920666c61738f
:10022000682064697361626c65206661696c0d0a9f
:10023000000000005b6e6d692073746f705d3a2082
:100240006661696c20696e6974206275730d0a00bd
:100250004572726f7220726563656976696e672098
:1002600053534c2066726f6d207468652048494670
:100270000d0a00006869665f72656769737465726c
:100280005f63622829206661696c65642077697400
:1002900068207265743d2564000000005b7370691e
:1002a0005f636d645d3a204661696c656420636dcf
:1002b000642077726974652c206275732065727290
:1002c0006f722e2e2e0d0a000d5b7370695f636dc9
:1002d000645f7273705d3a204661696c6564206387
:1002e0006d6420726573706f6e73652072656164f2
:1002f0002c20627573206572726f722e2e2e0d0a7d
:10030000000000000d5b7370695f636d645f727362
:10031000705d3a204661696c656420636d6420728b
:100320006573706f6e736520726561640a0000000a
:100330005b7370695f646174615f726561645d3a8b
:10034000204661696c656420646174612072657324
:10035000706f6e736520726561642c206275732006
:100360006572726f722e2e2e0d0a00005b7370691b
:100370005f646174615f726561645d3a20466169c2
:100380006c6564206461746120726573706f6e7354
:100390006520726561642e2e2e2825303278290d55
:1003a0000a0000005b7370695f646174615f72656d
:1003b00061645d3a204661696c65642064617461c2
:1003c00020626c6f636b20726561642c20627573b0
:1003d000206572726f722e2e2e0d0a005b7370698b
:1003e0005f646174615f726561645d3a2046616952
:1003f0006c6564206461746120626c6f636b204380
:10040000524320726561642c20627573206572729c
:100410006f722e2e2e0d0a005b7370695f7265611c
:10042000645f7265675d3a204661696c656420634c
:100430006d642c2072656164207265672028253008
:10044000386c78292e2e2e0d0a0000005b7370691f
:100450005f726561645f7265675d3a204661696cd1
:10046000656420636d6420726573706f6e73652cb4
:1004700020726561642072656720282530386c78a9
:10048000292e2e2e0d0a00005b7370695f72656164
:10049000645f7265675d3a204661696c65642064db
:1004a00061746120726561642e2e2e0d0a000000b9
:1004b000526573657420616e642072657472792070
:1004c000256420256c780d0a000000005b737069bc
:1004d0005f77726974655f7265675d3a204661692e
:1004e0006c656420636d642c20777269746520727a
:1004f000656720282530386c78292e2e2e0d0a00ad
:100500005b7370695f77726974655f7265675d3a86
:10051000204661696c656420636d64207265737048
:100520006f6e73652c207772697465207265672021
:10053000282530386c78292e2e2e0d0a0000000058
:10054000526573657420616e6420726574727920df
:10055000256420256c7820256c780d0a00000000a9
:100560005b6e6d5f7370695f696e69745d3a20469a
:1005700061696c656420696e7465726e616c20726d
:100580006561642070726f746f636f6c207769743b
:100590006820435243206f6e2c2072657472796913
:1005a0006e67207769746820435243206f66662e19
:1005b0002e2e0d0a000000005b6e6d5f7370695f88
:1005c000696e69745d3a204661696c656420696e84
:1005d0007465726e616c20726561642070726f74f4
:1005e0006f636f6c2e2e2e0d0a0000005b6e6d5f28
:1005f0007370695f696e69745d3a204661696c6504
:100600006420696e7465726e616c207772697465be
:100610002070726f746f636f6c207265672e2e2e60
:100620000d0a00005b6e6d5f7370695f696e6974bf
:100630005d3a204661696c20636d64207265616477
:1006400020636869702069642e2e2e0d0a00000058
:100650005b6e6d5f7370695f696e69745d3a20638c
:100660006869706964202825303878290d0a0000ef
:100670005b7370695f726561645f626c6f636b5d11
:100680003a204661696c656420636d642c20726554
:10069000616420626c6f636b20282530386c782988
:1006a0002e2e2e0d0a0000005b7370695f7265616b
:1006b000645f626c6f636b5d3a204661696c656470
:1006c00020636d6420726573706f6e73652c207289
:1006d00065616420626c6f636b20282530386c780c
:1006e000292e2e2e0d0a00005b7370695f72656102
:1006f000645f626c6f636b5d3a204661696c656430
:1007000020626c6f636b2064617461207265616448
:100710002e2e2e0d0a000000526573657420616e46
:100720006420726574727920256420256c782025f8
:10073000640d0a005b7370695f77726974655f624c
:100740006c6f636b5d3a204661696c656420636d14
:10075000642c20777269746520626c6f636b20284b
:100760002530386c78292e2e2e0d0a005b737069a7
:100770005f77726974655f626c6f636b5d3a204688
:1007800061696c656420636d6420726573706f6e5f
:1007900073652c20777269746520626c6f636b20bf
:1007a000282530386c78292e2e2e0d0a00000000e6
:1007b0005b7370695f646174615f77726974655db2
:1007c0003a204661696c6564206461746120626ce2
:1007d0006f636b20636d642077726974652c20628f
:1007e0007573206572726f722e2e2e0d0a00000036
:1007f0005b7370695f646174615f77726974655d72
:100800003a204661696c6564206461746120626ca1
:100810006f636b2077726974652c20627573206535
:1008200072726f722e2e2e0d0a0000005b737069bb
:100830005f646174615f77726974655d3a204661d7
:10084000696c6564206461746120626c6f636b2005
:100850004352432077726974652c2062757320655a
:1008600072726f722e2e2e0d0a0000005b7370697b
:100870005f77726974655f626c6f636b5d3a204687
:1008800061696c656420626c6f636b206461746184
:100890002077726974652e2e2e0d0a005b737069c5
:1008a0005f77726974655f626c6f636b5d3a204657
:1008b00061696c656420627573206572726f722e57
:1008c0002e2e0d0a000000005b7370695f7772695d
:1008d00074655f626c6f636b5d3a204661696c653d
:1008e00064206461746120726573706f6e7365203b
:1008f000726561642c2025782025782025780d0ae2
:1009000000000000536c6f77696e6720646f776e2c
:100910002e2e2e0d0a0000004661696c656420745d
:100920006f20616c6c6f632072782073697a652028
:1009300025640d0a000000002848494629466169df
:100940006c656420746f2077616b657570207468c6
:100950006520636869700d0a000000004849462060
:100960006d657373616765206c656e6774682028b8
:100970002564292065786365656473206d6178203e
:100980006c656e67746820282564290d0a000000d4
:10099000286869662920574946495f484f53545f84
:1009a0005243565f4354524c5f3120627573206648
:1009b00061696c0d0a00000028686966292061647d
:1009c000647265737320627573206661696c0d0ac9
:1009d00000000000286869662920436f72727570f4
:1009e000746564207061636b65742053697a652057
:1009f0003d202575203c4c203d2025752c2047208e
:100a00003d2025752c204f50203d20253032583e6a
:100a10000d0a0000574946492063616c6c626163ae
:100a20006b206973206e6f742072656769737465db
:100a30007265640d0a000000536f636b6574206378
:100a4000616c6c6261636b206973206e6f742072dd
:100a50006567697374657265640d0a004f7461207f
:100a600063616c6c6261636b206973206e6f7420cc
:100a7000726567697374657265640d0a0000000031
:100a800043727970746f2063616c6c6261636b2078
:100a90006973206e6f74207265676973746572651f
:100aa000640d0a005369676d612063616c6c62615b
:100ab000636b206973206e6f74207265676973744d
:100ac000657265640d0a000053534c2063616c6cc1
:100ad0006261636b206973206e6f74207265676951
:100ae0007374657265640d0a000000002868696609
:100af0002920696e76616c69642067726f75702059
:100b000049440d0a00000000286869662920686fc2
:100b1000737420617070206469646e27742073653b
:100b20007420525820446f6e65203c25753e3c254c
:100b3000583e0d0a00000000286869662920577297
:100b40006f6e672073697a650d0a00002868696610
:100b5000292046616c736520696e746572727570c8
:100b60007420256c780d0a00286869662920466182
:100b7000696c656420746f207265616420696e74ad
:100b8000657272757074207265670d0a000000004e
:100b90002868696629204661696c20746f20686145
:100ba0006e646c6520696e74657272757074202550
:100bb000642074727920616761696e2e2e0d0a00bf
:100bc000206869665f726563656976653a20496e7b
:100bd00076616c696420617267756d656e740d0a6b
:100be00000000000415050205265717565737465b6
:100bf000642053697a65206973206c61726765723d
:100c0000207468616e20746865207265636569761a
:100c10006564206275666665722073697a65203c3a
:100c200025753e3c256c753e0d0a00004150502054
:100c3000526571756573746564204164647265738f
:100c400073206265796f6e642074686520726563d5
:100c500065697665642062756666657220616464a4
:100c60007265737320616e64206c656e6774680dc5
:100c70000a000000475270203f2025640d0a000042
:100c800047656e65726174656420486f7374466968
:100c90006c6548616e646c657249442069732025f7
:100ca000750d0a00496e76616c6964204f544120cd
:100cb00072657370202564203f0d0a0057494e432a
:100cc000206973206e6f7420696e20616e206170e0
:100cd00070726f70726961746520737461746520dd
:100ce000666f722074686973206f706572617469d1
:100cf0006f6e210d0a000000556e61626c652074f4
:100d00006f20726561642053504920466c6173689e
:100d10000d0a0000436f6e666c6963746564204958
:100d20005020222025752e25752e25752e257520ff
:100d3000220d0a00524551204e6f74206465666989
:100d40006e65642025640d0a000000000a57494eb4
:100d50004331353030204669726d776172652044c9
:100d60006174613a0d0a00004669726d77617265bf
:100d7000205665723a2025752e25752e257520532f
:100d8000564e205265762025750d0a004669726d13
:100d900077617265204275696c74206174202573d7
:100da0002054696d652025730d0a00004669726d37
:100db00077617265204d696e204472697665722094
:100dc0005665723a2025752e25752e25750d0a005b
:100dd000447269766572205665723a2025752e2513
:100de000752e25750d0a000030313a32353a343807
:100df0000000000041756720323820323032360062
:100e0000447269766572204275696c742061742041
:100e100025732054696d652025730d0a0d0a0000a5
:100e20004d69736d61746368204669726d77617294
:100e3000652056657273696f6e0d0a00536f636ba0
:100e400065742025642073657373696f6e2049444f
:100e5000203d2025640d0a00726563762063616c75
:100e60006c6261636b2073657373696f6e204944b4
:100e7000203d2025640d0a0043757272656e742052
:100e80003c25643e0d0a000044697363617264206e
:100e9000726563762063616c6c6261636b202564ac
:100ea0002025640d0a0000006869662072782064bd
:100eb0006f6e65206661696c65640d0a0000000054
:100ec00073656e642063616c6c6261636b20736533
:100ed0007373696f6e204944203d2025640d0a001c
:100ee000446973636172642073656e642063616c2e
:100ef0006c6261636b2025642025640d0a0000008c
:100f00000d0a57494e433a20496e697469616c690c
:100f10007a696e672e2e2e0d0a0000006d326d5f0d
:100f2000776966695f696e69745f686f6c64206673
:100f300061696c65640d0a000d0a6d326d5f776939
:100f400066695f696e69745f73746172742066614b
:100f5000696c65640d0a00000d0a57494e433a203a
:100f6000496e697469616c697a696e672e2e2e63a9
:100f70006f6d706c6574650d0a0000000d0a2d2df3
:100f80002d2d2d2d2d20537570706f72746564207a
:100f9000636f6d6d616e642067726f757073202d65
:100fa0002d2d2d2d2d0000000d0a202a2a2a20008b
:100fb000202a2a2a000000000d0a2d2d2d2d2d2d6e
:100fc0002d2d2d2d204275696c7420696e20636f64
:100fd0006d6d616e6473202d2d2d2d2d2d2d2d2ddc
:100fe0002d0000000d0a556e6b6e6f776e20636fdb
:100ff0006d6d616e642067726f75702e205472790a
:101000002068656c700d0a000820080008000000c8
:101010000d0a3e001b5b2564430000001b5b25643a
:10102000440000000d0a202a2a2a20517569747490
:10103000696e672074686520436f6d6d616e642012
:1010400050726f636573736f722e20427965202a28
:101050002a2a0d0a000000000d0a202a2a2a2053fd
:10106000797374656d205265626f6f74202a2a2a25
:101070000d0a000020092c004661696c656420742b
:101080006f206372656174652074686520436f6ebc
:10109000736f6c65204150490d0a0000202a2a2aee
:1010a00020436f6d6d616e642050726f6365737362
:1010b0006f723a20506c6561736520747970652099
:1010c000696e206120636f6d6d616e642a2a2a0d3e
:1010d0000a0000000a0d20546f6f206d616e7920a8
:1010e000617267756d656e74732e204d6178696de0
:1010f000756d206172677320737570706f7274659f
:10110000643a202564210d0a00000000202a2a2ac2
:1011100020436f6d6d616e642050726f63657373f1
:101120006f723a20756e6b6e6f776e20636f6d6da8
:10113000616e642e202a2a2a0d0a00003e0000005b
:10114000081b5b4b25731b5b25644400081b5b4b32
:10115000000000001b5b4b25731b5b2564440000f3
:1011600025731b5b25644400202a2a2a20436f6dc7
:101170006d616e642050726f636573736f7220626d
:1011800075666665722065786365656465642e20a2
:1011900052657472792e202a2a2a0d0a0000000056
:1011a00072657365740000003a205265736574209f
:1011b000686f737400000000710000003a207175c0
:1011c000697420636f6d6d616e642070726f63650a
:1011d00073736f720000000068656c70000000009f
:1011e0003a2068656c7000001b5b41001b5b42008d
:1011f0001b5b43001b5b44001b5b317e0000000057
:101200001b5b347e000000005359535f434d445f25
:101210005441534b53000000574452565f57494eb8
:10122000435f5461736b73004150505f5461736b43
:1012300073000000546d72205376630049444c459e
:0112400000ad
:020000040000fa
:10124400f0b59db012930b6814900b934b681191f9
:1012540004938b680d930b691593cb6808931368fb
:10126400546806930794069807990022002308f00f
:1012740064fd00280dd10b9b5b073ed408230b9a19
:101284001a400c920d9a09920b9a1a4213d01833f1
:101294000ae080200006844606990a000799614402
:1012a4000b00069207932d23089a13700d9b013ba4
:1012b400099301230c93079b06995b00c74a5b08bb
:1012c40000291cd193421ad1089a129b94460c9877
:1012d400413bc3496044192b00d9c2490af088f83c
:1012e400089809f03ffe0b9b0200009308990d9ba0
:1012f400149807f08bf81db0f0bd2b23d4e793426c
:1013040002d80cd100290ad0089a129b94460c9852
:10131400413bb5496044192be0d9b449dee70022ca
:1013240006980799002309f0a5f90026b04f002874
:1013340000d120e10023039312980af002f8c3b20b
:101344001093049b002b00daebe1109b0a93672bac
:1013540012d1049b002b01d10133049365230a931a
:10136400039b04331ddb039b049a934219da66231f
:101374000a93039b002b14da049b013304930a9b06
:10138400662b0ed1039b002b03da00230026984f13
:101394000393109b672b04d0039a049b94466344e5
:1013a4000493069a079b0e920f93002334003d008a
:1013b400139322000e980f992b0005f06bfe05f095
:1013c400e7ff8022120694460e9b169017911893fd
:1013d4000f9b63441993189a199b0092019322005e
:1013e4002b0009f089ff80231b06cb18002229005b
:1013f4000e900f9320007f4b05f04cfe139b0400ce
:1014040001331393139a049b0d009342d1d100220c
:10141400794b03f0d7f80e9a0f9b04000d0008f0e7
:101424006dfc002800d0d5e00e9a0f9b2000290007
:1014340009f020f9002806d01698179909f05af8ef
:10144400c00700d4c6e00698079922002b0002f0da
:1014540037fd002206900791664b3000390003f0f7
:10146400b1f8069a079b0e900f9108f0a3fa002892
:1014740000d1c7e0039b013303930a9b662b00d082
:10148400c2e0049b039d0133049300263700049bb0
:101494000c9ceb1a1693169b9d4200d0dee0002fa5
:1014a40000d11de10026089b1f190a9b3e70652b85
:1014b4002dd1159b5d1e089b5e55039bb34202da3a
:1014c4005b4203930136039b002b00d011e1159b73
:1014d400eb1a0333002b00dd0be12b236a1e002ed5
:1014e40000d002330899023d8b54129b413b192bc7
:1014f40001d845230a93089b59190a9b0b70ac42e7
:1015040002da380009f074ff099b023b09930323b4
:101514000b9a1340022b00d0e2e6099b002b00dc5f
:10152400dee6089809f01efd0c9b834200dcf1e026
:101534001800089b30219c46099a604409f012fe69
:1015440000230d93cce626002f00039b0133039365
:101554000022284b3000390003f034f804000d0059
:1015640002000b000698079908f0e7fb0028ead070
:101574000024012523e00390eae7204b039a9a42d2
:1015840012da002c10d10698079900221c4b03f0a4
:1015940019f8002206900791194b3000390003f026
:1015a40011f82c0006000f0030003900114b002206
:1015b40005f070fd06000f00039b013b039332000e
:1015c400069807993b0008f0b8fb0028d5d1b3e68c
:1015d4000623c2e60024002535e7c0460000f07f5c
:1015e40070aa000074aa000078aa00007caa000077
:1015f4000000f03f0000244000001440d4feffff30
:10160400000050430e960f970a9d653d6b1e9d4149
:10161400039b6d421d4038e7002f0ad1002d08dae4
:101624002e23089a139901345354099b0137013b23
:101634000993321923009446302102e0089ad154c8
:1016440001336345fad1099a3419961b089a30304c
:10165400d054731e01340026099320e0119b139487
:101664001b69053ba34200d819e70e9a0f9b069805
:10167400079905f00ffd05f08bfe0490059108f025
:1016840039ff092800dd092010230b9a1340034376
:10169400c2d1109b672bbfd1002dbdda0136802249
:1016a4000e980f9912069446069b013d1a93079bc8
:1016b40063441b931a9a1b9b00920193049a059b03
:1016c40009f01afe80231b06cb18069007930e9888
:1016d4000f990022174b05f0ddfc0e900f91dae60e
:1016e4000b9bdb0600d4dde62e23089a1355013448
:1016f400d8e603980a2106f007f9089b3031013d2a
:10170400595503980a2106f0b5f8099b0390013b4b
:101714000993d8e6089b09991a5c5b181a54013896
:1017240002e7109b672b00d152e70a930623049328
:0817340022e6c046000024403b
:020000040000fa
:10173c00f0b599b012930b68cf680a934b6816906a
:10174c000e938b680b930b69119313685468069373
:10175c000794069807990022002308f0eafa00285b
:10176c000ed10a9b5b072ed408230a9a0a991a40b9
:10177c0005920b9a194213d018333b7013000ce0ee
:10178c0080200006844606990a00079961440b00e4
:10179c00069207932d233b700b9b5a1e0123059336
:1017ac00079b06995b005b0800290ed1af4883426a
:1017bc000bd1129b059a413bad4cae49b818192b75
:1017cc0011d921000fe02b23e5e7a848834202d86a
:1017dc0018d1002916d0129b059a413ba64ca7495b
:1017ec00b818192bedd809f0fffd200009f0b6fb55
:1017fc000a9b0200009339000b9b169806f002fe20
:10180c0019b0f0bd059b0598591c30233b54129b15
:10181c00413b0f930f987823192800d8203b05984b
:10182c007b540230931e0590099300220698079969
:10183c00002308f01bff002800d16de10023904c21
:10184c00089302930394182310930e9b002b00db38
:10185c0010930026029c039d109b01331793069a4c
:10186c00079b0c920d930c980d9922002b0005f000
:10187c000dfc05f089fd22002b001490159102f04f
:10188c009dfe02000b000c980d9909f039fd7d4b63
:10189c000c900d9100222000290002f08ffe0e9b6f
:1018ac0004000d000136002b07da0c980d9900226c
:1018bc00002308f0dbfe002804d1179b9e42d2d1f6
:1018cc00109e01360022200029006f4b02f076fe9c
:1018dc0004000d0002000b000c980d9908f029fa79
:1018ec00002800d01ee10c980d9922002b0008f066
:1018fc00bdfe002806d01498159908f0f7fdc00716
:10190c0000d40fe10698079922002b0002f0d4fabc
:10191c0006900791079b069a5b005b08002a03d18f
:10192c00524a934200d144e7119b059a053b14930c
:10193c00934200d83de10025734214001600179322
:10194c0010950c95029a039b0698079905f09efb3f
:10195c0005f01afd1290139108f0c8fd031e00d07b
:10196c00e3e00c9a002a00d1dfe00135029a039bd8
:10197c001298139902f022fe02000b0006980799a8
:10198c0009f0befc002206900791029803993d4b8a
:10199c0002f014fe0c9b179a013b029003910c93de
:1019ac00934203d0149b26009c42cbd3109b002b5c
:1019bc001ad1002d00dcfde00e9b002b00dcf9e0c1
:1019cc000a9bdb0700d5f5e02e2230213b191a705b
:1019dc002a19ba18597001339342fbd16419ed439b
:1019ec00099b0134eb18099300263b191e700293d6
:1019fc00119b5d1e089b7e55b34202da5b42089335
:101a0c000136089b002b00d0bce0119beb1a013374
:101a1c0000d1b7e02b236a1e002e00d00233bb543a
:101a2c000f9a7023023d192a00d8203b79190b70ac
:101a3c00ac4202da029809f0d7fc03230a9a13404d
:101a4c00022b11d1099b9c1e002c0ddd380009f0d6
:101a5c0085fa059b984200dba4e0f818220030219f
:101a6c0009f07cfb00230b933800bfe60000f07fed
:101a7c0074aa000070aa00007caa000078aa0000da
:101a8c000000f03f0000b03f00002040089b029493
:101a9c00039501330893029a039b1000190002f07e
:101aac000bfa04000d0002000b000698079908f0d1
:101abc0040f90028ead0029a039b0698079908f08f
:101acc0038f9002800d1bee60298039900223d4b5c
:101adc0002f074fd0022002308f0c8fd00280fd08e
:101aec00029803990022384b02f068fd0022029004
:101afc00039106980799344b02f060fd069007910c
:101b0c00029803992f4b002202f058fd089b02907b
:101b1c000391013b0893cee700232c4c08900293d1
:101b2c000394b8e700240025ece6109a002a0ad1a9
:101b3c000c9a002a07d02e22ba55099a0134013a80
:101b4c0009920122109230222e1901e03a550134eb
:101b5c00b442fbd11800099a5730551b092b01dcf4
:101b6c00303318000f9b192b06d820230343613bfd
:101b7c00192b01d809f0e8fb6b1e741c0025b85515
:101b8c000993f3e608980a2105f0bafe013d3031bd
:101b9c00089879550a2105f069fe099b0890013bcc
:101bac0009932ee7099b3a5c023bfb181a54013847
:101bbc004fe7059c0a9bdb0600d415e72e233b550b
:101bcc00013411e70000e03f000050430000f03ffb
:020000040000fa
:101bdc00f0b5d6464f464646c0b596b00c0015003b
:101bec000300413bdab2162a13d89300b54ad358f6
:101bfc009f4606260023102201a9280005f0b8f8fc
:101c0c00002806d101ab0c27df571b7b0a2b00d811
:101c1c001fe116b0e0bcba46b146a846f0bd072499
:101c2c000023082205a9280005f0a2f80028f0d10d
:101c3c0005ab00255d571b780a2bead805ab9e88af
:101c4c0009f0aefb032800d9c7e105ab5a8801abfc
:101c5c001a809d4b2a019b18db889bb2b34200d0a3
:101c6c00c2e19a4b1b68002bd3d0984b1b6801aa7e
:101c7c00210028009847cce70023042205a928005e
:101c8c0005f076f80028c4d105ab5a7801ab1a7070
:101c9c008e4b1b68002bbcd08c4b1b6805aa0020fc
:101cac00105601aa01219847b3e70023042205a985
:101cbc00280005f05df80028abd105ab5a7801abd4
:101ccc001a70824b1b68002ba3d0804b1b6805aa93
:101cdc000020105601aa022198479ae700230c22f3
:101cec0001a9280005f044f8002800d091e701abc9
:101cfc0009229a565b7a0a2b28d801a8082141564a
:101d0c00714b09015918c97ac9b214011b19d9723e
:101d1c00012199724189083989b219816c490b8862
:101d2c0001339bb20b800b889bb2002b03d10b8829
:101d3c0001339bb20b80664b198889b2624b12013e
:101d4c009b18d98009f02cfb032817d805ab01aae6
:101d5c00517a1970022199805188d980029a079280
:101d6c005a4b1b68002b00d153e7584b1b6801aa38
:101d7c000820105605aa042198474ae709f00afbe7
:101d8c00534b1b889bb201aa527a52b2514906f0ae
:101d9c0043fddbe70023059306935738431e984118
:101dac00424203239a430832002305a9280004f079
:101dbc00dfff002800d02ce705ab002018561b785d
:101dcc000a2b00d925e701ab187005aa527852b23c
:101ddc005a703d4b01015b181b899bb2591e8b41fc
:101dec005b42052119400531002a13d105ac6288ec
:101dfc00083a92b2344b05015b191a8122795a7355
:101e0c00324b1b68002b00d103e7304b1b6801aa37
:101e1c009847fee605aa94782b4b05015b199c7339
:101e2c00d278da73ece70023442205a9280004f0e9
:101e3c009fff002800d0ece6274b1b68002b00d13d
:101e4c00e7e6254b1b68159905a89847e1e6092696
:101e5c00d0e601abdb89984609f0a2fa03282ad810
:101e6c00194b3a019b1800221a7301aa0821505ee3
:101e7c00824651898c4605a950884881029a08925d
:101e8c00db889bb2434500d07ee05346002b01dd3e
:101e9c00a24525db05ab52469a80002305930b4bdc
:101eac001b68002b00d1b4e6084b1b6805aa310057
:101ebc0038009847ade609f06dfa0849424606f03d
:101ecc00abfccde7308f000050590020005e0020a5
:101edc008c5e00203c0e0000fc5d0020580e0000c3
:101eec009cb2cc80564b3a01d358002b00d190e6d3
:101efc00534b9b189b889bb2002b00d189e6504b0f
:101f0c009b189b7a012b00d083e64d4b9b189b882a
:101f1c00e31a1bb2a046002b04dd494b9b189b888f
:101f2c009bb29846464b3a01d15828006044012395
:101f3c00424604f01dff00281ad1414b3a01d058fb
:101f4c0005a9059040468880c8884446001bc88077
:101f5c00981800218180d1503a4b1b688b4200d1dc
:101f6c0057e6384b1b6805aa31003800984750e6f5
:101f7c0009f016fa002800d14be609f00bfa3249a9
:101f8c00220006f049fc44e609f00afa032816d8a8
:101f9c00102c00d83de6012300220021002004f083
:101fac00e7fe002800d134e609f0faf9002800d148
:101fbc002fe609f0eff9254906f02efc29e609f089
:101fcc00e9f91f4b3f01db19db889bb220494246e4
:101fdc0006f022fcdce7082422e609f0dbf91d49b7
:101fec00320006f019fc30e609f0daf9032800d8c3
:101ffc000fe609f0cff9124b2d015b19db889bb270
:10200c001549320006f008fc03e60123142205a949
:10201c00280004f0adfe002800d0fae50f4b069a1c
:10202c001b689a4200d0f4e50d4b1b68002b00d1c5
:10203c00efe505a90a7c079905989847e9e5c0469c
:10204c0050590020005e0020780e0000a80e000001
:10205c00880e0000c00e0000e00e0000f45d0020b1
:04206c00f85d0020fb
:020000040000fa
:10207000f0b5de4657464e464546e0b5bbb0cb4bc5
:102080001b68002b06d0c94b1c68c94b0493c94b75
:102090009b46ace0c8494a780131c84806f000f8d0
:1020a00000280bd0c14b1c68002ceed101203bb0a6
:1020b000f0bcbb46b246a946a046f0bdc04b1b785b
:1020c000002befd109f072f9012803d8bc4b012293
:1020d0001a70e7e709f064f9ba4906f0a3fbf5e7df
:1020e00000236375b84e27001237a8465d46316855
:1020f0000322380008f05cfb002800d1e7e10c3631
:10210000ae42f4d1ab46002323826ce00d283dd0d3
:102110000a283bd0082800d174e17f2800d1a1e132
:102120001b2800d1bee1e16920239846a044434624
:10213000cb1a4f2b00ddbee1a2698b1a914200d170
:10214000b5e14a1ed843091810785070013a9142ff
:10215000fad1e269511ce16100215170a26901329a
:102160009a492000723008f05dff7123e75433680c
:102170002100713128009847a3691f70a3690133ba
:10218000a361e26993422ed9e3612ce020239846b3
:10219000a044e369434556d08d49336828009847e9
:1021a000e36900221a704346a361e36120320021f3
:1021b00008a808f0d9ff676805975122414610a882
:1021c00009f01ef9082208a910a805f015fe0390d1
:1021d00000283dd17f4923681b6838009847336841
:1021e000049928009847a468002c00d15ee726686f
:1021f0006568f368280098470028f4d03369280000
:10220000984707001021635e002b00d17ee7e2189b
:10221000907401331db22582032d00d160e7022d99
:10222000e1dde668b3689d42ddd1316820001230ff
:1022300008f0edfe002803d17368310020009847b4
:1022400000232382cfe76449336828009847cae710
:10225000039b002b05dc614923681b6805989847a0
:10226000bde7cc23e3582200cc325768bb4236d0be
:1022700079682200cc3251600b60cc23e35852685d
:102280005a60380008305122414609f0b9f8cc2391
:10229000e358002b2ad03b60cc232200cc3252687a
:1022a0007a601760e2585760e750d4230022e2506a
:1022b000089b99464a4f4b4b9a463968484608f066
:1022c000a6fe00281ad00c375745f6d1464b994642
:1022d0000696aa4643460793a0464e4635e000239d
:1022e000cc22a3502200cc325360cae7cc33e75053
:1022f0002300cc335f603f607f60d6e7039b082bf1
:1023000006dd3a4923685b6808220598984766e726
:102310007b6808aa03992000984760e74446069e18
:102320005546324923685b6808220598984756e766
:102330004446069e55467b6808aa039920009847a4
:102340004de718362a4b9e4254d07468002cf8d0c2
:102350003569002d13d05122079925a809f050f8ae
:1023600073690093512325aa41462000a8470028fd
:1023700044d1082208a925a805f03efd0390039b3f
:10238000082bcbdc77683368002bdad0089d00245b
:10239000b1461e003968280008f039fe0028c7d071
:1023a00001340c37b442f5d14e46cae7ac5d00208b
:1023b0003c11000008980000045e0020dcb0000022
:1023c000945e002078100000c097000060110000ab
:1023d0001c0e00009c100000101000000c110000ea
:1023e000b0a90000d4a9000090580020d41000002b
:1023f000505900204446069e55462ce74446069e0a
:102400005546ece6a36922002032934200d8eae662
:10241000e06983421bd25a1ec31a013851781170e9
:1024200001328242fad1a269013aa261e269013a1b
:10243000e26100211170a269274927007137380035
:1024400008f0f0fd3368390028009847cbe62349af
:10245000336828009847a369013ba361e369013b06
:10246000e361c0e6e169a269914200d8bbe6501c75
:102470000b1a814205d0d018517811700132824276
:10248000fad1e269013ae26100211170a2691449ae
:1024900027007137380008f0c5fd3368390028007f
:1024a0009847a0e61b23a3741a3b23829be6722362
:1024b0000022e25459e60b49336828009847434606
:1024c000a361e36108493368280098478be6ab466f
:1024d0004546e660a5e6c046401100004c110000ec
:0c24e00054110000681100003c110000c5
:020000040000fa
:1024ec00f0b5c64600b5eab00c1e00d1bce0c54b39
:1024fc005d68002d00d1b7e00438c3b22e2b00d993
:10250c00b2e09800c04b1b589f46eb7b002b00d1d0
:10251c00aae00023eb730123cb56002b12d10b78ce
:10252c006b74002b0ad18823ec58002c00d19be053
:10253c00b448002300220021a04795e0287c08f035
:10254c002cfb91e000236b748ee0280034300431b6
:10255c00062208f0f9fd01263a23ee54273b984653
:10256c00a84427000a3720223900404608f0ecfd29
:10257c002121380008f0fefc3323e8540122a25636
:10258c000a33ea54a2780133ea54e278033bea5462
:10259c00ae744d33ec58002c66d06a7c297c01312a
:1025ac00c9b298484346a047002805d1954b5a68b4
:1025bc0088230021d15057e0924b5b681c7c01347e
:1025cc00e4b21c7408f0c8fe844205d38d4b5a68e3
:1025dc0088230021d15047e08a4c6368187c08f0ae
:1025ec00dcfa636800229a743ee00b78012b0ed063
:1025fc00002b02d1ab735422ab548c23ed58002d1d
:10260c0032d08048637822780100a8472ce0ab7365
:10261c00a133eb5c002bf0d1a433eb58002becd0a6
:10262c00a1230122ea54e8e78c23ed58002d1bd09e
:10263c0000228a56130015331ad0130014330bda08
:10264c000523110017310bd0163253425a41534215
:10265c0003229343073303e01432531e9a41931d14
:10266c00684800220100a8476ab080bcb846f0bd9b
:10267c000123f5e72b7b002b02d1a1330122ea5475
:10268c00e1780906a3781b0419432378194363786e
:10269c001b021943a423e9501433eb58002be3d04d
:1026ac0058489847e0e7080005f070fc011edbd0a5
:1026bc00544b5a689023d358002bd5d05148984787
:1026cc00d2e7c023eb58002bced02121200008f0fc
:1026dc0051fc0600c3b203a920228b54202bc3d873
:1026ec00002103a808f03afdff223240210003a884
:1026fc0008f02afd6223e35c0eaa1370022b0fd0a4
:10270c006323e35c5a425341dbb23e4cc026ad59c5
:10271c000eaa03a92000a847636800229a51a3e7d8
:10272c0027002137380008f019fc06000eab187191
:10273c00402200213d236b44180008f00ffdff22be
:10274c00324039003d236b44180008f0fdfcd7e7fc
:10275c002121200008f00efc0600c3b27522ab54f8
:10276c00202b00d980e72f005537553a002138002f
:10277c0008f0f4fcff2232402100380008f0e4fca1
:10278c002123e65c6333ee545f3be35c1b0624229f
:10279c00a25c120413432222a25c13432322a25ce8
:1027ac0012021343ab677c239846a84406222100ef
:1027bc002631404608f0c8fc01238222ab542e3a45
:1027cc00ab549333ed58002d00d14de70d48683bc9
:1027dc00e3560193009643463a000100a84743e7ad
:1027ec0000228a564e23ea544a33eb58002b00d170
:1027fc003ae7044c21002000984762689823002196
:10280c00d15031e7645d0020d87200009c23eb5856
:10281c00002b00d128e703a807f09afea51c212164
:10282c00280008f0a7fbc2b2290003a806f054ff49
:10283c00617803a807f0ecfe2378012b09d0022b5a
:10284c0012d00f4842689c23d3580022002198478d
:10285c000ae70ea808f01cfd094842689c23d358cf
:10286c000eaa03a99847ffe623344121200008f063
:10287c0081fbc2b221000ea807f01cf9ece7c046a0
:04288c00645d002067
:020000040000fa
:10289000ac5c00201c00000000000000895e0020ed
:1028a0000100000000000000545d00201000000046
:1028b00000000000145c0020040000000000000084
:1028c000975e0020010000000100000004000000ed
:1028d000bc5d00200c000000000000008e5e0020a7
:1028e0000100000000000000bc5e002002000000ab
:1028f0000100000000080000845c002028000000a7
:1029000000000000c85d00200c0000000000000076
:10291000be5e00200100000001000000ff0000007a
:102920009c5d00200800000000000000d45d002035
:1029300014000000000000008a5e00200200000079
:1029400000000000e85d002008000000000000001a
:102950008f5e00200100000000000000f05d0020fc
:102960000400000000000000905e00200200000053
:1029700000000000f45d00200800000000000000de
:10298000925e00200100000000000000fc5d0020bd
:1029900008000000000000008c5e00200200000023
:1029a0000000000050590020b000000000000000ae
:1029b000005600200801000000000000645d0020b7
:1029c0001000000000000000d0570020c0000000f0
:1029d00000000000935e00200100000000000000e5
:1029e000585c00202c000000000000000054002073
:1029f0000002000000000000a05a0020800000003b
:102a000000000000d45b0020400000000000000037
:102a1000a45d00200800000000000000945e00207b
:102a2000010000000000000090580020c0000000dd
:102a300000000000045e002008000000000000000c
:102a4000005000200004000000000000ac5d0020e9
:102a50000800000000000000845d00200c00000061
:102a6000000000000c5e00200400000000000000d8
:102a7000955e0020010000000000000008570020c3
:102a8000c800000000000000905d00200c00000065
:102a900000000000965e0020010000000000000021
:102aa000105e00200400000000000000005a00201a
:102ab000a000000000000000185c002040000000a2
:102ac00000000000745d0020100000000000000005
:102ad000145e00200800000000000000b85e002026
:102ae0000400000001000000aaaaaaaa1c5e00209f
:102af000080000000000000000000020005000005e
:102b000000000000245e002014000000000000000f
:102b1000c85c00202800000000000000385e002093
:102b20002c00000000000000f05c002014000000f9
:102b300000000000645e00200400000000000000af
:102b4000045d00202800000000000000685e0020f6
:102b500008000000000000002c5d0020280000009c
:102b600000000000205b0020640000000000000066
:102b7000705e00200400000000000000885e00205d
:102b80000100000000000000745e00200c00000046
:102b900000000000845b00205000000000000000e6
:102ba000985e0020200000000100000001000000ed
:102bb0000300000000000000000000000000000012
:102bc0000000000000000000b45d0020b45d0020a3
:102bd0000800000000000000805e002008000000e7
:102be000000000000000000000000000666666664d
:020000040000fa
:102bf00070b586b0b54db64c2900200007f0b4fe84
:102c00000028f9d003a9b34808f01cfc041e00d02a
:102c100046e10399cb0700d42fe1012399430391a7
:102c2000ac4808f013fc041e00d02ae1aa4b012294
:102c30009a70039dad042d0d00d10fe10023059383
:102c400005a9a64808f0fefb041e1fd10598a24b5b
:102c500058609d6004ae0422310006f0d7fa0400eb
:102c6000738800281dd19d4202d0eb1a042b23dc6f
:102c7000974808f001f96b461b7c072b00d9d5e07b
:102c80006b461b7c9b00964ad3589f4608f08efbf0
:102c9000002800d1f5e008f083fb924905f0c2fd61
:102ca000efe008f083fb002800d1eae008f078fbb1
:102cb0008d4905f0b7fde4e008f078fb002802d16b
:102cc00006246442dde008f06bfb04aa53888749c0
:102cd00054780194127800922a0005f0a3fd06248e
:102ce0006442cee07c4bdb68002b17d07a4bdd686a
:102cf000059a083204ab5988083989b25878a84730
:102d0000754b9b78002b00d1bee008f04ffb0028ec
:102d100000d09ae007f020fb0400b5e008f046fb85
:102d20000028edd008f03cfb714905f07bfde7e79a
:102d3000694b1b69002b0ad0674b1d69059a083245
:102d400004ab5988083989b25878a847d8e708f001
:102d50002dfb0028d4d008f023fb664905f062fd66
:102d6000cee75d4b5b69002b0ad05b4b5d69059a32
:102d7000083204ab5988083989b25878a847bfe7a8
:102d800008f014fb0028bbd008f00afb5a4905f0f4
:102d900049fdb5e7504b1b6a002b0ad04e4b1d6a0c
:102da000059a083204ab5988083989b25878a8477f
:102db000a6e708f0fbfa0028a2d008f0f1fa4f4984
:102dc00005f030fd9ce7444b9b69002b0ad0424b39
:102dd0009d69059a083204ab5988083989b2587838
:102de000a8478de708f0e2fa002889d008f0d8fa61
:102df000434905f017fd83e7374b5b6a002b0ad088
:102e0000354b5d6a059a083204ab5988083989b296
:102e10005878a84774e708f0c9fa002800d16fe78e
:102e200008f0befa374905f0fdfc69e708f0befa84
:102e3000002802d10624644226e008f0b1fa3249a3
:102e400005f0f0fc062464421ee008f0a9fa04aa8a
:102e5000537812782d4905f0e5fc5be708f0a6faf7
:102e6000002802d1022464420be008f099fa2849b4
:102e700005f0d8fc0224644203e008f097fa002829
:102e800007d1134807f0f8ff002c13d1200006b03b
:102e900070bd08f085fa039a1e4905f0c3fcf0e7ff
:102ea00008f084fa0028ecd008f07afa1a4905f004
:102eb000b9fce6e708f07afa0028e7d008f070fae3
:102ec0001649220005f0aefce0e7c046ffff000017
:102ed000c85d002070100000845c00208410000099
:102ee00088aa000090090000b8090000d409000079
:102ef000140a0000380a00005c0a0000800a000082
:102f0000a40a0000c80a0000ec0a0000080b000038
:102f1000380b00004c0b0000680b0000900b000009
:020000040000fa
:102f2000f0b59fb004001500031fd9b2612900d984
:102f30006be18b00bb4ad3589f460023042203a9b0
:102f4000280003f01bff002864d1b74b1b68002b3f
:102f500060d003a92c3098475ce00023082203a925
:102f6000280003f00bff002854d1af4b1b68002b47
:102f700050d003a91b3098474ce00123302203a90d
:102f8000280003f0fbfe002844d1a74b1b68002b50
:102f900040d003a9063098473ce00023182203a93b
:102fa000280003f0ebfe002834d19f4b1b68002b58
:102fb00030d003a9323098472ce0012300220021b1
:102fc000280003f0dbfe002824d1974b1b68002b60
:102fd00020d000213d3098471ce06422002103a846
:102fe00008f0c2f80023642203a9280003f0c6fefb
:102ff00000280fd18c4b1b68002b0bd003a92f305e
:10300000984707e00023042203a9280003f0b6fe36
:10301000002801d01fb0f0bd08f0c8f9012807d87a
:10302000814b1b68002bf5d0002134209847f1e735
:1030300008f0b6f9039c230cff252b40220e7b4998
:103040002e0026400196240a2540009505f0eafb53
:10305000e6e7774b00221a700023043203a9280008
:1030600003f08cfe0028d5d103ab1a78714b1a708f
:103070006d4b1b68002bcdd003a911309847c9e7d1
:1030800000232c2203a9280003f078fe0028c1d1d8
:10309000654b1b68002bbdd003a913309847b9e7d7
:1030a000002304221ca9280003f068fe0028b1d1e7
:1030b0005d4b1b68002badd01ca904309847a9e7d5
:1030c000002304221ca9280003f058fe0028a1d1e7
:1030d000554b1b68002b9dd01ca96530984799e77c
:1030e0000123642203a9280003f048fe002800d031
:1030f00090e74d4b1b68002b00d18be703a90930eb
:10310000984787e70123042203a9280003f036fe2d
:10311000002800d07ee7444b1b68002b00d179e7e4
:1031200003a92a30984775e70023042203a9280041
:1031300003f024fe002800d06ce73b4b1b68002bfb
:1031400000d167e703a92730984763e700230822e7
:1031500003a9280003f012fe002800d05ae703abb1
:103160009a88039928000830012303f007fe0028fd
:1031700000d04fe72c4b1b68002b00d14ae703a976
:103180002030984746e70023042202a9280003f0d4
:10319000f5fd002800d03de702ab5f881a8803ab3d
:1031a0005a80254b1b68002b00d133e7234b1b684b
:1031b000002b00d12ee7224b1b88002b00d129e7e2
:1031c00003ac1f4e19e022801c490968781903f0ee
:1031d000d5fd002800d01de723886288d21a6280be
:1031e000df19bfb2154b1968134b1b6822001d3045
:1031f00098476388002b00d10ce76288318801234f
:103200008a42e0d90a000023dde708f0cff8002861
:1032100000d1ffe608f0c4f80a49220005f002fbdd
:10322000f8e6c0461c470000f05d0020140d0000c9
:103230008f5e0020915e0020ec5d0020e85d0020a4
:083240008a5e0020340d00003d
:020000040000fa
:103248000023f0b51600b1b0039007910493079dd1
:103258002b78002b00d1cfe001235b420c9310abfd
:1032680000240e9380230b940d940f932b5d002b59
:1032780001d0252b30d1002c06d02900220003983c
:103288002d1906f0a3fe0795079b1a78252a00d06a
:10329800a7e001331800002105930793243a037827
:1032a8002b2b25d02dd8202b25d0232b26d0002919
:1032b80000d007902a2b2cd006f058fb01250d9042
:1032c8000020079a11000b780132303b092b64d992
:1032d80000282dd007912be00134c7e701230b9973
:1032e8000b430b9311000130d9e702230b99f7e741
:1032f80004230b99f4e708230b99f1e710230b99a2
:10330800eee72d2bead0302befd00029d4d0079050
:10331800d2e7336801301a1d1b68079032600d939d
:10332800002b05da01220b995b424a400b920d9360
:103338000b9bda0702d5022293430b93079b1a785b
:103348002e2a0dd100270c975a785d1c07952a2a3a
:1033580025d10233079333681a1d1b6832600c931a
:1033680007a807f0abf8079d0700287807f0e7ffe4
:10337800252800d1d5e06138172800d9dbe007f00f
:1033880021ff1fdab63ea6a6a6da3edadadada9c1a
:103398005e7fdadac6da4edada6e280092e72800bb
:1033a80006f0e4fa01210c902a0013780135303b2d
:1033b800092b03d9002fd3d00792d1e70f00f3e7e9
:1033c8003200390008a806f08dff002800d17be004
:1033d8006b1c079303982b7808aa0ba9fef7aaf988
:1033e8002418049b1c19a34200dcb0e04f22594b5f
:1033f8001a6001235b420493049831b0f0bd330096
:103408000122390008a803f0e2fb00285cd001354e
:10341800039808aa0ba9079504f0caf8e0e7330057
:103428000022390008a803f0d2fb00284cd001354f
:10343800039808aa0ba9079505f0bfffd0e733004a
:103448000022390008a803f0c2fb00283cd001354f
:10345800039808aa0ba9079505f018fac0e73300e6
:103468000022390008a803f0b2fb00282cd06b1cfe
:1034780007932b78039808aa0ba902f0adf8afe7d9
:1034880033000022f02108a803f0a1fb00281bd07c
:10349800089b099a0135079513430cd12e4d280036
:1034a80007f05efd290002000b9b00930d9b03981b
:1034b80004f0aaff94e77823dce7049b39001a1983
:1034c80008a8330005f017f80135079589e7320099
:1034d800390008a806f006ff0028f5d06b1c0793f2
:1034e80003982b7808aa0ba9fdf7a8fe78e7802f88
:1034f800ead1336801351a1d1b68326008aa1370b7
:103508000123079503980ba906f04ef868e7802f6a
:10351800dad132680135131d33601268002307952c
:10352800f0e7802fd0d10b9b0135009301220b4986
:103538000d9b0795bbe7059b012207930023524289
:103548000c9206490b930d9300930232afe7049453
:103558007de6c046845e002068aa00006eaa0000ce
:020000040000fa
:10356800f0b587b00400431e033300d943e10123bb
:10357800c356012b5cd028dc5a1c00d13be1002b40
:1035880000d036e10378002b00d134e14068822373
:103598005b00c35c002b39d1636801221a71636830
:1035a80000225a7107f0e0fe02283dd006f004ff21
:1035b80007f0c4f96368986807f02aff07f052fe1d
:1035c80007f038fe0023237015e1022b00d010e12c
:1035d80040680130ff30894907f0c2f9012800d05e
:1035e80009e10123e356022b00d004e163681b794b
:1035f8001b0700d5ffe007f029ff002800d1fae0fb
:1036080060680130ff3007f033fcf4e00130ff3030
:1036180007f0e2fd6068d43007f0defd62688223bf
:103628005b000021d154b7e7002007f01dfbbde780
:103638004368002b0ad007f0b5fe012809d806f028
:1036480001fd00280bd1ff236370d4e0ff334370e2
:10365800d1e007f0a1fe6a4905f0e0f8efe707f0ce
:10366800fbfb00280fd007f09dfe012805d86368f2
:10367800f5225a71ff236370bde007f08dfe6149a2
:1036880005f0ccf8f3e707f0e5fe000c152805d0a7
:103698006368f5225a71ff236370ace060680130fb
:1036a800ff3000230a22012105f052fd012802d033
:1036b800ff2363709fe063689968200007f09cfa15
:1036c800002302930393049305934f4b019301a89e
:1036d80001f0e4f8002879d106f088fb4b4805f0a2
:1036e8008bff4b4b00251d735d739d73dd739d74bc
:1036f80001263f229e54022701329f5401321e2187
:10370800995401329f540132b531995401325931db
:10371800995202329d5208329d541d6506329d54bd
:1037280034329d5004329d5004329d5004329d50d5
:1037380004329d5004329d5004329d5401329d54f0
:1037480001329e5402329d5004329d5004329d50e5
:1037580004329d5004322f49995004329d5004324e
:103768009d5004329d5004329d5004329d500432c5
:103778009d500c32ff2199541c329d50264a233902
:103788005a502649e0201950254904301950fc2187
:103798005d502448290006f06ff9234833003200b1
:1037a800290005f0d5fc626882235b00d654606866
:1037b800483007f0e5f9677007f0f4fdb0421ad910
:1037c80007f0eafd194905f029f814e007f0eafdc9
:1037d800012808d860680130ff3007f0fdfc6368f5
:1037e800f4225a7164e707f0d7fd114905f016f87d
:1037f800f0e7ff23637007b0f0bdc046ffff00008d
:10380800000f00001c0f0000ed240000116f0000e5
:1038180000560020c0a80a01dd890000a14f000061
:10382800799700004d960000d4560020580f0000ec
:04383800380f000045
:020000040000fa
:10383c00f0b5de464f464646c0b588b083460e000e
:10384c000192009310ab04cb90461f8812ab1b88df
:10385c009946874d874c2900200007f07ff80028f7
:10386c00f9d007aa7f23334053705b46137043464d
:10387c00002b33d03b0008334b449bb207aa538038
:10388c007d4a934200d9e1e006f072fa041e00d0a2
:10389c00d1e00023059302aad3800493049b5a46db
:1038ac001a430492049b36021e430496049a07abf7
:1038bc005b881b04134304930499704807f0c0fd04
:1038cc00041e0fd007f0b2f96a4807f0cffa2000b7
:1038dc0008b0e0bcbb46b146a846f0bd009b08331f
:1038ec009bb2cbe700230493049b02221343049363
:1038fc000499634807f0a4fd041ee3d1002205924d
:10390c0002abda8006331b889bb2fa2292009342f8
:10391c0033d25b4e02ab9c1dfa256d000fe00120eb
:10392c0007f07efd049b9b0721d5238801339bb2b6
:10393c00238023889bb2fa22920093421dd204a9c1
:10394c00300007f079fd002817d123889bb2ab42d9
:10395c00e8d323889bb2ab42e1d807f021fd0128c4
:10396c00ddd907f017fd474904f056ffd7e705a945
:10397c00454807f061fd041e47d1059b002b47d03d
:10398c00059b06930698082207a905f065fc041e02
:10399c0000d097e7069b08330693019900290bd0ba
:1039ac000698009d2a0005f057fc041e00d089e7fc
:1039bc00069bac46634406934346002b10d0069af4
:1039cc004b4600995b1a9b18069306983a004146a1
:1039dc0005f042fc041e00d074e7069bfb1806930e
:1039ec00059b9b000493049b0222134304930499ac
:1039fc00264807f025fd041e00d063e706f0c0fc46
:103a0c0004001c4807f032fa61e70023059359e7dc
:103a1c0006f0b6fc040007f0c3fc032802d803240c
:103a2c00644251e707f0b6fc1949220004f0f4fe99
:103a3c000324644248e707f0b3fc002800d143e7b5
:103a4c0007f0a8fc134904f0e7fe3de707f0a8fcdb
:103a5c00002802d10124644236e707f09bfc07ab37
:103a6c005a880d49044b04f0d7fe012464422be71d
:103a7c00ffff0000c85d00203c0600008c10000019
:103a8c007810000004090000000415006c10000000
:0c3a9c0018090000380900005c09000057
:020000040000fa
:103aa800f0b5de4657464e464546e0b589b08146f4
:103ab8008a46140004928248824906f063ff01286e
:103ac80000d0f8e0012c00d1e4e009239b46002750
:103ad800a5e007f067fc002800d196e007f05cfc41
:103ae80079494a4604f09afe8fe007f05bfc00280b
:103af80000d18ae007f050fc74494a4604f08efe73
:103b080083e03b004246a2427b4102330b2004aad9
:103b1800944660441022524213430370012105f079
:103b280045fb00281ed053469819290005f03efb96
:103b380000282bd0664b1b78002b31d0ae1936b23b
:103b4800641ba4b2002c3bd0251c444501d96b460c
:103b5800dd89adb2002ed4d1a0459b41012293430b
:103b68000333d3e707f01efc002809d107f01afc3d
:103b780000284ad007f010fc564904f04ffe44e0f4
:103b880007f00afc544904f049feefe707f00afc85
:103b98000028ebd007f000fc504904f03ffee5e7b1
:103ba800022107a805f002fb0028c7d107f0fafb9d
:103bb8000028dbd007f0f0fb494904f02ffed5e7d9
:103bc800434b1c78631e9c410234210007a805f072
:103bd800c5f8002815d01023e31804aa94466344b6
:103be800053b1b78002b3cd11023e41804ab9c4602
:103bf8006444063c2378c32b33d1314807f044f999
:103c080051e007f0cffb002825d107f0cbfb0028b7
:103c180036d106f0dffd5b46013b9b463dd300975e
:103c2800049b3a004946c72001f004fe002800d052
:103c38004fe73900c72002f043fc0590002800d068
:103c480053e707ab1f80049c3e0080239b019846e6
:103c58006a46d38178e707f09ffb224904f0defd2e
:103c6800d3e707f09ffb0028cfd007f095fb07ac00
:103c7800637822781c49a478009404f0cffdc4e747
:103c880007f08afb1949049b00934b465a4604f0f7
:103c9800c5fdbee70223049317e7094807f0f4f8c7
:103ca80006235b420593059809b0f0bcbb46b246b3
:103cb800a946a046f0bd06235b420593f3e7c0463c
:103cc800c45d0020ffff0000340700006c070000ff
:103cd8008e5e00206c080000b0070000f0070000ae
:103ce8002c0800009c080000c80800001807000005
:020000040000fa
:103cf800f0b50f00060015000022634b87b092193b
:103d08007b41009201936149019b8b4200d9b8e045
:103d180004d15f4b009a9a4200d9b2e001215d4874
:103d280049428019794100235b4a05f0d5fd060018
:103d38000f00131e029208da574a9446634402930e
:103d480001225242d317b6185f41032000210722ef
:103d580080197941002305f0bffd131e049201da92
:103d6800073304930023300039004c4a05f0b4fdb2
:103d7800141e039004da494be4180300013b039333
:103d88002000474903f074fd0600042800d1013ed5
:103d9800444f454977433f19380003f069fd040053
:103da800192800d1013c6e21404bff316343df19d4
:103db800380003f05dfd042800d101383c4b434333
:103dc800db1900930023984204d10133002c01d160
:103dd800734273419922009952003339ff39059192
:103de8000099914203da0a003b32d3180593642301
:103df800c8227343a4002018c018039b0600c717e5
:103e0800d91703980023520005f0f4fd0024801907
:103e18007941284b009ae35c93422ddd092c04dd9f
:103e280001220023801859410c3c0027224e3618e5
:103e38004f41002f25d1e121009b64300133eb6015
:103e4800049b0234ab61059b6861eb610901029830
:103e58002c6103f00dfd3c21a860029803f008fdd9
:103e68003c2103f04ffd029869603c2103f04afdb4
:103e78003800296007b0f0bd009a0134d31a0093c6
:103e8800c7e701204042f5e78042f100ff84e201e4
:103e9800007b1dfe80a243c780510100b13a020099
:103ea800ac8e00005471ffffb50500004bfaffff10
:0c3eb80093feffff0cb4000064000080cb
:020000040000fa
:103ec400f0b40125ed070f005f405ad48b4200d1b6
:103ed400824205d950404240504059404b405940dd
:103ee4004e18760ddf187f0d3bd0741c640529d065
:103ef400f41b352c26d80e0ddb022b43db0ac9023a
:103f04002943c9121700202c1ed2e741e240574032
:103f1400e3415a40a340e3405a40002480185941e9
:103f24000ad3b21c520521d0c207012f62411700e7
:103f34004008cb0718434908013636054208af410b
:103f440060417141f0bc7047203c06d01f00e7413e
:103f5400e3405f400024012a6741c0186141ebd36c
:103f6400dfe7002eeed129400020ebe701363105d2
:103f74000020e7e7e742e5d10020c143090dc90469
:103f8400e0e76b400e00871a9e4104d26e40c01bce
:103f9400b141d21973414e18df18ac0ae642e9d296
:103fa400760d7f0d31d0f41b362ccbd8b4460e0dd4
:103fb400db022b43db0ac9022943c90a012c32d88c
:103fc40004d1d4075208df073a435b08ef0a64427e
:103fd400904199411ed0002239424dd124194041cb
:103fe40049410124394204d101340018494139427c
:103ff400fad06246a24204d9361b013e360589191d
:10400400a0e7f10ac90700209ce736429ad10020b4
:10401400002197e70200224394d0b842ded2010087
:1040240020002024e3d1202c13dd203ce2411700a2
:10403400a240e2405740e3415a40a340e3405a4083
:10404400012fbf410137174300227c42984191411f
:104054000ce01700e741e2405740e3415a40a340d7
:10406400e3405a407c429041994100220f0303d21d
:10407400013e241940414941013e36054708ac41ff
:0840840050417141f0bc70478e
:020000040000fa
:10408c00f0b583b000900f0001939400200003f072
:10409c0035fd061e00d1b5e0542003f02ffd051ea2
:1040ac0000d1a9e05422002107f058f82e63220019
:1040bc00a521300007f052f8043c2e6b361907226c
:1040cc009643002f0cd000242a0034323b5d13554c
:1040dc00002b02d00134102cf8d143230022ea54d7
:1040ec00089f042f00d90427ef626f642c1d200059
:1040fc0007f0e4f92800183007f0e0f92d610523ea
:10410c00db1bab616d62019a0099300006f006fd75
:10411c002860099b002b00d01d6006f007ff3b4a6e
:10412c001368013313603a4b1b68002b0cd0394bce
:10413c001b68002b0dd1364b1b68da6aeb6a9a426e
:10414c0007d8334b1d6004e0314b1d601368012b05
:10415c0033d0314a136801331360e96a2f4b1b6863
:10416c00994201d92d4b19602d4a8b005b189b008d
:10417c00d3185b68ab609968e9604c609c60e86a36
:10418c0083001918890089186961191889008958e0
:10419c0001311b189b00995006f0aeff1d4b1b689c
:1041ac000120002b30d01a4b1b68da6aeb6a9a425a
:1041bc002ad206f0affe012026e0194e37006437f4
:1041cc00300006f013ff1436be42f9d1154f3800fb
:1041dc0006f00cff144e300006f008ff134806f0f2
:1041ec0005ff134806f002ff124806f0fffe124bc3
:1041fc001f60124b1e60ace7300004f07cfb01200a
:10420c00404201e00120404203b0f0bd605e00205e
:10421c00705e0020545e0020445e0020585e00203a
:10422c00205b0020405d00202c5d0020185d0020ec
:10423c00045d0020f05c00206c5e0020685e0020b5
:020000040000fa
:10424c00f0b5de4657464e464546e0b583b05b4b6f
:10425c001b68002b00d0a3e0594b1c68621c009219
:10426c001a60002a11d0574b1b6800229346009a03
:10427c0093421dd8544b1b681b68002b12d0524d17
:10428c00524fbc465249019562e04f4a1168514b5e
:10429c00186810601960504a13680133136006f0f7
:1042ac006bfae0e700239b46464b012252421a6010
:1042bc004a4b1b68d96a464a8b005b189b009b587b
:1042cc00012b01d901239b46454b1b68002b6dd05c
:1042dc0001239b466ae03b4b1a60e9e7dc685460bb
:1042ec0047e000229a622268013a2260dc6a3a684e
:1042fc00944201d962461460a200121992008a18e5
:10430c0052689a609468dc6060609060d86a820041
:10431c001418a400a046884444465c611418a400f8
:10432c006458a0460124a146c84412189200404685
:10433c0050502a4a12689046da6a4346db6a9a421f
:10434c0001d901239b46019b1b681b68002babd03a
:10435c002b68db68db685a6800989042bbd35a69bb
:10436c009c68d868a0609c684460181d546884429e
:10437c00b4d000245c611468013c14609c6a002c6d
:10438c00b4d0da6992461a6a5646b260de69566053
:10439c001a00183266689642a3d11a6a6260a0e7c6
:1043ac00104a13680133136000239b46584603b030
:1043bc00f0bcbb46b246a946a046f0bd385e002014
:1043cc005c5e0020405e00206c5e0020585e002089
:1043dc00205b0020685e0020485e0020705e00209c
:0843ec004c5e0020505e002031
:020000040000fa
:1043f40030b5a3b00400150003006a3bd9b20e29fe
:1044040000d9a4e08b00584ad3589f460023019357
:10441400029303930493102201a9280002f0acfc38
:10442400002800d097e0514b1b68002b00d192e08c
:1044340001a898478fe000230193042201a92800d2
:1044440002f09afc002800d085e0494b1b68002b41
:1044540000d180e001aa5178107898477be00023ce
:10446400019302930133082201a9280002f084fc7d
:10447400002870d101ab1879002803d13d4b01aa63
:1044840052791a703c4b1b68002b64d0019a39494d
:1044940009789847384b00221a605ce000230193a6
:1044a40002930133082201a9280002f065fc0028c8
:1044b40051d101ab1b79002b0dd02f4b1b68002b66
:1044c40049d0019a2b49097801a8007998472a4bc9
:1044d40000221a603fe0274b01aa52791a7006f0b5
:1044e40063ff0128e9d906f059ff224b1a782349c2
:1044f40004f096f9e1e78422002101a806f032fed7
:104504000123842201a9280002f036fc002822d1cc
:104514001b4b1b68002b1ed001a90a88887802a9ae
:10452400984718e0002301930133042201a92800cd
:1045340002f022fc00280ed1124b1b68002b0ad07b
:1045440001aa107898470f4b00221a6003e006f086
:104554002bff002801d123b030bd06f01fff0a490c
:10456400220004f05df9f6e7b89d0000e05d00204c
:10457400e45d0020be5e0020dc5d0020800c0000b5
:0c458400d85d0020d45d0020a40c0000d5
:020000040000fa
:1045900008d1002806d1f54204d801d3002a01d160
:1045a0006d0d09d10020c143090dc904f0bdf9d139
:1045b0001242f7d1640df5d00020c14349054908e6
:1045c000a6e000206146f0bdf0b50127ff070e0010
:1045d0005e403e40b446be0a4c18dd18f442d7d2c5
:1045e000f542e4d2640decd06d0dead06419c90235
:1045f0003943460dc0023143db023b43db0a10b4b2
:104600008e4685b297b26f43140c6c433e0ca419ce
:10461000260c2404bfb227439cb26c43a419190c86
:104620006943250ca4b249190d04090c6419000c46
:1046300095b245433e0c76193743bfb2360c150c84
:104640004543ad19a6b2240cad192e0437432e0ce8
:1046500036199db24543ad19acb22e0c89191d0c0b
:1046600045436d182e04290c3443704680b295b230
:1046700045433e0c76193743bfb2360c150c454303
:10468000ad19a6b2ad19240c2e0437432e0c3619e1
:104690009db24543ad19acb22e0c89191d0c454392
:1046a0006d182e043443290c75462d0c90b26843c6
:1046b0003e0c80190604bfb23e43070ca0b23f185f
:1046c000120c6a43d019020c80b2240ca4189ab2be
:1046d0006a43121914042043120c89181b0c6b43f3
:1046e000c91810bc01273d05294203d1b619404124
:1046f0004941013cff077d0d013d641b0bdb6d0053
:10470000ac4209da240500254208be4168416141f6
:0a47100066463143f0bd54e74ee762
:020000040000fa
:02471a007047e6
:020000040000fa
:10471c00a03000000a3200007a2f00000a3200009c
:10472c000a320000e03000000a3200000a320000b9
:10473c000a3200000a320000143000000a32000075
:10474c000a320000523000000a32000080300000b3
:10475c000a3200000a3200000a3200000a3200005d
:10476c000a3200000a3200000a3200005a2f000000
:10477c000a320000863100000a3200000a320000c2
:10478c004c3100000a3200000a3200000a320000ec
:10479c000a3200000a3200000a3200002831000000
:1047ac000a3200000a320000043100000a32000014
:1047bc003a2f00000a3200000a320000da2f000003
:1047cc000a3200000a3200009a2f00000a32000060
:1047dc00043000000a3200000a3200000a320000e5
:1047ec000a3200000a3200000a3200000a320000cd
:1047fc000a320000ba2f00000a3200000a32000010
:10480c000a3200000a3200000a3200000a320000ac
:10481c000a3200000a3200000a3200000a3200009c
:10482c000a3200000a3200000a3200000a3200008c
:10483c000a3200000a3200000a3200000a3200007c
:10484c000a3200000a3200000a3200000a3200006c
:10485c000a3200000a3200000a3200000a3200005c
:10486c000a3200000a3200000a3200000a3200004c
:10487c000a3200000a3200000a3200000a3200003c
:10488c000a3200000a3200000a3200000a3200002c
:08489c000a320000c0300000e8
:020000040000fa
:1048a40070b58eb00f236b4401221a70002800d11a
:1048b40093e04b4b02681a604a4b82681a604a4b79
:1048c400c2681a60494b028a1a80837c002b03d089
:1048d4000f236b4404221a70454b00221a700f20d8
:1048e400684404f0c7fa041e02d020000eb070bd64
:1048f400404b02221a70002005f0c2fb041e06d0b1
:104904003c4b00221a70002003f01affede73a49ed
:10491400012003f069fe04a802f0c6f9040006f0c1
:1049240043fd012820d806f03ffd012822d806f0d7
:104934003bfd01282bd806f037fd012831d806f0bd
:1049440033fd012838d806f02ffd01283dd8230077
:104954000d33cad106f028fd0028c6d006f01efd8e
:10496400264903f05dffc0e706f018fd244903f073
:1049740057ffd8e706f012fd04ad6b792a79214977
:104984002e8c0196ad79009503f04affcfe706f02f
:1049940005fd1d4926236b441a226a4403f040ff97
:1049a400c9e706f0fbfc04ad2b7aea7917496d7a66
:1049b400009503f035ffc2e706f0f0fc1449072325
:1049c4000093132203f02cffbde706f0e7fc114b24
:1049d400114a124903f024ffb9e70c24644284e726
:1049e400f05d0020ec5d0020e85d00208a5e002080
:1049f4008f5e0020905e0020212f0000200e00001a
:104a04004c0d0000680d00008c0d0000ac0d000082
:104a1400d00d0000e80d0000f40d0000000e0000b1
:020000040000fa
:104a240070b50500594c247fe0b2002c00d0a7e0fb
:104a340000294ad0002d48d0554c666807243440dc
:104a4400012c5ed0514805604260002444618461b9
:104a540004614e488160002a58d04c4ad3604b4ac6
:104a6400012111774a4a127e520705d5484a04208b
:104a7400916a117e0142fbd1454a518b04200143c6
:104a84005183117e7c300143117640498a68c9689c
:104a9400914203d93d48c168891a01613c4949687a
:104aa400490743d139498969914233d2374a116858
:104ab400087837498862916901319161002b5ad095
:104ac400334b04229a7501205be0002b59d0002a55
:104ad40057d02f4c666807243440012c0cd02b4847
:104ae400056042600024446184610461002db0d1fa
:104af400264900208860aee7002943d1dc07eed5c3
:104b04003fe0cc073dd4002be9d0f7e71f4a002152
:104b1400d160a4e71d4a1269002acfd01c4aff21a4
:104b240091621a490a69013a0a61c7e7174a91680a
:104b340049089160116949081161d1684908d16037
:104b4400916892698a420ad210490a681288d20589
:104b5400d20d0f4882628a6901328a61aee70b4a3c
:104b64001269002aaad00a4a0a49916207490a69c5
:104b7400013a0a61a2e7064b01229a75012000e07e
:104b8400002070bdcc07b9d5fbe7c046585c0020b7
:084b940000180042ff010000bf
:020000040000fa
:104b9c00f8b5de4657464e464546e0b506f0c6f932
:104bac004a4b1a68013a1a601b680024002b7fd10b
:104bbc00474b1b68002b7bd0464b1b68002b60d0ef
:104bcc00444e0020444dac46444b9a46b34609e053
:104bdc00196a516013e0d96851601ee05b461b688e
:104bec00002b4cd0f368db689a6adf69196ab960ec
:104bfc00df694f601900183157688f42e8d098620e
:104c0c001168013911605a699f68d968b9609f6849
:104c1c004f601f1d5168b942ddd0586111680139d0
:104c2c001160d96a2a68914201d9624611608a00e2
:104c3c00521892002a498a1852689a609468dc606b
:104c4c0067609760df6aba00d419a400a046884454
:104c5c0044465c61d419a4006458a0460124a146c2
:104c6c00c844d2199200444654501e4a1168da6a5c
:104c7c00cb6a9a42b2d3012352461360aee705f0d9
:104c8c007bfd194b1c68002c0ed0144e012502e044
:104c9c00013c002c05d0fff7d3fa0028f8d0356082
:104cac00f6e7114b00221a600c4b1c68002c08d143
:104cbc0006f022fa2000f0bcbb46b246a946a0463c
:104ccc00f8bd06f027f90124f2e7c046385e002053
:104cdc00605e0020185d0020585e00204c5e0020b5
:0c4cec00205b0020705e0020505e002065
:020000040000fa
:104cf80070b5504b586a504b9b7d002b54d04e4991
:104d08004c68072214404b4b5a699d699e680b7e7c
:104d18005b0757d5896a474bdb68934252d9002c09
:104d280043d1444b5b6899540132434b1b7edb07ec
:104d380016d5414b012119753e4b9b68ab4256d99c
:104d48003c4b1b68595d3c4b99620135394b1b69db
:104d5800002b01d1b54262d0364bdb68934262d05a
:104d6800344b5a619d61344b1b7e9b0715d5334be1
:104d78001b78002b18d02f4bdb68934211d12d4b99
:104d880000221a772c4907240c752c490a701b6ad3
:104d9800002b09d0274b1b6a9847284b1b78002b00
:104da80002d0254b02229a7570bd224b5b685400d5
:104db800e1520132204b1b7edb07d1d51e4b01216e
:104dc800197508e01c4b1b7edb07c9d51a4b01215e
:104dd8001975002cb0d0174b9b68ab4213d9154bf3
:104de8001b686900c95a144b99620135aee7114b2b
:104df8001b69002baad0104bff2199620d490b6942
:104e0800013b0b61a2e70b4b1b69002b9ed00a4ba1
:104e18000b49996207490b69013b0b6196e7074b00
:104e2800012119709ce7044b01219975033119750b
:104e380096e7c046585c002000180042935e0020a8
:044e4800ffff000068
:020000040000fa
:104e4c00f0b5c64600b5040017004568012903d02b
:104e5c00464e474b984651e00022444e454f18e0d1
:104e6c0023681b68390028009847b16823681b68c1
:104e7c0028009847f16823681b68280098473e492a
:104e8c0023681b682800984701221836384b9e422d
:104e9c000ad07368002bf8d0002ae1d13749236877
:104eac001b6828009847dbe7354923681b682800f6
:104ebc009847344e2f4b98462f4f23681b6841461a
:104ecc0028009847316823681b6828009847b16808
:104edc0023681b682800984723681b683900280042
:104eec0098470c36284b9e42e7d1284923681b680b
:104efc002800984731e01836464531d07368002bae
:104f0c00f9d07968b06806f07cf80028f3d177689e
:104f1c00336800229046002b1ad0164923681b6870
:104f2c0028009847396823681b6828009847b96897
:104f3c0023681b68280098470f4923681b682800c2
:104f4c00984701239c46e0440c3733684345e4d82a
:104f5c000e4923681b682800984780bcb846f0bdf2
:104f6c000b4923681b6828009847f6e790580020e7
:104f7c0050590020a80f0000b00f00007c0f00005b
:104f8c00b80f0000b0a90000d4a900001c0e00004e
:044f9c00e40f00001e
:020000040000fa
:104fa000f0b5d64600b586b00300049105924c4a90
:104fb0005468002c0bd02600d43600280bd0fc22dd
:104fc000a458002c03d04648fa3a3100a04706b056
:104fd00080bcba46f0bd4349300005f0c5fc01284d
:104fe000f5d1336a002b03d0b369059a934272d28c
:104ff000300005f041ffeae7386a049906f0aaf8a4
:105000007b6a049a94469c4462460492ed1a0ce032
:105010003b6a002b25d07b6a002b22d0002d3fd08d
:105020007a6aaa422fd2002ae6d100233b627b6231
:105030002b4b5a68fc23d358002b12d0300005f0bc
:105040001bff27484268fc23d3589a4600230422ba
:105050003100d0472349300005f086fc0128d7d025
:10506000b5e7d4340023a361300005f005ff1c4be5
:105070005a68fc23d458002ca9d0194800230222d6
:105080003100a047a3e72700d437386a2a000499e3
:1050900006f060f83b6a5b193b627b6a5b1b7b62d4
:1050a000d434a36905995b1aa36162698c46624492
:1050b0006261002bd8d0300005f0defe084842685f
:1050c000fc23d35802930023019300930022310064
:1050d00000f0f2fd7be7059d2700d4379ee7c04630
:0850e000645d0020ffff0000e9
:020000040000fa
:1050e800f0b585b04a4e4b4c33681f68002f5cd032
:1050f800db681f6806f0eef801a803f09fff0500c3
:10510800019a002a0bd1b8425dd3fff743fd29006d
:10511800380004f001ff5fe005f0fefe5ce0fff7f9
:1051280039fd59e02422ab5c01210b43ab54029baf
:10513800a96959180200280004f086fb00284bd002
:105148002423eb5c5a0707d4012293432332ab5440
:105158002b6a280098473fe00299ab69c9183a00c2
:10516800280005f089fbf3e72422ab5c01218b437f
:10517800ab5431e02422ab5c01210b43ab540299c0
:10518800a961411803000200280004f05dfb23e038
:105198002423eb5c9a0704d5012293432332ab54b2
:1051a8001ae0280003f0a9fb16e006f093f801a81e
:1051b80003f044ff0500019b002bb0d1164b1b6880
:1051c8001a6853425a41791b124b186804f0c4f903
:1051d800fff7e0fc00289fd02068002201a900f01a
:1051e800feff002880d0019b002bf5db039d6b6937
:1051f800002b02d0281d05f07afb684603f01eff3d
:105208000700019b092be7d89900044b5b589f4680
:10521800345e00202c5e0020305e0020a8a800002c
:020000040000fa
:10522800f0b5c64600b584b0040001910023984645
:1052380000274425002645e0013ba3632368002b93
:105248000bd02369002b0cd105f058ff0123984699
:10525800404604b080bcb846f0bd05f0adfda06086
:10526800efe72000103001f0d3fb0028ecd005f068
:1052780053fee9e705f042ff00239846e8e702a855
:1052880005f062fe28e0665530e04523e65432e03a
:1052980005f04efea06802f0e5f9804605f02eff05
:1052a80039e0200002f07afffff774fc09e02000e3
:1052b80002f074fffff76efc200005f029ff0028bc
:1052c80038d1012705f034fea36b002bb4d1019b24
:1052d800002bcfd0002fd2d005f010ff05f0faff39
:1052e80005f026fe635d5bb20133ccd04523e35c59
:1052f8005bb20133c9d005f001ff01a902a803f090
:10530800cbfe0028d3d1200005f002ff0028c8d02a
:105318002368002bbcd001992000243005f03efd05
:10532800200002f03bfffff735fc0028c9d105f04b
:10533800f3fdc6e74346002b00d189e705f0f8fde9
:10534800616a002903d0236b1b680521c91aa0686c
:0e53580002f094fd05f0d2fe0023984678e79f
:020000040000fa
:0253660070478e
:020000040000fa
:1053680030b59db01400062819d0072827d0012889
:1053780000d088e0002370226946200001f0fafc82
:10538800002800d07be0414b1b68002b00d17ae05d
:105398003f4970340c6069460130984773e0002338
:1053a80004226946200001f0e5fc002867d1374b4c
:1053b8001b68002b67d069460630984763e00023d6
:1053c80008226946200001f0d5fc041e4ed16b4628
:1053d8009b886a46d288694648880978002b15d187
:1053e8002c4b01251d70121a53425a41d3b202297f
:1053f80024d005d8002924d1264a0021117020e0a4
:10540800032929d1234a032111701ae09b181b1a7a
:105418005a425341dbb2022910d006d8002910d1d4
:105428001c4a1278012a0cd1e6e7032910d1194a3f
:105438001278023afd210a4203d0e3e7154a022115
:105448001170002b1fd0114b1b68002b12d11ae0d2
:10545800104a1278022af4d00e4a04211170f0e79b
:1054680005f09aff0c4903f0d9f90ce0074b1b68cb
:10547800002b04d0074907209847002c03d005f0db
:1054880091ff0028ecd11db030bdc046c05d0020a2
:0c549800bc5d0020975e00205002000068
:020000040000fa
:1054a400f0b5de4657464e464546e0b583b08346e2
:1054b4000f009246002399462ae005f075ff002864
:1054c40007d1013803b0f0bcbb46b246a946a0469a
:1054d400f0bd05f063ff3c4903f0a2f9012040420e
:1054e400f0e7002c2edd58464844414603f038fcd2
:1054f400002831d0354b1b78524613434cd04b46d1
:1055040043441bb299464346ff1abfb2002f58d0fa
:105514003b1c80229201974200d9131c9bb29846ef
:105524000a246b46dd1c0f260121280003f018fc19
:105534000028c2d02b78b343f02bd2d0013c24b244
:10554400631cf1d15346002b0dd0584648444146c4
:1055540003f006fc0028d2d105f026ff002813d161
:1055640001204042aee705f01fff002802d10120d0
:105574004042a7e705f012ff6b46da78144903f0be
:105584004ff9012040429de705f008ff114903f05f
:1055940047f90120404295e7022101a803f0e0fb0e
:1055a4000028acd105f000ff002802d101204042c0
:1055b40088e705f0f3fe084903f032f90120404280
:1055c40080e700207ee7c046300300008e5e0020a6
:0c55d4006c030000a4030000dc030000d6
:020000040000fa
:1055e000f0b58fb00c934b680d0008938b681600d4
:1055f0000993cb680f680393089b0b90002b43db48
:1056000002239f4310233a001a400d92099a0492f4
:105610001f4206d033687268134302d0099b023bd5
:10562000049308233b400a935a1e9341049a2c6921
:10563000d31a04933368039a06937368013c079363
:1056400000231355049b0593012c20dc0d9b002b9c
:1056500050d10a9b002b03d02023039a013c135501
:105660002a69039b013a19190b98099b121b009791
:1056700002f0cefe0b9b5b68db0503d56b6898429e
:1056800000da18000fb0f0bd01230893bae7069bbb
:10569000079a13430ad1049a089b9b1a059a9b18f0
:1056a000002b03dc002ad1ddbb07cfd50f23069ae0
:1056b000013c134018005730092b01dc303318002f
:1056c0000c9b413b192b06d820230343613b192b2c
:1056d00001d805f03ffe039b1855059b013b059340
:1056e000079b1a07069b1b091a43079b06921b0977
:1056f0000793a9e70cce1343abd0039b0c9a1b195d
:0e570000013b1a703023039a023c1355a1e7b7
:020000040000fa
:10570e00f0b50d001900002387b0040005931000ba
:10571e009d4207da2b002200002554429d410123b1
:10572e005b420593002907da059b0200db430593d4
:10573e000b0000215042994126002f00029000914b
:10574e00a94200d96fe002d1a04200d96be00099c6
:10575e00029805f03efc29000490200005f039fc6b
:10576e00049b00991b1a1a000298049305f025fc5d
:10577e0000900191a94250d801d1a0424dd8009a73
:10578e00019ba41a9d4101200021049a26002f009e
:10579e0005f013fc049b002b35d0019b009adb0710
:1057ae0052081a43019b00255b080393049b0124b6
:1057be009c460292039bbb4232d802d1029bb3425b
:1057ce002ed832003b00029e039f921bbb419218c3
:1057de005b4112196b4116001f0001235b429c4472
:1057ee006346002be6d180197941049a04000d001e
:1057fe003000390005f0d5fb049a05f0defb241ac3
:10580e008d4120002900059b002b04d003000c00c5
:10581e0000215842a14107b0f0bd00200021b9e798
:0c582e00b6197f41d9e700200021ece70b
:020000040000fa
:02583a00fee787
:020000040000fa
:10583c0070b584b008ac257801ac20703d30c4b292
:10584c000c2c00d97ce0a0003f4c2058874601abc3
:10585c000a0c5a700a0a9a70d97005213b4b1b78b6
:10586c00002b5bd14e1e01aa6b4603335c187f23c1
:10587c00374d5b0010784340eb5c0132a242f8d10b
:10588c005b0001aa935501a803f08efc03000020d5
:10589c00002b46d004b070bd0b0adbb2002d01d03a
:1058ac008022134301aa537091700023d3700521f9
:1058bc00d4e701abff225a709a70da700521cde75c
:1058cc0001aa080c5070080a9070d170190c117153
:1058dc00190a517193710821c0e7080ac0b2002d52
:1058ec0001d08023184301ab58709970110ed970f8
:1058fc00110c1971110a59719a710821aee701ab9b
:10590c00080c5870080a9870d970110e1971110c86
:10591c005971110a9971da7109219fe70139c9b2dc
:10592c00b1e705f03dfd002802d101204042b1e76e
:10593c0005f030fd074902f06fff01204042a9e756
:10594c0001204042a6e7c04624a300008e5e002042
:08595c00e85f00009c0200005e
:020000040000fa
:10596400f8b50700394c02e0012005f05dfd200088
:1059740005f062fd0028f7da354805f05dfdc00743
:105984000dd4344c344d354e012005f04dfd280026
:1059940005f052fd013c002c22d0b042f4d1022f7c
:1059a4002dd0032f36d0042f3ed02d492d4805f09d
:1059b4004bfd002401f030fc03051b0de82292008e
