:020000040000fa
:10000000f07f002069ed00008f930000efa2000058
:1000100000000000000000000000000000000000e0
:10002000000000000000000000000000a7b2000077
:10003000000000000000000061ef0000b5080100b2
:10004000cb8e0000cb8e0000cb8e0000cb8e00004c
:10005000c5dc0000cb8e0000cb8e0000cb8e0000f4
:10006000cb8e0000cb8e0000cb8e0000cb8e00002c
:10007000cb8e000085690000a5e40000cb8e000057
:10008000cb8e0000cb8e0000bd050100cb8e0000a2
:10009000cb8e00000000000000000000cb8e0000ae
:1000a000cb8e0000cb8e0000cb8e0000cb8e0000ec
:020000040000fa
:1000b000f8b5c046f8bc08bc9e46704771ec00001d
:1000c000f8b5c046f8bc08bc9e46704749ec000035
:020000040000fa
:1000d000f478000001000000c09a00000100000058
:020000040000fa
:1000e000427573206572726f72202835292e25643f
:1000f00020256c780d0a00004661696c65642074e7
:100100006f2077616b652075702074686520636867
:1001100069700d0a000000006661696c65642074f6
:100120006f206c6f6164206669726d776172652003
:1001300066726f6d20666c6173682e0d0a00000098
:10014000447269766572566572496e666f3a203000
:10015000782530386c780d0a000000006661696c03
:10016000656420746f2064652d696e697469616cc3
:10017000697a650d0a0000005b6e6d692073746119
:1001800072745d3a206661696c20696e69742062e0
:1001900075730d0a0000000043686970204944200f
:1001a000256c780d0a0000005b6e6d692073746128
:1001b00072745d3a206661696c20696e697420739f
:1001c00070690d0a000000006661696c6564207446
:1001d0006f20656e61626c6520696e746572727500
:1001e0007074732e2e0d0a005b6e6d692073746f30
:1001f000705d3a20636869705f6465696e69742038
:100200006661696c0d0a00005b6e6d692073746f26
:10021000705d3a2053504920666c617368206469b0
:100220007361626c65206661696c0d0a00000000f4
:100230005b6e6d692073746f705d3a206661696ce6
:1002400020696e6974206275730d0a004572726fc1
:100250007220726563656976696e672053534c201e
:1002600066726f6d20746865204849460d0a00006b
:100270006869665f72656769737465725f63622837
:1002800029206661696c65642077697468207265ed
:10029000743d2564000000005472616e73666572df
:1002a00072656420256c75206279746573206f66b1
:1002b00020636572742064617461204e4f4e2d433b
:1002c00048554e4b45440d0a000000005472616ec3
:1002d0007366657272656420256c75206279746539
:1002e00073206f66206365727420646174612043bb
:1002f00048554e4b454420746f206f666673657495
:1003000020256c7520746f74616c20256c750d0a46
:100310000000000068696620727820646f6e6520b6
:100320006661696c65640a005b7370695f636d6424
:100330005d3a204661696c656420636d6420777264
:100340006974652c20627573206572726f722e2e2f
:100350002e0d0a000d5b7370695f636d645f7273cd
:10036000705d3a204661696c656420636d6420723b
:100370006573706f6e736520726561642c206275a1
:1003800073206572726f722e2e2e0d0a000000000f
:100390000d5b7370695f636d645f7273705d3a20ab
:1003a0004661696c656420636d6420726573706f6b
:1003b0006e736520726561640a0000005b7370698a
:1003c0005f646174615f726561645d3a2046616972
:1003d0006c6564206461746120726573706f6e7304
:1003e0006520726561642c20627573206572726f7e
:1003f000722e2e2e0d0a00005b7370695f646174ab
:10040000615f726561645d3a204661696c65642074
:100410006461746120726573706f6e7365207265bc
:1004200061642e2e2e2825303278290d0a00000016
:100430005b7370695f646174615f726561645d3a8a
:10044000204661696c6564206461746120626c6f30
:10045000636b20726561642c206275732065727213
:100460006f722e2e2e0d0a005b7370695f646174cb
:10047000615f726561645d3a204661696c65642004
:100480006461746120626c6f636b2043524320721d
:100490006561642c20627573206572726f722e2ef6
:1004a0002e0d0a005b7370695f726561645f72652f
:1004b000675d3a204661696c656420636d642c2039
:1004c000726561642072656720282530386c782950
:1004d0002e2e2e0d0a0000005b7370695f7265613d
:1004e000645f7265675d3a204661696c656420638c
:1004f0006d6420726573706f6e73652c2072656118
:10050000642072656720282530386c78292e2e2ebd
:100510000d0a00005b7370695f726561645f7265ec
:10052000675d3a204661696c65642064617461208e
:10053000726561642e2e2e0d0a00000052657365ef
:100540007420616e642072657472792025642025a0
:100550006c780d0a000000005b7370695f77726948
:1005600074655f7265675d3a204661696c656420f9
:10057000636d642c2077726974652072656720282a
:100580002530386c78292e2e2e0d0a005b73706989
:100590005f77726974655f7265675d3a204661696d
:1005a0006c656420636d6420726573706f6e736533
:1005b0002c20777269746520726567202825303891
:1005c0006c78292e2e2e0d0a0000000052657365ee
:1005d0007420616e64207265747279202564202510
:1005e0006c7820256c780d0a000000005b6e6d5f52
:1005f0007370695f696e69745d3a204661696c6504
:100600006420696e7465726e616c2072656164202d
:1006100070726f746f636f6c2077697468204352d7
:1006200043206f6e2c207265747279696e67207733
:1006300069746820435243206f66662e2e2e0d0a81
:10064000000000005b6e6d5f7370695f696e6974b6
:100650005d3a204661696c656420696e7465726eee
:10066000616c20726561642070726f746f636f6c6f
:100670002e2e2e0d0a0000005b6e6d5f7370695f99
:10068000696e69745d3a204661696c656420696ec3
:100690007465726e616c2077726974652070726f18
:1006a000746f636f6c207265672e2e2e0d0a00002a
:1006b0005b6e6d5f7370695f696e69745d3a204649
:1006c00061696c20636d6420726561642063686990
:1006d000702069642e2e2e0d0a0000005b6e6d5f87
:1006e0007370695f696e69745d3a206368697069e7
:1006f00064202825303878290d0a00005b73706962
:100700005f726561645f626c6f636b5d3a20466126
:10071000696c656420636d642c207265616420627d
:100720006c6f636b20282530386c78292e2e2e0da7
:100730000a0000005b7370695f726561645f626ce0
:100740006f636b5d3a204661696c656420636d641c
:1007500020726573706f6e73652c20726561642002
:10076000626c6f636b20282530386c78292e2e2e12
:100770000d0a00005b7370695f726561645f626c93
:100780006f636b5d3a204661696c656420626c6fd3
:10079000636b206461746120726561642e2e2e0d7e
:1007a0000a000000526573657420616e64207265f2
:1007b00074727920256420256c782025640d0a0048
:1007c0005b7370695f77726974655f626c6f636b8e
:1007d0005d3a204661696c656420636d642c207706
:1007e0007269746520626c6f636b20282530386ce9
:1007f00078292e2e2e0d0a005b7370695f7772695f
:1008000074655f626c6f636b5d3a204661696c650d
:100810006420636d6420726573706f6e73652c2045
:10082000777269746520626c6f636b20282530389d
:100830006c78292e2e2e0d0a000000005b73706963
:100840005f646174615f77726974655d3a204661c7
:10085000696c6564206461746120626c6f636b20f5
:10086000636d642077726974652c206275732065ee
:1008700072726f722e2e2e0d0a0000005b7370696b
:100880005f646174615f77726974655d3a20466187
:10089000696c6564206461746120626c6f636b20b5
:1008a00077726974652c20627573206572726f723d
:1008b0002e2e2e0d0a0000005b7370695f64617458
:1008c000615f77726974655d3a204661696c656441
:1008d000206461746120626c6f636b20435243201b
:1008e00077726974652c20627573206572726f72fd
:1008f0002e2e2e0d0a0000005b7370695f777269ff
:1009000074655f626c6f636b5d3a204661696c650c
:100910006420626c6f636b2064617461207772691c
:1009200074652e2e2e0d0a005b7370695f777269f5
:1009300074655f626c6f636b5d3a204661696c65dc
:100940006420627573206572726f722e2e2e0d0aee
:10095000000000005b7370695f77726974655f62a5
:100960006c6f636b5d3a204661696c6564206461fd
:10097000746120726573706f6e7365207265616457
:100980002c2025782025782025780d0a00000000ed
:10099000536c6f77696e6720646f776e2e2e2e0d05
:1009a0000a0000004661696c656420746f20616c08
:1009b0006c6f632072782073697a652025640d0a54
:1009c0000000000028484946294661696c6564209a
:1009d000746f2077616b657570207468652063683b
:1009e00069700d0a00000000484946206d65737368
:1009f000616765206c656e6774682028256429200e
:100a000065786365656473206d6178206c656e67d9
:100a1000746820282564290d0a000000286869668a
:100a20002920574946495f484f53545f5243565f08
:100a30004354524c5f3120627573206661696c0dbe
:100a40000a00000028686966292061646472657381
:100a50007320627573206661696c0d0a00000000e6
:100a6000286869662920436f727275707465642006
:100a70007061636b65742053697a65203d2025752c
:100a8000203c4c203d2025752c2047203d202575fd
:100a90002c204f50203d20253032583e0d0a0000ba
:100aa000574946492063616c6c6261636b206973ce
:100ab000206e6f7420726567697374657265640d6a
:100ac0000a000000536f636b65742063616c6c6295
:100ad00061636b206973206e6f7420726567697340
:100ae00074657265640d0a004f74612063616c6cfb
:100af0006261636b206973206e6f74207265676931
:100b00007374657265640d0a0000000043727970a9
:100b1000746f2063616c6c6261636b206973206e1b
:100b20006f7420726567697374657265640d0a007d
:100b30005369676d612063616c6c6261636b2069ee
:100b400073206e6f74207265676973746572656473
:100b50000d0a000053534c2063616c6c6261636b3f
:100b6000206973206e6f7420726567697374657293
:100b700065640d0a00000000286869662920696e16
:100b800076616c69642067726f75702049440d0a44
:100b900000000000286869662920686f737420616e
:100ba0007070206469646e277420736574205258d5
:100bb00020446f6e65203c25753e3c25583e0d0a4d
:100bc0000000000028686966292057726f6e672050
:100bd00073697a650d0a00002868696629204661f4
:100be0006c736520696e7465727275707420256c03
:100bf000780d0a002868696629204661696c656479
:100c000020746f207265616420696e7465727275fc
:100c10007074207265670d0a00000000286869661c
:100c200029204661696c20746f2068616e646c6570
:100c300020696e74657272757074202564207472f8
:100c40007920616761696e2e2e0d0a002068696641
:100c50005f726563656976653a20496e76616c6995
:100c60006420617267756d656e740d0a0000000086
:100c700041505020526571756573746564205369e5
:100c80007a65206973206c6172676572207468618f
:100c90006e2074686520726563656976656420629c
:100ca00075666665722073697a65203c25753e3ce1
:100cb000256c753e0d0a000041505020526571753b
:100cc0006573746564204164647265737320626542
:100cd000796f6e64207468652072656365697665f6
:100ce0006420627566666572206164647265737300
:100cf00020616e64206c656e6774680d0a000000e8
:100d0000475270203f2025640d0a000047656e653c
:100d1000726174656420486f737446696c654861dc
:100d20006e646c657249442069732025750d0a0054
:100d3000496e76616c6964204f544120726573700e
:100d4000202564203f0d0a0057494e432069732037
:100d50006e6f7420696e20616e20617070726f70aa
:100d6000726961746520737461746520666f7220a6
:100d700074686973206f7065726174696f6e210d9c
:100d80000a000000556e61626c6520746f20726508
:100d900061642053504920466c6173680d0a00005d
:100da000436f6e666c69637465642049502022202d
:100db00025752e25752e25752e257520220d0a00e8
:100dc000524551204e6f7420646566696e656420db
:100dd00025640d0a000000000a57494e43313530a2
:100de00030204669726d7761726520446174613aa2
:100df0000d0a00004669726d776172652056657252
:100e00003a2025752e25752e25752053564e2052d5
:100e100065762025750d0a004669726d77617265e9
:100e2000204275696c742061742025732054696dab
:100e3000652025730d0a00004669726d7761726541
:100e4000204d696e20447269766572205665723a4b
:100e50002025752e25752e25750d0a00447269769c
:100e60006572205665723a2025752e25752e2575da
:100e70000d0a000031343a31353a353500000000b2
:100e80005365702020352032303236004472697646
:100e90006572204275696c7420617420257320543a
:100ea000696d652025730d0a0d0a00004d69736d8b
:100eb00061746368204669726d776172652056655a
:100ec0007273696f6e0d0a00536f636b6574202532
:100ed000642073657373696f6e204944203d20253b
:100ee000640d0a00726563762063616c6c626163f5
:100ef0006b2073657373696f6e204944203d202514
:100f0000640d0a0043757272656e74203c25643e60
:100f10000d0a000044697363617264207265637630
:100f20002063616c6c6261636b2025642025640d15
:100f30000a00000068696620727820646f6e652080
:100f40006661696c65640d0a0000000073656e647b
:100f50002063616c6c6261636b2073657373696f8e
:100f60006e204944203d2025640d0a0044697363c6
:100f70006172642073656e642063616c6c6261638e
:100f80006b2025642025640d0a000000536f636bfd
:100f900020746f2064656c657465203c25643e0d8b
:100fa0000a000000556e6b6e6f776e2053534c2015
:100fb000536f636b6574204f7074696f6e20256486
:100fc0000d0a00004e6f742053534c20536f636b17
:100fd00065740d0a000000000d0a57494e433a207f
:100fe000496e697469616c697a696e672e2e2e0d7f
:100ff0000a0000006d326d5f776966695f696e692e
:10100000745f686f6c64206661696c65640d0a00ca
:101010000d0a6d326d5f776966695f696e69745f2d
:101020007374617274206661696c65640d0a0000f6
:101030000d0a57494e433a20496e697469616c69db
:101040007a696e672e2e2e636f6d706c6574650df8
:101050000a0000002d2d2d2d2d454e4420434552d4
:1010600054494649434154452d2d2d2d2d00000056
:101070002d2d2d2d2d424547494e20434552544993
:101080004649434154452d2d2d2d2d000d526563ac
:1010900065697665642076616c7565206973203ab0
:1010a000256420616e64207461736b20696420691b
:1010b000732025640a0000005461736b4c65644d15
:1010c000677200005461736b53656375726974795c
:1010d0004d6772005461736b576966694d677200a2
:1010e0006c656451000000007365635100000000ee
:1010f0007769666951000000546d72205376630071
:1011000049444c45000000000d0a204c6564206de8
:10111000677220696e69742066756e6374696f6e9c
:101120000d0a00000d0a20536563757269747920f9
:101130006d677220696e69742066756e6374696f7d
:101140006e0d0a000d0a2057696669206d677220ce
:101150006f73616c2074696d65722072656c6f616c
:10116000642066756e6374696f6e0d0a000000007e
:101170000d0a2057696669206d677220636c6f7570
:1011800064207769666920696e69742066756e638c
:1011900074696f6e0d0a00000d0a20436c6f756450
:1011a00020696e6974207375636365737366756c0b
:1011b0006c790d0a000000000d0a2057696669204d
:1011c0006d67722077696e6320696e697420667539
:1011d0006e6374696f6e0d0a000000000d0a2057df
:1011e000696669206d677220696e69742066756e24
:1011f0006374696f6e0d0a000d0a205769666920d5
:101200006d677220696e697469616c697361746974
:101210006f6e20737563636573730a00436c6f753b
:101220006420496e697469616c697a6174696f6e72
:10123000000000000d0a20436f6d6d6f6e2063612a
:101240006c6c6261636b2066756e6374696f6e0da2
:101250000a0000005b62756620746f6f20736d6119
:101260006c6c5d00554e4b4e4f574e00534f434be9
:1012700045545f4d53475f434f4e4e4543542065a1
:1012800072726f72202573282564290d0a000000f0
:1012900025733a20756e68616e646c6564206d65b7
:1012a00073736167652025640d0a000057494e433a
:1012b0003135303020574946493a20444e53206c4e
:1012c0006f6f6b75703a0d0a2020486f73743a2067
:1012d00020202020202025730d0a20204950204165
:1012e0006464726573733a2025752e25752e2575f5
:1012f0002e257500257300004661696c65642074b5
:101300006f206372656174652074686520736f6314
:101310006b65742e000000006d7174742e676f6f22
:10132000676c65617069732e636f6d0057494e433a
:101330003135303020574946493a204661696c655d
:101340006420746f20636f6e6e65637420746f2009
:10135000636c6f756420496f742e0000736f636b4c
:101360006574202564200d0a0000000057494e4393
:101370003135303020444e53206c6f6f6b757020c8
:101380006661696c65642e00495020616464726511
:1013900073732069732025730d0a00005f5f534c3f
:1013a0004f54203d2025752c20457272203d20256c
:1013b000580a00006d326d5f73736c5f72657472f2
:1013c000696576655f636572742829206661696c5a
:1013d00065642077697468207265743d2564000037
:1013e00045434453412053696756657269662046f8
:1013f00041494c45440a00006d326d5f73736c5f68
:1014000072657472696576655f6861736828292002
:101410006661696c65642077697468207265743de3
:1014200025640000434552545f0000004543445387
:10143000412e6c737400000031343a32323a31304c
:101440000000000053656375726520456c656d652d
:101450006e7420416464726573733a20307825306d
:101460003258200d0a000000436c6f756420456ef1
:1014700064706f696e743a202573200d0a000000b5
:10148000436f6e6e656374696e6720776974682058
:101490004d4348502063657274730d0a0d0a0000b5
:1014a000534f434b5f4552525f4e4f5f4552524f31
:1014b00052000000534f434b5f4552525f494e5616
:1014c000414c49445f41444452455353000000009d
:1014d000534f434b5f4552525f414444525f414c2e
:1014e00052454144595f494e5f5553450000000045
:1014f000534f434b5f4552525f4d41585f544350e9
:101500005f534f434b000000534f434b5f455252d4
:101510005f4d41585f5544505f534f434b000000af
:10152000534f434b5f4552525f494e56414c4944dd
:101530005f41524700000000534f434b5f455252fa
:101540005f4d41585f4c495354454e5f534f434b99
:1015500000000000534f434b5f4552525f494e56c7
:10156000414c494400000000534f434b5f455252e9
:101570005f414444525f49535f524551554952457a
:1015800044000000534f434b5f4552525f434f4e60
:101590004e5f41424f52544544000000534f434b6d
:1015a0005f4552525f54494d454f5554000000006d
:1015b000534f434b5f4552525f4255464645525f3b
:0515c00046554c4c00f3
:020000040000fa
:1015c800106500201c00000000000000ef640020ef
:1015d8000100000000000000b865002010000000b5
:1015e8000000000060660020040000000000000009
:1015f800ca6700200100000001000000040000008c
:10160800646600200c000000000000000f65002048
:101618000100000000000000b46800200200000083
:101628000400000000010800846400202800000075
:1016380000000000706600200c00000000000000a0
:10164800cb6700200100000001000000ff0000003f
:101658003866002008000000000000007c660020ba
:101668001400000000000000826400200200000056
:101678000000000090660020080000000000000044
:101688003d6700200100000000000000986600206f
:101698000400000000000000406700200400000073
:1016a800000000009c660020080000000000000008
:1016b800446700200100000000000000a46600202c
:1016c80008000000000000003e6700200200000043
:1016d80000000000a0600020b00000000000000032
:1016e800105d00200801000000000000c86500200f
:1016f8001000000000000000005a0020a0010000b7
:1017080000000000946800200c00000001000000a8
:101718000000000058680020000000005868002001
:101728002c000000010000001d1901002119010012
:10173800e1da000055d90000b707010025190100ba
:1017480021f6000009fa000095050100491601007c
:10175800b983000008680020300000000100000084
:101768000003000060000000a086010000000000e7
:101778000000000000000000000000000000000061
:1017880000000000dc050000140000007068002064
:10179800a868002004000000010000002b2f3d4035
:1017a800ac6400202400000000000000d865002080
:1017b8001000000000000000ac66002004000000db
:1017c80000000000e05f0020c000000000000000f2
:1017d800006400202c000000000000004567002085
:1017e80001000000000000002c6400202c00000014
:1017f8000000000000580020000200000000000067
:10180800f0610020800000000000000080630020dc
:1018180040000000000000004066002008000000b2
:1018280000000000b0660020040000000000000076
:10183800486600200800000000000000086600203c
:101848000c00000000000000b46600200400000046
:1018580000000000466700200100000000000000b2
:10186800185f0020c8000000000000001466002077
:101878000c00000000000000476700200100000085
:1018880000000000b866002004000000000000000e
:1018980050610020a000000000000000c06300208c
:1018a8004000000000000000e86500201000000073
:1018b80000000000cc6700203c0000000100000090
:1018c80000000000b8100000000100000100000046
:1018d8007916010001000000c4100000000100009a
:1018e800010000009916010002000000d410000059
:1018f8000001000001000000950b01008468002031
:1019080010000000010000000000000000000000be
:101918000000000090080100ac68002004000000ee
:1019280001000000aaaaaaaabc66002008000000bc
:10193800000000000000002000500000000000002f
:10194800c466002014000000000000002c65002080
:101958002800000000000000d86600202c000000cd
:101968000000000054650020140000000000000082
:1019780004670020040000000000000068650020e3
:101988002800000000000000086700200800000090
:101998000000000090650020280000000000000002
:1019a8007062002064000000000000001067002042
:1019b8000800000000000000a068002008000000e7
:1019c8000100000003000000a916010018670020ac
:1019d8000400000000000000f8650020100000006e
:1019e800000000001c670020040000000000000048
:1019f8003c6700200100000000000000185e002085
:101a08000001000000000000005000200008000055
:101a18000000000020670020040000000000000013
:101a2800d06400201f00000000000000f0640020c7
:101a38001f000000000000002467002004000000d0
:101a480000000000b668002001000000010000004e
:101a58000700000048670020820000000400000022
:101a6800424141414141444431444241414144445d
:101a780031440070286700200400000000000000c6
:101a8800a05b0020700100000000000058640020e6
:101a98002a00000000000000d46200205c00000062
:101aa8000000000050660020080000000000000050
:101ab800206600200c000000000000002c670020b9
:101ac800040000000000000030670020040000004f
:101ad80000000000b06800200400000001000000c1
:101ae800010000003467002004000000000000002e
:101af800306300205000000000000000386800201b
:101b080020000000010000000100000003000000a8
:101b180000000000000000000000000000000000bd
:101b280000000000586600205866002008000000e9
:101b380000000000386700200400000000000000da
:101b48002c6600200c0000000000000000000000cf
:101b580000000000666666666666666666666666b5
:020000040000fa
:101b6800f0b59db012930b6814900b934b681191cc
:101b780004938b680d930b691593cb6808931368ce
:101b880054680693079406980799002200230df0dd
:101b98008dfc00280dd10b9b5b073ed408230b9ac4
:101ba8001a400c920d9a09920b9a1a4213d01833c4
:101bb8000ae080200006844606990a0007996144d5
:101bc8000b00069207932d23089a13700d9b013b77
:101bd800099301230c93079b06995b00c74a5b088e
:101be80000291cd193421ad1089a129b94460c984a
:101bf800413bc3496044192b00d9c2490ff0fcfd91
:101c080008980ff087fa0b9b0200009308990d9b28
:101c180014980af093ff1db0f0bd2b23d4e793422c
:101c280002d80cd100290ad0089a129b94460c9825
:101c3800413bb5496044192be0d9b449dee700229d
:101c48000698079900230ef04afb0026b04f00289b
:101c580000d120e10023039312980ff05efdc3b278
:101c68001093049b002b00daebe1109b0a93672b7f
:101c780012d1049b002b01d10133049365230a93ed
:101c8800039b04331ddb039b049a934219da6623f2
:101c98000a93039b002b14da049b013304930a9bd9
:101ca800662b0ed1039b002b03da00230026984fe6
:101cb8000393109b672b04d0039a049b94466344b8
:101cc8000493069a079b0e920f93002334003d005d
:101cd800139322000e980f992b0008f0c9fb08f007
:101ce80003fe8022120694460e9b169017911893b5
:101cf8000f9b63441993189a199b00920193220031
:101d08002b000ff0ddfc80231b06cb1800222900d6
:101d18000e900f9320007f4b08f0aafb139b040042
:101d280001331393139a049b0d009342d1d10022df
:101d3800794b04f025f90e9a0f9b04000d000df065
:101d480096fb002800d0d5e00e9a0f9b20002900b2
:101d58000ef0c5fa002806d0169817990ef0daf892
:101d6800c00700d4c6e00698079922002b0003f0ac
:101d78008bf8002206900791664b3000390004f07a
:101d8800fff8069a079b0e900f910df04bf900286b
:101d980000d1c7e0039b013303930a9b662b00d055
:101da800c2e0049b039d0133049300263700049b83
:101db8000c9ceb1a1693169b9d4200d0dee0002f78
:101dc80000d11de10026089b1f190a9b3e70652b58
:101dd8002dd1159b5d1e089b5e55039bb34202da0d
:101de8005b4203930136039b002b00d011e1159b46
:101df800eb1a0333002b00dd0be12b236a1e002ea8
:101e080000d002330899023d8b54129b413b192b99
:101e180001d845230a93089b59190a9b0b70ac42b9
:101e280002da38000ff0e8fc099b023b0993032310
:101e38000b9a1340022b00d0e2e6099b002b00dc32
:101e4800dee608980ff066f90c9b834200dcf1e0af
:101e58001800089b30219c46099a60440ff026fb25
:101e680000230d93cce626002f00039b0133039338
:101e78000022284b3000390004f082f804000d00dd
:101e880002000b00069807990df010fb0028ead015
:101e98000024012523e00390eae7204b039a9a42a5
:101ea80012da002c10d10698079900221c4b04f076
:101eb80067f8002206900791194b3000390004f0aa
:101ec8005ff82c0006000f0030003900114b00228b
:101ed80008f0cefa06000f00039b013b0393320083
:101ee800069807993b000df0e1fa0028d5d1b3e632
:101ef8000623c2e60024002535e7c0460000f07f2f
:101f08005009010054090100580901005c09010049
:101f18000000f03f0000244000001440d4feffff02
:101f2800000050430e960f970a9d653d6b1e9d411c
:101f3800039b6d421d4038e7002f0ad1002d08dab7
:101f48002e23089a139901345354099b0137013bf6
:101f58000993321923009446302102e0089ad1549b
:101f680001336345fad1099a3419961b089a30301f
:101f7800d054731e01340026099320e0119b13945a
:101f88001b69053ba34200d819e70e9a0f9b0698d8
:101f9800079908f06dfa08f0a7fc049005910df078
:101fa800b9ff092800dd092010230b9a13400343c9
:101fb800c2d1109b672bbfd1002dbdda013680221c
:101fc8000e980f9912069446069b013d1a93079b9b
:101fd80063441b931a9a1b9b00920193049a059bd6
:101fe8000ff06efb80231b06cb18069007930e9804
:101ff8000f990022174b08f03bfa0e900f91dae682
:102008000b9bdb0600d4dde62e23089a135501341a
:10201800d8e603980a2109f08df9089b3031013d73
:10202800595503980a2109f03bf9099b0390013b94
:102038000993d8e6089b09991a5c5b181a54013869
:1020480002e7109b672b00d152e70a9306230493fb
:0820580022e6c046000024400e
:020000040000fa
:10206000f0b599b012930b68cf680a934b6816903d
:102070000e938b680b930b69119313685468069346
:10208000079406980799002200230df013fa002800
:102090000ed10a9b5b072ed408230a9a0a991a408c
:1020a00005920b9a194213d018333b7013000ce0c1
:1020b00080200006844606990a00079961440b00b7
:1020c000069207932d233b700b9b5a1e0123059309
:1020d000079b06995b005b0800290ed1af4883423d
:1020e0000bd1129b059a413bad4cae49b818192b48
:1020f00011d921000fe02b23e5e7a848834202d83d
:1021000018d1002916d0129b059a413ba64ca7492d
:10211000b818192bedd80ff073fb20000ef0feff5e
:102120000a9b0200009339000b9b16980af00afde7
:1021300019b0f0bd059b0598591c30233b54129be8
:10214000413b0f930f987823192800d8203b05981e
:102150007b540230931e059009930022069807993c
:1021600000230ef0c0f8002800d16de10023904c50
:10217000089302930394182310930e9b002b00db0b
:1021800010930026029c039d109b01331793069a1f
:10219000079b0c920d930c980d9922002b0008f0d0
:1021a0006bf908f0a5fb22002b001490159103f0a9
:1021b000ebfe02000b000c980d990ff095fa7d4b89
:1021c0000c900d9100222000290003f0ddfe0e9bf3
:1021d00004000d000136002b07da0c980d9900223f
:1021e00000230ef080f8002804d1179b9e42d2d124
:1021f000109e01360022200029006f4b03f0c4fe20
:1022000004000d0002000b000c980d990df052f91e
:10221000002800d01ee10c980d9922002b000ef032
:1022200062f8002806d0149815990df077fec007c3
:1022300000d40fe10698079922002b0002f028fe37
:1022400006900791079b069a5b005b08002a03d162
:10225000524a934200d144e7119b059a053b1493df
:10226000934200d83de100257342140016001793f5
:1022700010950c95029a039b0698079908f0fcf8b4
:1022800008f036fb129013910df048fe031e00d0ab
:10229000e3e00c9a002a00d1dfe00135029a039bab
:1022a0001298139903f070fe02000b00069807992c
:1022b0000ff01afa002206900791029803993d4bfd
:1022c00003f062fe0c9b179a013b029003910c9362
:1022d000934203d0149b26009c42cbd3109b002b2f
:1022e0001ad1002d00dcfde00e9b002b00dcf9e094
:1022f0000a9bdb0700d5f5e02e2230213b191a702e
:102300002a19ba18597001339342fbd16419ed436d
:10231000099b0134eb18099300263b191e700293a8
:10232000119b5d1e089b7e55b34202da5b42089307
:102330000136089b002b00d0bce0119beb1a013347
:1023400000d1b7e02b236a1e002e00d00233bb540d
:102350000f9a7023023d192a00d8203b79190b707f
:10236000ac4202da02980ff04bfa03230a9a1340a8
:10237000022b11d1099b9c1e002c0ddd38000ef0a4
:10238000cdfe059b984200dba4e0f8182200302126
:102390000ff090f800230b933800bfe60000f07fa9
:1023a00054090100500901005c09010058090100ad
:1023b0000000f03f0000b03f00002040089b029466
:1023c000039501330893029a039b1000190002f051
:1023d0005ffd04000d0002000b00069807990df048
:1023e00069f80028ead0029a039b069807990df035
:1023f00061f8002800d1bee60298039900223d4b07
:1024000003f0c2fd002200230df06dff00280fd065
:10241000029803990022384b03f0b6fd0022029087
:10242000039106980799344b03f0aefd069007918f
:10243000029803992f4b002203f0a6fd089b0290ff
:102440000391013b0893cee700232c4c08900293a4
:102450000394b8e700240025ece6109a002a0ad17c
:102460000c9a002a07d02e22ba55099a0134013a53
:1024700009920122109230222e1901e03a550134be
:10248000b442fbd11800099a5730551b092b01dcc7
:10249000303318000f9b192b06d820230343613bd0
:1024a000192b01d80ff044f96b1e741c0025b85588
:1024b0000993f3e608980a2108f040ff013d303106
:1024c000089879550a2108f0effe099b0890013b16
:1024d00009932ee7099b3a5c023bfb181a5401381a
:1024e0004fe7059c0a9bdb0600d415e72e233b55de
:1024f000013411e70000e03f000050430000f03fce
:020000040000fa
:10250000f0b5d6464f464646c0b596b00c0015000d
:102510000300413bdab2162a13d89300b54ad358c8
:102520009f4606260023102201a9280007f04efd31
:10253000002806d101ab0c27df571b7b0a2b00d8e4
:102540001fe116b0e0bcba46b146a846f0bd07246c
:102550000023082205a9280007f038fd0028f0d143
:1025600005ab00255d571b780a2bead805ab9e8882
:102570000ff016f9032800d9c7e105ab5a8801ab63
:102580001a809d4b2a019b18db889bb2b34200d076
:10259000c2e19a4b1b68002bd3d0984b1b6801aa51
:1025a000210028009847cce70023042205a9280031
:1025b00007f00cfd0028c4d105ab5a7801ab1a70a6
:1025c0008e4b1b68002bbcd08c4b1b6805aa0020cf
:1025d000105601aa01219847b3e70023042205a958
:1025e000280007f0f3fc0028abd105ab5a7801ab0b
:1025f0001a70824b1b68002ba3d0804b1b6805aa66
:102600000020105601aa022198479ae700230c22c5
:1026100001a9280007f0dafc002800d091e701abff
:1026200009229a565b7a0a2b28d801a8082141561c
:10263000714b09015918c97ac9b214011b19d97211
:10264000012199724189083989b219816c490b8835
:1026500001339bb20b800b889bb2002b03d10b88fc
:1026600001339bb20b80664b198889b2624b120111
:102670009b18d9800ff094f8032817d805ab01aa4e
:10268000517a1970022199805188d980029a079253
:102690005a4b1b68002b00d153e7584b1b6801aa0b
:1026a0000820105605aa042198474ae70ff072f84f
:1026b000534b1b889bb201aa527a52b251490af07d
:1026c0002dfddbe70023059306935738431e984101
:1026d000424203239a430832002305a9280007f049
:1026e00075fc002800d02ce705ab002018561b789d
:1026f0000a2b00d925e701ab187005aa527852b20f
:102700005a703d4b01015b181b899bb2591e8b41ce
:102710005b42052119400531002a13d105ac6288be
:10272000083a92b2344b05015b191a8122795a7327
:10273000324b1b68002b00d103e7304b1b6801aa0a
:102740009847fee605aa94782b4b05015b199c730c
:10275000d278da73ece70023442205a9280007f0b9
:1027600035fc002800d0ece6274b1b68002b00d17d
:10277000e7e6254b1b68159905a89847e1e6092669
:10278000d0e601abdb8998460ff00af803282ad877
:10279000194b3a019b1800221a7301aa0821505eb6
:1027a000824651898c4605a950884881029a089230
:1027b000db889bb2434500d07ee05346002b01dd11
:1027c000a24525db05ab52469a80002305930b4baf
:1027d0001b68002b00d1b4e6084b1b6805aa31002a
:1027e00038009847ade60ef0d5ff084942460af09a
:1027f00095fccde7b0df0000a0600020a8660020b7
:102800003e670020c80e0000a4660020e40e000011
:102810009cb2cc80564b3a01d358002b00d190e6a5
:10282000534b9b189b889bb2002b00d189e6504be1
:102830009b189b7a012b00d083e64d4b9b189b88fd
:10284000e31a1bb2a046002b04dd494b9b189b8862
:102850009bb29846464b3a01d15828006044012368
:10286000424607f0b3fb00281ad1414b3a01d05839
:1028700005a9059040468880c8884446001bc8804a
:10288000981800218180d1503a4b1b688b4200d1af
:1028900057e6384b1b6805aa31003800984750e6c8
:1028a0000ef07eff002800d14be60ef073ff324998
:1028b00022000af033fc44e60ef072ff032816d81b
:1028c000102c00d83de6012300220021002007f053
:1028d0007dfb002800d134e60ef062ff002800d115
:1028e0002fe60ef057ff25490af018fc29e60ef0f6
:1028f00051ff1f4b3f01db19db889bb22049424649
:102900000af00cfcdce7082422e60ef043ff1d4928
:1029100032000af003fc30e60ef042ff032800d834
:102920000fe60ef037ff124b2d015b19db889bb2cf
:10293000154932000af0f2fb03e60123142205a92f
:10294000280007f043fb002800d0fae50f4b069a59
:102950001b689a4200d0f4e50d4b1b68002b00d198
:10296000efe505a90a7c079905989847e9e5c0466f
:10297000a0600020a8660020040f0000340f0000b3
:10298000140f00004c0f00006c0f00009c6600202c
:04299000a06600201d
:020000040000fa
:10299400f0b5c64600b5eab00c1e00d1bce0c54b8c
:1029a4005d68002d00d1b7e00438c3b22e2b00d9e6
:1029b400b2e09800c04b1b589f46eb7b002b00d124
:1029c400aae00023eb730123cb56002b12d10b7822
:1029d4006b74002b0ad18823ec58002c00d19be0a7
:1029e400b448002300220021a04795e0287c0ef083
:1029f4001df991e000236b748ee02800343004311b
:102a040006220ef04bfd01263a23ee54273b98464e
:102a1400a84427000a372022390040460ef03efd24
:102a2400212138000ef084fb3323e8540122a256fe
:102a34000a33ea54a2780133ea54e278033bea54b5
:102a4400ae744d33ec58002c66d06a7c297c01317d
:102a5400c9b298484346a047002805d1954b5a6807
:102a640088230021d15057e0924b5b681c7c0134d1
:102a7400e4b21c740ef062fe844205d38d4b5a6896
:102a840088230021d15047e08a4c6368187c0ef0fb
:102a9400cdf8636800229a743ee00b78012b0ed0c7
:102aa400002b02d1ab735422ab548c23ed58002d70
:102ab40032d08048637822780100a8472ce0ab73b9
:102ac400a133eb5c002bf0d1a433eb58002becd0fa
:102ad400a1230122ea54e8e78c23ed58002d1bd0f2
:102ae40000228a56130015331ad0130014330bda5c
:102af4000523110017310bd0163253425a41534269
:102b040003229343073303e01432531e9a41931d67
:102b1400684800220100a8476ab080bcb846f0bdee
:102b24000123f5e72b7b002b02d1a1330122ea54c8
:102b3400e1780906a3781b041943237819436378c1
:102b44001b021943a423e9501433eb58002be3d0a0
:102b540058489847e0e7080009f07efb011edbd0e7
:102b6400544b5a689023d358002bd5d051489847da
:102b7400d2e7c023eb58002bced0212120000ef049
:102b8400d7fa0600c3b203a920228b54202bc3d842
:102b9400002103a80ef08cfcff223240210003a880
:102ba4000ef07cfc6223e35c0eaa1370022b0fd0a0
:102bb4006323e35c5a425341dbb23e4cc026ad5919
:102bc4000eaa03a92000a847636800229a51a3e72c
:102bd4002700213738000ef09ffa06000eab18715b
:102be400402200213d236b4418000ef061fcff22bb
:102bf400324039003d236b4418000ef04ffcd7e7f8
:102c0400212120000ef094fa0600c3b27522ab54c1
:102c1400202b00d980e72f005537553a0021380082
:102c24000ef046fcff223240210038000ef036fc44
:102c34002123e65c6333ee545f3be35c1b062422f2
:102c4400a25c120413432222a25c13432322a25c3b
:102c540012021343ab677c239846a8440622210042
:102c6400263140460ef01afc01238222ab542e3a40
:102c7400ab549333ed58002d00d14de70d48683b1c
:102c8400e3560193009643463a000100a84743e700
:102c940000228a564e23ea544a33eb58002b00d1c3
:102ca4003ae7044c210020009847626898230021e9
:102cb400d15031e7c865002078a700009c23eb5869
:102cc400002b00d128e703a80df0d6f9a51c21217b
:102cd40028000ef02dfac2b2290003a80bf042ff1f
:102ce400617803a80df0cffa2378012b09d0022bc9
:102cf40012d00f4842689c23d358002200219847e1
:102d04000ae70ea80ef076fc094842689c23d358c3
:102d14000eaa03a99847ffe62334412120000ef0b0
:102d240007fac2b221000ea80cf024faece7c04660
:042d3400c86500204e
:020000040000fa
:102d380070b586b0b54db64c290020000df080fd69
:102d48000028f9d003a9b3480ef080fd041e00d076
:102d580046e10399cb0700d42fe10123994303915e
:102d6800ac480ef077fd041e00d02ae1aa4b0122e0
:102d78009a70039dad042d0d00d10fe1002305933a
:102d880005a9a6480ef062fd041e1fd10598a24ba6
:102d980058609d6004ae042231000bf0cffa0400a5
:102da800738800281dd19d4202d0eb1a042b23dc26
:102db80097480ef02bf96b461b7c072b00d9d5e002
:102dc8006b461b7c9b00964ad3589f460ef0e4fc4a
:102dd800002800d1f5e00ef0d9fc92490af09af9e2
:102de800efe00ef0d9fc002800d1eae00ef0cefcae
:102df8008d490af08ff9e4e00ef0cefc002802d1ec
:102e080006246442dde00ef0c1fc04aa5388874919
:102e180054780194127800922a000af07bf906246b
:102e28006442cee07c4bdb68002b17d07a4bdd6820
:102e3800059a083204ab5988083989b25878a847e6
:102e4800754b9b78002b00d1bee00ef0a5fc002846
:102e580000d09ae00cf03aff0400b5e00ef09cfcbc
:102e68000028edd00ef092fc71490af053f9e7e71b
:102e7800694b1b69002b0ad0674b1d69059a0832fc
:102e880004ab5988083989b25878a847d8e70ef0b2
:102e980083fc0028d4d00ef079fc66490af03af990
:102ea800cee75d4b5b69002b0ad05b4b5d69059ae9
:102eb800083204ab5988083989b25878a847bfe75f
:102ec8000ef06afc0028bbd00ef060fc5a490af0ec
:102ed80021f9b5e7504b1b6a002b0ad04e4b1d6aef
:102ee800059a083204ab5988083989b25878a84736
:102ef800a6e70ef051fc0028a2d00ef047fc4f497f
:102f08000af008f99ce7444b9b69002b0ad0424b16
:102f18009d69059a083204ab5988083989b25878ee
:102f2800a8478de70ef038fc002889d00ef02efc5b
:102f380043490af0eff883e7374b5b6a002b0ad066
:102f4800354b5d6a059a083204ab5988083989b24d
:102f58005878a84774e70ef01ffc002800d16fe7e7
:102f68000ef014fc37490af0d5f869e70ef014fca6
:102f7800002802d10624644226e00ef007fc3249fc
:102f88000af0c8f8062464421ee00ef0fffb04aa0b
:102f9800537812782d490af0bdf85be70ef0fcfb78
:102fa800002802d1022464420be00ef0effb28490e
:102fb8000af0b0f80224644203e00ef0edfb0028aa
:102fc80007d113480ef022f8002c13d1200006b0c8
:102fd80070bd0ef0dbfb039a1e490af09bf8f0e780
:102fe8000ef0dafb0028ecd00ef0d0fb1a490af0fc
:102ff80091f8e6e70ef0d0fb0028e7d00ef0c6fb0c
:10300800164922000af086f8e0e7c046ffff0000f4
:103018007066002070100000846400208410000096
:10302800140a01001c0a0000440a0000600a00009b
:10303800a00a0000c40a0000e80a00000c0b000007
:10304800300b0000540b0000780b0000940b0000bc
:10305800c40b0000d80b0000f40b00001c0c00008f
:020000040000fa
:10306800f0b59fb004001500031fd9b2612900d93b
:103078006be18b00bb4ad3589f460023042203a967
:10308800280006f09fff002864d1b74b1b68002b6f
:1030980060d003a92c3098475ce00023082203a9dc
:1030a800280006f08fff002854d1af4b1b68002b77
:1030b80050d003a91b3098474ce00123302203a9c4
:1030c800280006f07fff002844d1a74b1b68002b7f
:1030d80040d003a9063098473ce00023182203a9f2
:1030e800280006f06fff002834d19f4b1b68002b87
:1030f80030d003a9323098472ce001230022002168
:10310800280006f05fff002824d1974b1b68002b8e
:1031180020d000213d3098471ce06422002103a8fc
:103128000ef0c4f90023642203a9280006f04aff20
:1031380000280fd18c4b1b68002b0bd003a92f3014
:10314800984707e00023042203a9280006f03aff65
:10315800002801d01fb0f0bd0ef01efb012807d8d3
:10316800814b1b68002bf5d0002134209847f1e7ec
:103178000ef00cfb039c230cff252b40220e7b49f1
:103188002e0026400196240a2540009509f0c2ff2a
:10319800e6e7774b00221a700023043203a92800bf
:1031a80006f010ff0028d5d103ab1a78714b1a70be
:1031b8006d4b1b68002bcdd003a911309847c9e788
:1031c80000232c2203a9280006f0fcfe0028c1d108
:1031d800654b1b68002bbdd003a913309847b9e78e
:1031e800002304221ca9280006f0ecfe0028b1d117
:1031f8005d4b1b68002badd01ca904309847a9e78c
:10320800002304221ca9280006f0dcfe0028a1d116
:10321800554b1b68002b9dd01ca96530984799e732
:103228000123642203a9280006f0ccfe002800d060
:1032380090e74d4b1b68002b00d18be703a90930a1
:10324800984787e70123042203a9280006f0bafe5d
:10325800002800d07ee7444b1b68002b00d179e79b
:1032680003a92a30984775e70023042203a92800f8
:1032780006f0a8fe002800d06ce73b4b1b68002b2b
:1032880000d167e703a92730984763e7002308229e
:1032980003a9280006f096fe002800d05ae703abe1
:1032a8009a88039928000830012306f08bfe00282d
:1032b80000d04fe72c4b1b68002b00d14ae703a92d
:1032c8002030984746e70023042202a9280006f088
:1032d80079fe002800d03de702ab5f881a8803ab6f
:1032e8005a80254b1b68002b00d133e7234b1b6802
:1032f800002b00d12ee7224b1b88002b00d129e799
:1033080003ac1f4e19e022801c490968781906f0a1
:1033180059fe002800d01de723886288d21a6280ef
:10332800df19bfb2154b1968134b1b6822001d30fb
:1033380098476388002b00d10ce762883188012305
:103348008a42e0d90a000023dde70ef025fa0028ba
:1033580000d1ffe60ef01afa0a49220009f0dafe57
:10336800f8e6c046dc60000098660020a00d00006a
:103378003d67002041670020946600209066002089
:0833880082640020c00d00006a
:020000040000fa
:103390000023f0b51600b1b0039007910493079d88
:1033a0002b78002b00d1cfe001235b420c9310abb4
:1033b00000240e9380230b940d940f932b5d002b10
:1033c00001d0252b30d1002c06d0290022000398f3
:1033d0002d190cf015fa0795079b1a78252a00d0ad
:1033e000a7e001331800002105930793243a0378de
:1033f0002b2b25d02dd8202b25d0232b26d00029d0
:1034000000d007902a2b2cd00bf0eefd01250d905b
:103410000020079a11000b780132303b092b64d948
:1034200000282dd007912be00134c7e701230b9929
:103430000b430b9311000130d9e702230b99f7e7f7
:1034400004230b99f4e708230b99f1e710230b9958
:10345000eee72d2bead0302befd00029d4d0079007
:10346000d2e7336801301a1d1b68079032600d9354
:10347000002b05da01220b995b424a400b920d9317
:103480000b9bda0702d5022293430b93079b1a7812
:103490002e2a0dd100270c975a785d1c07952a2af1
:1034a00025d10233079333681a1d1b6832600c93d1
:1034b00007a80cf019fd079d070028780ef031f9d8
:1034c000252800d1d5e06138172800d9dbe00ef0bf
:1034d00019f81fdab63ea6a6a6da3edadadada9ce0
:1034e0005e7fdadac6da4edada6e280092e7280072
:1034f0000bf07afd01210c902a0013780135303b46
:10350000092b03d9002fd3d00792d1e70f00f3e79f
:103510003200390008a80cf0a7fb002800d17be09e
:103520006b1c079303982b7808aa0ba9fef798fd4c
:103530002418049b1c19a34200dcb0e04f22594b15
:103540001a6001235b420493049831b0f0bd33004c
:103550000122390008a806f066fc00285cd001357d
:10356000039808aa0ba9079507f0e4fbe0e73300ee
:103570000022390008a806f056fc00284cd001357e
:10358000039808aa0ba907950bf03af8d0e7330087
:103590000022390008a806f046fc00283cd001357e
:1035a000039808aa0ba9079509f0f0fdc0e73300be
:1035b0000022390008a806f036fc00282cd06b1c2d
:1035c00007932b78039808aa0ba904f0cef8afe76d
:1035d00033000022f02108a806f025fc00281bd0ab
:1035e000089b099a0135079513430cd12e4d2800ed
:1035f0000df094fd290002000b9b00930d9b039896
:1036000009f0a0fa94e77823dce7049b39001a1943
:1036100008a8330009f00dfb0135079589e7320052
:10362000390008a80cf020fb0028f5d06b1c07938c
:1036300003982b7808aa0ba9fef796fa78e7802f53
:10364000ead1336801351a1d1b68326008aa13706d
:103650000123079503980ba90bf0c2f968e7802fa7
:10366000dad132680135131d3360126800230795e3
:10367000f0e7802fd0d10b9b0135009301220b493d
:103680000d9b0795bbe7059b012207930023524240
:103690000c9206490b930d9300930232afe704940a
:1036a0007de6c04634670020480901004e0901004c
:020000040000fa
:1036b000f0b587b00400431e033300d943e1012372
:1036c000c356012b5cd028dc5a1c00d13be1002bf7
:1036d00000d036e10378002b00d134e1406882232a
:1036e0005b00c35c002b39d1636801221a716368e7
:1036f00000225a710ef02af802283dd00cf01efb71
:103700000df06cf8636898680ef086f80df05cffb9
:103710000df042ff0023237015e1022b00d010e1d1
:1037200040680130ff3089490df08ef8012800d043
:1037300009e10123e356022b00d004e163681b7901
:103740001b0700d5ffe00ef08df8002800d1fae04d
:1037500060680130ff300df05dfcf4e00130ff30b7
:103760000df0e3fe6068d4300df0dffe6268822366
:103770005b000021d154b7e700200df0ddfabde772
:103780004368002b0ad00ef00bf8012809d80cf082
:10379000cbf800280bd1ff236370d4e0ff334370d4
:1037a000d1e00df0f7ff6a4909f0b8fcefe70df042
:1037b00001fc00280fd00df0f3ff012805d8636845
:1037c000f5225a71ff236370bde00df0e3ff6149fc
:1037d00009f0a4fcf3e70ef049f8000c152805d019
:1037e0006368f5225a71ff236370ace060680130b2
:1037f000ff3000230a2201210af04afd012802d0ed
:10380000ff2363709fe06368996820000df05cfa05
:10381000002302930393049305934f4b019301a854
:1038200002f020fd002879d10bf0a0fe4b480bf0f0
:103830004ff94b4b00251d735d739d73dd739d74b4
:1038400001263f229e54022701329f5401321e213d
:10385000995401329f540132b53199540132593192
:10386000995202329d5208329d541d6506329d5474
:1038700034329d5004329d5004329d5004329d508c
:1038800004329d5004329d5004329d5401329d54a7
:1038900001329e5402329d5004329d5004329d509c
:1038a00004329d5004322f49995004329d50043205
:1038b0009d5004329d5004329d5004329d5004327c
:1038c0009d500c32ff2199541c329d50264a2339b9
:1038d0005a502649e0201950254904301950fc213e
:1038e0005d50244829000bf027fc234833003200a8
:1038f00029000af0cdfc626882235b00d654606820
:1039000048300df086f967700df04affb0421ad9c1
:103910000df040ff194909f001fc14e00df040ffe3
:10392000012808d860680130ff300df0fefd6368a3
:10393000f4225a7164e70df02dff114909f0eefbf6
:10394000f0e7ff23637007b0f0bdc046ffff000043
:10395000d80f0000f40f000095290000f1a200002c
:10396000105d0020c0a80a01c5d50000256c00002c
:1039700091ec00001deb0000e45d00203010000021
:043980001010000023
:020000040000fa
:10398400f0b5ce4600b5dab00c00012803d05ab029
:1039940080bcb946f0bd3eab01225a800b88052b92
:1039a40000d915e19b008c4ad3589f468b4b1b686a
:1039b400002b02d0894b00221a60894b18680368d7
:1039c4005b78032b26d0854a1368013313600225e4
:1039d400002641aa29000df099fc00281dd13eaa19
:1039e4004c232021d15223000c337d4a106800223d
:1039f400019252aa00922a00310008f06ffc43425f
:103a0400584140420c2303400c3b3eaa53800026fd
:103a1400002763e0734d0d26dbe70c235b42f4e7dc
:103a24006e4b1b68002b02d06c4b00221a606c4b4f
:103a3400186841aa02210df069fc40b200280ad19d
:103a44003ea94c232022ca52644a13684e250226fa
:103a54004e53013313603eab5880002600273de0ef
:103a64004e23ce5a0a000c325d4b186852ab31001b
:103a74000df0aafa05000023002804d13eaa5380c1
:103a8400002600272ae00df089fe012802d80c2325
:103a94005b42f3e70df07cfe53492b00320009f042
:103aa4003bfb0c235b42e9e7cd68502200212aa8a6
:103ab4000df0fefc0a2302aa9446634400221a80f5
:103ac400002d5dd00026464b994626e00df066fe9b
:103ad400002812d13eab5f80002600273ead23882c
:103ae4002b8063683f93a36840930cf0c1f93200c4
:103af400390028000df01afa49e70df049fe3b4958
:103b0400039a09f009fbe5e70df042fe384909f094
:103b140003fb30e00136b542dcd005ab16aa2aa976
:103b24000a2002afbc4660440cf01cff0390071e41
:103b3400ccd10a2302aa944663441b88172be9d1eb
:103b44000e3b634400221a704b46186809236344f1
:103b5400009305ab16aa2aa908f07bf800280ad11d
:103b6400092302aa944663441b78002bd2d10df09a
:103b740015fe0128c8d80df05ffe0c277f42a9e787
:103b84000c277f42a6e7c98916a80af009f80500a0
:103b9400071e07d1a3890026172b0fd03eab5f80e9
:103ba4002aaf9be70df0fafd00260028f6d00df0b1
:103bb400effd10492a0009f0affaefe7084b186847
:103bc4002aab16aa00210cf082fd47b24036e5e785
:103bd4000026370082e7c046ec1001002067002071
:103be400ac660020ffff00009c130000b41300002b
:083bf400e0130000f8130000cb
:020000040000fa
:103bfc00f0b5de464f464646c0b588b083460e004b
:103c0c000192009310ab04cb90461f8812ab1b881b
:103c1c009946874d874c290020000cf00ffe002898
:103c2c00f9d007aa7f23334053705b461370434689
:103c3c00002b33d03b0008334b449bb207aa538074
:103c4c007d4a934200d9e1e00bf04efc041e00d0fb
:103c5c00d1e00023059302aad3800493049b5a4617
:103c6c001a430492049b36021e430496049a07ab33
:103c7c005b881b0413430493049970480df0e8fd12
:103c8c00041e0fd00df036f86a480df0bdf9200077
:103c9c0008b0e0bcbb46b146a846f0bd009b08335b
:103cac009bb2cbe700230493049b0222134304939f
:103cbc00049963480df0ccfd041ee3d1002205925b
:103ccc0002abda8006331b889bb2fa229200934235
:103cdc0033d25b4e02ab9c1dfa256d000fe0012028
:103cec000df0a2fd049b9b0721d5238801339bb2c9
:103cfc00238023889bb2fa22920093421dd204a9fe
:103d0c0030000df0a1fd002817d123889bb2ab42e7
:103d1c00e8d323889bb2ab42e1d80df03bfd0128e0
:103d2c00ddd90df031fd474909f0f2f9d7e705a9c6
:103d3c0045480df089fd041e47d1059b002b47d04b
:103d4c00059b06930698082207a90af021fb041e7e
:103d5c0000d097e7069b08330693019900290bd0f6
:103d6c000698009d2a000af013fb041e00d089e778
:103d7c00069bac46634406934346002b10d0069a30
:103d8c004b4600995b1a9b18069306983a004146dd
:103d9c000af0fefa041e00d074e7069bfb1806938b
:103dac00059b9b000493049b0222134304930499e8
:103dbc0026480df04dfd041e00d063e70bf09eff6e
:103dcc0004001c480df020f961e70023059359e726
:103ddc000bf094ff04000df0ddfc032802d8032443
:103dec00644251e70df0d0fc1949220009f090f91a
:103dfc000324644248e70df0cdfc002800d143e7d2
:103e0c000df0c2fc134909f083f93de70df0c2fc3b
:103e1c00002802d10124644236e70df0b5fc07ab53
:103e2c005a880d49044b09f073f9012464422be7bd
:103e3c00ffff0000706600203c0600008c100000a4
:103e4c007810000090090000000415006c100000b0
:0c3e5c00a4090000c4090000e8090000ef
:020000040000fa
:103e6800f0b5de4657464e464546e0b589b0814630
:103e78008a4614000492824882490cf0f3fc012817
:103e880000d0f8e0012c00d1e4e009239b4600278c
:103e9800a5e00df081fc002800d196e00df076fc3d
:103ea80079494a4609f036f98fe00df075fc00288b
:103eb80000d18ae00df06afc74494a4609f02af9f3
:103ec80083e03b004246a2427b4102330b2004aa16
:103ed80094466044102252421343037001210af0b1
:103ee80001fa00281ed05346981929000af0faf959
:103ef80000282bd0664b1b78002b31d0ae1936b278
:103f0800641ba4b2002c3bd0251c444501d96b4648
:103f1800dd89adb2002ed4d1a0459b410122934347
:103f28000333d3e70df038fc002809d10df034fc39
:103f380000284ad00df02afc564909f0ebf844e075
:103f48000df024fc544909f0e5f8efe70df024fce6
:103f58000028ebd00df01afc504909f0dbf8e5e732
:103f6800022107a80af0bef90028c7d10df014fcf9
:103f78000028dbd00df00afc494909f0cbf8d5e759
:103f8800434b1c78631e9c410234210007a809f0aa
:103f980025ff002815d01023e31804aa944663448b
:103fa800053b1b78002b3cd11023e41804ab9c463e
:103fb8006444063c2378c32b33d131480df032f8e2
:103fc80051e00df0e9fb002825d10df0e5fb0028b4
:103fd80036d10cf04dfa5b46013b9b463dd300972a
:103fe800049b3a004946c72003f07efd002800d014
:103ff8004fe73900c72005f0b3fa0590002800d034
:1040080053e707ab1f80049c3e0080239b01984622
:104018006a46d38178e70df0b9fb224909f07af8ae
:10402800d3e70df0b9fb0028cfd00df0affb07acfc
:10403800637822781c49a478009409f06bf8c4e7e7
:104048000df0a4fb1949049b00934b465a4609f00e
:1040580061f8bee70223049317e709480cf0e2ff72
:1040680006235b420593059809b0f0bcbb46b246ef
:10407800a946a046f0bd06235b420593f3e7c04678
:104088006c660020ffff0000c0070000f807000072
:104098000f650020f80800003c0800007c080000bc
:1040a800b80800002809000054090000a40700000f
:020000040000fa
:1040b80010b5794ca54480225201ff21ffa8183081
:1040c8000df0f4f960220021744868440df0eef90f
:1040d800734868440df05ef90123002804d01800e5
:1040e800a2235b019d4410bd6d4969446d48684435
:1040f8000cf008f801230028f1d19b020493684bc7
:104108006b44196804ab05aa664868440cf02cfe99
:10411800654868440bf089fd01230028dfd100229f
:10412800614969446148684409f0acfb01230028ef
:10413800d5d19b0204935c4b6b44196804ab05aa68
:104148005a4868440cf010fe03a80bf027fe012320
:104158000028c4d11f33564a6a441360524b6b443b
:104168001a680398524b6b440093524b6b444f4967
:1041780069440af016fa01230028b0d1474c6c4470
:104188004d4b1a6822609b88a380494b6b44196881
:10419800484868440af002ff010020000df02ef89c
:1041a800414b6b441b688021404a6a4400922200bc
:1041b8004901ffa8183006f05ffd031e00d08ee706
:1041c80020333b4a6a441360354b6b441a683b48ba
:1041d800374b6b440093374b6b44324969440af0c0
:1041e800e0f90123002800d079e7354c6c44324bc4
:1041f8001a6822609b88a3802d4b6b4419682d4850
:1042080068440af0cbfe010020000cf0f7ff244bb5
:104218006b441b688021234a6a44009222004901aa
:10422800ffa8183006f028fd031e00d057e7254ade
:1042380080211a4b6b44009360234901ffa8183072
:1042480006f01afd031e00d049e7ffab18331978b2
:104258001a000023af200001ff290ed101339bb2c1
:1042680001321178ff2904d18342f7d1ea214900ac
:1042780006e0af22120193420ad0ffab243319683b
:10428800ffa8183002f066f9431e984143b226e7aa
:10429800ea214900f4e7c046c0ebffffb413000071
:1042a8003c1400005c11000038140000040f0000ea
:1042b8001414000018140000241400004ce400003a
:0842c800e41300002c140000b7
:020000040000fa
:1042d00030820204308201aaa003020102021044cb
:1042e0000ee4170cb545ce59698e3056990a5d30eb
:1042f0000a06082a8648ce3d040302304f31213099
:104300001f060355040a0c184d6963726f636869d0
:104310007020546563686e6f6c6f677920496e63b7
:10432000312a302806035504030c21437279707436
:104330006f2041757468656e7469636174696f6e2e
:1043400020526f6f74204341203030323020170ddf
:104350003138313130383034303030305a180f3253
:10436000303439313130383034303030305a304fe9
:104370003121301f060355040a0c184d6963726f12
:104380006368697020546563686e6f6c6f6779202d
:10439000496e63312a302806035504030c21437209
:1043a0007970746f2041757468656e7469636174a7
:1043b000696f6e205369676e6572204646464630c7
:1043c00059301306072a8648ce3d020106082a8680
:1043d00048ce3d030107034200048498440a319b00
:1043e0003f71e25d5226009000c756bd5c0fae4a99
:1043f0001b841ad4a33f21aba09a48101c75c8286f
:104400002490b3b65a52802729bd3a752c3df0dd71
:104410001b04a2a1b57e0c922447a3663064300e23
:104420000603551d0f0101ff04040302018630122b
:104430000603551d130101ff040830060101ff02a8
:104440000100301d0603551d0e04160414bcd4fdd6
:10445000e8808a2dc90b6d01a8c5b9b247337ebd6e
:10446000da301f0603551d230418301680147aed28
:104470007d6dc6b7789db23801a5e84a8cb0a40e10
:104480002a8c300a06082a8648ce3d0403020348d7
:10449000003045022100c507b82a7bf9a33a1b78f2
:1044a000dceb01c926929ef3783d468e69a284d347
:1044b0006abab9251bef02200e6d7f768d65a7497c
:1044c000fa712dda2b692535cd577d650196a3d27a
:0844d000bf3b22788e75418686
:020000040000fa
:1044d800f0b5de4657464e464546e0b57a4ca5440b
:1044e80004000e009346002800d1e4e0002900d122
:1044f800e3e0002a00d1e2e00568681d07f0b2ff9a
:1045080000280ad0e368a26861686f890197009063
:10451800280003f0d3ff00280ed1256828001330a7
:104528005a46310007f09eff031e21d02a8b482ae5
:104538000bd00a20402a13d095239b009d44f0bc41
:10454800bb46b246a946a046f0bd84a90cf08efa37
:10455800a3681a68616884ab280009f05bfa05e073
:10456800a26812686168280009f054fa0028e3d1ab
:10457800256828001a305a46310007f073ff011edb
:1045880011d0ea7f2023eb5c1b0213430a20482b3f
:10459800d2d1e368a268606800910100280005f0a4
:1045a80066fb0028c8d1236848229a5c002a67d095
:1045b8005a6c002a00d184e000250022904647e08a
:1045c8009a7f9446da7f120263461a4303ab00933c
:1045d8004b4604f0fdf90028aed1039a494644ab96
:1045e800994601239c4680235b00039323685b6cf8
:1045f8005b19604618182430007800280bd06746ed
:10460800002fddd003ab00934b4604f0e1f90028fe
:1046180092d1039a44a92068a3681b686768b946c1
:10462800476cbc46ac442027ba46d444019200915a
:104638004a46614607f09cfb002800d07ce701232e
:104648009c46e0442368263548229a5c424517d99f
:104658005b6c9946a944484619305a46310007f020
:1046680001ff011eebd022234a46d35c2322484691
:10467800825c12021a4304ab994600239c46b2e7b7
:1046880012485a46310007f0edfe05000020002dc3
:1046980000d151e70123237420001130042229009e
:1046a8000cf0fafe200015302900083105220cf024
:1046b800f3fe002040e702203ee702203ce702200c
:1046c8003ae70a2038e7c046acfdffffd4180100de
:020000040000fa
:1046d80030b593b00400604b00221a605a609a60ab
:1046e8005e486c2303710cf073fe40b2002801d0c1
:1046f80013b030bd81230493594b186805a90df0f8
:10470800b5f8002800d190e0564920000bf0b0f829
:1047180040b20028ecd154480bf0acfc40b2002861
:10472800e6d1524d28000cf0f5fcc2b24e482900e3
:104738000af016fa40b20028dad14d4d28000cf0e4
:10474800e9fcc2b24b4829000af012fd40b2002829
:10475800ced1494920000cf09bfd40b20028c7d1ba
:10476800464920000cf08afd40b20028c0d108a8b4
:1047780005f0c0fb0d306dd04149002008f0cafc9f
:1047880008ac637922793f49208c0190a079009088
:10479800002008f0bffc3c4936236b442a226a44b7
:1047a800002008f0b7fc237ae2793849607a009053
:1047b800002008f0affc364907230093132200209d
:1047c80008f0a8fc334b344a3449002008f0a2fc16
:1047d80033496c22002008f09dfc324a32490020ff
:1047e80008f098fc3149002008f094fcfff760fcc1
:1047f800002826d03f200cf0f9f903000120002bf7
:1048080000d075e72a492b4b0b602b4b4b602b4b89
:10481800fa222b488024e40002942a4d0195009442
:1048280012010bf0f6fb002062e7274a01230293ee
:1048380000230193009304ab092105a802f036fb7d
:1048480062e722480af040f903000120002b00d15a
:104858004ee7cfe701204be72066002008680020dc
:10486800ac6600209d01010058640020f06400201f
:10487800d0640020a05b00206d6d000051b10000e5
:10488800d80d0000f40d0000180e0000380e0000ce
:104898005c0e000038140000800e00008c0e000032
:1048a800441400001813000068140000801400006d
:1048b8005066002015190100191901000050002048
:1048c800d462002000540020486700208539000089
:020000040000fa
:1048d800308201f130820197a003020102021077b1
:1048e800d36d956ec8ae6205e58e3acb985a813085
:1048f8000a06082a8648ce3d040302304f3121308b
:104908001f060355040a0c184d6963726f636869c2
:104918007020546563686e6f6c6f677920496e63a9
:10492800312a302806035504030c21437279707428
:104938006f2041757468656e7469636174696f6e20
:1049480020526f6f74204341203030323020170dd1
:104958003138313130383139313231395a180f3232
:10496800303538313130383139313231395a304fc8
:104978003121301f060355040a0c184d6963726f04
:104988006368697020546563686e6f6c6f6779201f
:10499800496e63312a302806035504030c214372fb
:1049a8007970746f2041757468656e746963617499
:1049b800696f6e20526f6f7420434120303032305f
:1049c80059301306072a8648ce3d020106082a8672
:1049d80048ce3d03010703420004bd54e66de3875a
:1049e8005484006b53ae1580d50aa069e78adf5559
:1049f80078d85ce2d54dd5b830296bffdd6e6f7283
:104a080056fbd99ef1a116b11d33ad49103aa185c7
:104a18008739dcfae437e19d634ea3533051301dea
:104a28000603551d0e041604147aed7d6dc6b7787d
:104a38009db23801a5e84a8cb0a40e2a8c301f0616
:104a480003551d230418301680147aed7d6dc6b702
:104a5800789db23801a5e84a8cb0a40e2a8c300f94
:104a68000603551d130101ff040530030101ff3042
:104a78000a06082a8648ce3d04030203480030454a
:104a8800022100a1dc634590ec819ee1de5b81128e
:104a98006551add4c2c4f8e595282ee04be768ec23
:104aa8007c027302203e6ba74e9e4c0ad68c24b023
:104ab800fb2ee793d2e6be9465ca15d0ea5bc87fa1
:054ac8005579995cad79
:020000040000fa
:104ad000f0b583b004000f0015001e00774b186876
:104ae000002800d1e7e0002c00d1b2e0002900d17d
:104af000bce0002a00d1bce0002e00d1bce0089b45
:104b0000002b00d1bbe0099b002b00d1bae00023b1
:104b100002226946023105f059fa002802d00c241d
:104b2000644298e06b46991c0b881b0a2370634b08
:104b30001868023018600023022205f047fa0028a6
:104b400000d0a2e06b469a1c5b885bba99b21380d6
:104b5000202902d90c2464427de0402209998b521d
:104b6000564b18680230186000233e3a69460631f9
:104b700005f02cfa002800d08ae06b469a1ddb88ed
:104b80005bba99b213802a888a4202d20c2464420a
:104b900061e02b80494b1868023018600023022224
:104ba00001a905f013fa002800d074e001aa1388c7
:104bb0005bba99b21380089a12888a4202d20c24f6
:104bc000644248e0089a13803c4b18680230186031
:104bd0006b465a880023099905f0f8f9002802d09d
:104be0000c24644237e06b465a88344b186810181e
:104bf000186009992031002305f0e8f9002802d057
:104c00000c24644227e06b4658882c4b1a688018a5
:104c100018606b46da880023390005f0d7f90028c0
:104c200002d00c24644216e06b46d888234b1a68e5
:104c30008018186001ab1a880023310005f0c6f90e
:104c4000041e2bd11d4a01ab1b8811685b18136031
:104c500009e00f246442012300220021002005f016
:104c6000b5f900281dd1200003b0f0bd0f24644227
:104c7000f1e70f246442eee70f246442ebe70f24d0
:104c80006442e8e70f246442e5e70c246442e2e76b
:104c90000c246442dfe70c246442dce70c24644209
:104ca000d9e70cf07dfd0028ddd00cf073fd044940
:104cb00008f034fad7e70c246442d4e76466002095
:044cc00014030000d9
:020000040000fa
:104cc400f0b50f00060015000022634b87b092195f
:104cd4007b41009201936149019b8b4200d9b8e06a
:104ce40004d15f4b009a9a4200d9b2e001215d4899
:104cf40049428019794100235b4a0af0c3f806004f
:104d04000f00131e029208da574a94466344029332
:104d140001225242d317b6185f4103200021072213
:104d24008019794100230af0adf8131e049201dac8
:104d3400073304930023300039004c4a0af0a2f8e8
:104d4400141e039004da494be4180300013b039357
:104d54002000474906f0a6fa0600042800d1013ec7
:104d6400444f454977433f19380006f09bfa040045
:104d7400192800d1013c6e21404bff316343df19f8
:104d8400380006f08ffa042800d101383c4b434325
:104d9400db1900930023984204d10133002c01d184
:104da400734273419922009952003339ff390591b6
:104db4000099914203da0a003b32d3180593642325
:104dc400c8227343a4002018c018039b0600c71709
:104dd400d9170398002352000af048f900248019d7
:104de4007941284b009ae35c93422ddd092c04ddc4
:104df40001220023801859410c3c0027224e36180a
:104e04004f41002f25d1e121009b64300133eb6039
:104e1400049b0234ab61059b6861eb610901029854
:104e24002c6106f03ffa3c21a860029806f03afa99
:104e34003c2106f081fa029869603c2106f07cfa74
:104e44003800296007b0f0bd009a0134d31a0093ea
:104e5400c7e701204042f5e78042f100ff84e20108
:104e6400007b1dfe80a243c780510100b13a0200bd
:104e7400ac8e00005471ffffb50500004bfaffff34
:0c4e840093feffff0c180100640000808a
:020000040000fa
:104e9000f0b40125ed070f005f405ad48b4200d1da
:104ea000824205d950404240504059404b40594001
:104eb0004e18760ddf187f0d3bd0741c640529d089
:104ec000f41b352c26d80e0ddb022b43db0ac9025e
:104ed0002943c9121700202c1ed2e741e240574057
:104ee000e3415a40a340e3405a400024801859410e
:104ef0000ad3b21c520521d0c207012f624117000c
:104f00004008cb0718434908013636054208af412f
:104f100060417141f0bc7047203c06d01f00e74162
:104f2000e3405f400024012a6741c0186141ebd390
:104f3000dfe7002eeed129400020ebe701363105f6
:104f40000020e7e7e742e5d10020c143090dc9048d
:104f5000e0e76b400e00871a9e4104d26e40c01bf2
:104f6000b141d21973414e18df18ac0ae642e9d2ba
:104f7000760d7f0d31d0f41b362ccbd8b4460e0df8
:104f8000db022b43db0ac9022943c90a012c32d8b0
:104f900004d1d4075208df073a435b08ef0a6442a2
:104fa000904199411ed0002239424dd124194041ef
:104fb00049410124394204d10134001849413942a0
:104fc000fad06246a24204d9361b013e3605891941
:104fd000a0e7f10ac90700209ce736429ad10020d9
:104fe000002197e70200224394d0b842ded20100ac
:104ff00020002024e3d1202c13dd203ce2411700c7
:10500000a240e2405740e3415a40a340e3405a40a7
:10501000012fbf410137174300227c429841914143
:105020000ce01700e741e2405740e3415a40a340fb
:10503000e3405a407c429041994100220f0303d241
:10504000013e241940414941013e36054708ac4123
:0850500050417141f0bc7047b2
:020000040000fa
:10505800f0b5de4657464e464546e0b585b00400f5
:105068008a46151e994634d0002832d0002b30d0fd
:105078000e9b002b2dd00321504606f0cfff4b1e70
:1050880099410f000321504606f08cff3f18bf00de
:105098000e9bd978002906d08b0724d1380006f05a
:1050a80081ff40003f1801374b461b68bb421ed3a7
:1050b80000234a4613605346002b00d1a8e0002382
:1050c800029300261f00d346a84603920e9b9946da
:1050d8004ee0e22000f0fdff05b0f0bcbb46b24652
:1050e800a946a046f0bde22000f0f3fff4e7ed206a
:1050f80000f0effff0e70094731c9a4643469d19b1
:105108002078800849460af063fe287023781b013e
:10511800302018407b1c9b4551d9b31c0193554640
:10512800454463781b09184349460af051fe287024
:1051380063789b003c201840bb1c9b452ed9f51c6e
:10514800019b43449a46a3789b09184349460af0b1
:105158003ffe5246107045440436a3783f2018405d
:1051680049460af035fe287003370334bb453ed95b
:105178004b46d9780029bed0002fbcd0029d701ba9
:1051880006f04cff0029b6d1731c42460d319155eb
:105198000339d154023602350295ace7f51c019b60
:1051a80043449a4649460af013fe5346187045444c
:1051b8000436494640200af00bfe2870d4e75546cd
:1051c800454449460af004fe2870f51cb31c4344c4
:1051d8009a46494640200af0fbfd5346187045445c
:1051e8000436494640200af0f3fd2870bce74546de
:1051f800039b994600e01e00012e03d9731eea5c4a
:10520800002af8d00022aa554b461e60002063e70a
:045218005646f7e718
:020000040000fa
:10521c00f0b583b000900f0001939400200006f0cd
:10522c0085f9061e00d1b5e0542006f07ff9051e65
:10523c0000d1a9e0542200210cf036f92e63220093
:10524c00a52130000cf030f9043c2e6b36190722e6
:10525c009643002f0cd000242a0034323b5d1355aa
:10526c00002b02d00134102cf8d143230022ea5435
:10527c00089f042f00d90427ef626f642c1d2000b7
:10528c000cf02ffb280018300cf02bfb2d610523a4
:10529c00db1bab616d62019a009930000bf034fca2
:1052ac002860099b002b00d01d600bf001ff3b4ace
:1052bc001368013313603a4b1b68002b0cd0394b2d
:1052cc001b68002b0dd1364b1b68da6aeb6a9a42cd
:1052dc0007d8334b1d6004e0314b1d601368012b64
:1052ec0033d0314a136801331360e96a2f4b1b68c2
:1052fc00994201d92d4b19602d4a8b005b189b00ec
:10530c00d3185b68ab609968e9604c609c60e86a94
:10531c00830019188900891869611918890089583e
:10532c0001311b189b0099500cf096f81d4b1b6813
:10533c000120002b30d01a4b1b68da6aeb6a9a42b8
:10534c002ad20bf0a9fe012026e0194e3700643753
:10535c0030000bf046ff1436be42f9d1154f380021
:10536c000bf03fff144e30000bf03bff13480bf0db
:10537c0038ff13480bf035ff12480bf032ff124b7d
:10538c001f60124b1e60ace7300006f0ecfa0120f7
:10539c00404201e00120404203b0f0bd0067002014
:1053ac0010670020f4660020e4660020f8660020f8
:1053bc0070620020a4650020906500207c650020b0
:1053cc0068650020546500200c67002008670020e9
:020000040000fa
:1053dc00f0b5de4657464e464546e0b585b08046ac
:1053ec000e0000921c00002800d1c0e0002900d162
:1053fc00bfe0002c00d1bee00e9b002b00d1bce026
:10540c002578072d00d1bae06379a7793f021f43b5
:10541c0000d1b6e0e27823791b02134399460e992a
:10542c00180006f0bdfd0e9b434302934f440e99aa
:10543c00380006f0f1fd002912d00e99380006f064
:10544c00affd471c0e9b5f4333689a46002b69d017
:10545c004246002001970396230054469a4615e0d5
:10546c000e99380006f09cfd0700ebe753465b787d
:10547c009c4653789c4505d153469b789c46937823
:10548c009c4509d001300732a04246d01100137858
:10549c00ab42f7d1022de9d0cb789c460b791b029d
:1054ac0066463343019eb342ecd84e79b3468e79af
:1054bc003602b4465e4667463e43b4469b46e344da
:1054cc00029e5e45ded8019f039e5446994503d249
:1054dc004a46ca70120a0a715f4514d9ca780b7908
:1054ec001b021343fb1a9bb24b711b0a8b71326864
:1054fc000023824239d0180005b0f0bcbb46b2463e
:10550c00a946a046f0bd6344ca7894460a791202b3
:10551c0065462a439b1a9bb2e6e7019f039e5346be
:10552c00a2461c00009b53452dd95346d800c01ae7
:10553c004044072221000bf0adff029882b2316883
:10554c00cb005b1a4344d870110a19713168cb0037
:10555c005b1abf1a43441d00bbb26f711b0aab71bf
:10556c003368013333600023c5e78246dae7022350
:10557c00c1e70223bfe70223bde70223bbe70023f9
:0a558c00b9e70023b7e70323b5e7f2
:020000040000fa
:10559600f0b5a3b004000d001600002800d1b6e057
:1055a600002900d1b5e00279002a00d1b3e0072a2c
:1055b60000d1b3e03721415c3820275c3f020f431e
:1055c60000d1ade0082a21d011000939062900d9f9
:1055d600a8e001219140a8200002014263d1a8233e
:1055e600db0119422ad10220092a00d094e009ab36
:1055f60040221a7025236b4432002900200009f04e
:105606007cf8002800d087e003270ce0002b00d1af
:105616008ae009aa40211170092219002520684450
:105626000bf03bff0a2721003531019709ab0093a8
:1056360033002a00200006f09cfb6de0202f00d9e5
:1056460074e011ab3200290020000af08efb00281e
:1056560062d103ab32002900200007f0ecfc0028e1
:105666005ad1a17c21aa03a806f035f9002853d106
:1056760009aa432111a80af076ff00284cd1227905
:1056860011000a39fd231942cdd109ab19787f23c0
:105696000b400a2a04d14022134309aa1370c2e719
:1056a60009aa1370bfe7002b42d0202f42d8092247
:1056b600190011a80bf0f1fe03ab320029002000ff
:1056c60007f0b9fc002827d1a17c4d226a4403a823
:1056d60006f001f900281fd109aa0c2111a80af029
:1056e60042ff002818d1237919000b39fd221142f7
:1056f60099d109aa11787f220a400b2b04d14023a5
:105706001a4309ab1a708ee709ab1a708be70220b1
:1057160002e0022000e0002023b0f0bd0020fbe7fd
:105726000020f9e70220f7e70220f5e70720f3e774
:085736000220f1e70720efe774
:020000040000fa
:02573e007047b2
:020000040000fa
:10574000f0b5de4657464e464546e0b583b05b4b66
:105750001b68002b00d0a3e0594b1c68621c009210
:105760001a60002a11d0574b1b6800229346009afa
:1057700093421dd8544b1b681b68002b12d0524d0e
:10578000524fbc465249019562e04f4a1168514b55
:10579000186810601960504a1368013313600af0ea
:1057a0003ffee0e700239b46464b012252421a602f
:1057b0004a4b1b68d96a464a8b005b189b009b5872
:1057c000012b01d901239b46454b1b68002b6dd053
:1057d00001239b466ae03b4b1a60e9e7dc685460b2
:1057e00047e000229a622268013a2260dc6a3a6845
:1057f000944201d962461460a200121992008a18dc
:1058000052689a609468dc6060609060d86a820038
:105810001418a400a046884444465c611418a400ef
:105820006458a0460124a146c8441218920040467c
:1058300050502a4a12689046da6a4346db6a9a4216
:1058400001d901239b46019b1b681b68002babd031
:105850002b68db68db685a6800989042bbd35a69b2
:105860009c68d868a0609c684460181d5468844295
:10587000b4d000245c611468013c14609c6a002c64
:10588000b4d0da6992461a6a5646b260de6956604a
:105890001a00183266689642a3d11a6a6260a0e7bd
:1058a000104a13680133136000239b46584603b027
:1058b000f0bcbb46b246a946a046f0bdd866002063
:1058c000fc660020e06600200c670020f8660020df
:1058d0007062002008670020e86600201067002042
:0858e000ec660020f0660020d8
:020000040000fa
:1058e800f0b5de4657464e464546e0b5d5b00b9076
:1058f800002a00d1bce0069192018b180a93072375
:1059080098465ce0029a0392029101003d0027004c
:105918001c0002232200da4113000d222000d0418e
:10592800434016222000d04143402a007a402240ba
:105938003800284042409b18059306220800d041b1
:1059480005320e00d641704019220e00d641704033
:10595800019b04cb01934e4608ce9b46b1465a4460
:105968008218029808408346039e300088435b46ad
:10597800584012186244049b9818059b9b18b4461b
:105988000495019a5245bdd1089a099eb3466646c8
:105998001396029e1296119110900f950e970d94e2
:1059a8000c935946079c136801c91b1808c2a242e8
:1059b800f9d1069b403306930a9a934258d014ab08
:1059c8009946069a1178d9705178997091785970da
:1059d800d17819700432043324a98b42f2d14f468e
:1059e800c0374b4612261122934602329246586817
:1059f800996b02004446e2410400f4416240c00849
