:020000040000fa
:10000000f07f0020013c0000473100000f35000068
:1000100000000000000000000000000000000000e0
:10002000000000000000000000000000c73a0000cf
:100030000000000000000000513c00007d45000071
:10004000d71e0000d71e0000d71e0000d71e0000dc
:10005000d71e0000d71e0000d71e0000d71e0000cc
:10006000d71e0000d71e0000d71e0000d71e0000bc
:10007000d71e0000d71e0000193a0000d71e00004e
:10008000d71e0000d71e0000d71e0000d71e00009c
:10009000d71e00000000000000000000d71e000076
:1000a000d71e0000d71e0000d71e0000d71e00007c
:020000040000fa
:1000b000f8b5c046f8bc08bc9e467047e13b00005e
:1000c000f8b5c046f8bc08bc9e467047b93b000076
:020000040000fa
:0800d0009c210000010000006a
:020000040000fa
:1000d800f0b59db012930b6814900b934b68119177
:1000e80004938b680d930b691593cb680893136879
:1000f800546806930794069807990022002303f092
:100108002aff00280dd10b9b5b073ed408230b9ace
:100118001a400c920d9a09920b9a1a4213d018336e
:100128000ae080200006844606990a00079961447f
:100138000b00069207932d23089a13700d9b013b21
:10014800099301230c93079b06995b00c74a5b0838
:1001580000291cd193421ad1089a129b94460c98f4
:10016800413bc3496044192b00d9c24904f0fcfc47
:10017800089804f071fb0b9b0200009308990d9bf3
:10018800149803f0d5f81db0f0bd2b23d4e79342a3
:1001980002d80cd100290ad0089a129b94460c98d0
:1001a800413bb5496044192be0d9b449dee7002248
:1001b80006980799002304f0f6f80026b04f0028a7
:1001c80000d120e100230393129804f09afcc3b2f3
:1001d8001093049b002b00daebe1109b0a93672b2a
:1001e80012d1049b002b01d10133049365230a9398
:1001f800039b04331ddb039b049a934219da66239d
:100208000a93039b002b14da049b013304930a9b83
:10021800662b0ed1039b002b03da00230026984f90
:100228000393109b672b04d0039a049b9446634462
:100238000493069a079b0e920f93002334003d0007
:10024800139322000e980f992b0002f013fa02f074
:10025800d3fa8022120694460e9b16901791189393
:100268000f9b63441993189a199b009201932200db
:100278002b0004f02ffc80231b06cb18002229003a
:100288000e900f9320007f4b02f0f4f9139b0400ab
:1002980001331393139a049b0d009342d1d100228a
:1002a800794b01f04df90e9a0f9b04000d0003f0f5
:1002b80033fe002800d0d5e00e9a0f9b20002900bd
:1002c80004f071f8002806d01698179904f008f879
:1002d800c00700d4c6e00698079922002b0000f05a
:1002e8007bfe002206900791664b3000390001f032
:1002f80027f9069a079b0e900f9103f0e9fc002856
:1003080000d1c7e0039b013303930a9b662b00d0ff
:10031800c2e0049b039d0133049300263700049b2d
:100328000c9ceb1a1693169b9d4200d0dee0002f22
:1003380000d11de10026089b1f190a9b3e70652b02
:100348002dd1159b5d1e089b5e55039bb34202dab7
:100358005b4203930136039b002b00d011e1159bf0
:10036800eb1a0333002b00dd0be12b236a1e002e52
:1003780000d002330899023d8b54129b413b192b44
:1003880001d845230a93089b59190a9b0b70ac4264
:1003980002da380004f0e8fb099b023b09930323c7
:1003a8000b9a1340022b00d0e2e6099b002b00dcdd
:1003b800dee6089804f050fa0c9b834200dcf1e07a
:1003c8001800089b30219c46099a604404f010fbf1
:1003d80000230d93cce626002f00039b01330393e3
:1003e8000022284b3000390001f0aaf804000d0063
:1003f80002000b000698079903f0adfd0028ead02b
:100408000024012523e00390eae7204b039a9a424f
:1004180012da002c10d10698079900221c4b01f023
:100428008ff8002206900791194b3000390001f02f
:1004380087f82c0006000f0030003900114b00220d
:1004480002f018f906000f00039b013b03933200ea
:10045800069807993b0003f07efd0028d5d1b3e646
:100468000623c2e60024002535e7c0460000f07fd9
:100478005046000054460000584600005c46000004
:100488000000f03f0000244000001440d4feffffad
:10049800000050430e960f970a9d653d6b1e9d41c7
:1004a800039b6d421d4038e7002f0ad1002d08da62
:1004b8002e23089a139901345354099b0137013ba1
:1004c8000993321923009446302102e0089ad15446
:1004d80001336345fad1099a3419961b089a3030ca
:1004e800d054731e01340026099320e0119b139405
:1004f8001b69053ba34200d819e70e9a0f9b069883
:10050800079902f0b7f802f077f90490059103f023
:10051800e7fe092800dd092010230b9a1340034346
:10052800c2d1109b672bbfd1002dbdda01368022c6
:100538000e980f9912069446069b013d1a93079b45
:1005480063441b931a9a1b9b00920193049a059b80
:1005580004f0c0fa80231b06cb18069007930e9868
:100568000f990022174b02f085f80e900f91dae6ea
:100578000b9bdb0600d4dde62e23089a13550134c5
:10058800d8e603980a2102f099fb089b3031013d17
:10059800595503980a2102f047fb099b0390013b38
:1005a8000993d8e6089b09991a5c5b181a54013814
:1005b80002e7109b672b00d152e70a9306230493a6
:0805c80022e6c04600002440b9
:020000040000fa
:1005d000f0b599b012930b68cf680a934b681690e8
:1005e0000e938b680b930b691193136854680693f1
:1005f0000794069807990022002303f0b0fc002816
:100600000ed10a9b5b072ed408230a9a0a991a4036
:1006100005920b9a194213d018333b7013000ce06b
:1006200080200006844606990a00079961440b0061
:10063000069207932d233b700b9b5a1e01230593b3
:10064000079b06995b005b0800290ed1af488342e7
:100650000bd1129b059a413bad4cae49b818192bf2
:1006600011d921000fe02b23e5e7a848834202d8e7
:1006700018d1002916d0129b059a413ba64ca749d8
:10068000b818192bedd804f073fa200004f0e8f83c
:100690000a9b0200009339000b9b169802f04cfe57
:1006a00019b0f0bd059b0598591c30233b54129b93
:1006b000413b0f930f987823192800d8203b0598c9
:1006c0007b540230931e05900993002206980799e7
:1006d000002303f06cfe002800d16de10023904c54
:1006e000089302930394182310930e9b002b00dbb6
:1006f00010930026029c039d109b01331793069aca
:10070000079b0c920d930c980d9922002b0001f081
:10071000b5ff02f075f822002b001490159100f03f
:1007200013ff02000b000c980d9904f0dff97d4bcc
:100730000c900d9100222000290000f005ff0e9b77
:1007400004000d000136002b07da0c980d990022e9
:10075000002303f02cfe002804d1179b9e42d2d127
:10076000109e01360022200029006f4b00f0ecfea5
:1007700004000d0002000b000c980d9903f0effb34
:10078000002800d01ee10c980d9922002b0003f0e8
:100790000efe002806d01498159903f0a5fdc00799
:1007a00000d40fe10698079922002b0000f018fcf6
:1007b00006900791079b069a5b005b08002a03d10d
:1007c000524a934200d144e7119b059a053b14938a
:1007d000934200d83de100257342140016001793a0
:1007e00010950c95029a039b0698079901f046ff15
:1007f00002f006f81290139103f076fd031e00d06c
:10080000e3e00c9a002a00d1dfe00135029a039b55
:100810001298139900f098fe02000b0006980799b1
:1008200004f064f9002206900791029803993d4b69
:1008300000f08afe0c9b179a013b029003910c93e7
:10084000934203d0149b26009c42cbd3109b002bd9
:100850001ad1002d00dcfde00e9b002b00dcf9e03e
:100860000a9bdb0700d5f5e02e2230213b191a70d8
:100870002a19ba18597001339342fbd16419ed4318
:10088000099b0134eb18099300263b191e70029353
:10089000119b5d1e089b7e55b34202da5b420893b2
:1008a0000136089b002b00d0bce0119beb1a0133f2
:1008b00000d1b7e02b236a1e002e00d00233bb54b8
:1008c0000f9a7023023d192a00d8203b79190b702a
:1008d000ac4202da029804f04bf903230a9a13405f
:1008e000022b11d1099b9c1e002c0ddd380003f05a
:1008f000b7ff059b984200dba4e0f81822003021e6
:1009000004f07af800230b933800bfe60000f07f74
:1009100054460000504600005c4600005846000067
:100920000000f03f0000b03f00002040089b029410
:10093000039501330893029a039b1000190000f0fd
:100940004ffb04000d0002000b000698079903f00e
:1009500006fb0028ead0029a039b0698079903f049
:10096000fefa002800d1bee60298039900223d4b12
:1009700000f0eafd0022002303f019fd00280fd04b
:10098000029803990022384b00f0defd002202900d
:10099000039106980799344b00f0d6fd0690079115
:1009a000029803992f4b002200f0cefd089b029085
:1009b0000391013b0893cee700232c4c089002934f
:1009c0000394b8e700240025ece6109a002a0ad127
:1009d0000c9a002a07d02e22ba55099a0134013afe
:1009e00009920122109230222e1901e03a55013469
:1009f000b442fbd11800099a5730551b092b01dc72
:100a0000303318000f9b192b06d820230343613b7a
:100a1000192b01d804f080f86b1e741c0025b85502
:100a20000993f3e608980a2102f04cf9013d3031b0
:100a3000089879550a2102f0fbf8099b0890013bc0
:100a400009932ee7099b3a5c023bfb181a540138c4
:100a50004fe7059c0a9bdb0600d415e72e233b5588
:100a6000013411e70000e03f000050430000f03f78
:020000040000fa
:100a70000023f0b51600b1b0039007910493079dd1
:100a80002b78002b00d1cfe001235b420c9310abfd
:100a900000240e9380230b940d940f932b5d002b59
:100aa00001d0252b30d1002c06d02900220003983c
:100ab0002d1903f0edfc0795079b1a78252a00d025
:100ac000a7e001331800002105930793243a037827
:100ad0002b2b25d02dd8202b25d0232b26d0002919
:100ae00000d007902a2b2cd003f0d4f801250d90cc
:100af0000020079a11000b780132303b092b64d992
:100b000000282dd007912be00134c7e701230b9972
:100b10000b430b9311000130d9e702230b99f7e740
:100b200004230b99f4e708230b99f1e710230b99a1
:100b3000eee72d2bead0302befd00029d4d0079050
:100b4000d2e7336801301a1d1b68079032600d939d
:100b5000002b05da01220b995b424a400b920d9360
:100b60000b9bda0702d5022293430b93079b1a785b
:100b70002e2a0dd100270c975a785d1c07952a2a3a
:100b800025d10233079333681a1d1b6832600c931a
:100b900007a803f08ffb079d0700287803f0b5ff37
:100ba000252800d1d5e06138172800d9dbe003f013
:100bb00037ff1fdab63ea6a6a6da3edadadada9c04
:100bc0005e7fdadac6da4edada6e280092e72800bb
:100bd00003f060f801210c902a0013780135303bb6
:100be000092b03d9002fd3d00792d1e70f00f3e7e9
:100bf0003200390008a803f00dfb002800d17be08b
:100c00006b1c079303982b7808aa0ba9fff7e0fc4d
:100c10002418049b1c19a34200dcb0e04f22594b5e
:100c20001a6001235b420493049831b0f0bd330095
:100c30000122390008a801f088fb00285cd00135aa
:100c4000039808aa0ba9079501f092fee0e733008c
:100c50000022390008a801f078fb00284cd00135ab
:100c6000039808aa0ba9079502f002ffd0e733000a
:100c70000022390008a801f068fb00283cd00135ab
:100c8000039808aa0ba9079502f0b2fcc0e733004d
:100c90000022390008a801f058fb00282cd06b1c5a
:100ca00007932b78039808aa0ba900f000ffafe781
:100cb00033000022f02108a801f047fb00281bd0d8
:100cc000089b099a0135079513430cd12e4d280036
:100cd00003f0c6fd290002000b9b00930d9b0398b7
:100ce00002f02afb94e77823dce7049b39001a1909
:100cf00008a8330002f05cfb0135079589e7320054
:100d0000390008a803f086fa0028f5d06b1c079379
:100d100003982b7808aa0ba9fff7def978e7802f54
:100d2000ead1336801351a1d1b68326008aa1370b6
:100d30000123079503980ba902f0eefe68e7802fc8
:100d4000dad132680135131d33601268002307952c
:100d5000f0e7802fd0d10b9b0135009301220b4986
:100d60000d9b0795bbe7059b012207930023524289
:100d70000c9206490b930d9300930232afe7049453
:100d80007de6c0464c300020484600004e4600003c
:020000040000fa
:100d9000142f00201c00000000000000942f0020f1
:100da0001000000000000000002a002008010000e0
:100db00000000000a42f0020100000000000000030
:100dc000d02b0020c000000000000000e82e002012
:100dd0002c0000000000000000280020000200009d
:100de00000000000302d0020800000000000000006
:100df000642e00204000000000000000e82f0020ca
:100e00000800000000000000a42e002004000000e4
:100e100000000000f02f002008000000000000008b
:100e2000c42f00200c00000000000000f82f00205c
:100e30000400000000000000553000200100000008
:100e400000000000082b0020c80000000000000087
:100e5000d02f00200c0000000000000056300020c1
:100e60000100000000000000fc2f00200400000032
:100e700000000000902c0020a000000000000000f6
:100e8000a82e00204000000000000000b42f002029
:100e9000100000000000000058300020500000004a
:100ea00001000000000000004c24000000010000d0
:100eb000010000008d4a0000010000005c240000d9
:100ec0000001000001000000ad4a00000200000027
:100ed0006c2400000001000001000000cd4a000069
:100ee0000000000000000000000000005845000065
:100ef000aaaaaaaa003000200800000000000000f2
:100f00000000002000280000000000000830002041
:100f10002c00000000000000302f00201400000012
:100f20000000000034300020040000000000000039
:100f3000442f00202800000000000000383000206e
:100f400008000000000000006c2f002028000000b6
:100f500000000000b02d0020640000000000000030
:100f60004030002004000000000000005430002049
:100f700001000000000000004430002004000000d8
:100f800000000000483000200400000000000000c5
:100f9000a830002004000000010000000100000053
:100fa0004c3000200400000000000000142e00203f
:100fb000500000000000000050300020040000003d
:100fc00000000000dc2f00200c00000000000000ea
:100fd00000000000000000006666666666666666e1
:020000040000fa
:100fe000f0b40125ed070f005f405ad48b4200d1c9
:100ff000824205d950404240504059404b405940f0
:101000004e18760ddf187f0d3bd0741c640529d077
:10101000f41b352c26d80e0ddb022b43db0ac9024c
:101020002943c9121700202c1ed2e741e240574045
:10103000e3415a40a340e3405a40002480185941fc
:101040000ad3b21c520521d0c207012f62411700fa
:101050004008cb0718434908013636054208af411e
:1010600060417141f0bc7047203c06d01f00e74151
:10107000e3405f400024012a6741c0186141ebd37f
:10108000dfe7002eeed129400020ebe701363105e5
:101090000020e7e7e742e5d10020c143090dc9047c
:1010a000e0e76b400e00871a9e4104d26e40c01be1
:1010b000b141d21973414e18df18ac0ae642e9d2a9
:1010c000760d7f0d31d0f41b362ccbd8b4460e0de7
:1010d000db022b43db0ac9022943c90a012c32d89f
:1010e00004d1d4075208df073a435b08ef0a644291
:1010f000904199411ed0002239424dd124194041de
:1011000049410124394204d101340018494139428e
:10111000fad06246a24204d9361b013e360589192f
:10112000a0e7f10ac90700209ce736429ad10020c7
:10113000002197e70200224394d0b842ded201009a
:1011400020002024e3d1202c13dd203ce2411700b5
:10115000a240e2405740e3415a40a340e3405a4096
:10116000012fbf410137174300227c429841914132
:101170000ce01700e741e2405740e3415a40a340ea
:10118000e3405a407c429041994100220f0303d230
:10119000013e241940414941013e36054708ac4112
:0811a00050417141f0bc7047a1
:020000040000fa
:1011a800f0b583b000900f0001939400200001f087
:1011b800e1fd061e00d1b5e0542001f0dbfd051e5f
:1011c80000d1a9e05422002103f012fc2e63220072
:1011d800a521300003f00cfc043c2e6b36190722c5
:1011e8009643002f0cd000242a0034323b5d13555f
:1011f800002b02d00134102cf8d143230022ea54ea
:10120800089f042f00d90427ef626f642c1d20006b
:1012180003f0cffc2800183003f0cbfc2d61052328
:10122800db1bab616d62019a0099300003f0e8f9ad
:101238002860099b002b00d01d6003f0f5fa3b4a9b
:101248001368013313603a4b1b68002b0cd0394be1
:101258001b68002b0dd1364b1b68da6aeb6a9a4281
:1012680007d8334b1d6004e0314b1d601368012b18
:1012780033d0314a136801331360e96a2f4b1b6876
:10128800994201d92d4b19602d4a8b005b189b00a0
:10129800d3185b68ab609968e9604c609c60e86a49
:1012a80083001918890089186961191889008958f3
:1012b80001311b189b00995003f072fb1d4b1b68f2
:1012c8000120002b30d01a4b1b68da6aeb6a9a426d
:1012d8002ad203f09dfa012026e0194e3700643720
:1012e800300003f0f5fa1436be42f9d1154f380034
:1012f80003f0eefa144e300003f0eafa134803f054
:10130800e7fa134803f0e4fa124803f0e1fa124b43
:101318001f60124b1e60ace7300002f092ff012004
:10132800404201e00120404203b0f0bd30300020cf
:1013380040300020243000201430002028300020c5
:10134800b02d0020802f00206c2f0020582f002067
:10135800442f0020302f00203c300020383000205f
:020000040000fa
:10136800f0b5de4657464e464546e0b583b05b4b82
:101378001b68002b00d0a3e0594b1c68621c00922c
:101388001a60002a11d0574b1b6800229346009a16
:1013980093421dd8544b1b681b68002b12d0524d2a
:1013a800524fbc465249019562e04f4a1168514b71
:1013b800186810601960504a13680133136003f00d
:1013c8004df8e0e700239b46464b012252421a6043
:1013d8004a4b1b68d96a464a8b005b189b009b588e
:1013e800012b01d901239b46454b1b68002b6dd06f
:1013f80001239b466ae03b4b1a60e9e7dc685460ce
:1014080047e000229a622268013a2260dc6a3a6860
:10141800944201d962461460a200121992008a18f7
:1014280052689a609468dc6060609060d86a820054
:101438001418a400a046884444465c611418a4000b
:101448006458a0460124a146c84412189200404698
:1014580050502a4a12689046da6a4346db6a9a4232
:1014680001d901239b46019b1b681b68002babd04d
:101478002b68db68db685a6800989042bbd35a69ce
:101488009c68d868a0609c684460181d54688442b1
:10149800b4d000245c611468013c14609c6a002c80
:1014a800b4d0da6992461a6a5646b260de69566066
:1014b8001a00183266689642a3d11a6a6260a0e7d9
:1014c800104a13680133136000239b46584603b043
:1014d800f0bcbb46b246a946a046f0bd0830002085
:1014e8002c300020103000203c3000202830002014
:1014f800b02d002038300020183000204030002067
:081508001c30002020300020ff
:020000040000fa
:1015100008d1002806d1f54204d801d3002a01d110
:101520006d0d09d10020c143090dc904f0bdf9d1e9
:101530001242f7d1640df5d00020c1434905490896
:10154000a6e000206146f0bdf0b50127ff070e00c0
:101550005e403e40b446be0a4c18dd18f442d7d275
:10156000f542e4d2640decd06d0dead06419c902e5
:101570003943460dc0023143db023b43db0a10b462
:101580008e4685b297b26f43140c6c433e0ca4197f
:10159000260c2404bfb227439cb26c43a419190c37
:1015a0006943250ca4b249190d04090c6419000cf7
:1015b00095b245433e0c76193743bfb2360c150c35
:1015c0004543ad19a6b2240cad192e0437432e0c99
:1015d00036199db24543ad19acb22e0c89191d0cbc
:1015e00045436d182e04290c3443704680b295b2e1
:1015f00045433e0c76193743bfb2360c150c4543b4
:10160000ad19a6b2ad19240c2e0437432e0c361991
:101610009db24543ad19acb22e0c89191d0c454342
:101620006d182e043443290c75462d0c90b2684376
:101630003e0c80190604bfb23e43070ca0b23f180f
:10164000120c6a43d019020c80b2240ca4189ab26e
:101650006a43121914042043120c89181b0c6b43a3
:10166000c91810bc01273d05294203d1b6194041d4
:101670004941013cff077d0d013d641b0bdb6d0003
:10168000ac4209da240500254208be4168416141a7
:0a16900066463143f0bd54e74ee713
:020000040000fa
:02169a00704797
:020000040000fa
:10169c0070b50500594c247fe0b2002c00d0a7e0b7
:1016ac0000294ad0002d48d0554c66680724344098
:1016bc00012c5ed051480560426000244461846175
:1016cc0004614e488160002a58d04c4ad3604b4a82
:1016dc00012111774a4a127e520705d5484a042047
:1016ec00916a117e0142fbd1454a518b0420014382
:1016fc005183117e7c300143117640498a68c96858
:10170c00914203d93d48c168891a01613c49496835
:10171c00490743d139498969914233d2374a116813
:10172c00087837498862916901319161002b5ad050
:10173c00334b04229a7501205be0002b59d0002a10
:10174c0057d02f4c666807243440012c0cd02b4802
:10175c00056042600024446184610461002db0d1b5
:10176c00264900208860aee7002943d1dc07eed57e
:10177c003fe0cc073dd4002be9d0f7e71f4a00210e
:10178c00d160a4e71d4a1269002acfd01c4aff2160
:10179c0091621a490a69013a0a61c7e7174a9168c6
:1017ac0049089160116949081161d1684908d160f3
:1017bc00916892698a420ad210490a681288d20545
:1017cc00d20d0f4882628a6901328a61aee70b4af8
:1017dc001269002aaad00a4a0a49916207490a6981
:1017ec00013a0a61a2e7064b01229a75012000e03a
:1017fc00002070bdcc07b9d5fbe7c046e82e002011
:08180c0000080042ff0100008a
:020000040000fa
:10181400f8b5de4657464e464546e0b503f006f8b1
:101824004a4b1a68013a1a601b680024002b7fd1c6
:10183400474b1b68002b7bd0464b1b68002b60d0aa
:10184400444e0020444dac46444b9a46b34609e00e
:10185400196a516013e0d96851601ee05b461b6849
:10186400002b4cd0f368db689a6adf69196ab960a7
:10187400df694f601900183157688f42e8d09862c9
:101884001168013911605a699f68d968b9609f6805
:101894004f601f1d5168b942ddd05861116801398c
:1018a4001160d96a2a68914201d9624611608a009e
:1018b400521892002a498a1852689a609468dc6027
:1018c40067609760df6aba00d419a400a046884410
:1018d40044465c61d419a4006458a0460124a1467e
:1018e400c844d2199200444654501e4a1168da6a18
:1018f400cb6a9a42b2d3012352461360aee702f098
:10190400affd194b1c68002c0ed0144e012502e0cb
:10191400013c002c05d0fff725fd0028f8d03560e8
:10192400f6e7114b00221a600c4b1c68002c08d1fe
:1019340003f038f82000f0bcbb46b246a946a046e6
:10194400f8bd02f067ff0124f2e7c046083000202a
:1019540030300020582f0020283000201c30002078
:0c196400b02d002040300020203000207a
:020000040000fa
:10197000f0b5c64600b584b0040001910023984636
:1019800000274425002645e0013ba3632368002b84
:101990000bd02369002b0cd103f006f801239846e5
:1019a000404604b080bcb846f0bd02f0cffea06057
:1019b000efe72000103000f0e9fb0028ecd002f047
:1019c0002bffe9e702f0f0ff00239846e8e702a8c2
:1019d00002f03aff28e0665530e04523e65432e055
:1019e00002f026ffa06801f01df8804602f0dcff3f
:1019f00039e0200001f068fbfff70cff09e0200050
:101a000001f062fbfff706ff200002f0d7ff00287d
:101a100038d1012702f00cffa36b002bb4d1019b3e
:101a2000002bcfd0002fd2d002f0beff03f01ef863
:101a300002f0fefe635d5bb20133ccd04523e35c74
:101a40005bb20133c9d002f0afff01a902a801f0d7
:101a50002dff0028d3d1200002f0b0ff0028c8d00d
:101a60002368002bbcd001992000243002f060fed6
:101a7000200001f029fbfff7cdfe0028c9d102f0bc
:101a8000cbfec6e74346002b00d189e702f0d0fe2b
:101a9000616a002903d0236b1b680521c91aa0685d
:0e1aa00001f006fa02f080ff0023984678e776
:020000040000fa
:101aae00f0b58fb00c934b680d0008938b68160041
:101abe000993cb680f680393089b0b90002b43dbb5
:101ace0002239f4310233a001a400d92099a049262
:101ade001f4206d033687268134302d0099b023b43
:101aee00049308233b400a935a1e9341049a2c698f
:101afe00d31a04933368039a06937368013c0793d1
:101b0e0000231355049b0593012c20dc0d9b002b09
:101b1e0050d10a9b002b03d02023039a013c13556e
:101b2e002a69039b013a19190b98099b121b0097fe
:101b3e0001f0fbfb0b9b5b68db0503d56b689842e2
:101b4e0000da18000fb0f0bd01230893bae7069b28
:101b5e00079a13430ad1049a089b9b1a059a9b185d
:101b6e00002b03dc002ad1ddbb07cfd50f23069a4d
:101b7e00013c134018005730092b01dc303318009c
:101b8e000c9b413b192b06d820230343613b192b99
:101b9e0001d802f0baff039b1855059b013b059334
:101bae00079b1a07069b1b091a43079b06921b09e4
:101bbe000793a9e70cce1343abd0039b0c9a1b19ca
:0e1bce00013b1a703023039a023c1355a1e725
:020000040000fa
:101bdc00f0b5de4657464e464546e0b583b001901b
:101bec008c4600296dd005000123374f374a9146aa
:101bfc009346160092460de040003549009c0c546b
:101c0c00013000240c5451468a605a1c023563453d
:101c1c0047d213005a1e9046796807220a40012abf
:101c2c0017d0b068f468421c31698a4289410a4075
:101c3c00944237d001990139cc5c0094796888467c
:101c4c000721444621400129d6d02149009c0c543f
:101c5c00d9e74a469068d468421c494609698a42c9
:101c6c0089410a4094421dd0697809022c7821439d
:101c7c0000917c68a046072441460c40012c06d0fc
:101c8c0069460978124c215459468a60bde74000d8
:101c9c00694609780e4c215401300099090a2154e7
:101cac00f2e7984602f0eafc002802d0064b01222b
:101cbc009a75404603b0f0bcbb46b246a946a04656
:101ccc00f0bd8846eee7c046001c0042642e0020a2
:041cdc0000280020bc
:020000040000fa
:101ce000f0b5ce4600b584b00400009101921e000c
:101cf0000025442730e032000099200001f0cefb9f
:101d0000636a002b08d100280fd102f04dfe01209c
:101d100004b080bcb946f0bd2000243000f036fa93
:101d20000028f2d002f078fdefe702f075fdece755
:101d300002f03afe0020ebe702a802f085fd18e071
:101d40000023e3551fe00022e25421e0200001f0cf
:101d5000bbf9fff75ffd012502f06afda26be36ba3
:101d60009a42c8d3022ec6d0019b002be0d0002d92
:101d7000e2d002f019fe02f079fe02f059fde15db9
:101d800049b20131dcd04523e05c40b20130dad009
:101d900002f00afe01a902a801f088fd002817d16f
:101da00002f046fda36b9946e56b02f0fdfda945e7
:101db000ccd101992000103002f0bafc200001f0d3
:101dc00083f9fff727fd0028c5d102f025fdc2e702
:0e1dd000200001f079f9fff71dfd002098e7d3
:020000040000fa
:101dde00f0b5c64600b584b004000091019200270c
:101dee0044260023984638e00099200002f0d1fbeb
:101dfe006b1ea3632369002b06d102f0cefd0120da
:101e0e0004b080bcb846f0bd2000103000f0b7f929
:101e1e000028f2d002f0f9fcefe702f0befd002040
:101e2e00eee702a802f009fd21e04346a35528e0a3
:101e3e0045234246e25429e0200001f03ef9fff727
:101e4e00e2fc09e0200001f038f9fff7dcfc20008d
:101e5e0002f0adfd002835d1012702f0e2fca56ba2
:101e6e00002dc1d1019b002bd7d0002fd9d002f06d
:101e7e0094fd02f0f4fd02f0d4fca35d5bb20133dd
:101e8e00d3d04523e35c5bb20133d1d002f085fda4
:101e9e0001a902a801f003fd0028d3d1200002f011
:101eae0086fd0028c8d001992000243002f039fcac
:101ebe00200001f002f9fff7a6fc0028ccd102f0b9
:081ece00a4fcc9e700209be71a
:020000040000fa
:021ed600fee725
:020000040000fa
:101ed800f8b5de4657464e464546e0b5354d364bd5
:101ee8002f001e00354a01239b46324b9846b246c6
:101ef8001e0016e0580030498c46095c8946ff21cf
:101f08008c4349460c4301306146085c0002e4b248
:101f18000443013319e0ff2323401385337d002b4d
:101f280021d1137e584603423ed0a868eb689842f8
:101f380037d05068072108400128dbd05046c05ce4
:101f4800f8318c430443a4b2013338698342804199
:101f580003404046c360536807210b40012bdad188
:101f6800164b1c85dae7564602f0f2fc114b1b684b
:101f7800002bb7d00f4b59681b7f002b08d00d4b97
:101f88009b699842aed30b4b1b6803209847a9e77f
:101f9800084b9b699842a5d1064b1b6803209847bc
:101fa800a0e7064b01221a75f0bcbb46b246a9460b
:101fb800a046f8bd642e002000280020001c004226
:020000040000fa
:101fc800f8b5ce46474680b5334d2f00a846a946fa
:101fd8005be04246126a002a42d0716a336a0120e5
:101fe8009847b36a0133326b93429241134037e00a
:101ff8004a46926a5200e0b2284988540132240abb
:102008008c543ce002f04afb234b1b6a002b3cd06b
:10201800214b596a3c229b5c002b08d01e4b9b6bc2
:10202800984232d31c4b1b6a002098472de01a4b6c
:102038009b6b984229d1184b1b6a0020984724e0d3
:10204800174b1b7e5b0722d5154b1c8da4b2ab6ac0
:1020580001332a6b934292411340fa6a9a42b8d0ec
:102068000d4ad26a9a42ebd00d4a516807220a40bb
:10207800012abdd0084a926ae4b208498c54064a3b
:1020880093623423d35c002bbcd1034ed8e7c0bc89
:10209800b946b046f8bdc046642e0020302d002059
:0420a800001c0042d6
:020000040000fa
:1020ac00f8b5354c656b63689b69984760616069ee
:1020bc0002f01cfba66ae76a0023020092197b411e
:1020cc00a262e362002d4ed02b4c3022a35c013374
:1020dc00a35402f061f8646b002c03d00125002797
:1020ec00254e12e0254d00242e0021e0200001f0a9
:1020fc004dfba378002b00d16770e368002b01d057
:10210c0020699847746b002cecd0a368002be9d1a4
:10211c0025756575a378002be8d1e368002be5d015
:10212c00e06901f097fee8e701342035052c15d065
:10213c006301f3185b7d002bf6d0104b61015b182b
:10214c0000215975ab78012beed169680b4b6201fc
:10215c009b189960280000f00ffde5e7064b302135
:10216c005a5c013a5a5402f007fd040000f0e2fafe
:10217c00200002f005fdf8bda82e0020902c0020b8
:020000040000fa
:10218c0010b5c368db689a6ad869196a8160d86926
:10219c004860180018305168814242d00021996281
:1021ac00116801391160284a1268002a3fd15a6916
:1021bc009868d9688160986848601c1d5168a14274
:1021cc0032d000215961116801391160d86a1f4a57
:1021dc001268904201d91d4a10601d4982001218e4
:1021ec0092008a1852689a609068d8604460946033
:1021fc00dc6aa20010198000401858611019800088
:10220c0040580130121992005050124a1168da6a83
:10221c00cb6a00209a4203d90f4b01221a6001307d
:10222c0010bd196a5160b9e7d9685160c9e70b4a0a
:10223c005168d9618c681c62606088609a62116810
:10224c0001311160e1e7c046083000202830002041
:10225c00b02d0020403000201c300020582f0020d2
:020000040000fa
:10226c00f0b506000f0015001c0085b08b4263d83a
:10227c0001d1824260d82100280002f01bfb3900fa
:10228c000090300002f016fb009b21001b1a1a0074
:10229c002800039302f002fb00900191b94245d84b
:1022ac0001d1b04242d8009b019c01200021039a2d
:1022bc00f61aa74102f0f2fa04000d00039b002b62
:1022cc002bd0019b009adb0750081843019b59083f
:1022dc00039b9c46b9422cd801d1b04229d832007c
:1022ec003b00121a8b41012692185b410027b6184d
:1022fc005f4101235b429c446346002bead13000d2
:10230c003900039a02f0befa039aa4197d41060023
:10231c000f0002f0c3fa241a8d410a9b002b01d046
:10232c001e605f602000290005b0f0bd0024002570
:0e233c00c4e7b6197f41dce700240025ede779
:020000040000fa
:10234a0010b50400902911dc00207f2928dd80398e
:10235a000800102910d802f05efb31313d0f110f31
:10236a000f0f240f0f0f0f0f0f0f3d00c0294bd077
:10237a00f02949d0a02928d0002011e01968002aa4
:10238a0007d00a1d1a6000228b5e2360db17636088
:10239a0005e0081d18600b689bb22360626001208b
:1023aa0010bd1968002a04d00a1d1a600023cb56f2
:1023ba00ebe7081d18600b68dbb2eee71968002a24
:1023ca001ed00a1d1a600b68dfe71a68111d196012
:1023da001368dae707201968002a09d00918814327
:1023ea000a0008321a600a684b6822606360d6e7fe
:1023fa00ca1d824311000831196053681268f4e754
:10240a00081d18600b68c8e71a68111d196013685f
:06241a0023600023bbe774
:020000040000fa
:102420000d52656365697665642076616c7565201b
:102430006973203a256420616e64207461736b2097
:1024400069642069732025640a0000005461736b7d
:102450004c65644d67720000000000005461736bae
:1024600053656375726974794d6772005461736b5b
:10247000576966694d6772006c6564510000000021
:1024800073656351000000007769666951000000c0
:1024900049444c45000000000d0a204c6564206d45
:1024a000677220696e69742066756e6374696f6ef9
:1024b0000a0000000d0a2053656375726974792063
:1024c0006d677220696e69742066756e6374696fda
:1024d0006e0a00000d0a2057696669206d67722038
:0f24e000696e69742066756e6374696f6e0a00a9
:020000040000fa
:1024f00070b50c1e4bd000284cd1284802f042f990
:10250000012802d00120404246e02368244d6b6040
:10251000db689847e8600026c8220023002101f00c
:10252000fdfb204a002301f0dbfc0222002380187f
:10253000594128620423e3562b722e611a4bab617a
:102540001a4beb6100220023aa62eb626e63302318
:10255000ee5417486b681b68002198476b681b692d
:10256000002b02d00e4a108b98470d4ce06980b2c8
:1025700063685b69984763685b6898470d48a02269
:10258000002102f039fa02232370200004e0012028
:10259000404201e00120404270bdc046e02e0020d4
:1025a000a82e0020006cdc02ffff0000ff7f00006f
:0825b000ad200000902c00207a
:020000040000fa
:1025b80010b52a4b1b68002b03d0294b01221a6047
:1025c80010bd274b00221a60264b1b681b6b264a3e
:1025d8001968914202d1596891422fd0214b18684d
:1025e8001968343102f0f0fa204b1b6820499a0030
:1025f800d21892005258002a06d1013b9a00d218ec
:1026080092005258002af8d019489a00d118890027
:1026180041184c6864684c60d2189200083212184d
:10262800944212d0124a9900c91889005218526867
:10263800d1680c4a11600d4a1360c1e7996891424c
:10264800ccd1db689342c9d1cee76068084a9900cb
:10265800c918890052185060e4e7c04608300020c5
:102668001c30002040300020a5a5a5a5283000205a
:04267800b02d002061
:020000040000fa
:10267c00f0b40125ed070c005c402c40a446ae0ada
:10268c004c18df18f4423dd2f74245d2640d4cd0c1
:10269c007f0d3cd0e41bc9022943cf0adb022b433c
:1026ac00db0a0600b61a9f4104d2013cb6197f41e1
:1026bc00b6185f416812800d241838dd001884426a
:1026cc0025d8e80c0021b6197f41b61a9f4103d3d7
:1026dc0040414941f7d304e0b6185f410018494125
:1026ec00f1d32405b6197f41b61a9f4105d3374360
:1026fc00c20717430022012f50416141624611432a
:10270c00f0bc70470cd100280ad1f74208d2002047
:10271c00c143490d0905f1e7002a01d1f74206d062
:10272c000020c143090dc904eae77f0df8d0002051
:04273c006146e5e726
:020000040000fa
:10274000f0b5c64600b52b4b5a6b59691961002a82
:1027500043d0916880231b02994234d3254b5b6997
:1027600000251c00244a0023a4185d41214b9846f3
:102770005b689b6998470027060043461b698342b4
:1027800003d91e4a0023b6185f411a4b196a002369
:102790000a0092197b41ab4202d827d1a24225d927
:1027a0008919144bd961134bdb691b0402d1114bfe
:1027b0000122da610f4bd86980b25b685b69984788
:1027c00080bcb846f0bd91680a4b5b6900251c00cf
:1027d00000230a00a4185d41c8e7064b5b69002589
:1027e0001c00054a0023a4185d41bfe7014bdc61d2
:1027f000d9e7c046a82e0020ff7f0000ffff0000a1
:020000040000fa
:102800004b005b0d284af0b50d00591e04009142a3
:1028100039d8264a9e1825d420002900332e20dce2
:10282000234a9b1826d4234ada4013002700214a62
:102830009f43f24038002f00234097432a4039003d
:1028400013430ed0002f0cda3400203c25d4802511
:102850006d03e5402a0080246403f44023008018bf
:102860005941f0bd002d02db00200021f9e70020d6
:102870001149f6e720230f4a9b1b9a4001235b4234
:10288000f3401343d2e720002900002be9d10022b6
:10289000e90fcb0710001900e3e720248025a41bd3
:1028a0006d03a5402a00d6e7fd07000001fcffffed
:0c28b000e1fbffffffff0f000000f0bf86
:020000040000fa
:1028bc0070b504000d00254b1e68254b18680430bc
:1028cc0001f01efe631c0dd03419214b1b685c609b
:1028dc00a6421dd91f4b18681d4b1968043101f015
:1028ec0049fd70bd002d21d01b4a5168184b18684a
:1028fc00816018688c68c46018680430606018685f
:10290c00043088601b685a61136801331360e8e770
:10291c00124b18680e4b1968043101f02bfd104b4b
:10292c001b68a342ddd90e4b1c60dae7731e084a04
:10293c00126853609e42cdd8084b1868044b196836
:10294c00043101f017fd064b1b68cae72c30002040
:10295c004030002038300020302f00203c30002048
:04296c001030002007
:020000040000fa
:10297000f0b54b6889b004930b6805000c009c46c9
:102980008e68cf68079310685168cb0f05930029b4
:1029900044da0b000200002150429941049b002bb5
:1029a00009db0222634693430793059b002b02d168
:1029b000079b5a0723d5731e07aa02920a22009387
:1029c00001920b000200200000f02dfd059b002b62
:1029d00019d02d2301383b542269079b013a121a62
:1029e000391800932800330000f0a6fc6b68db0563
:1029f00003d56368984200da180009b0f0bd1b07e0
:102a0000db0ff31ad8e7079b5a0702d52b230138af
:102a1000e1e71b07e0d520230138dce7049b002b0e
:042a2000bfdac5e76d
:020000040000fa
:102a240070b5041e4cd0c26a264b1b68db6a9a42fe
:102a34003ed28369002b05db224b1b68d96a052330
:102a44005b1a836193009b189b001f4a9b18626961
:102a54009a4205d01b4b1b68db6ae36201202ee01f
:102a6400251d280001f050fd164b1b68d96ae16250
:102a7400164b1b68994201d9144b1960124a8b00fa
:102a84005b189b00d3185b68a3609968e1604d6094
:102a94009d60e06a8300191889008918616119181a
:102aa4008900895801311b189b009950012006e0c8
:102ab400044b1b68406cdb6a98428041404270bd05
:102ac4000020fce740300020b02d002028300020fa
:020000040000fa
:102ad400f8b504000d00002850d0c36b0020002b73
:102ae4004dd00026190c226c100c00292fd181b274
:102af40000291ed10020002e41d101f097fe22684a
:102b0400216ce36b4b43d018a0600020a06362608b
:102b14005b1ad218e260ff234422a3540132a35467
:102b2400002d22d12369002b16d101f03bff012097
:102b340025e0011c181c9bb292b25a4380b28bb29e
:102b44004343120c9b181b0cd4d00126d2e780b24d
:102b54000028fad1101ceee720001030fff714fb18
:102b64000028e2d001f056fedfe72000103001f02b
:102b7400b1fe2000243001f0adfed6e70020f8bd00
:020000040000fa
:102b8400f0b5d6464f464646c0b584b0011e48d07f
:102b9400254b586b8b689a46002837d08368524679
:102ba4000392002290469a4535d300220023894699
:102bb40001008e683400002512196b410291896965
:102bc40000290dd08e68009600260196009e019f74
:102bd400b6185f41474503d8ebd103988642e8d93c
:102be400029c080049468861a16100205446a21a4b
:102bf4008a608b69002b03d089689a68521a9a609c
:102c040004b0e0bcba46b146a846f0bd8b60064ba2
:102c140059630120f4e7044b5963886100220120c1
:0c2c2400e4e70020ece7c046a82e0020ea
:020000040000fa
:102c3000002941d010b404004c40a44601230022d6
:102c4000002900d54942002800d5404288422cd3b3
:102c500001242407a14204d2814202d209011b01ae
:102c6000f8e7e400a14204d2814202d249005b00ad
:102c7000f8e7884201d3401a1a434c08a04202d315
:102c8000001b5c0822438c08a04202d3001b9c0856
:102c90002243cc08a04202d3001bdc0822430028b8
:102ca00003d01b0901d00909e3e710006446002c9a
:102cb00000d5404210bc704701b5002001f090ffe4
:102cc00002bdc0460029f7d003b5fff7b3ff0ebc25
:082cd0004243891a1847c0466f
:020000040000fa
:102cd8001e4b00229a619a8c80218a439a8419009b
:102ce8001022cb681a42fcd0194b1b689b0e3f2b55
:102cf8002ad09b02802292001343144a9362110047
:102d08001022cb681a42fcd0104b02229a84190078
:102d18000e32cb681a42fcd00e4b0f4a5a601a008a
:102d280053785bb2002bfbdb0a4b0c4a5a800c4ae7
:102d38005a800c4a5a800c4a5a800c4b0c4a1a6228
:102d4800024b00221a627047203bd2e7000800407d
:102d580024608000000c00400007010005400000ce
:102d680014400000194000001b400000000400400f
:042d780084080100ca
:020000040000fa
:102d7c0070b50400430712d0072305009d430835a6
:102d8c00854235d801f06cfe1d4b1b68002b19d009
:102d9c00fef73afd01f018ff0025280070bd01f088
:102dac005ffe174b1b68002b0fd0002cf0d0154b7f
:102dbc001b681c19144a94420dd8a3420ed3fef77b
:102dcc0023fde7e7002400e02c000d4a0f4b072100
:102ddc008b431360e9e7fef717fddbe7084a15683c
:102dec00ed18084b1c60fef70ffd002dd5d1d1e777
:102dfc0001f036fe024b1b68002be5d02c00d6e709
:102e0c000030002004300020f727000007000020cd
:020000040000fa
:102e1c00f0b5d6464f464646c0b582461e4ad36ae2
:102e2c00956a002933d0ab4234d0040001201b4af0
:102e3c0094469046184f13e05a006646b65c2670ce
:102e4c0001326646b25c627001333a6b9342924136
:102e5c001340814213d9421c0234ab4210d01000f3
:102e6c000f4a566807223240012ae5d04246d25c0e
:102e7c0091465246013a4e4616540133e5e71d0081
:102e8c00054bdd62e0bcba46b146a846f0bd1d005c
:102e9c000800f5e70020f3e7642e0020302d002019
:042eac00001c0042c4
:020000040000fa
:102eb00070b5041e09d0436c8b4200d20b00e26a4d
:102ec0009a4202d0a16c012900d070bde362a169d1
:102ed000002902db0521cb1aa36193009b189b00fc
:102ee000144a9b1862699a42efd1251d280001f00f
:102ef0000dfbe16a104b1b68994201d90e4b19601a
:102f00000c4a8b005b189b00d3185b68a360996820
:102f1000e1604d609d60e06a83001918890089189e
:102f2000616119188900895801311b189b0099505b
:0c2f3000cbe7c046b02d00202830002068
:020000040000fa
:102f3c001e4b1f4a1a60d22252429a81c022920220
:102f4c005a601a00d369002bfcd1184a136802216d
:102f5c000b431360d369002bfcd1164b00221a6271
:102f6c009a62da6234215a5408315a549a63002115
:102f7c00da871a609a60da60197519779a610b4bc7
:102f8c005a6807231340012b0ad00a4b80221a637c
:102f9c0092001a61054b80229a757c3a9a7570479b
:102fac00044b40221a6392001a61f3e7001c0042a2
:082fbc0004011040642e002006
:020000040000fa
:102fc40010b51e4a137801210b43137053785bb27a
:102fd400002bfbdb194980235b008b610023cb6151
:102fe4000433cb60164b10221a721a752020022467
:102ff4001c540c301a540c301a540c301a540c3023
:103004001a540c301a540c301a540c301a540c3014
:103014001a540c301a540c301a540c301a540c3004
:103024001a540c301a540b780e3a13430b700a00de
:1030340053785bb2002bfbdb10bdc0460018004088
:04304400d02b00206d
:020000040000fa
:1030480070b5041e33d0836c013b8364c16a426c43
:1030580091422ed00020002b00d070bd251d2800e5
:1030680001f050fa616ce16205235b1aa361124b0f
:103078001b68994201d9104b1960104a8b005b18e4
:103088009b00d3185b68a3609968e1604d609d6000
:10309800e06a830019188900891861611918890084
:1030a800895801311b189b0099500120d5e7002051
:1030b800d3e70020d1e7c04628300020b02d0020fb
:020000040000fa
:1030c80070b5050001f0b0fb4523ec5c64b2002c40
:1030d80011dd2e00243603e0013c64b2002c0ad036
:1030e8006b6a002b07d03000fff74cf80028f3d0ac
:1030f80001f02efdf0e74523ff22ea5401f050fcd1
:1031080001f092fb4423ec5c64b2002c11dd2e002c
:10311800103603e0013c64b2002c0ad02b69002b66
:1031280007d03000fff72ef80028f3d001f010fd8b
:0e313800f0e74423ff22ea5401f032fc70bda0
:020000040000fa
:02314600fee7a2
:020000040000fa
:1031480010b5174b06225a6001f07cf8fff7c0fd56
:1031580001f0e6fc00f096fffff7ecfefff72eff0c
:1031680000f0fafd0f49002000f026fc0e4c20600c
:103178000e4801f0e9f80e49002001f09dfa606060
:103188000c490020fff7b0f9a0600b49002000f0bf
:10319800bbf9e06001f0e2fc00f05efa10bdc04649
:1031a800004000419c4b0000b42f0020cc4b000095
:0c31b800c84b0000944b00004c4b000082
:020000040000fa
:1031c400f0b5ce46474680b587b0194c194b9846a2
:1031d40000270026184b9946237803ad2b806b807b
:1031e4000223ab80ee800596124bdb68db199868ee
:1031f4003200102100f022f8434601c39846330000
:1032040064222900fef76afd228961680196e36859
:10321400009323004846fdf7c5ff14340c37242fd0
:10322400dad100f013fb07b0c0bcb946b046f0bd1c
:0c3234005830002094300020f5370000d6
:020000040000fa
:1032400070b504000d00002833d00021030c2a0cb7
:10325000002b29d193b2002b18d100292cd12800a2
:10326000604300260300493324d84830fff786fd29
:10327000061e1fd00300002d00d048333360f463d6
:10328000356401213000fff725fc13e0131c261cd8
:10329000a0b2aab24243b6b29bb27343120c9b18bf
:1032a0001b0cdad00121d8e792b2002afad12e1ce9
:0c32b000eee70026300070bd0026fbe7b2
:020000040000fa
:1032bc00f7b51d4f03003c68201e0dd000222100e5
:1032cc00100001920d68ac460d699c4509d1002a8d
:1032dc0005d0156110310800febd2900f2e73d60f4
:1032ec00f8e79c4506d9002802d00668b44501d2ff
:1032fc00080001920a00002defd10028ecd0050047
:10330c0002680169d21a1035102a05d90360eb182e
:10331c0019611900103a1a60844202d139602800f0
:0c332c00dae7019b1961fae74830002045
:020000040000fa
:10333800f0b589b014000e9a1d0002910123110006
:103348001940019003911a4201d1a5420ad82200de
:103358000299019801f098f8a54203d825002800a1
:1033680009b0f0bd2e1b37003200102e00d91022f4
:10337800202104a801f03cfb0f2f0ed80f22019842
:10338800324004a901f080f8039b002be7d122000a
:103398000299019801f078f8e1e71022019804a950
:0833a80001f072f8103fe7e7a5
:020000040000fa
:1033b00010b50400902911dc00207f291bdd803925
:1033c000080010290ed801f02bfb0f0f250d170d4b
:1033d0000d0d1e0d0d0d0d0d0d0d2500a02903d099
:1033e000c02901d0002006e01968081d18600b688c
:1033f00023601a60012010bd1968081d18600b6851
:1034000023601a80f6e71968081d18600b682360ae
:103410001a70efe71968081d18600b6823601a60be
:06342000d2175a60e6e736
:020000040000fa
:10342600f7b5040019000a9ee368676800933368dd
:10343600100001932369013b1c00002f00da0127cd
:103446000022009dea540123089d002c03dc002b7a
:103456001cd02000febd02000a4309d1089aba1a00
:103466005219002a04dc002df1dd019a9207eed5ef
:10347600099b099adb1700f030fd8c460099130072
:10348600013c30320a55013d6146dee710223368c1
:0634960093433360dde703
:020000040000fa
:10349c0070b504001600856b026c002a0cd1036811
:1034ac000020002b02d00135a56370bda068fff78a
:1034bc00c5fd0023a360f6e7002e0dd1406801f096
:1034cc008bfa6368226c9b186360a268300093428d
:1034dc00e9d323686360e6e7c06801f07dfa226ceb
:1034ec005142e3689b1ae3602268934202d2a368bc
:1034fc005b18e3600020022ed5d1002dd3d0013d06
:02350c00d1e705
:020000040000fa
:02350e00fee7d6
:020000040000fa
:1035100070b505000c00174b1b78002b0bd0002d4d
:1035200021d1002c22d0144b1b785bb2002b0bd086
:103530000120404270bd114801f024f901280fd14b
:103540000c4b01221a70eae7a0680b4b9860626886
:103550005a60022119702168536898470020e9e7f2
:1035600001204042e6e701204042e3e701204042db
:10357000e0e7c04655300020d02f0020f82f002073
:020000040000fa
:103580000eb400b582b000280ed1154b1b785bb28b
:10359000002b09d0124b5b68002b05d01148124953
:1035a00000f0c8ff002803d102b008bc03b01847e0
:1035b00004ab01930d48039ac82100f0bbf8020048
:1035c000431ec62b07d8094900230b54044b9868a7
:1035d0005b685b699847034801f0e1f8e4e7c0469f
:1035e000d02f0020f82f0020ffff0000082b002024
:020000040000fa
:1035f000f0b50c004968236887b00600a768e56845
:103600000593002902db02218b43059305a953682a
:10361000126802910821200001910097fff703ff33
:10362000059bdb0602d5302301382b54059b1b0775
:1036300002d5202301382b542269059b013a121a26
:103640002918009330003b00fff776fe7368db0516
:0e36500003d56368984200da180007b0f0bd99
:020000040000fa
:02365e007047b3
:020000040000fa
:1036600010b5bff35f8f62b6154bc12189005a5860
:10367000ff2082433f3802435a5010221a60c22072
:10368000800019580f4a1140c02212020a431a50f2
:10369000802292001a6004301a580b4c2240c0213c
:1036a00009040a431a508022d2011a6004301a58c1
:1036b0002240114319508022d2021a6010bdc04628
:0c36c00000e100e0ff00ffffffff00ff43
:020000040000fa
:1036cc00f0b5c64600b5144b9846144f144e1d0069
:1036dc0043461b68002b17d001f0a4f8fb68dc688c
:1036ec00201d00f00dff3368013b33602b68013b5c
:1036fc002b6001f053f9206b00f0a1fd200000f0cd
:10370c009efd2b68002be7d1064b1b68012bdfd9e4
:10371c0001f07cf8dce7c04634300020442f002058
:08372c0030300020b02d002018
:020000040000fa
:10373400f0b59bb004000d00160000214c2207a830
:103744001f0001f057f901235b4202930433ff3356
:103754000393002c00d101ac0023049405959d42f1
:1037640000d06b1e0693002d06da4f220120084b71
:1037740040421a601bb0f0bd002d01d0002323701d
:103784003a00310002a80894079401f073f8f1e7b5
:043794004c30002095
:020000040000fa
:1037980010b50200144b5b6b002b16d0834218d077
:1037a80019009b69002b12d09a42f9d19369002b1a
:1037b80005d0946898680019986000290dd093691d
:1037c8008b6100200023936110bd0020fce70020de
:1037d800fae783690021002bebd1034b596b896908
:0c37e80059630120eee7c046a82e002027
:020000040000fa
:1037f400f8b50578124e134f02e0200000f04efb9e
:10380400102000f07ff80400022df6d8ab00985980
:1038140064222100fef7e1fa0128eed1a2882b00f0
:1038240039000020fff7aafe074baa0052199200a4
:103834009b181b69002be0d020009847dde7c046a9
:0c384400943000202024000058300020a8
:020000040000fa
:1038500000b583b00e490f480f4b0193002300932e
:103860008022fdf7a1fc012803d00c4b1b6803b09c
:1038700000bd72b60a4b012252421a60094b023255
:103880001a60094b00221a6000f0c4fbede7c04645
:1038900090240000cd3600000c300020d84b0000f2
:0c38a00010300020243000202c300020cc
:020000040000fa
:1038ac0070b505000c0000f0bdff124b1a682368c0
:1038bc00591c1ad06968104800682e68864205d0d9
:1038cc00914203d80023236001240fe0501a834255
:1038dc0003d800232360012408e09b1a5b182360a3
:1038ec00280000f0abff002400e0002401f056f8a3
:0c38fc00200070bd2c300020183000208f
:020000040000fa
:1039080037b5144d04002b68002b0fd000f088fe4b
:10391800019001a800f0e7ff0f230f3001999843a9
:1039280000f01eff00280bd000232b60002c00d1d4
:1039380001340f230f349c4304d10c22064b1a6028
:1039480000203ebd2000fff7b5fc0028f9d0031f7a
:0c3958001c60f6e7a83000204c30002076
:020000040000fa
:1039640000230e4a10b513600d4a13600d4a13600c
:103974000d4a13600d4a13600d4a536213610133fb
:10398400936000f098fd00f096fd0a4c0a4b9c42af
:1039940000d310bd08cc9847f8e7c046503000204b
:1039a400202e00201c2e0020142e0020182e002073
:0c39b400242e0020bc000000c000000019
:020000040000fa
:1039c00010b50c0000281fd1114b1b78002b19d10a
:1039d000104b01221a7100221a655a718221490086
:1039e0005a54002c05d0206800f098ff6268094bfb
:1039f0009a60074801230370002282704370054bd0
:103a0000436010bd0248fce701204042f9e7c04690
:083a1000a42f0020002a002071
:020000040000fa
:103a180010b5144b9b7d002b16d0124a137edbb2d7
:103a2800927d52b2002a10db0e4a137edbb2927de1
:103a3800d20701d5db070ed40a4a137edbb2927d8a
:103a4800520701d55b0709d410bd5bb2002bebda36
:103a580000f036f8e8e7fef73bfaede7fef7b0fad4
:083a6800f2e7c046001c004219
:020000040000fa
:103a7000f0b50c004968236887b00500a768e668c0
:103a80000593002902db02218b43059305a95368a6
:103a9000126802910a21200001910097fff7c3fcf0
:103aa0002269059b013a121a3118009328003b0045
:103ab000fff742fc6b68db0503d56368984200dac8
:063ac000180007b0f0bd84
:020000040000fa
:023ac600704747
:020000040000fa
:103ac80010b5114b5a8b0723110019401a4200d127
:103ad80010bd0e4bd9870c4b80221a76793a5a833f
:103ae8001b7e5b0705d5084b04211a8d1a7e0a42f6
:103af800fbd1064b1b6a002bead0044b596a1b6aa0
:103b080002209847e4e7c046001c0042642e0020cb
:020000040000fa
:103b1800f0b50e0087b0039015001049072204a8dd
:103b28001c0000f05bffb368776802933668002dcd
:103b380000d104ad002c03d1280000f08dfe040054
:103b4800002f02dbbc4200d93c0022002900029b66
:103b580003980096fff7ecfb07b0f0bd6046000045
:020000040000fa
:103b680070b5104d04002b68002b0cd0002c12da15
:103b78000d4a2b6812689b1a6242934208db286838
:103b880004192c6006e000f0c5fb2b68002bedd172
:103b98000120404270bd054b2a681b689b1aa3424e
:103ba800eddaf5e7dc2f0020e42f0020e02f0020dd
:020000040000fa
:103bb80010b5064c2378002b07d1054b002b02d0fb
:103bc800044800e000bf0123237010bd142f00201b
:103bd8000000000000000000044b10b5002b03d0cb
:103be8000349044800e000bf10bdc04600000000c3
:083bf800182f0020000000005e
:020000040000fa
:103c000010b50a4b98470a4b984700f0e7fa094b62
:103c1000ff229343084a9360084b9847084b984704
:103c2000084b984700f06afffee7c0465f36000089
:103c30005f3600000000000000ed00e06539000084
:083c40005f3600005f36000052
:020000040000fa
:083c480010b500f01dfd10bdd8
:020000040000fa
:103c5000eff309800e4b1a6820381060f0c044461c
:103c60004d4656465f46f0c008b572b6fef7a4fc56
:103c700062b60cbc116808681030f0c8a046a946ae
:103c8000b246bb4680f309882038f0c81847c046c2
:043c900040300020a0
:020000040000fa
:103c9400030010b51a78202a0ad011000939042922
:103ca40006d92b2a06d000212d2a05d1012102e0b4
:103cb4000133efe70021013300200a2402e06043ce
:103cc4000133801a1a78303a092af8d9002900d128
:043cd400404210bd9d
:020000040000fa
:103cd80030b401256d054c00e54215d85c00e5427d
:103ce80012d80c001c436400044314430fd005d2bf
:103cf80082428b418041013030bc704790429941eb
:103d08008041013030bc7047002030bc7047012032
:043d180030bc704704
:020000040000fa
:103d1c00f7b5040c0d0091b20f0061438c46060000
:103d2c00019383b2100c5f43444358433b0c6044f3
:103d3c001b18994202d980214902641801995543f4
:103d4c007143180c04191b04bfb24919d81909196d
:043d5c0003b0f0bd03
:020000040000fa
:103d60000c4b01221a801a00d37b5bb2002bfbdbc9
:103d7000084b60221a80084a1a833b229a73074a2a
:103d80000021116020225a731a00d37b5bb2002bf2
:103d9000fbdb7047002c00427fbbffffe82f0020b9
:020000040000fa
:103da00070b50e001500002811d10c4800f01cfd64
:103db00000280fd0094c23681b6829003000984761
:103dc00005002000083000f0eafc280070bd012545
:103dd0006d42fae701256d42f7e7c046c42f002087
:020000040000fa
:103de00070b50e001500002811d10c4800f0fcfc45
:103df00000280fd0094c2368db6829003000984761
:103e000005002000083000f0cafc280070bd012524
:103e10006d42fae701256d42f7e7c046c42f002046
:020000040000fa
:103e200010b50c4b30229b5c0120002b00d010bd44
:103e300009480a4900f07efb03000020012bf6d15f
:103e4000044c0820205600f0a9f83123e05401204a
:103e5000ede7c046a82e0020e02e0020ffff000066
:020000040000fa
:103e600010b50400fff7dcff002817d0200000f099
:103e7000b3f8041e10d04378002b08d1002323751b
:103e800063752370002400f0d7fa200010bdfff7ff
:103e900083fc00236370f1e70124f4e70124f4e7d5
:020000040000fa
:103ea00030b5002817d002000c4c103a21680029c8
:103eb00012d015680b684019814206d10969103388
:103ec0005b1911611360226005e01033c81882424b
:103ed00002d1ed180d6030bd1161f4e748300020cb
:020000040000fa
:103ee000002b11d1002a0fd1002900d1002802d0c7
:103ef0000021c943080007b4024802a140180290fb
:103f000003bdc046dd0c000003b4684601b502984d
:103f1000fef7acf9019b9e4602b00cbc7047c04650
:020000040000fa
:103f200030b401256d054c00e54215d85c00e54232
:103f300012d80c001c436400044314430cd005d277
:103f400082428b418041404230bc7047904299414f
:0e3f50008041404230bc7047002030bc7047ba
:020000040000fa
:103f5e0030b401256d054c00e54215d85c00e542f4
:103f6e0012d80c001c436400044314430cd005d239
:103f7e00904299418041404230bc704782428b4111
:0e3f8e008041404230bc7047002030bc70477c
:020000040000fa
:103f9c0070b5040000f048fd0025002c0fdb0a4929
:103fac000a681f232340da400135154001229a404c
:103fbc00130080228b50bff34f8fbff36f8f00f035
:0c3fcc00b1fc280070bdc04600e100e020
:020000040000fa
:103fd8000300421e033212d80204120c042a10d81d
:103fe800094950010918c9690020994208d1064bae
:103ff8005101cb5c002b03d00348081800e00020d7
:0c40080070470020fce7c046902c002010
:020000040000fa
:1040140010b50c4b1968ff2212040a431a60196880
:10402400ff2212060a431a6000f05afa064b0022d5
:104034001a6000f023f9fef7bdfa00f002fd00203b
:0c40440010bdc04620ed00e0a4300020bc
:020000040000fa
:104050001c2101231b04984201d3000c10391b0ab8
:10406000984201d3000a08391b09984201d300097c
:10407000043902a2105c40187047c04604030202d3
:0c40800001010101000000000000000030
:020000040000fa
:10408c000b4b00221a621a779a60da60094b802275
:10409c0092025a601a00d369002bfcd1054b1722ef
:1040ac001a73093a1a601a00d369002bfcd17047b5
:0840bc00e82e0020000800427c
:020000040000fa
:1040c40070b500280fd10b4800f08cfb00280dd0f0
:1040d400084c23681b69984705002000083000f04d
:1040e4005cfb280070bd01256d42fae701256d4295
:0840f400f7e7c046c42f0020cd
:020000040000fa
:1040fc0070b500280fd10b4800f070fb00280dd0d4
:10410c00084c23685b69984705002000083000f0d4
:10411c0040fb280070bd01256d42fae701256d4278
:08412c00f7e7c046c42f002094
:020000040000fa
:1041340070b500280fd10b4800f054fb00280dd0b7
:10414400084c23689b68984705002000083000f05d
:1041540024fb280070bd01256d42fae701256d425c
:08416400f7e7c046c42f00205c
:020000040000fa
:10416c0070b500280fd10b4800f038fb00280dd09b
:10417c00084c23685b68984705002000083000f065
:10418c0008fb280070bd01256d42fae701256d4240
:08419c00f7e7c046c42f002024
:020000040000fa
:1041a4000c4b5b6b002b11d000280fd0002107e0d3
:1041b4009a68801a99609b69002b07d0002805d063
:1041c4009a688242f4d39a68121a9a60014b5a6927
:0841d4001a617047a82e0020bb
:020000040000fa
:1041dc0010b50b480168002905d14368002b02d1aa
:1041ec0000f00df910bd04008368064a9bb20c3434
:1041fc009b009b5842682000984780002018e9e7f4
:08420c00900d0000d0490000f4
:020000040000fa
:1042140010b50400812906dc00207f2912dd136813
:104224000721073305e0002083290bd113687c396b
:1042340007338b4319000120083111601a685b6849
:064244002260636010bd62
:020000040000fa
:02424a007047bb
:020000040000fa
:10424c000b4bc022120180215a5010315a500122be
:10425c0032315a5401315a54002207315a54013127
:10426c005a541a393320585404315a547047c046a2
:04427c0000440041b9
:020000040000fa
:104280000b4a13681868203080f30988022080f3f5
:104290001488bff36f8f3fbcae4608bc04bc62b647
:1042a0001847c046c046c046c046c046c046c04685
:0442b000403000207a
:020000040000fa
:1042b4000200002070b50a4b4400e55c002d02d1d9
:1042c4001b19587870bd116801300e78c0b2ae4227
:1042d40003d11b190131587811600a28ebd9f1e791
:0442e4000449000089
:020000040000fa
:1042e800f4464a1805d200f077f801d5c0174008ff
:1042f800604701235b05d34206d200f06df801d573
:104308000120c0074042604701d10042f5d0d017d4
:0443180040087047a2
:020000040000fa
:10431c00074a1368002b01d1064b1360064b196832
:10432c00002901d105491960054b12681a607047c4
:10433c00e42f0020b0300020e02f0020b03400200b
:04434c00dc2f002042
:020000040000fa
:1043500070b5041e0dd0084d04220100280000f0a5
:1043600041fb064b00221a605a6063886b80012073
:1043700070bd0020fce7c046a42e0020f02f0020d6
:020000040000fa
:1043800030b50d68030008336a1c0ed01c005b6852
:104390001a68aa42fad963684b6099608c606160c0
:0e43a000086103680133036030bd0469f3e770
:020000040000fa
:1043ae0070b4012676054c005d00e6420cd8ee4254
:1043be000ad825430543154303d0994204d19042b0
:0e43ce0002d1012070bc7047002070bc704707
:020000040000fa
:1043dc004a0010d2520d03231b02ff33d21a0ad407
:1043ec0052421f3209d4400dc90208430123db0796
:0e43fc001843d040704700207047d01770471c
:020000040000fa
:02440a007047f9
:020000040000fa
:10440c0000030000bd440000a13d00006d41000010
:10441c0035410000e13d0000c5400000fd400000ba
:0c442c009b16000095490000c14b0000e9
:020000040000fa
:1044380010b5084c3123e15c0820205600f04af9f9
:104448003023e35c002b00d010bd034800f0a3f933
:0c445800fae7c046a82e0020e02e00204d
:020000040000fa
:10446400084b1b681b68002b04d1074b01225242e6
:104474001a607047034b1b68db681a68024b1a60aa
:0c448400f7e7c0463c300020103000205c
:020000040000fa
:1044900070b505690400954200d91500002d0bd0b8
:1044a0002a00606900f09efa22696369521b22614a
:0a44b00000225b1963611a7070bdf1
:020000040000fa
:0244ba00704749
:020000040000fa
:1044bc0010b50c00002800d010bd054800f05cf9c8
:1044cc000128f9d12268034b1a6001221a71f3e713
:0844dc00cc2f0020c42f0020aa
:020000040000fa
:1044e400054b00221a6005490a60054a0549116016
:1044f40007221a607047c04610e000e018e000e0b0
:0845040014e000e07fbb0000a1
:020000040000fa
:10450c000369416882688a60416851605a688242d6
:10451c0006d0002202611a68013a1a6018687047c6
:06452c0082685a60f5e709
:020000040000fa
:1045340010b5074b994207d00068fdf717fa013808
:104544004342584140b210bd01214942f4e7c046fc
:04455400ffff000065
:020000040000fa
:1045580000000000782400000a00000001000000ac
:10456800802400000a0000000200000088240000e7
:044578000a00000035
:020000040000fa
:10457c0010b500f015fb0400fcf7f0fe002803d08a
:10458c00034b802252051a60200000f00dfb10bd79
:04459c0004ed00e04a
:020000040000fa
:1045a00010b5030008001a6c002a0ad0dc68a418b1
:1045b000dc6099688c4201d31968d960d96800f031
:0445c00011fa10bd1f
:020000040000fa
:1045c40010b5020000210120fef738fe041e07d0ba
:1045d400002383600360c36000220021fdf77efb9b
:0445e400200010bde6
:020000040000fa
:1045e800054b064a5a801a00d37b5bb2002bfbdbd3
:1045f800014b188a80b27047002c00421080ffffe0
:020000040000fa
:1046080010b5031f802464041c60043b1960043b3c
:1046180002491960143b1a60403810bd474a00002f
:020000040000fa
:1046280010b5054c2368002b01d1fff773fe034b2f
:1046380018682368c01a10bddc2f0020e02f002066
:020000040000fa
:10464800286e696c29002500494e4600696e66008f
:0f4658004e414e006e616e00286e756c6c29002d
:020000040000fa
:10466800002310b5934206d103201840421e904102
:0e4678009b08c01810bdc45ccc540133f2e79f
:020000040000fa
:10468800054a9368d068834201d3181a7047024ad2
:0c4698001269d318181af9e7642e0020ec
:020000040000fa
:1046a400054bd86a9b6a984201d8181a7047024a87
:0c46b400126bd318181af9e7642e0020ce
:020000040000fa
:1046c000044b4a781a70044b4a885a8002221a70a6
:0c46d0000020704756300020fc2f002016
:020000040000fa
:1046dc00002907d0002805db1f220240012393404c
:0c46ec00014a13607047c04600e100e086
:020000040000fa
:1046f800054b1b69834201d2c01a7047c01a802338
:0c4708005b029c466044f8e7a82e0020ed
:020000040000fa
:10471400414b0000b9470000d14700007d4b000029
:0c4724006d49000081490000e9450000db
:020000040000fa
:1047300010b50c00044b19681831fff721fe012158
:0c4740002000fef7bbf810bd4030002048
:020000040000fa
:10474c00054b1b68002b04d0034b1a68936c013388
:0c475c009364014b186870474030002047
:020000040000fa
:1047680003000020044a10b51468844203d1136082
:0c47780018611960013010bd48300020ad
:020000040000fa
:1047840010b5040003680020002b00d010bd0130d8
:0a479400fff716ff20600120f8e790
:020000040000fa
:10479e0010b50068002300220021fdf79afa0138b7
:0847ae004342584140b210bd26
:020000040000fa
:1047b800044a138802210b431380d37b5bb2002b7e
:0847c800fbdb7047002c0042ee
:020000040000fa
:1047d000044a138802218b431380d37b5bb2002be6
:0847e000fbdb7047002c0042d6
:020000040000fa
:1047e80010b508300349fff7a1fe431e9841c0b237
:0847f80010bdc046ffff0000e8
:020000040000fa
:104800001d2e0000a546000045490000dd1b0000ec
:08481000493c00005949000079
:020000040000fa
:10481800044b802252051a60bff34f8fbff36f8f8e
:084828007047c04604ed00e0fa
:020000040000fa
:1048300072b6044a136801331360bff34f8fbff39e
:084840006f8f7047a4300020c7
:020000040000fa
:10484800034b1b680360034b1b6843607047c046fb
:08485800183000202c30002074
:020000040000fa
:104860000378002b06d003005a780133002afbd1cd
:08487000181a70470020fce754
:020000040000fa
:1048780013b50400019201aafcf7f6f86368db0699
:0848880001d50120404216bddc
:020000040000fa
:10489000d0400b00d1409c46203ad34018435242ae
:0848a000634693401843704782
:020000040000fa
:1048a8009140030090409c46203a9340194352425d
:0848b8006346d3401943704729
:020000040000fa
:1048c00010b5002903d1fff7c3fb203002e0080038
:0848d000fff7befb10bdc0465e
:020000040000fa
:1048d800030008334360012252428260c3600361cf
:0648e8000023036070478d
:020000040000fa
:1048ee00006810b5002801da002010bdfff735f979
:0648fe00431cfad1f8e7ab
:020000040000fa
:1049040068076c094c836a9074a07ac00080688838
:0649140000846c820081aa
:020000040000fa
:10491c0010b5011e03d00248082200f05df810bd4e
:04492c00942f0020a4
:020000040000fa
:10493000002803d0bff35f8f62b6704772b6bff333
:044940005f8ffae7a4
:020000040000fa
:1049440010b5034b1c6bfff7abfe013c201a10bde6
:04495400642e0020ad
:020000040000fa
:1049580010b5034b1c69fff793fe013c201a10bdec
:04496800642e002099
:020000040000fa
:10496c00034b18831a00d37b5bb2002bfbdb704725
:04497c00002c0042c9
:020000040000fa
:10498000034b58831a00d37b5bb2002bfbdb7047d1
:04499000002c0042b5
:020000040000fa
:10499400002802d1024b187970470320fce7c04677
:0449a400c42f0020fc
:020000040000fa
:1049a800034a1368013b1360002b00d162b67047bd
:0449b800a430002007
:020000040000fa
:1049bc0010b50400fff736ffa46bfff7efff604262
:0449cc00604110bd79
:020000040000fa
:1049d000594a000069460000dd4b0000dd4b000035
:0449e000dd4b0000ab
:020000040000fa
:1049e40010b5002a05d00023cc5cc4540133934293
:0449f400fad110bd27
:020000040000fa
:1049f800002a06d00300c9b2121819700133934275
:044a0800fbd1704727
:020000040000fa
:104a0c0003000a7818001a7001310133002af8d11a
:044a1c007047c046d9
:020000040000fa
:104a200002b4714649084900095c49008e4402bc41
:044a30007047c046c5
:020000040000fa
:104a3400eff3108072b6bff35f8f43425841c0b2a8
:024a44007047b9
:020000040000fa
:104a460082b00023019372b6019b002bfcd002b00a
:024a56007047a7
:020000040000fa
:104a58008a18914201d10020704700230b70013160
:024a6800f7e76e
:020000040000fa
:104a6c00024a1368013313607047c04608300020b7
:020000040000fa
:104a7c0010b502490020fef77dfd10bd9824000002
:020000040000fa
:104a8c0010b58388022b00d010bdfff7f1fffbe7b8
:020000040000fa
:104a9c0010b502490020fef76dfd10bdb4240000d6
:020000040000fa
:104aac0010b58388022b00d010bdfff7f1fffbe798
:020000040000fa
:104abc0010b502490020fef75dfd10bdd4240000a6
:020000040000fa
:104acc0010b58388022b00d010bdfff7f1fffbe778
:020000040000fa
:104adc0010b5fcf733fd029a039bfcf77bfa10bd73
:020000040000fa
:104aec00f0b40125ed076b40004c2047e70f0000a8
:020000040000fa
:0e4afc0010b50020fef722fbfef75efbfee782
:020000040000fa
:0e4b0a000300413b192b01d8202318437047ac
:020000040000fa
:0e4b18000300613b192b01d85f231840704742
:020000040000fa
:0c4b2800014b82225a607047004000419f
:020000040000fa
:0c4b3400014b186259627047e82e002007
:020000040000fa
:0c4b4000014b186059607047e82f0020fe
:020000040000fa
:0c4b4c00c44b00000c44000000000000fe
:020000040000fa
:0c4b5800014b01221a6070471c30002045
:020000040000fa
:0c4b6400014b00221a70704754300020f2
:020000040000fa
:0c4b700010b50400fff74aff200010bd44
:020000040000fa
:084b7c0000487047006cdc02e8
:020000040000fa
:084b840010b5fff755ff10bd4d
:020000040000fa
:084b8c0010b5fff7cffe10bdcc
:020000040000fa
:084b94001447000012000000ac
:020000040000fa
:084b9c00a44b00000200000020
:020000040000fa
:084ba4009d160000354b0000d6
:020000040000fa
:084bac00eff3108072b67047b0
:020000040000fa
:064bb40080f31088704739
:020000040000fa
:064bba00002303617047b7
:020000040000fa
:044bc0000120704719
:020000040000fa
:044bc40000480000a5
:020000040000fa
:044bc80000040000e5
:020000040000fa
:044bcc0000000000e5
:020000040000fa
:044bd00072b6fee7d4
:020000040000fa
:044bd40072b6fee7d0
:020000040000fa
:044bd80004000000d5
:020000040000fa
:044bdc0000207047fe
:020000040000fa
:044be0007047c04614
:020000040000fa
:0200000400807a
:0440000077c700d8a6
:020000040000fa
:0200000400807a
:044004005c00ffff5e
:00000001FF
