:020000040000fa
:10000000f07f002065920000f3520000975d000031
:1000100000000000000000000000000000000000e0
:1000200000000000000000000000000053800000fd
:100030000000000000000000d193000085a3000034
:100040001f4e00001f4e00001f4e00001f4e0000fc
:10005000998600001f4e00001f4e00001f4e00003a
:100060001f4e00001f4e00001f4e00001f4e0000dc
:100070001f4e0000b9470000618d00001f4e0000b8
:100080001f4e00001f4e000091a100001f4e0000f7
:100090001f4e000000000000000000001f4e000086
:1000a0001f4e00001f4e00001f4e00001f4e00009c
:020000040000fa
:1000b000f8b5c046f8bc08bc9e467047fd910000ec
:1000c000f8b5c046f8bc08bc9e467047d591000004
:020000040000fa
:1000d000f650000001000000d8640000010000009c
:020000040000fa
:1000e000427573206572726f72202835292e25643f
:1000f00020256c780d0a00004661696c65642074e7
:100100006f2077616b652075702074686520636867
:1001100069700d0a000000006661696c65642074f6
:100120006f206c6f6164206669726d776172652003
:1001300066726f6d20666c6173682e0d0a00000098
:10014000447269766572566572496e666f3a203000
:10015000782530386c780d0a000000006661696c03
:10016000656420746f2064652d696e697469616cc3
:10017000697a650d0a0000005b6e6d692073746119
:1001800072745d3a206661696c20696e69742062e0
:1001900075730d0a0000000043686970204944200f
:1001a000256c780d0a0000005b6e6d692073746128
:1001b00072745d3a206661696c20696e697420739f
:1001c00070690d0a000000006661696c6564207446
:1001d0006f20656e61626c6520696e746572727500
:1001e0007074732e2e0d0a005b6e6d692073746f30
:1001f000705d3a20636869705f6465696e69742038
:100200006661696c0d0a00005b6e6d692073746f26
:10021000705d3a2053504920666c617368206469b0
:100220007361626c65206661696c0d0a00000000f4
:100230005b6e6d692073746f705d3a206661696ce6
:1002400020696e6974206275730d0a004572726fc1
:100250007220726563656976696e672053534c201e
:1002600066726f6d20746865204849460d0a00006b
:100270006869665f72656769737465725f63622837
:1002800029206661696c65642077697468207265ed
:10029000743d2564000000005b7370695f636d64ea
:1002a0005d3a204661696c656420636d64207772f5
:1002b0006974652c20627573206572726f722e2ec0
:1002c0002e0d0a000d5b7370695f636d645f72735e
:1002d000705d3a204661696c656420636d642072cc
:1002e0006573706f6e736520726561642c20627532
:1002f00073206572726f722e2e2e0d0a00000000a0
:100300000d5b7370695f636d645f7273705d3a203b
:100310004661696c656420636d6420726573706ffb
:100320006e736520726561640a0000005b7370691a
:100330005f646174615f726561645d3a2046616902
:100340006c6564206461746120726573706f6e7394
:100350006520726561642c20627573206572726f0e
:10036000722e2e2e0d0a00005b7370695f6461743b
:10037000615f726561645d3a204661696c65642005
:100380006461746120726573706f6e73652072654d
:1003900061642e2e2e2825303278290d0a000000a7
:1003a0005b7370695f646174615f726561645d3a1b
:1003b000204661696c6564206461746120626c6fc1
:1003c000636b20726561642c2062757320657272a4
:1003d0006f722e2e2e0d0a005b7370695f6461745c
:1003e000615f726561645d3a204661696c65642095
:1003f0006461746120626c6f636b204352432072ae
:100400006561642c20627573206572726f722e2e86
:100410002e0d0a005b7370695f726561645f7265bf
:10042000675d3a204661696c656420636d642c20c9
:10043000726561642072656720282530386c7829e0
:100440002e2e2e0d0a0000005b7370695f726561cd
:10045000645f7265675d3a204661696c656420631c
:100460006d6420726573706f6e73652c20726561a8
:10047000642072656720282530386c78292e2e2e4e
:100480000d0a00005b7370695f726561645f72657d
:10049000675d3a204661696c65642064617461201f
:1004a000726561642e2e2e0d0a0000005265736580
:1004b0007420616e64207265747279202564202531
:1004c0006c780d0a000000005b7370695f777269d9
:1004d00074655f7265675d3a204661696c6564208a
:1004e000636d642c207772697465207265672028bb
:1004f0002530386c78292e2e2e0d0a005b7370691a
:100500005f77726974655f7265675d3a20466169fd
:100510006c656420636d6420726573706f6e7365c3
:100520002c20777269746520726567202825303821
:100530006c78292e2e2e0d0a00000000526573657e
:100540007420616e642072657472792025642025a0
:100550006c7820256c780d0a000000005b6e6d5fe2
:100560007370695f696e69745d3a204661696c6594
:100570006420696e7465726e616c207265616420be
:1005800070726f746f636f6c207769746820435268
:1005900043206f6e2c207265747279696e672077c4
:1005a00069746820435243206f66662e2e2e0d0a12
:1005b000000000005b6e6d5f7370695f696e697447
:1005c0005d3a204661696c656420696e7465726e7f
:1005d000616c20726561642070726f746f636f6c00
:1005e0002e2e2e0d0a0000005b6e6d5f7370695f2a
:1005f000696e69745d3a204661696c656420696e54
:100600007465726e616c2077726974652070726fa8
:10061000746f636f6c207265672e2e2e0d0a0000ba
:100620005b6e6d5f7370695f696e69745d3a2046d9
:1006300061696c20636d6420726561642063686920
:10064000702069642e2e2e0d0a0000005b6e6d5f17
:100650007370695f696e69745d3a20636869706977
:1006600064202825303878290d0a00005b737069f2
:100670005f726561645f626c6f636b5d3a204661b7
:10068000696c656420636d642c207265616420620e
:100690006c6f636b20282530386c78292e2e2e0d38
:1006a0000a0000005b7370695f726561645f626c71
:1006b0006f636b5d3a204661696c656420636d64ad
:1006c00020726573706f6e73652c20726561642093
:1006d000626c6f636b20282530386c78292e2e2ea3
:1006e0000d0a00005b7370695f726561645f626c24
:1006f0006f636b5d3a204661696c656420626c6f64
:10070000636b206461746120726561642e2e2e0d0e
:100710000a000000526573657420616e6420726582
:1007200074727920256420256c782025640d0a00d8
:100730005b7370695f77726974655f626c6f636b1e
:100740005d3a204661696c656420636d642c207796
:100750007269746520626c6f636b20282530386c79
:1007600078292e2e2e0d0a005b7370695f777269ef
:1007700074655f626c6f636b5d3a204661696c659e
:100780006420636d6420726573706f6e73652c20d6
:10079000777269746520626c6f636b20282530382e
:1007a0006c78292e2e2e0d0a000000005b737069f4
:1007b0005f646174615f77726974655d3a20466158
:1007c000696c6564206461746120626c6f636b2086
:1007d000636d642077726974652c2062757320657f
:1007e00072726f722e2e2e0d0a0000005b737069fc
:1007f0005f646174615f77726974655d3a20466118
:10080000696c6564206461746120626c6f636b2045
:1008100077726974652c20627573206572726f72cd
:100820002e2e2e0d0a0000005b7370695f646174e8
:10083000615f77726974655d3a204661696c6564d1
:10084000206461746120626c6f636b2043524320ab
:1008500077726974652c20627573206572726f728d
:100860002e2e2e0d0a0000005b7370695f7772698f
:1008700074655f626c6f636b5d3a204661696c659d
:100880006420626c6f636b206461746120777269ad
:1008900074652e2e2e0d0a005b7370695f77726986
:1008a00074655f626c6f636b5d3a204661696c656d
:1008b0006420627573206572726f722e2e2e0d0a7f
:1008c000000000005b7370695f77726974655f6236
:1008d0006c6f636b5d3a204661696c65642064618e
:1008e000746120726573706f6e73652072656164e8
:1008f0002c2025782025782025780d0a000000007e
:10090000536c6f77696e6720646f776e2e2e2e0d95
:100910000a0000004661696c656420746f20616c98
:100920006c6f632072782073697a652025640d0ae4
:100930000000000028484946294661696c6564202a
:10094000746f2077616b65757020746865206368cb
:1009500069700d0a00000000484946206d657373f8
:10096000616765206c656e6774682028256429209e
:1009700065786365656473206d6178206c656e676a
:10098000746820282564290d0a000000286869661b
:100990002920574946495f484f53545f5243565f99
:1009a0004354524c5f3120627573206661696c0d4f
:1009b0000a00000028686966292061646472657312
:1009c0007320627573206661696c0d0a0000000077
:1009d000286869662920436f727275707465642097
:1009e0007061636b65742053697a65203d202575bd
:1009f000203c4c203d2025752c2047203d2025758e
:100a00002c204f50203d20253032583e0d0a00004a
:100a1000574946492063616c6c6261636b2069735e
:100a2000206e6f7420726567697374657265640dfa
:100a30000a000000536f636b65742063616c6c6225
:100a400061636b206973206e6f74207265676973d0
:100a500074657265640d0a004f74612063616c6c8b
:100a60006261636b206973206e6f742072656769c1
:100a70007374657265640d0a00000000437279703a
:100a8000746f2063616c6c6261636b206973206eac
:100a90006f7420726567697374657265640d0a000e
:100aa0005369676d612063616c6c6261636b20697f
:100ab00073206e6f74207265676973746572656404
:100ac0000d0a000053534c2063616c6c6261636bd0
:100ad000206973206e6f7420726567697374657224
:100ae00065640d0a00000000286869662920696ea7
:100af00076616c69642067726f75702049440d0ad5
:100b000000000000286869662920686f73742061fe
:100b10007070206469646e27742073657420525865
:100b200020446f6e65203c25753e3c25583e0d0add
:100b30000000000028686966292057726f6e6720e0
:100b400073697a650d0a0000286869662920466184
:100b50006c736520696e7465727275707420256c93
:100b6000780d0a002868696629204661696c656409
:100b700020746f207265616420696e74657272758d
:100b80007074207265670d0a0000000028686966ad
:100b900029204661696c20746f2068616e646c6501
:100ba00020696e7465727275707420256420747289
:100bb0007920616761696e2e2e0d0a0020686966d2
:100bc0005f726563656976653a20496e76616c6926
:100bd0006420617267756d656e740d0a0000000017
:100be0004150502052657175657374656420536976
:100bf0007a65206973206c61726765722074686120
:100c00006e2074686520726563656976656420622c
:100c100075666665722073697a65203c25753e3c71
:100c2000256c753e0d0a00004150502052657175cb
:100c300065737465642041646472657373206265d2
:100c4000796f6e6420746865207265636569766586
:100c50006420627566666572206164647265737390
:100c600020616e64206c656e6774680d0a00000078
:100c7000475270203f2025640d0a000047656e65cd
:100c8000726174656420486f737446696c6548616d
:100c90006e646c657249442069732025750d0a00e5
:100ca000496e76616c6964204f544120726573709f
:100cb000202564203f0d0a0057494e4320697320c8
:100cc0006e6f7420696e20616e20617070726f703b
:100cd000726961746520737461746520666f722037
:100ce00074686973206f7065726174696f6e210d2d
:100cf0000a000000556e61626c6520746f20726599
:100d000061642053504920466c6173680d0a0000ed
:100d1000436f6e666c6963746564204950202220bd
:100d200025752e25752e25752e257520220d0a0078
:100d3000524551204e6f7420646566696e6564206b
:100d400025640d0a000000000a57494e4331353032
:100d500030204669726d7761726520446174613a32
:100d60000d0a00004669726d7761726520566572e2
:100d70003a2025752e25752e25752053564e205266
:100d800065762025750d0a004669726d776172657a
:100d9000204275696c742061742025732054696d3c
:100da000652025730d0a00004669726d77617265d2
:100db000204d696e20447269766572205665723adc
:100dc0002025752e25752e25750d0a00447269762d
:100dd0006572205665723a2025752e25752e25756b
:100de0000d0a000030303a34373a32370000000044
:100df00041756720313120323032360044726976d5
:100e00006572204275696c742061742025732054ca
:100e1000696d652025730d0a0d0a00004d69736d1b
:100e200061746368204669726d77617265205665ea
:100e30007273696f6e0d0a00536f636b65742025c2
:100e4000642073657373696f6e204944203d2025cb
:100e5000640d0a00726563762063616c6c62616385
:100e60006b2073657373696f6e204944203d2025a4
:100e7000640d0a0043757272656e74203c25643ef1
:100e80000d0a0000446973636172642072656376c1
:100e90002063616c6c6261636b2025642025640da6
:100ea0000a00000068696620727820646f6e652011
:100eb0006661696c65640d0a0000000073656e640c
:100ec0002063616c6c6261636b2073657373696f1f
:100ed0006e204944203d2025640d0a004469736357
:100ee0006172642073656e642063616c6c6261631f
:100ef0006b2025642025640d0a0000000d0a574967
:100f00004e433a20496e697469616c697a696e670b
:100f10002e2e2e0d0a0000006d326d5f7769666916
:100f20005f696e69745f686f6c64206661696c6587
:100f3000640d0a000d0a6d326d5f776966695f693d
:100f40006e69745f7374617274206661696c656444
:100f50000d0a00000d0a57494e433a20496e697444
:100f600069616c697a696e672e2e2e636f6d706c85
:100f70006574650d0a0000000d526563656976654c
:100f8000642076616c7565206973203a2564206160
:100f90006e64207461736b2069642069732025641a
:100fa0000a0000005461736b4c65644d6772000069
:100fb0005461736b53656375726974794d67720020
:100fc0005461736b576966694d6772006c65645153
:100fd00000000000736563510000000077696669d6
:100fe00051000000546d72205376630049444c4513
:100ff000000000000d0a204c6564206d67722069b6
:101000006e69742066756e6374696f6e0d0a0000f8
:101010000d0a205365637572697479206d677220bb
:10102000696e69742066756e6374696f6e0d0a006f
:101030000d0a2057696669206d6772206f73616cb5
:101040002074696d65722072656c6f6164206675cd
:101050006e6374696f6e0d0a000000000d0a205760
:10106000696669206d677220636c6f7564207769ab
:10107000666920696e69742066756e6374696f6e47
:101080000d0a00000d0a2057696669206d677220fd
:1010900077696e6320696e69742066756e63746922
:1010a0006f6e0d0a000000000d0a20576966692066
:1010b0006d677220696e69742066756e6374696ffe
:1010c0006e0d0a000d0a2057696669206d6772204f
:1010d000696e697469616c69736174696f6e20739c
:1010e0007563636573730a00436c6f756420496ea2
:1010f000697469616c697a6174696f6e00000000df
:101100000d0a20436f6d6d6f6e2063616c6c6261c0
:0e111000636b2066756e6374696f6e0d0a0066
:020000040000fa
:02111e00704718
:020000040000fa
:10112000f0b59db012930b6814900b934b6811911e
:1011300004938b680d930b691593cb680893136820
:10114000546806930794069807990022002308f034
:1011500046fb00280dd10b9b5b073ed408230b9a5e
:101160001a400c920d9a09920b9a1a4213d0183316
:101170000ae080200006844606990a000799614427
:101180000b00069207932d23089a13700d9b013bc9
:10119000099301230c93079b06995b00c74a5b08e0
:1011a00000291cd193421ad1089a129b94460c989c
:1011b000413bc3496044192b00d9c24909f0e0fd05
:1011c000089809f0bdfb0b9b0200009308990d9b4a
:1011d000149806f019fe1db0f0bd2b23d4e79342fe
:1011e00002d80cd100290ad0089a129b94460c9878
:1011f000413bb5496044192be0d9b449dee70022f0
:1012000006980799002308f013ff0026b04f002826
:1012100000d120e100230393129809f055fdc3b2d9
:101220001093049b002b00daebe1109b0a93672bd1
:1012300012d1049b002b01d10133049365230a933f
:10124000039b04331ddb039b049a934219da662344
:101250000a93039b002b14da049b013304930a9b2b
:10126000662b0ed1039b002b03da00230026984f38
:101270000393109b672b04d0039a049b944663440a
:101280000493069a079b0e920f93002334003d00af
:10129000139322000e980f992b0005f059fc05f0ce
:1012a000d5fd8022120694460e9b16901791189336
:1012b0000f9b63441993189a199b00920193220083
:1012c0002b0009f0e3fc80231b06cb180022290029
:1012d0000e900f9320007f4b05f03afc139b040007
:1012e00001331393139a049b0d009342d1d1002232
:1012f000794b02f0c9fe0e9a0f9b04000d0008f016
:101300004ffa002800d0d5e00e9a0f9b200029004c
:1013100008f08efe002806d01698179908f096fd62
:10132000c00700d4c6e00698079922002b0002f0ff
:1013300029fb002206900791664b3000390002f02d
:10134000a3fe069a079b0e900f9108f085f80028df
:1013500000d1c7e0039b013303930a9b662b00d0a7
:10136000c2e0049b039d0133049300263700049bd5
:101370000c9ceb1a1693169b9d4200d0dee0002fca
:1013800000d11de10026089b1f190a9b3e70652baa
:101390002dd1159b5d1e089b5e55039bb34202da5f
:1013a0005b4203930136039b002b00d011e1159b98
:1013b000eb1a0333002b00dd0be12b236a1e002efa
:1013c00000d002330899023d8b54129b413b192bec
:1013d00001d845230a93089b59190a9b0b70ac420c
:1013e00002da380009f0ccfc099b023b0993032385
:1013f0000b9a1340022b00d0e2e6099b002b00dc85
:10140000dee6089809f09cfa0c9b834200dcf1e0d0
:101410001800089b30219c46099a604409f072fb31
:1014200000230d93cce626002f00039b013303938a
:101430000022284b3000390002f026fe04000d0087
:1014400002000b000698079908f0c9f90028ead0b5
:101450000024012523e00390eae7204b039a9a42f7
:1014600012da002c10d10698079900221c4b02f0ca
:101470000bfe002206900791194b3000390002f054
:1014800003fe2c0006000f0030003900114b002233
:1014900005f05efb06000f00039b013b0393320047
:1014a000069807993b0008f09af90028d5d1b3e6d1
:1014b0000623c2e60024002535e7c0460000f07f81
:1014c000fca3000000a4000004a4000008a4000085
:1014d0000000f03f0000244000001440d4feffff55
:1014e000000050430e960f970a9d653d6b1e9d416f
:1014f000039b6d421d4038e7002f0ad1002d08da0a
:101500002e23089a139901345354099b0137013b48
:101510000993321923009446302102e0089ad154ed
:1015200001336345fad1099a3419961b089a303071
:10153000d054731e01340026099320e0119b1394ac
:101540001b69053ba34200d819e70e9a0f9b06982a
:10155000079905f0fdfa05f079fc0490059108f073
:1015600075fc092800dd092010230b9a1340034362
:10157000c2d1109b672bbfd1002dbdda013680226e
:101580000e980f9912069446069b013d1a93079bed
:1015900063441b931a9a1b9b00920193049a059b28
:1015a00009f074fb80231b06cb18069007930e9856
:1015b0000f990022174b05f0cbfa0e900f91dae647
:1015c0000b9bdb0600d4dde62e23089a135501346d
:1015d000d8e603980a2105f09bfe089b3031013db7
:1015e000595503980a2105f049fe099b0390013bd8
:1015f0000993d8e6089b09991a5c5b181a540138bc
:1016000002e7109b672b00d152e70a93062304934d
:0816100022e6c0460000244060
:020000040000fa
:10161800f0b599b012930b68cf680a934b6816908f
:101628000e938b680b930b69119313685468069398
:101638000794069807990022002308f0ccf80028a0
:101648000ed10a9b5b072ed408230a9a0a991a40de
:1016580005920b9a194213d018333b7013000ce013
:1016680080200006844606990a00079961440b0009
:10167800069207932d233b700b9b5a1e012305935b
:10168800079b06995b005b0800290ed1af4883428f
:101698000bd1129b059a413bad4cae49b818192b9a
:1016a80011d921000fe02b23e5e7a848834202d88f
:1016b80018d1002916d0129b059a413ba64ca74980
:1016c800b818192bedd809f057fb200009f034f9a8
:1016d8000a9b0200009339000b9b169806f090fbba
:1016e80019b0f0bd059b0598591c30233b54129b3b
:1016f800413b0f930f987823192800d8203b059871
:101708007b540230931e059009930022069807998e
:10171800002308f089fc002800d16de10023904cdb
:10172800089302930394182310930e9b002b00db5d
:1017380010930026029c039d109b01331793069a71
:10174800079b0c920d930c980d9922002b0005f025
:10175800fbf905f077fb22002b001490159102f09d
:101768008ffc02000b000c980d9909f093fa7d4b41
:101778000c900d9100222000290002f081fc0e9ba4
:1017880004000d000136002b07da0c980d99002291
:10179800002308f049fc002804d1179b9e42d2d1af
:1017a800109e01360022200029006f4b02f068fcd1
:1017b80004000d0002000b000c980d9908f00bf8be
:1017c800002800d01ee10c980d9922002b0008f08b
:1017d8002bfc002806d01498159908f033fbc00795
:1017e80000d40fe10698079922002b0002f0c6f8f2
:1017f80006900791079b069a5b005b08002a03d1b5
:10180800524a934200d144e7119b059a053b149331
:10181800934200d83de10025734214001600179347
:1018280010950c95029a039b0698079905f08cf978
:1018380005f008fb1290139108f004fb031e00d07a
:10184800e3e00c9a002a00d1dfe00135029a039bfd
:101858001298139902f014fc02000b0006980799dd
:1018680009f018fa002206900791029803993d4b57
:1018780002f006fc0c9b179a013b029003910c9313
:10188800934203d0149b26009c42cbd3109b002b81
:101898001ad1002d00dcfde00e9b002b00dcf9e0e6
:1018a8000a9bdb0700d5f5e02e2230213b191a7080
:1018b8002a19ba18597001339342fbd16419ed43c0
:1018c800099b0134eb18099300263b191e700293fb
:1018d800119b5d1e089b7e55b34202da5b4208935a
:1018e8000136089b002b00d0bce0119beb1a01339a
:1018f80000d1b7e02b236a1e002e00d00233bb5460
:101908000f9a7023023d192a00d8203b79190b70d1
:10191800ac4202da029809f02ffa03230a9a13401c
:10192800022b11d1099b9c1e002c0ddd380009f0fb
:1019380003f8059b984200dba4e0f8182200302148
:1019480009f0dcf800230b933800bfe60000f07fb5
:1019580000a40000fca3000008a4000004a40000e8
:101968000000f03f0000b03f00002040089b0294b8
:10197800039501330893029a039b1000190001f0a4
:10198800fdff04000d0002000b000698079907f000
:1019980022ff0028ead0029a039b0698079907f0cd
:1019a8001aff002800d1bee60298039900223d4b99
:1019b80002f066fb0022002308f036fb00280fd057
:1019c800029803990022384b02f05afb0022029039
:1019d800039106980799344b02f052fb0690079141
:1019e800029803992f4b002202f04afb089b0290b1
:1019f8000391013b0893cee700232c4c08900293f7
:101a08000394b8e700240025ece6109a002a0ad1ce
:101a18000c9a002a07d02e22ba55099a0134013aa5
:101a280009920122109230222e1901e03a55013410
:101a3800b442fbd11800099a5730551b092b01dc19
:101a4800303318000f9b192b06d820230343613b22
:101a5800192b01d809f03bf96b1e741c0025b855e9
:101a68000993f3e608980a2105f04efc013d303150
:101a7800089879550a2105f0fdfb099b0890013b60
:101a880009932ee7099b3a5c023bfb181a5401386c
:101a98004fe7059c0a9bdb0600d415e72e233b5530
:101aa800013411e70000e03f000050430000f03f20
:020000040000fa
:101ab800f0b5d6464f464646c0b596b00c00150060
:101ac8000300413bdab2162a13d89300b54ad3581b
:101ad8009f4606260023102201a9280004f0a6fe2e
:101ae800002806d101ab0c27df571b7b0a2b00d837
:101af8001fe116b0e0bcba46b146a846f0bd0724bf
:101b08000023082205a9280004f090fe0028f0d13f
:101b180005ab00255d571b780a2bead805ab9e88d4
:101b280009f000f9032800d9c7e105ab5a8801abd1
:101b38001a809d4b2a019b18db889bb2b34200d0c8
:101b4800c2e19a4b1b68002bd3d0984b1b6801aaa3
:101b5800210028009847cce70023042205a9280083
:101b680004f064fe0028c4d105ab5a7801ab1a70a2
:101b78008e4b1b68002bbcd08c4b1b6805aa002021
:101b8800105601aa01219847b3e70023042205a9aa
:101b9800280004f04bfe0028abd105ab5a7801ab06
:101ba8001a70824b1b68002ba3d0804b1b6805aab8
:101bb8000020105601aa022198479ae700230c2218
:101bc80001a9280004f032fe002800d091e701abfb
:101bd80009229a565b7a0a2b28d801a8082141566f
:101be800714b09015918c97ac9b214011b19d97264
:101bf800012199724189083989b219816c490b8888
:101c080001339bb20b800b889bb2002b03d10b884e
:101c180001339bb20b80664b198889b2624b120163
:101c28009b18d98009f07ef8032817d805ab01aabc
:101c3800517a1970022199805188d980029a0792a5
:101c48005a4b1b68002b00d153e7584b1b6801aa5d
:101c58000820105605aa042198474ae709f05cf8bd
:101c6800534b1b889bb201aa527a52b2514906f0d3
:101c7800cdfadbe70023059306935738431e9841b6
:101c8800424203239a430832002305a9280004f09e
:101c9800cdfd002800d02ce705ab002018561b7896
:101ca8000a2b00d925e701ab187005aa527852b261
:101cb8005a703d4b01015b181b899bb2591e8b4121
:101cc8005b42052119400531002a13d105ac628811
:101cd800083a92b2344b05015b191a8122795a737a
:101ce800324b1b68002b00d103e7304b1b6801aa5d
:101cf8009847fee605aa94782b4b05015b199c735f
:101d0800d278da73ece70023442205a9280004f00e
:101d18008dfd002800d0ece6274b1b68002b00d176
:101d2800e7e6254b1b68159905a89847e1e60926bb
:101d3800d0e601abdb89984608f0f4ff03282ad8df
:101d4800194b3a019b1800221a7301aa0821505e08
:101d5800824651898c4605a950884881029a089282
:101d6800db889bb2434500d07ee05346002b01dd63
:101d7800a24525db05ab52469a80002305930b4b01
:101d88001b68002b00d1b4e6084b1b6805aa31007c
:101d980038009847ade608f0bfff0849424606f00c
:101da80035facde7c4880000902c0020543100207b
:101db800dc310020380e000050310020540e0000a5
:101dc8009cb2cc80564b3a01d358002b00d190e6f8
:101dd800534b9b189b889bb2002b00d189e6504b34
:101de8009b189b7a012b00d083e64d4b9b189b8850
:101df800e31a1bb2a046002b04dd494b9b189b88b5
:101e08009bb29846464b3a01d158280060440123ba
:101e1800424604f00bfd00281ad1414b3a01d05834
:101e280005a9059040468880c8884446001bc8809c
:101e3800981800218180d1503a4b1b688b4200d101
:101e480057e6384b1b6805aa31003800984750e61a
:101e580008f068ff002800d14be608f05dff324922
:101e6800220006f0d3f944e608f05cff032816d8f0
:101e7800102c00d83de6012300220021002004f0a8
:101e8800d5fc002800d134e608f04cff002800d12a
:101e98002fe608f041ff254906f0b8f929e608f0d1
:101ea8003bff1f4b3f01db19db889bb220494246b1
:101eb80006f0acf9dce7082422e608f02dff1d49fe
:101ec800320006f0a3f930e608f02cff032800d80a
:101ed8000fe608f021ff124b2d015b19db889bb23e
:101ee8001549320006f092f903e60123142205a9e8
:101ef800280004f09bfc002800d0fae50f4b069a56
:101f08001b689a4200d0f4e50d4b1b68002b00d1ea
:101f1800efe505a90a7c079905989847e9e5c046c1
:101f2800902c002054310020740e0000a40e0000f4
:101f3800840e0000bc0e0000dc0e000048310020ba
:041f48004c310020f8
:020000040000fa
:101f4c00ec2f00201c00000000000000d931002004
:101f5c000100000000000000943000201000000080
:101f6c0000000000542f00200400000000000000be
:101f7c00e631002001000000010000000400000018
:101f8c00103100200c00000000000000de310020a9
:101f9c00010000000000000044320020020000009c
:101fac000100000000080000c42f002028000000e1
:101fbc00000000001c3100200c000000000000009c
:101fcc00e73100200100000001000000ff000000cc
:101fdc00f83000200800000000000000283100202c
:101fec001400000000000000da31002002000000a4
:101ffc00000000003c310020080000000000000040
:10200c00df310020010000000000000044310020fe
:10201c000400000000000000e0310020020000007d
:10202c000000000048310020080000000000000003
:10203c00e2310020010000000000000050310020bf
:10204c000800000000000000dc310020020000004d
:10205c0000000000902c0020b000000000000000e8
:10206c00002a00200801000000000000a43000201d
:10207c001000000000000000d02b0020c000000069
:10208c0000000000e331002001000000000000000f
:10209c00982f00202c0000000000000000280020d9
:1020ac000002000000000000e02d00208000000075
:1020bc0000000000142f0020400000000000000071
:1020cc000031002008000000000000005831002002
:1020dc00040000000000000008310020080000008f
:1020ec0000000000d43000200c00000000000000b4
:1020fc005c3100200400000000000000e4310020ee
:10210c000100000000000000082b0020c8000000a7
:10211c0000000000e03000200c0000000000000077
:10212c00e5310020010000000000000060310020bb
:10213c000400000000000000402d0020a000000062
:10214c0000000000582f002040000000000000009c
:10215c00b43000201000000000000000e831002026
:10216c004c0000000100000000000000a40f000063
:10217c0000010000010000004dac00000100000057
:10218c00b00f000000010000010000006dac000069
:10219c0002000000c00f0000000100000100000060
:1021ac0015a5000000000000000000000000000069
:1021bc0060a300003c32002004000000010000007d
:1021cc00aaaaaaaa6431002008000000000000009e
:1021dc000000002000280000000000006c310020ee
:1021ec00140000000000000008300020280000004f
:1021fc0000000000803100202c00000000000000d6
:10220c00303000201400000000000000ac31002031
:10221c0004000000000000004430002028000000f2
:10222c0000000000b0310020080000000000000099
:10223c006c3000202800000000000000602e002000
:10224c006400000000000000b8310020080000000d
:10225c0000000000343200200800000001000000e3
:10226c00030000007dac0000c03100200400000021
:10227c0000000000c430002010000000000000002e
:10228c00c43100200400000000000000d831002000
:10229c000100000000000000c83100200400000014
:1022ac0000000000cc310020040000000000000001
:1022bc00403200200400000001000000010000007a
:1022cc00d03100200400000000000000c42e0020cb
:1022dc005000000000000000d43100200400000079
:1022ec0000000000ec3000200c000000000000009a
:1022fc0000000000000000006666666666666666a2
:020000040000fa
:10230c00f0b5c64600b5eab00c1e00d1bce0c54b1a
:10231c005d68002d00d1b7e00438c3b22e2b00d974
:10232c00b2e09800c04b1b589f46eb7b002b00d1b2
:10233c00aae00023eb730123cb56002b12d10b78b0
:10234c006b74002b0ad18823ec58002c00d19be035
:10235c00b448002300220021a04795e0287c08f017
:10236c0012f991e000236b748ee0280034300431b4
:10237c00062208f0b7fb01263a23ee54273b984679
:10238c00a84427000a3720223900404608f0aafb4f
:10239c002121380008f0dafa3323e8540122a2563e
:1023ac000a33ea54a2780133ea54e278033bea5444
:1023bc00ae744d33ec58002c66d06a7c297c01310c
:1023cc00c9b298484346a047002805d1954b5a6896
:1023dc0088230021d15057e0924b5b681c7c013460
:1023ec00e4b21c7408f078fc844205d38d4b5a6817
:1023fc0088230021d15047e08a4c6368187c08f090
:10240c00c2f8636800229a743ee00b78012b0ed060
:10241c00002b02d1ab735422ab548c23ed58002dfe
:10242c0032d08048637822780100a8472ce0ab7347
:10243c00a133eb5c002bf0d1a433eb58002becd088
:10244c00a1230122ea54e8e78c23ed58002d1bd080
:10245c0000228a56130015331ad0130014330bdaea
:10246c000523110017310bd0163253425a415342f7
:10247c0003229343073303e01432531e9a41931df6
:10248c00684800220100a8476ab080bcb846f0bd7d
:10249c000123f5e72b7b002b02d1a1330122ea5457
:1024ac00e1780906a3781b04194323781943637850
:1024bc001b021943a423e9501433eb58002be3d02f
:1024cc0058489847e0e7080005f060fa011edbd099
:1024dc00544b5a689023d358002bd5d05148984769
:1024ec00d2e7c023eb58002bced02121200008f0de
:1024fc002dfa0600c3b203a920228b54202bc3d87b
:10250c00002103a808f0f8faff223240210003a8aa
:10251c0008f0e8fa6223e35c0eaa1370022b0fd0ca
:10252c006323e35c5a425341dbb23e4cc026ad59a7
:10253c000eaa03a92000a847636800229a51a3e7ba
:10254c0027002137380008f0f5f906000eab18719a
:10255c00402200213d236b44180008f0cdfaff22e5
:10256c00324039003d236b44180008f0bbfad7e722
:10257c002121200008f0eaf90600c3b27522ab5401
:10258c00202b00d980e72f005537553a0021380011
:10259c0008f0b2faff2232402100380008f0a2fa0b
:1025ac002123e65c6333ee545f3be35c1b06242281
:1025bc00a25c120413432222a25c13432322a25cca
:1025cc0012021343ab677c239846a84406222100d1
:1025dc002631404608f086fa01238222ab542e3a6b
:1025ec00ab549333ed58002d00d14de70d48683bab
:1025fc00e3560193009643463a000100a84743e78f
:10260c0000228a564e23ea544a33eb58002b00d151
:10261c003ae7044c21002000984762689823002177
:10262c00d15031e7a4300020906d00009c23eb5872
:10263c00002b00d128e703a807f04efca51c212194
:10264c00280008f083f9c2b2290003a806f096fd11
:10265c00617803a807f0b8fc2378012b09d0022b72
:10266c0012d00f4842689c23d3580022002198476f
:10267c000ae70ea808f0bcfa094842689c23d35814
:10268c000eaa03a99847ffe623344121200008f045
:10269c005df9c2b221000ea806f05cffece7c04663
:0426ac00a430002036
:020000040000fa
:1026b00070b586b0b54db64c2900200007f02cfe51
:1026c0000028f9d003a9b34808f07bfb041e00d012
:1026d00046e10399cb0700d42fe1012399430391ed
:1026e000ac4808f072fb041e00d02ae1aa4b01227c
:1026f0009a70039dad042d0d00d10fe100230593c9
:1027000005a9a64808f05dfb041e1fd10598a24b41
:1027100058609d6004ae0422310006f09dfa04006a
:10272000738800281dd19d4202d0eb1a042b23dcb4
:10273000974808f099f86b461b7c072b00d9d5e029
:102740006b461b7c9b00964ad3589f4608f0eefad6
:10275000002800d1f5e008f0e3fa924905f05afdaf
:10276000efe008f0e3fa002800d1eae008f0d8fa38
:102770008d4905f04ffde4e008f0d8fa002802d1b9
:1027800006246442dde008f0cbfa04aa53888749a6
:1027900054780194127800922a0005f03bfd06243b
:1027a0006442cee07c4bdb68002b17d07a4bdd68af
:1027b000059a083204ab5988083989b25878a84775
:1027c000754b9b78002b00d1bee008f0affa0028d3
:1027d00000d09ae007f082fa0400b5e008f0a6fa0b
:1027e0000028edd008f09cfa714905f013fde7e7e9
:1027f000694b1b69002b0ad0674b1d69059a08328b
:1028000004ab5988083989b25878a847d8e708f046
:102810008dfa0028d4d008f083fa664905f0fafc56
:10282000cee75d4b5b69002b0ad05b4b5d69059a77
:10283000083204ab5988083989b25878a847bfe7ed
:1028400008f074fa0028bbd008f06afa5a4905f07b
:10285000e1fcb5e7504b1b6a002b0ad04e4b1d6aba
:10286000059a083204ab5988083989b25878a847c4
:10287000a6e708f05bfa0028a2d008f051fa4f4909
:1028800005f0c8fc9ce7444b9b69002b0ad0424be7
:102890009d69059a083204ab5988083989b258787d
:1028a000a8478de708f042fa002889d008f038fae6
:1028b000434905f0affc83e7374b5b6a002b0ad036
:1028c000354b5d6a059a083204ab5988083989b2dc
:1028d0005878a84774e708f029fa002800d16fe774
:1028e00008f01efa374905f095fc69e708f01efa72
:1028f000002802d10624644226e008f011fa324989
:1029000005f088fc062464421ee008f009fa04aad7
:10291000537812782d4905f07dfc5be708f006fa44
:10292000002802d1022464420be008f0f9f928499a
:1029300005f070fc0224644203e008f0f7f9002877
:1029400007d1134807f090ff002c13d1200006b0e8
:1029500070bd08f0e5f9039a1e4905f05bfcf0e74d
:1029600008f0e4f90028ecd008f0daf91a4905f08b
:1029700051fce6e708f0daf90028e7d008f0d0f9d2
:102980001649220005f046fce0e7c046ffff0000c4
:102990001c31002070100000c42f002084100000a3
:1029a00014a400008c090000b4090000d009000044
:1029b000100a0000340a0000580a00007c0a0000d7
:1029c000a00a0000c40a0000e80a0000040b00008e
:1029d000340b0000480b0000640b00008c0b00005f
:020000040000fa
:1029e000f0b59fb004001500031fd9b2612900d9ca
:1029f0006be18b00bb4ad3589f460023042203a9f6
:102a0000280003f017ff002864d1b74b1b68002b88
:102a100060d003a92c3098475ce00023082203a96a
:102a2000280003f007ff002854d1af4b1b68002b90
:102a300050d003a91b3098474ce00123302203a952
:102a4000280003f0f7fe002844d1a74b1b68002b99
:102a500040d003a9063098473ce00023182203a980
:102a6000280003f0e7fe002834d19f4b1b68002ba1
:102a700030d003a9323098472ce0012300220021f6
:102a8000280003f0d7fe002824d1974b1b68002ba9
:102a900020d000213d3098471ce06422002103a88b
:102aa00008f030f80023642203a9280003f0c2fed6
:102ab00000280fd18c4b1b68002b0bd003a92f30a3
:102ac000984707e00023042203a9280003f0b2fe80
:102ad000002801d01fb0f0bd08f028f9012807d860
:102ae000814b1b68002bf5d0002134209847f1e77b
:102af00008f016f9039c230cff252b40220e7b497e
:102b00002e0026400196240a2540009505f082fb00
:102b1000e6e7774b00221a700023043203a928004d
:102b200003f088fe0028d5d103ab1a78714b1a70d8
:102b30006d4b1b68002bcdd003a911309847c9e716
:102b400000232c2203a9280003f074fe0028c1d121
:102b5000654b1b68002bbdd003a913309847b9e71c
:102b6000002304221ca9280003f064fe0028b1d130
:102b70005d4b1b68002badd01ca904309847a9e71a
:102b8000002304221ca9280003f054fe0028a1d130
:102b9000554b1b68002b9dd01ca96530984799e7c1
:102ba0000123642203a9280003f044fe002800d07a
:102bb00090e74d4b1b68002b00d18be703a9093030
:102bc000984787e70123042203a9280003f032fe77
:102bd000002800d07ee7444b1b68002b00d179e72a
:102be00003a92a30984775e70023042203a9280087
:102bf00003f020fe002800d06ce73b4b1b68002b45
:102c000000d167e703a92730984763e7002308222c
:102c100003a9280003f00efe002800d05ae703abfa
:102c20009a88039928000830012303f003fe002846
:102c300000d04fe72c4b1b68002b00d14ae703a9bb
:102c40002030984746e70023042202a9280003f019
:102c5000f1fd002800d03de702ab5f881a8803ab86
:102c60005a80254b1b68002b00d133e7234b1b6890
:102c7000002b00d12ee7224b1b88002b00d129e727
:102c800003ac1f4e19e022801c490968781903f033
:102c9000d1fd002800d01de723886288d21a628007
:102ca000df19bfb2154b1968134b1b6822001d308a
:102cb00098476388002b00d10ce762883188012394
:102cc0008a42e0d90a000023dde708f02ff8002847
:102cd00000d1ffe608f024f80a49220005f09afa2c
:102ce000f8e6c046dc41000044310020100d000031
:102cf000df310020e1310020403100203c31002054
:082d0000da310020300d000063
:020000040000fa
:102d08000023f0b51600b1b0039007910493079d16
:102d18002b78002b00d1cfe001235b420c9310ab42
:102d280000240e9380230b940d940f932b5d002b9e
:102d380001d0252b30d1002c06d029002200039881
:102d48002d1907f00cfa0795079b1a78252a00d049
:102d5800a7e001331800002105930793243a03786c
:102d68002b2b25d02dd8202b25d0232b26d000295e
:102d780000d007902a2b2cd006f048fb01250d9097
:102d88000020079a11000b780132303b092b64d9d7
:102d980000282dd007912be00134c7e701230b99b8
:102da8000b430b9311000130d9e702230b99f7e786
:102db80004230b99f4e708230b99f1e710230b99e7
:102dc800eee72d2bead0302befd00029d4d0079096
:102dd800d2e7336801301a1d1b68079032600d93e3
:102de800002b05da01220b995b424a400b920d93a6
:102df8000b9bda0702d5022293430b93079b1a78a1
:102e08002e2a0dd100270c975a785d1c07952a2a7f
:102e180025d10233079333681a1d1b6832600c935f
:102e280007a806f0f5ff079d0700287807f048ff78
:102e3800252800d1d5e06138172800d9dbe007f054
:102e480071fe1fdab63ea6a6a6da3edadadada9c10
:102e58005e7fdadac6da4edada6e280092e7280000
:102e680006f0d4fa01210c902a0013780135303b82
:102e7800092b03d9002fd3d00792d1e70f00f3e72e
:102e88003200390008a806f0effe002800d17be0e8
:102e98006b1c079303982b7808aa0ba9fef7b8fbbd
:102ea8002418049b1c19a34200dcb0e04f22594ba4
:102eb8001a6001235b420493049831b0f0bd3300db
:102ec8000122390008a803f0defb00285cd0013598
:102ed800039808aa0ba9079504f06cf8e0e73300fb
:102ee8000022390008a803f0cefb00284cd0013599
:102ef800039808aa0ba9079505f0b1ffd0e733009e
:102f08000022390008a803f0befb00283cd0013598
:102f1800039808aa0ba9079505f0b0f9c0e7330094
:102f28000022390008a803f0aefb00282cd06b1c47
:102f380007932b78039808aa0ba902f0a9f8afe722
:102f480033000022f02108a803f09dfb00281bd0c5
:102f5800089b099a0135079513430cd12e4d28007b
:102f680007f0eafc290002000b9b00930d9b0398d5
:102f780004f046ff94e77823dce7049b39001a192c
:102f880008a8330004f078ff0135079589e7320077
:102f9800390008a806f068fe0028f5d06b1c0793d6
:102fa80003982b7808aa0ba9fef7b6f878e7802fc4
:102fb800ead1336801351a1d1b68326008aa1370fc
:102fc8000123079503980ba906f03ef868e7802fc0
:102fd800dad132680135131d336012680023079572
:102fe800f0e7802fd0d10b9b0135009301220b49cc
:102ff8000d9b0795bbe7059b0122079300235242cf
:103008000c9206490b930d9300930232afe7049498
:103018007de6c046d0310020f4a30000faa30000ea
:020000040000fa
:10302800f0b587b00400431e033300d943e1012300
:10303800c356012b5cd028dc5a1c00d13be1002b85
:1030480000d036e10378002b00d134e140688223b8
:103058005b00c35c002b39d1636801221a71636875
:1030680000225a7107f040fe02283dd006f066fea5
:1030780007f03cf96368986807f08afe07f0a2fd3c
:1030880007f088fd0023237015e1022b00d010e122
:1030980040680130ff30894907f03af9012800d02b
:1030a80009e10123e356022b00d004e163681b7990
:1030b8001b0700d5ffe007f088fe002800d1fae0e2
:1030c80060680130ff3007f0cbfbf4e00130ff30df
:1030d80007f032fd6068d43007f02efd6268822365
:1030e8005b000021d154b7e7002007f0b3fabde731
:1030f8004368002b0ad007f015fe012809d806f00e
:10310800d3fc00280bd1ff236370d4e0ff33437056
:10311800d1e007f001fe6a4905f078f8efe707f01b
:1031280093fb00280fd007f0fdfd012805d8636840
:10313800f5225a71ff236370bde007f0edfd614988
:1031480005f064f8f3e707f044fe000c152805d0f5
:103158006368f5225a71ff236370ace06068013040
:10316800ff3000230a22012105f018fd012802d0b2
:10317800ff2363709fe063689968200007f032fac4
:10318800002302930393049305934f4b019301a8e3
:1031980001f0e4f8002879d106f078fb4b4805f0f7
:1031a800a3ff4b4b00251d735d739d73dd739d74e9
:1031b80001263f229e54022701329f5401321e21cc
:1031c800995401329f540132b53199540132593121
:1031d800995202329d5208329d541d6506329d5403
:1031e80034329d5004329d5004329d5004329d501b
:1031f80004329d5004329d5004329d5401329d5436
:1032080001329e5402329d5004329d5004329d502a
:1032180004329d5004322f49995004329d50043293
:103228009d5004329d5004329d5004329d5004320a
:103238009d500c32ff2199541c329d50264a233947
:103248005a502649e0201950254904301950fc21cc
:103258005d502448290006f05ff923483300320006
:10326800290005f09bfc626882235b00d6546068e5
:10327800483007f07bf9677007f054fdb0421ad95f
:1032880007f04afd194904f0c1ff14e007f04afdb0
:10329800012808d860680130ff3007f04dfc6368ea
:1032a800f4225a7164e707f037fd114904f0aeffc4
:1032b800f0e7ff23637007b0f0bdc046ffff0000d2
:1032c800fc0e0000180f00000d230000c969000063
:1032d800002a0020c0a80a0139840000594a0000c9
:1032e8001d9200003d910000d42a0020540f0000d8
:0432f800340f00008f
:020000040000fa
:1032fc00f0b5de464f464646c0b588b083460e0054
:10330c000192009310ab04cb90461f8812ab1b8824
:10331c009946874d874c2900200006f0f7ff0028be
:10332c00f9d007aa7f23334053705b461370434692
:10333c00002b33d03b0008334b449bb207aa53807d
:10334c007d4a934200d9e1e006f062fa041e00d0f7
:10335c00d1e00023059302aad3800493049b5a4620
:10336c001a430492049b36021e430496049a07ab3c
:10337c005b881b04134304930499704807f01ffdea
:10338c00041e0fd007f048f96a4807f067fa2000ce
:10339c0008b0e0bcbb46b146a846f0bd009b083364
:1033ac009bb2cbe700230493049b022213430493a8
:1033bc000499634807f003fd041ee3d10022059233
:1033cc0002abda8006331b889bb2fa22920093423e
:1033dc0033d25b4e02ab9c1dfa256d000fe0012031
:1033ec0007f0ddfc049b9b0721d5238801339bb29e
:1033fc00238023889bb2fa22920093421dd204a907
:10340c00300007f0d8fc002817d123889bb2ab42c0
:10341c00e8d323889bb2ab42e1d807f081fc0128aa
:10342c00ddd907f077fc474904f0eefed7e705a994
:10343c00454807f0c0fc041e47d1059b002b47d024
:10344c00059b06930698082207a905f02bfc041e81
:10345c0000d097e7069b08330693019900290bd0ff
:10346c000698009d2a0005f01dfc041e00d089e77b
:10347c00069bac46634406934346002b10d0069a39
:10348c004b4600995b1a9b18069306983a004146e6
:10349c0005f008fc041e00d074e7069bfb1806938d
:1034ac00059b9b000493049b0222134304930499f1
:1034bc00264807f084fc041e00d063e706f022fccb
:1034cc0004001c4807f0caf961e70023059359e78b
:1034dc0006f018fc040007f023fc032802d8032490
:1034ec00644251e707f016fc1949220004f08cfee7
:1034fc000324644248e707f013fc002800d143e79b
:10350c0007f008fc134904f07ffe3de707f008fcc8
:10351c00002802d10124644236e707f0fbfb07ab1d
:10352c005a880d49044b04f06ffe012464422be7ca
:10353c00ffff00001c3100203c0600008c10000036
:10354c007810000000090000000415006c10000049
:0c355c00140900003409000058090000a8
:020000040000fa
:10356800f0b5de4657464e464546e0b589b0814639
:103578008a46140004928248824906f0dbfe01283c
:1035880000d0f8e0012c00d1e4e009239b46002795
:10359800a5e007f0c7fb002800d196e007f0bcfbc8
:1035a80079494a4604f032fe8fe007f0bbfb002859
:1035b80000d18ae007f0b0fb74494a4604f026fec1
:1035c80083e03b004246a2427b4102330b2004aa1f
:1035d800944660441022524213430370012105f0bf
:1035e8000bfb00281ed053469819290005f004fb50
:1035f80000282bd0664b1b78002b31d0ae1936b281
:10360800641ba4b2002c3bd0251c444501d96b4651
:10361800dd89adb2002ed4d1a0459b410122934350
:103628000333d3e707f07efb002809d107f07afbc4
:1036380000284ad007f070fb564904f0e7fd44e043
:1036480007f06afb544904f0e1fdefe707f06afb75
:103658000028ebd007f060fb504904f0d7fde5e700
:10366800022107a805f0c8fa0028c7d107f05afbbd
:103678000028dbd007f050fb494904f0c7fdd5e727
:10368800434b1c78631e9c410234210007a805f0b7
:103698002ff8002815d01023e31804aa9446634491
:1036a800053b1b78002b3cd11023e41804ab9c4647
:1036b8006444063c2378c32b33d1314807f0dcf847
:1036c80051e007f02ffb002825d107f02bfb00283d
:1036d80036d106f02ffd5b46013b9b463dd3009754
:1036e800049b3a004946c72001f000fe002800d09c
:1036f8004fe73900c72002f03ffc0590002800d0b2
:1037080053e707ab1f80049c3e0080239b0198462b
:103718006a46d38178e707f0fffa224904f076fd7c
:10372800d3e707f0fffa0028cfd007f0f5fa07ac87
:10373800637822781c49a478009404f067fdc4e7f4
:1037480007f0eafa1949049b00934b465a4604f0dd
:103758005dfdbee70223049317e7094807f08cf8dc
:1037680006235b420593059809b0f0bcbb46b246f8
:10377800a946a046f0bd06235b420593f3e7c04681
:1037880018310020ffff0000300700006807000024
:10379800de31002068080000ac070000ec070000dc
:1037a8002808000098080000c4080000140700005a
:020000040000fa
:1037b800f0b50f00060015000022634b87b0921980
:1037c8007b41009201936149019b8b4200d9b8e08b
:1037d80004d15f4b009a9a4200d9b2e001215d48ba
:1037e80049428019794100235b4a05f0a3fd060090
:1037f8000f00131e029208da574a94466344029354
:1038080001225242d317b6185f4103200021072234
:1038180080197941002305f08dfd131e049201da09
:10382800073304930023300039004c4a05f082fd29
:10383800141e039004da494be4180300013b039378
:103848002000474903f016fd0600042800d1013e78
:10385800444f454977433f19380003f00bfd0400f6
:10386800192800d1013c6e21404bff316343df1919
:10387800380003f0fffc042800d101383c4b4343d7
:10388800db1900930023984204d10133002c01d1a5
:10389800734273419922009952003339ff390591d7
:1038a8000099914203da0a003b32d3180593642346
:1038b800c8227343a4002018c018039b0600c7172a
:1038c800d91703980023520005f0e4fd002480195d
:1038d8007941284b009ae35c93422ddd092c04dde5
:1038e80001220023801859410c3c0027224e36182b
:1038f8004f41002f25d1e121009b64300133eb605b
:10390800049b0234ab61059b6861eb610901029875
:103918002c6103f0affc3c21a860029803f0aafcdc
:103928003c2103f0f1fc029869603c2103f0ecfcb7
:103938003800296007b0f0bd009a0134d31a00930b
:10394800c7e701204042f5e78042f100ff84e20129
:10395800007b1dfe80a243c780510100b13a0200de
:10396800ac8e00005471ffffb50500004bfaffff55
:0c39780093feffff8cad00006400008097
:020000040000fa
:10398400f0b40125ed070f005f405ad48b4200d1fb
:10399400824205d950404240504059404b40594022
:1039a4004e18760ddf187f0d3bd0741c640529d0aa
:1039b400f41b352c26d80e0ddb022b43db0ac9027f
:1039c4002943c9121700202c1ed2e741e240574078
:1039d400e3415a40a340e3405a400024801859412f
:1039e4000ad3b21c520521d0c207012f624117002d
:1039f4004008cb0718434908013636054208af4151
:103a040060417141f0bc7047203c06d01f00e74183
:103a1400e3405f400024012a6741c0186141ebd3b1
:103a2400dfe7002eeed129400020ebe70136310517
:103a34000020e7e7e742e5d10020c143090dc904ae
:103a4400e0e76b400e00871a9e4104d26e40c01b13
:103a5400b141d21973414e18df18ac0ae642e9d2db
:103a6400760d7f0d31d0f41b362ccbd8b4460e0d19
:103a7400db022b43db0ac9022943c90a012c32d8d1
:103a840004d1d4075208df073a435b08ef0a6442c3
:103a9400904199411ed0002239424dd12419404110
:103aa40049410124394204d10134001849413942c1
:103ab400fad06246a24204d9361b013e3605891962
:103ac400a0e7f10ac90700209ce736429ad10020fa
:103ad400002197e70200224394d0b842ded20100cd
:103ae40020002024e3d1202c13dd203ce2411700e8
:103af400a240e2405740e3415a40a340e3405a40c9
:103b0400012fbf410137174300227c429841914164
:103b14000ce01700e741e2405740e3415a40a3401c
:103b2400e3405a407c429041994100220f0303d262
:103b3400013e241940414941013e36054708ac4144
:083b440050417141f0bc7047d3
:020000040000fa
:103b4c00f0b583b000900f0001939400200003f0b7
:103b5c00d7fc061e00d1b5e0542003f0d1fc051ea5
:103b6c0000d1a9e05422002106f0c6ff2e632200ea
:103b7c00a521300006f0c0ff043c2e6b361907223d
:103b8c009643002f0cd000242a0034323b5d135591
:103b9c00002b02d00134102cf8d143230022ea541c
:103bac00089f042f00d90427ef626f642c1d20009e
:103bbc0007f036f92800183007f032f92d6105238b
:103bcc00db1bab616d62019a0099300006f05cfc66
:103bdc002860099b002b00d01d6006f093fe3b4a29
:103bec001368013313603a4b1b68002b0cd0394b14
:103bfc001b68002b0dd1364b1b68da6aeb6a9a42b4
:103c0c0007d8334b1d6004e0314b1d601368012b4a
:103c1c0033d0314a136801331360e96a2f4b1b68a8
:103c2c00994201d92d4b19602d4a8b005b189b00d2
:103c3c00d3185b68ab609968e9604c609c60e86a7b
:103c4c008300191889008918696119188900895825
:103c5c0001311b189b00995006f026ff1d4b1b6869
:103c6c000120002b30d01a4b1b68da6aeb6a9a429f
:103c7c002ad206f03bfe012026e0194e37006437ad
:103c8c00300006f09ffe1436be42f9d1154f3800b5
:103c9c0006f098fe144e300006f094fe134806f021
:103cac0091fe134806f08efe124806f08bfe124b66
:103cbc001f60124b1e60ace7300004f014fb0120b7
:103ccc00404201e00120404203b0f0bda831002089
:103cdc00b83100209c3100208c310020a031002014
:103cec00602e0020803000206c30002058300020e6
:103cfc004430002030300020b4310020b03100209e
:020000040000fa
:103d0c00f0b5de4657464e464546e0b583b05b4bb4
:103d1c001b68002b00d0a3e0594b1c68621c00925e
:103d2c001a60002a11d0574b1b6800229346009a48
:103d3c0093421dd8544b1b681b68002b12d0524d5c
:103d4c00524fbc465249019562e04f4a1168514ba3
:103d5c00186810601960504a13680133136006f03c
:103d6c00d1f9e0e700239b46464b012252421a60f0
:103d7c004a4b1b68d96a464a8b005b189b009b58c0
:103d8c00012b01d901239b46454b1b68002b6dd0a1
:103d9c0001239b466ae03b4b1a60e9e7dc68546000
:103dac0047e000229a622268013a2260dc6a3a6893
:103dbc00944201d962461460a200121992008a182a
:103dcc0052689a609468dc6060609060d86a820087
:103ddc001418a400a046884444465c611418a4003e
:103dec006458a0460124a146c844121892004046cb
:103dfc0050502a4a12689046da6a4346db6a9a4265
:103e0c0001d901239b46019b1b681b68002babd07f
:103e1c002b68db68db685a6800989042bbd35a6900
:103e2c009c68d868a0609c684460181d54688442e3
:103e3c00b4d000245c611468013c14609c6a002cb2
:103e4c00b4d0da6992461a6a5646b260de69566098
:103e5c001a00183266689642a3d11a6a6260a0e70b
:103e6c00104a13680133136000239b46584603b075
:103e7c00f0bcbb46b246a946a046f0bd803100203e
:103e8c00a431002088310020b4310020a031002062
:103e9c00602e0020b031002090310020b83100207d
:083eac00943100209831002040
:020000040000fa
:103eb40030b5a3b00400150003006a3bd9b20e2943
:103ec40000d9a4e08b00584ad3589f46002301939d
:103ed400029303930493102201a9280002f0a8fc82
:103ee400002800d097e0514b1b68002b00d192e0d2
:103ef40001a898478fe000230193042201a9280018
:103f040002f096fc002800d085e0494b1b68002b8a
:103f140000d180e001aa5178107898477be0002313
:103f2400019302930133082201a9280002f080fcc6
:103f3400002870d101ab1879002803d13d4b01aaa8
:103f440052791a703c4b1b68002b64d0019a394992
:103f540009789847384b00221a605ce000230193eb
:103f640002930133082201a9280002f061fc002811
:103f740051d101ab1b79002b0dd02f4b1b68002bab
:103f840049d0019a2b49097801a8007998472a4b0e
:103f940000221a603fe0274b01aa52791a7006f0fa
:103fa400c3fe0128e9d906f0b9fe224b1a78234949
:103fb40004f02ef9e1e78422002101a806f0a0fd17
:103fc4000123842201a9280002f032fc002822d116
:103fd4001b4b1b68002b1ed001a90a88887802a9f4
:103fe400984718e0002301930133042201a9280013
:103ff40002f01efc00280ed1124b1b68002b0ad0c5
:1040040001aa107898470f4b00221a6003e006f0cb
:104014008bfe002801d123b030bd06f07ffe0a4993
:10402400220004f0f5f8f6e7589800003431002037
:1040340038310020e7310020303100207c0c0000b2
:0c4044002c31002028310020a00c0000ce
:020000040000fa
:1040500008d1002806d1f54204d801d3002a01d1a5
:104060006d0d09d10020c143090dc904f0bdf9d17e
:104070001242f7d1640df5d00020c143490549082b
:10408000a6e000206146f0bdf0b50127ff070e0055
:104090005e403e40b446be0a4c18dd18f442d7d20a
:1040a000f542e4d2640decd06d0dead06419c9027a
:1040b0003943460dc0023143db023b43db0a10b4f7
:1040c0008e4685b297b26f43140c6c433e0ca41914
:1040d000260c2404bfb227439cb26c43a419190ccc
:1040e0006943250ca4b249190d04090c6419000c8c
:1040f00095b245433e0c76193743bfb2360c150cca
:104100004543ad19a6b2240cad192e0437432e0c2d
:1041100036199db24543ad19acb22e0c89191d0c50
:1041200045436d182e04290c3443704680b295b275
:1041300045433e0c76193743bfb2360c150c454348
:10414000ad19a6b2ad19240c2e0437432e0c361926
:104150009db24543ad19acb22e0c89191d0c4543d7
:104160006d182e043443290c75462d0c90b268430b
:104170003e0c80190604bfb23e43070ca0b23f18a4
:10418000120c6a43d019020c80b2240ca4189ab203
:104190006a43121914042043120c89181b0c6b4338
:1041a000c91810bc01273d05294203d1b619404169
:1041b0004941013cff077d0d013d641b0bdb6d0098
:1041c000ac4209da240500254208be41684161413c
:0a41d00066463143f0bd54e74ee7a8
:020000040000fa
:0241da0070472c
:020000040000fa
:1041dc00602b0000ca2c00003a2a0000ca2c0000f8
:1041ec00ca2c0000a02b0000ca2c0000ca2c000016
:1041fc00ca2c0000ca2c0000d42a0000ca2c0000d3
:10420c00ca2c0000122b0000ca2c0000402b00000e
:10421c00ca2c0000ca2c0000ca2c0000ca2c0000ba
:10422c00ca2c0000ca2c0000ca2c00001a2a00005c
:10423c00ca2c0000462c0000ca2c0000ca2c00001e
:10424c000c2c0000ca2c0000ca2c0000ca2c000048
:10425c00ca2c0000ca2c0000ca2c0000e82b00005d
:10426c00ca2c0000ca2c0000c42b0000ca2c000071
:10427c00fa290000ca2c0000ca2c00009a2a00005f
:10428c00ca2c0000ca2c00005a2a0000ca2c0000bc
:10429c00c42a0000ca2c0000ca2c0000ca2c000042
:1042ac00ca2c0000ca2c0000ca2c0000ca2c00002a
:1042bc00ca2c00007a2a0000ca2c0000ca2c00006c
:1042cc00ca2c0000ca2c0000ca2c0000ca2c00000a
:1042dc00ca2c0000ca2c0000ca2c0000ca2c0000fa
:1042ec00ca2c0000ca2c0000ca2c0000ca2c0000ea
:1042fc00ca2c0000ca2c0000ca2c0000ca2c0000da
:10430c00ca2c0000ca2c0000ca2c0000ca2c0000c9
:10431c00ca2c0000ca2c0000ca2c0000ca2c0000b9
:10432c00ca2c0000ca2c0000ca2c0000ca2c0000a9
:10433c00ca2c0000ca2c0000ca2c0000ca2c000099
:10434c00ca2c0000ca2c0000ca2c0000ca2c000089
:08435c00ca2c0000802b0000b8
:020000040000fa
:1043640070b58eb00f236b4401221a70002800d15f
:1043740093e04b4b02681a604a4b82681a604a4bbe
:10438400c2681a60494b028a1a80837c002b03d0ce
:104394000f236b4404221a70454b00221a700f201d
:1043a400684404f031fa041e02d020000eb070bd3f
:1043b400404b02221a70002005f094fb041e06d024
:1043c4003c4b00221a70002003f0b2feede73a499c
:1043d400012003f0c9fd04a802f0c2f9040006f0ac
:1043e400a3fc012820d806f09ffc012822d806f05f
:1043f4009bfc01282bd806f097fc012831d806f045
:1044040093fc012838d806f08ffc01283dd82300fe
:104414000d33cad106f088fc0028c6d006f07efc15
:10442400264903f0f5fec0e706f078fc244903f0c2
:10443400effed8e706f072fc04ad6b792a792149c6
:104444002e8c0196ad79009503f0e2fecfe706f0dd
:1044540065fc1d4926236b441a226a4403f0d8fee6
:10446400c9e706f05bfc04ad2b7aea7917496d7a4b
:10447400009503f0cdfec2e706f050fc1449072373
:104484000093132203f0c4febde706f047fc114b72
:10449400114a124903f0bcfeb9e70c24644284e7d4
:1044a40044310020403100203c310020da3100202a
:1044b400df310020e0310020e12900001c0e000063
:1044c400480d0000640d0000880d0000a80d0000d8
:1044d400cc0d0000e40d0000f00d0000fc0d000008
:020000040000fa
:1044e40070b50500594c247fe0b2002c00d0a7e041
:1044f40000294ad0002d48d0554c66680724344022
:10450400012c5ed0514805604260002444618461fe
:1045140004614e488160002a58d04c4ad3604b4a0b
:10452400012111774a4a127e520705d5484a0420d0
:10453400916a117e0142fbd1454a518b042001430b
:104544005183117e7c300143117640498a68c968e1
:10455400914203d93d48c168891a01613c494968bf
:10456400490743d139498969914233d2374a11689d
:10457400087837498862916901319161002b5ad0da
:10458400334b04229a7501205be0002b59d0002a9a
:1045940057d02f4c666807243440012c0cd02b488c
:1045a400056042600024446184610461002db0d13f
:1045b400264900208860aee7002943d1dc07eed508
:1045c4003fe0cc073dd4002be9d0f7e71f4a002198
:1045d400d160a4e71d4a1269002acfd01c4aff21ea
:1045e40091621a490a69013a0a61c7e7174a916850
:1045f40049089160116949081161d1684908d1607d
:10460400916892698a420ad210490a681288d205ce
:10461400d20d0f4882628a6901328a61aee70b4a81
:104624001269002aaad00a4a0a49916207490a690a
:10463400013a0a61a2e7064b01229a75012000e0c3
:10464400002070bdcc07b9d5fbe7c046982f0020e9
:0846540000180042ff01000004
:020000040000fa
:10465c00f8b5de4657464e464546e0b506f052f9eb
:10466c004a4b1a68013a1a601b680024002b7fd150
:10467c00474b1b68002b7bd0464b1b68002b60d034
:10468c00444e0020444dac46444b9a46b34609e098
:10469c00196a516013e0d96851601ee05b461b68d3
:1046ac00002b4cd0f368db689a6adf69196ab96031
:1046bc00df694f601900183157688f42e8d0986253
:1046cc001168013911605a699f68d968b9609f688f
:1046dc004f601f1d5168b942ddd058611168013916
:1046ec001160d96a2a68914201d9624611608a0028
:1046fc00521892002a498a1852689a609468dc60b1
:10470c0067609760df6aba00d419a400a046884499
:10471c0044465c61d419a4006458a0460124a14607
:10472c00c844d2199200444654501e4a1168da6aa1
:10473c00cb6a9a42b2d3012352461360aee705f01e
:10474c00e1fc194b1c68002c0ed0144e012502e024
:10475c00013c002c05d0fff7d3fa0028f8d03560c7
:10476c00f6e7114b00221a600c4b1c68002c08d188
:10477c0006f09af92000f0bcbb46b246a946a0460a
:10478c00f8bd06f0b3f80124f2e7c04680310020f2
:10479c00a831002058300020a03100209431002096
:0c47ac00602e0020b83100209831002061
:020000040000fa
:1047b80070b5504b586a504b9b7d002b54d04e49d6
:1047c8004c68072214404b4b5a699d699e680b7ec2
:1047d8005b0757d5896a474bdb68934252d9002c4f
:1047e80043d1444b5b6899540132434b1b7edb0732
:1047f80016d5414b012119753e4b9b68ab4256d9e2
:104808003c4b1b68595d3c4b99620135394b1b6920
:10481800002b01d1b54262d0364bdb68934262d09f
:10482800344b5a619d61344b1b7e9b0715d5334b26
:104838001b78002b18d02f4bdb68934211d12d4bde
:1048480000221a772c4907240c752c490a701b6a18
:10485800002b09d0274b1b6a9847284b1b78002b45
:1048680002d0254b02229a7570bd224b5b6854001a
:10487800e1520132204b1b7edb07d1d51e4b0121b3
:10488800197508e01c4b1b7edb07c9d51a4b0121a3
:104898001975002cb0d0174b9b68ab4213d9154b38
:1048a8001b686900c95a144b99620135aee7114b70
:1048b8001b69002baad0104bff2199620d490b6987
:1048c800013b0b61a2e70b4b1b69002b9ed00a4be7
:1048d8000b49996207490b69013b0b6196e7074b46
:1048e800012119709ce7044b012199750331197551
:1048f80096e7c046982f002000180042e3310020b8
:04490800ffff0000ad
:020000040000fa
:10490c00f8b5002800d089e04b4b5b68002b00d138
:10491c0088e0494a1278002a00d186e0464a92780b
:10492c00002a07d01b798b4202d00124644277e025
:10493c00414c75e0404a927a002a0bd03e4c1c60e8
:10494c006368197163681b791b075cd43a4b0122ad
:10495c009a7065e000201a735a739a73da739a741a
:10496c0001243f255c553d3d40269d5501361e27b3
:10497c009f5501369d55413591365e550135593659
:10498c005e5302355a53002608355e551a650635b6
:10499c00585534355a5104355a5104355a51043549
:1049ac005a5104355a5104355a510435585501356c
:1049bc005855a2201c5402301a5004301a5004309e
:1049cc001a5004301a5004301c4c1c5004301a502d
:1049dc0004301a5004301a5004301a5004301a5053
:1049ec0004301a500c30ff241c541c301a5014483c
:1049fc00233c1851134804341851134804341851eb
:104a0c00fc201a509ae7002005f022fe05f01cfd50
:104a1c0000280dd1084b01229a7001e00124644258
:104a2c002000f8bd01246442fae701246442f7e750
:104a3c0001246442f4e7c046a4300020c0a80a0157
:0c4a4c0039840000594a00001d9200004f
:020000040000fa
:104a5800f0b5d64600b586b00300049105924c4add
:104a68005468002c0bd02600d43600280bd0fc222a
:104a7800a458002c03d04648fa3a3100a04706b0a3
:104a880080bcba46f0bd4349300005f041fc01281e
:104a9800f5d1336a002b03d0b369059a934272d2d9
:104aa800300005f0ddfeeae7386a049906f01cf8e4
:104ab8007b6a049a94469c4462460492ed1a0ce080
:104ac8003b6a002b25d07b6a002b22d0002d3fd0db
:104ad8007a6aaa422fd2002ae6d100233b627b627f
:104ae8002b4b5a68fc23d358002b12d0300005f00a
:104af800b7fe27484268fc23d3589a46002304226d
:104b08003100d0472349300005f002fc0128d7d0f6
:104b1800b5e7d4340023a361300005f0a1fe1c4b97
:104b28005a68fc23d458002ca9d019480023022223
:104b38003100a047a3e72700d437386a2a00049930
:104b480005f0d2ff3b6a5b193b627b6a5b1b7b62a9
:104b5800d434a36905995b1aa36162698c466244df
:104b68006261002bd8d0300005f07afe0848426810
:104b7800fc23d358029300230193009300223100b1
:104b880000f0f2fd7be7059d2700d4379ee7c0467d
:084b9800a4300020ffff000023
:020000040000fa
:104ba000f0b585b04a4e4b4c33681f68002f5cd07f
:104bb000db681f6806f03af801a803f03bff050028
:104bc000019a002a0bd1b8425dd3fff747fd2900b7
:104bd000380004f0f5fe5fe005f08efe5ce0fff7c4
:104be0003dfd59e02422ab5c01210b43ab54029bf9
:104bf000a96959180200280004f058fb00284bd07e
:104c00002423eb5c5a0707d4012293432332ab548d
:104c10002b6a280098473fe00299ab69c9183a000f
:104c2000280005f0f1faf3e72422ab5c01218b4365
:104c3000ab5431e02422ab5c01210b43ab5402990d
:104c4000a961411803000200280004f02ffb23e0b3
:104c50002423eb5c9a0704d5012293432332ab54ff
:104c60001ae0280003f045fb16e005f0dfff01a87d
:104c700003f0e0fe0500019b002bb0d1164b1b6832
:104c80001a6853425a41791b124b186804f090f984
:104c9000fff7e4fc00289fd02068002201a900f063
:104ca000feff002880d0019b002bf5db039d6b6984
:104cb000002b02d0281d05f0f6fa684603f0bafe74
:104cc0000700019b092be7d89900044b5b589f46ce
:104cd0007c310020743100207831002030a20000a7
:020000040000fa
:104ce000f0b5c64600b584b0040001910023984693
:104cf00000274425002645e0013ba3632368002be1
:104d00000bd02369002b0cd105f0d4fe012398466b
:104d1000404604b080bcb846f0bd05f01dfda06063
:104d2000efe72000103001f0d3fb0028ecd005f0b5
:104d3000e3fde9e705f0befe00239846e8e702a898
:104d400005f0f2fd28e0665530e04523e65432e0f8
:104d500005f0defda06802f08bf9804605f0aafea2
:104d600039e0200002f0dcfefff778fc09e02000cb
:104d700002f0d6fefff772fc200005f0a5fe002829
:104d800038d1012705f0c4fda36b002bb4d1019be2
:104d9000002bcfd0002fd2d005f08cfe05f046ffbf
:104da00005f0b6fd635d5bb20133ccd04523e35c17
:104db0005bb20133c9d005f07dfe01a902a803f062
:104dc00067fe0028d3d1200005f07efe0028c8d061
:104dd0002368002bbcd001992000243005f0aefce4
:104de000200002f09dfefff739fc0028c9d105f034
:104df00083fdc6e74346002b00d189e705f088fd17
:104e0000616a002903d0236b1b680521c91aa068b9
:0e4e100002f0aefc05f04efe0023984678e757
:020000040000fa
:024e1e00fee7ad
:020000040000fa
:104e200030b59db01400062819d0072827d00128d6
:104e300000d088e0002370226946200001f0fafccf
:104e4000002800d07be0414b1b68002b00d17ae0aa
:104e50003f4970340c6069460130984773e0002385
:104e600004226946200001f0e5fc002867d1374b99
:104e70001b68002b67d069460630984763e0002323
:104e800008226946200001f0d5fc041e4ed16b4675
:104e90009b886a46d288694648880978002b15d1d4
:104ea0002c4b01251d70121a53425a41d3b20229cc
:104eb00024d005d8002924d1264a0021117020e0f1
:104ec000032929d1234a032111701ae09b181b1ac8
:104ed0005a425341dbb2022910d006d8002910d122
:104ee0001c4a1278012a0cd1e6e7032910d1194a8d
:104ef0001278023afd210a4203d0e3e7154a022163
:104f00001170002b1fd0114b1b68002b12d11ae01f
:104f1000104a1278022af4d00e4a04211170f0e7e8
:104f200005f0fefe0c4903f075f90ce0074b1b6819
:104f3000002b04d0074907209847002c03d005f028
:104f4000f5fe0028ecd11db030bdc0461431002064
:0c4f500010310020e63100204c0200006f
:020000040000fa
:104f5c00f0b5de4657464e464546e0b583b083462f
:104f6c000f009246002399462ae005f0d9fe00284e
:104f7c0007d1013803b0f0bcbb46b246a946a046e7
:104f8c00f0bd05f0c7fe3c4903f03ef9012040425c
:104f9c00f0e7002c2edd58464844414603f0a6fbb2
:104fac00002831d0354b1b78524613434cd04b461e
:104fbc0043441bb299464346ff1abfb2002f58d048
:104fcc003b1c80229201974200d9131c9bb298463d
:104fdc000a246b46dd1c0f260121280003f086fbfa
:104fec000028c2d02b78b343f02bd2d0013c24b292
:104ffc00631cf1d15346002b0dd058464844414612
:10500c0003f074fb0028d2d105f08afe002813d1de
:10501c0001204042aee705f083fe002802d10120ba
:10502c004042a7e705f076fe6b46da78144903f0a8
:10503c00ebf8012040429de705f06cfe114903f0ae
:10504c00e3f80120404295e7022101a803f04efb52
:10505c000028acd105f064fe002802d101204042aa
:10506c0088e705f057fe084903f0cef801204042ce
:10507c0080e700207ee7c0462c030000de310020d4
:0c508c0068030000a0030000d80300002f
:020000040000fa
:10509800f0b58fb00c934b680d0008938b68160021
:1050a8000993cb680f680393089b0b90002b43db95
:1050b80002239f4310233a001a400d92099a049242
:1050c8001f4206d033687268134302d0099b023b23
:1050d800049308233b400a935a1e9341049a2c696f
:1050e800d31a04933368039a06937368013c0793b1
:1050f80000231355049b0593012c20dc0d9b002bea
:1051080050d10a9b002b03d02023039a013c13554e
:105118002a69039b013a19190b98099b121b0097de
:1051280002f06efe0b9b5b68db0503d56b6898424b
:1051380000da18000fb0f0bd01230893bae7069b08
:10514800079a13430ad1049a089b9b1a059a9b183d
:10515800002b03dc002ad1ddbb07cfd50f23069a2d
:10516800013c134018005730092b01dc303318007c
:105178000c9b413b192b06d820230343613b192b79
:1051880001d805f0a4fd039b1855059b013b059329
:10519800079b1a07069b1b091a43079b06921b09c4
:1051a8000793a9e70cce1343abd0039b0c9a1b19aa
:0e51b800013b1a703023039a023c1355a1e705
:020000040000fa
:1051c600f0b50d001900002387b004000593100008
:1051d6009d4207da2b002200002554429d410123ff
:1051e6005b420593002907da059b0200db43059322
:1051f6000b0000215042994126002f000290009199
:10520600a94200d96fe002d1a04200d96be0009913
:10521600029805f0cefb29000490200005f0c9fb9a
:10522600049b00991b1a1a000298049305f0b5fb1b
:1052360000900191a94250d801d1a0424dd8009ac0
:10524600019ba41a9d4101200021049a26002f00eb
:1052560005f0a3fb049b002b35d0019b009adb07ce
:1052660052081a43019b00255b080393049b012403
:105276009c460292039bbb4232d802d1029bb342a8
:105286002ed832003b00029e039f921bbb41921810
:105296005b4112196b4116001f0001235b429c44bf
:1052a6006346002be6d180197941049a04000d006b
:1052b6003000390005f065fb049a05f06efb241af0
:1052c6008d4120002900059b002b04d003000c0013
:1052d60000215842a14107b0f0bd00200021b9e7e6
:0c52e600b6197f41d9e700200021ece759
:020000040000fa
:0252f200fee7d5
:020000040000fa
:1052f40070b584b008ac257801ac20703d30c4b2e0
:105304000c2c00d97ce0a0003f4c2058874601ab10
:105314000a0c5a700a0a9a70d97005213b4b1b7803
:10532400002b5bd14e1e01aa6b4603335c187f230e
:10533400374d5b0010784340eb5c0132a242f8d158
:105344005b0001aa935501a803f058fc0300002058
:10535400002b46d004b070bd0b0adbb2002d01d087
:105364008022134301aa537091700023d370052146
:10537400d4e701abff225a709a70da700521cde7a9
:1053840001aa080c5070080a9070d170190c1171a0
:10539400190a517193710821c0e7080ac0b2002d9f
:1053a40001d08023184301ab58709970110ed97045
:1053b400110c1971110a59719a710821aee701abe8
:1053c400080c5870080a9870d970110e1971110cd4
:1053d4005971110a9971da7109219fe70139c9b22a
:1053e400b1e705f0a1fc002802d101204042b1e759
:1053f40005f094fc074902f00bff01204042a9e7a5
:1054040001204042a6e7c046a89c0000de310020ef
:08541400a05a000098020000fc
:020000040000fa
:10541c00f8b50700394c02e0012005f0c0fc200073
:10542c0005f0c5fc0028f7da354805f0c0fcc007cc
:10543c000dd4344c344d354e012005f0b0fc280011
:10544c0005f0b5fc013c002c22d0b042f4d1022f67
:10545c002dd0032f36d0042f3ed02d492d4805f0ea
:10546c00aefc002401f030fc03051b0de822920079
:10547c00934237d30220204304f016fd05f050fc74
:10548c00012833d82449204805f099fc0020f8bda8
:10549c0005f046fc032802d805204042f7e705f04a
:1054ac0039fc1e4902f0b0fe05204042efe71c49d2
:1054bc001c4805f084fc80214903164805f07ffc4c
:1054cc000024cfe71649174805f079fc0021114854
:1054dc0005f075fc0024c5e70d490e4805f06ffc7e
:1054ec008024bfe7200004f0dffcc7e705f012fcc6
:1054fc000d49074a02f088fec4e7c04614100000ac
:10550c00bc070200012000000c000c009ed0ad1066
:10551c00771330138c100000612f52ef180100002c
:0c552c007dd51c3cac07020040010000d3
:020000040000fa
:10553800f0b5ce46474680b585b081460d003d485a
:105548003d4904f0f7fe012800d06fe00023ff2258
:1055580049468a425b41dfb2002b04d0c423dbb248
:10556800984609260de0ca23f9e705f0dbfb002879
:1055780032d105f0d7fb00284ad104f0dbfd013e0b
:105588004ed300970423002249464046fff7aefe5b
:105598000028ead13900404600f0eefc002822d16c
:1055a8003a00042103a8fff7d5fc041e26d103aa5c
:1055b80053781b02917809040b4311780b43d27876
:1055c800120613432b601b4805f056f9200005b05e
:1055d800c0bcb946b046f0bd05f09efb17494a4627
:1055e80002f014fec5e705f09dfb0028c1d005f0c8
:1055f80093fb13494a4602f009febae705f092fb0d
:105608000028b6d005f088fb0e4902f0fffdb0e790
:1056180005f082fb0c494b46320002f0f7fdace77f
:10562800044805f029f906246442cfe706246442b9
:10563800cce7c04618310020ffff0000140400002a
:0c5648004804000084040000ac040000d2
:020000040000fa
:1056540030b583b0002300933d4a137069463d483a
:10566400fff768ff00282bd1394b1b78002b0dd195
:1056740000997c3399432c3b19430091354800f041
:1056840045fe00283ed1324b01221a70802001a928
:105694004001fff74fff041e43d105f045fb0328eb
:1056a4004ed82c4d280005f0bdf970230100994314
:1056b400203b1943280000f029fe200003b030bd30
:1056c400234b01221a7005f02ffb00280cd16946e8
:1056d4002048fff72fff0028c6d005f025fb00283f
:1056e40008d106246442e8e705f018fb1a4902f0e1
:1056f4008ffdece705f012fb184902f089fd062442
:105704006442dae705f010fb002802d10624644263
:10571400d3e705f003fb124902f07afd0624644244
:10572400cbe705f001fb002802d106246442c4e75c
:1057340005f0f4fa0b4902f06bfd06246442bce761
:1057440005f0ecfa019a084902f062fda9e7c046a7
:10575400de31002024e800005c050000b4050000f0
:0c576400e8050000200600004c060000d4
:020000040000fa
:10577000f0b583b004000f0015001e00431e033374
:1057800000d976e04368002b00d174e0002900d1f5
:1057900073e083780120002b01d103b0f0bd0191ab
:1057a0003849380004f0b8fd012868d163681a0050
:1057b000d432019991422fd13a79ff2a2cd0fc2280
:1057c00000219950002d05d03d627e62089b7b61cf
:1057d000099bbb61fb69002b02d07a69934220d9f7
:1057e00063681b791b072bd5012000f0adfc002856
:1057f0001cd13879099b089a290000f033fc040079
:10580000002000f0a1fc002815d1002c27d0380082
:1058100005f02af80820c0e7380005f025f8022036
:10582000bbe7380005f020f80220b6e7380005f0a5
:105830001bf80820b1e7380005f016f80820ace79f
:10584000fb68ba69802a00d980227969387903f027
:105850000bf8002808d16268fc230a99d15038005f
:1058600005f002f8002098e7380004f0fdff08205a
:1058700093e7022091e702208fe702208de70d20b9
:085880008be7c046ffff0000aa
:020000040000fa
:10588800f0b5ce46474680b587b081460f000391f4
:10589800904605ab00221a803848394904f04afd81
:1058a800012867d14346012b55d0092600250be076
:1058b80005f038fa002828d105f034fa002840d13c
:1058c80004f038fc013e4ad3009543462a00494675
:1058d800c820fff70bfd0028ead12900c82000f0f6
:1058e8004bfb002818d12a0041463800fff732fb4d
:1058f800041e1cd1214804f0bfff05ab9f4233d1e1
:1059080005ab1b78039a13702ee005f005fa1d49c4
:105918004a4602f07bfccfe705f004fa0028cbd01a
:1059280005f0faf918494a4602f070fcc4e705f098
:10593800f9f90028c0d005f0eff9144902f066fc27
:10594800bae705f0e9f91249434600934b4632009d
:1059580002f05cfcb4e705af02239846a5e70748c8
:1059680004f08aff06246442200007b0c0bcb94690
:10597800b046f0bd06246442f6e7c0461831002060
:10598800ffff00006c060000a4060000e40600000b
:0459980014070000f0
:020000040000fa
