:020000040000fa
:10000000f07f002091350000971f0000e7220000dc
:1000100000000000000000000000000000000000e0
:10002000000000000000000000000000b13d0000e2
:100030000000000000000000e1350000f53c000079
:10004000e31c0000e31c0000e31c0000e31c0000b4
:10005000e31c0000e31c0000e31c0000e31c0000a4
:10006000e31c0000e31c0000e31c0000e31c000094
:10007000e31c0000e31c000005330000e31c00004b
:10008000e31c0000e31c0000e31c0000e31c000074
:10009000e31c00000000000000000000e31c000062
:1000a000e31c0000e31c0000e31c0000e31c000054
:020000040000fa
:1000b000f8b5c046f8bc08bc9e46704771350000d4
:1000c000f8b5c046f8bc08bc9e46704749350000ec
:020000040000fa
:0800d000e81d00000100000022
:020000040000fa
:1000d800f0b59db012930b6814900b934b68119177
:1000e80004938b680d930b691593cb680893136879
:1000f800546806930794069807990022002303f092
:1001080092fb00280dd10b9b5b073ed408230b9a6a
:100118001a400c920d9a09920b9a1a4213d018336e
:100128000ae080200006844606990a00079961447f
:100138000b00069207932d23089a13700d9b013b21
:10014800099301230c93079b06995b00c74a5b0838
:1001580000291cd193421ad1089a129b94460c98f4
:10016800413bc3496044192b00d9c24904f052f8f5
:10017800089803f0f3fe0b9b0200009308990d9b6f
:10018800149802f03ffe1db0f0bd2b23d4e7934234
:1001980002d80cd100290ad0089a129b94460c98d0
:1001a800413bb5496044192be0d9b449dee7002248
:1001b80006980799002303f09cfc0026b04f0028fe
:1001c80000d120e100230393129803f0fcffc3b28f
:1001d8001093049b002b00daebe1109b0a93672b2a
:1001e80012d1049b002b01d10133049365230a9398
:1001f800039b04331ddb039b049a934219da66239d
:100208000a93039b002b14da049b013304930a9b83
:10021800662b0ed1039b002b03da00230026984f90
:100228000393109b672b04d0039a049b9446634462
:100238000493069a079b0e920f93002334003d0007
:10024800139322000e980f992b0001f0e6ff02f09d
:10025800a5f88022120694460e9b169017911893c3
:100268000f9b63441993189a199b009201932200db
:100278002b0003f091ff80231b06cb1800222900d6
:100288000e900f9320007f4b01f0c7ff139b0400d3
:1002980001331393139a049b0d009342d1d100228a
:1002a800794b01f011f90e9a0f9b04000d0003f031
:1002b8009bfa002800d0d5e00e9a0f9b2000290059
:1002c80003f017fc002806d01698179903f0c6fb10
:1002d800c00700d4c6e00698079922002b0000f05a
:1002e8004bfe002206900791664b3000390001f062
:1002f800ebf8069a079b0e900f9103f0d3f90028ac
:1003080000d1c7e0039b013303930a9b662b00d0ff
:10031800c2e0049b039d0133049300263700049b2d
:100328000c9ceb1a1693169b9d4200d0dee0002f22
:1003380000d11de10026089b1f190a9b3e70652b02
:100348002dd1159b5d1e089b5e55039bb34202dab7
:100358005b4203930136039b002b00d011e1159bf0
:10036800eb1a0333002b00dd0be12b236a1e002e52
:1003780000d002330899023d8b54129b413b192b44
:1003880001d845230a93089b59190a9b0b70ac4264
:1003980002da380003f03eff099b023b099303236e
:1003a8000b9a1340022b00d0e2e6099b002b00dcdd
:1003b800dee6089803f0d2fd0c9b834200dcf1e0f6
:1003c8001800089b30219c46099a604403f07efe81
:1003d80000230d93cce626002f00039b01330393e3
:1003e8000022284b3000390001f06ef804000d009f
:1003f80002000b000698079903f015fa0028ead0c6
:100408000024012523e00390eae7204b039a9a424f
:1004180012da002c10d10698079900221c4b01f023
:1004280053f8002206900791194b3000390001f06b
:100438004bf82c0006000f0030003900114b002249
:1004480001f0ebfe06000f00039b013b0393320013
:10045800069807993b0003f0e6f90028d5d1b3e6e2
:100468000623c2e60024002535e7c0460000f07fd9
:10047800f83d0000fc3d0000003e0000043e000086
:100488000000f03f0000244000001440d4feffffad
:10049800000050430e960f970a9d653d6b1e9d41c7
:1004a800039b6d421d4038e7002f0ad1002d08da62
:1004b8002e23089a139901345354099b0137013ba1
:1004c8000993321923009446302102e0089ad15446
:1004d80001336345fad1099a3419961b089a3030ca
:1004e800d054731e01340026099320e0119b139405
:1004f8001b69053ba34200d819e70e9a0f9b069883
:10050800079901f08afe01f049ff0490059103f074
:10051800a5fa092800dd092010230b9a134003438c
:10052800c2d1109b672bbfd1002dbdda01368022c6
:100538000e980f9912069446069b013d1a93079b45
:1005480063441b931a9a1b9b00920193049a059b80
:1005580003f022fe80231b06cb18069007930e9803
:100568000f990022174b01f058fe0e900f91dae612
:100578000b9bdb0600d4dde62e23089a13550134c5
:10058800d8e603980a2102f0b9f8089b3031013dfa
:10059800595503980a2102f067f8099b0390013b1b
:1005a8000993d8e6089b09991a5c5b181a54013814
:1005b80002e7109b672b00d152e70a9306230493a6
:0805c80022e6c04600002440b9
:020000040000fa
:1005d000f0b599b012930b68cf680a934b681690e8
:1005e0000e938b680b930b691193136854680693f1
:1005f0000794069807990022002303f018f90028b1
:100600000ed10a9b5b072ed408230a9a0a991a4036
:1006100005920b9a194213d018333b7013000ce06b
:1006200080200006844606990a00079961440b0061
:10063000069207932d233b700b9b5a1e01230593b3
:10064000079b06995b005b0800290ed1af488342e7
:100650000bd1129b059a413bad4cae49b818192bf2
:1006600011d921000fe02b23e5e7a848834202d8e7
:1006700018d1002916d0129b059a413ba64ca749d8
:10068000b818192bedd803f0c9fd200003f06afc5f
:100690000a9b0200009339000b9b169802f0b6fbf0
:1006a00019b0f0bd059b0598591c30233b54129b93
:1006b000413b0f930f987823192800d8203b0598c9
:1006c0007b540230931e05900993002206980799e7
:1006d000002303f012fa002800d16de10023904cb2
:1006e000089302930394182310930e9b002b00dbb6
:1006f00010930026029c039d109b01331793069aca
:10070000079b0c920d930c980d9922002b0001f081
:1007100088fd01f047fe22002b001490159100f097
:10072000d7fe02000b000c980d9903f041fd7d4ba4
:100730000c900d9100222000290000f0c9fe0e9bb4
:1007400004000d000136002b07da0c980d990022e9
:10075000002303f0d2f9002804d1179b9e42d2d186
:10076000109e01360022200029006f4b00f0b0fee1
:1007700004000d0002000b000c980d9903f057f8cf
:10078000002800d01ee10c980d9922002b0003f0e8
:10079000b4f9002806d01498159903f063f9c0073e
:1007a00000d40fe10698079922002b0000f0e8fb27
:1007b00006900791079b069a5b005b08002a03d10d
:1007c000524a934200d144e7119b059a053b14938a
:1007d000934200d83de100257342140016001793a0
:1007e00010950c95029a039b0698079901f019fd44
:1007f00001f0d8fd1290139103f034f9031e00d0dc
:10080000e3e00c9a002a00d1dfe00135029a039b55
:100810001298139900f05cfe02000b0006980799ed
:1008200003f0c6fc002206900791029803993d4b05
:1008300000f04efe0c9b179a013b029003910c9323
:10084000934203d0149b26009c42cbd3109b002bd9
:100850001ad1002d00dcfde00e9b002b00dcf9e03e
:100860000a9bdb0700d5f5e02e2230213b191a70d8
:100870002a19ba18597001339342fbd16419ed4318
:10088000099b0134eb18099300263b191e70029353
:10089000119b5d1e089b7e55b34202da5b420893b2
:1008a0000136089b002b00d0bce0119beb1a0133f2
:1008b00000d1b7e02b236a1e002e00d00233bb54b8
:1008c0000f9a7023023d192a00d8203b79190b702a
:1008d000ac4202da029803f0a1fc03230a9a134007
:1008e000022b11d1099b9c1e002c0ddd380003f05a
:1008f00039fb059b984200dba4e0f8182200302168
:1009000003f0e8fb00230b933800bfe60000f07f04
:10091000fc3d0000f83d0000043e0000003e0000e9
:100920000000f03f0000b03f00002040089b029410
:10093000039501330893029a039b1000190000f0fd
:100940001ffb04000d0002000b000698079902f03f
:100950006eff0028ead0029a039b0698079902f0de
:1009600066ff002800d1bee60298039900223d4ba5
:1009700000f0aefd0022002303f0bff800280fd0e6
:10098000029803990022384b00f0a2fd0022029049
:10099000039106980799344b00f09afd0690079151
:1009a000029803992f4b002200f092fd089b0290c1
:1009b0000391013b0893cee700232c4c089002934f
:1009c0000394b8e700240025ece6109a002a0ad127
:1009d0000c9a002a07d02e22ba55099a0134013afe
:1009e00009920122109230222e1901e03a55013469
:1009f000b442fbd11800099a5730551b092b01dc72
:100a0000303318000f9b192b06d820230343613b7a
:100a1000192b01d803f0e2fb6b1e741c0025b8559e
:100a20000993f3e608980a2101f06cfe013d30318c
:100a3000089879550a2101f01bfe099b0890013b9b
:100a400009932ee7099b3a5c023bfb181a540138c4
:100a50004fe7059c0a9bdb0600d415e72e233b5588
:100a6000013411e70000e03f000050430000f03f78
:020000040000fa
:100a70000023f0b51600b1b0039007910493079dd1
:100a80002b78002b00d1cfe001235b420c9310abfd
:100a900000240e9380230b940d940f932b5d002b59
:100aa00001d0252b30d1002c06d02900220003983c
:100ab0002d1903f093f80795079b1a78252a00d083
:100ac000a7e001331800002105930793243a037827
:100ad0002b2b25d02dd8202b25d0232b26d0002919
:100ae00000d007902a2b2cd002f0befd01250d90de
:100af0000020079a11000b780132303b092b64d992
:100b000000282dd007912be00134c7e701230b9972
:100b10000b430b9311000130d9e702230b99f7e740
:100b200004230b99f4e708230b99f1e710230b99a1
:100b3000eee72d2bead0302befd00029d4d0079050
:100b4000d2e7336801301a1d1b68079032600d939d
:100b5000002b05da01220b995b424a400b920d9360
:100b60000b9bda0702d5022293430b93079b1a785b
:100b70002e2a0dd100270c975a785d1c07952a2a3a
:100b800025d10233079333681a1d1b6832600c931a
:100b900007a802f04dff079d0700287803f017fb18
:100ba000252800d1d5e06138172800d9dbe003f013
:100bb000a5fa1fdab63ea6a6a6da3edadadada9c9b
:100bc0005e7fdadac6da4edada6e280092e72800bb
:100bd00002f04afd01210c902a0013780135303bc8
:100be000092b03d9002fd3d00792d1e70f00f3e7e9
:100bf0003200390008a802f0fffe002800d17be097
:100c00006b1c079303982b7808aa0ba9fff7e0fc4d
:100c10002418049b1c19a34200dcb0e04f22594b5e
:100c20001a6001235b420493049831b0f0bd330095
:100c30000122390008a801f089fa00285cd00135aa
:100c4000039808aa0ba9079501f00afce0e7330016
:100c50000022390008a801f079fa00284cd00135ab
:100c6000039808aa0ba9079502f078fbd0e7330098
:100c70000022390008a801f069fa00283cd00135ab
:100c8000039808aa0ba9079502f0e4f9c0e733001e
:100c90000022390008a801f059fa00282cd06b1c5a
:100ca00007932b78039808aa0ba900f006feafe77c
:100cb00033000022f02108a801f048fa00281bd0d8
:100cc000089b099a0135079513430cd12e4d280036
:100cd00003f048f9290002000b9b00930d9b039839
:100ce00002f094f894e77823dce7049b39001a19a2
:100cf00008a8330002f0c6f80135079589e73200ed
:100d0000390008a802f078fe0028f5d06b1c079384
:100d100003982b7808aa0ba9fff7def978e7802f54
:100d2000ead1336801351a1d1b68326008aa1370b6
:100d30000123079503980ba902f0b6fb68e7802f03
:100d4000dad132680135131d33601268002307952c
:100d5000f0e7802fd0d10b9b0135009301220b4986
:100d60000d9b0795bbe7059b012207930023524289
:100d70000c9206490b930d9300930232afe7049453
:100d80007de6c04654450020f03d0000f63d0000e1
:020000040000fa
:100d90003c4400201c000000000000000040002037
:100da0000002000000000000c84200208000000097
:100db00000000000fc430020400000000000000094
:100dc000f44400200400000000000000f84400206b
:100dd0000400000000000000ec44002008000000b7
:100de00000000000bc4400200c00000000000000d7
:100df000fc44002004000000000000005d450020cd
:100e0000010000000000000000420020c8000000b7
:100e100000000000c84400200c000000000000009a
:100e2000004500200800000000000000d44400201d
:100e30000c00000000000000604500205000000091
:100e40000100000000000000e42700000001000095
:100e5000010000007141000001000000f4270000c3
:100e600000010000010000009141000001000000ad
:100e7000f427000000010000010000009141000083
:100e8000000000000000000000000000a43c000082
:100e9000aaaaaaaa08450020080000000000000035
:100ea000000000200040000000000000104500206d
:100eb0002c00000000000000584400201400000036
:100ec000000000003c45002004000000000000007d
:100ed0006c44002028000000000000004045002075
:100ee00008000000000000009444002028000000da
:100ef00000000000484300206400000000000000e3
:100f00004845002004000000000000005c4500206f
:100f100001000000000000004c450020040000001b
:100f20000000000050450020040000000000000008
:100f3000b045002004000000010000000100000096
:100f4000544500200400000000000000ac430020d5
:100f50005000000000000000584500200400000080
:100f600000000000e04400200c0000000000000031
:100f70000000000000000000666666666666666641
:020000040000fa
:100f8000f0b40125ed070f005f405ad48b4200d129
:100f9000824205d950404240504059404b40594050
:100fa0004e18760ddf187f0d3bd0741c640529d0d8
:100fb000f41b352c26d80e0ddb022b43db0ac902ad
:100fc0002943c9121700202c1ed2e741e2405740a6
:100fd000e3415a40a340e3405a400024801859415d
:100fe0000ad3b21c520521d0c207012f624117005b
:100ff0004008cb0718434908013636054208af417f
:1010000060417141f0bc7047203c06d01f00e741b1
:10101000e3405f400024012a6741c0186141ebd3df
:10102000dfe7002eeed129400020ebe70136310545
:101030000020e7e7e742e5d10020c143090dc904dc
:10104000e0e76b400e00871a9e4104d26e40c01b41
:10105000b141d21973414e18df18ac0ae642e9d209
:10106000760d7f0d31d0f41b362ccbd8b4460e0d47
:10107000db022b43db0ac9022943c90a012c32d8ff
:1010800004d1d4075208df073a435b08ef0a6442f1
:10109000904199411ed0002239424dd1241940413e
:1010a00049410124394204d10134001849413942ef
:1010b000fad06246a24204d9361b013e3605891990
:1010c000a0e7f10ac90700209ce736429ad1002028
:1010d000002197e70200224394d0b842ded20100fb
:1010e00020002024e3d1202c13dd203ce241170016
:1010f000a240e2405740e3415a40a340e3405a40f7
:10110000012fbf410137174300227c429841914192
:101110000ce01700e741e2405740e3415a40a3404a
:10112000e3405a407c429041994100220f0303d290
:10113000013e241940414941013e36054708ac4172
:0811400050417141f0bc704701
:020000040000fa
:10114800f0b583b000900f0001939400200001f0e7
:10115800c9fb061e59d0542001f0c4fb051e51d00e
:101168005422002102f0b2ff2e632200a521300094
:1011780002f0acff043c2e6b361907229643002f71
:101188000cd000242a0034323b5d1355002b02d0ca
:101198000134102cf8d143230022ea54089f042f6d
:1011a80000d90427ef626f642c1d200003f038f883
:1011b8002800183003f034f82d610523db1bab61e0
:1011c8006d62019a0099300001f0a2fa2860099b2b
:1011d800002b00d01d6002f091fe394a13680133dc
:1011e8001360384b1b68002b13d0374b1b68002b40
:1011f80015d1344b1b68da6aeb6a9a420fd8314b27
:101208001d600ce0300001f0e8fe0120404203b010
:10121800f0bd2c4b1d602a4b1b68012b31d02b4a8b
:10122800136801331360ea6a294b1b689a4201d993
:10123800274b1a60274993009b189b00cb185b68c3
:10124800ab609a68ea6054609c60e86a83001a1888
:10125800920052186a611a18920053580133535079
:1012680002f058fe184b1b680120002bcfd0154bfd
:101278001b68da6aeb6a9a42c9d202f033fe01208f
:10128800c5e7144e37006437300002f0a3fe143669
:10129800be42f9d1104f380002f09cfe0f4e3000cc
:1012a80002f098fe0e4802f095fe0e4802f092fefb
:1012b8000d4802f08ffe0d4b1f600d4b1e60aee710
:1012c80038450020484500202c4500201c450020ba
:1012d8003045002048430020a844002094440020c2
:1012e800804400206c4400205844002044450020dd
:0412f800404500204d
:020000040000fa
:1012fc00f0b5de4657464e464546e0b583b0584bf2
:10130c001b68002b00d09de0564b1c68621c0092a1
:10131c001a60002a11d0544b1b6800229346009a85
:10132c0093421dd8514b1b681b68002b12d04f4d9c
:10133c004f4fbc464f4901955ce04c4a11684e4bef
:10134c001868106019604d4a13680133136002f07d
:10135c0029fce0e700239b46434b012252421a60d2
:10136c00474b1b68434ad96a8b005b189b009b5800
:10137c00012b01d901239b46424b1b68002b67d0e4
:10138c0001239b4664e0384b1a60e9e7dc68546043
:10139c0041e000229a622268013a2260dc6a3a68d3
:1013ac00944201d962461460a200121992008a1864
:1013bc0052689a609468dc6060609060d86a8200c1
:1013cc001418a400a046884444465c611418a40078
:1013dc006258013262502a4a12689046da6a4346d1
:1013ec00db6a9a4201d901239b46019b1b681b684f
:1013fc00002bb1d02b68db68db685a6800989042f0
:10140c00c1d35a699c68d868a0609c684460181d58
:10141c0054688442bad000245c611468013c1460a6
:10142c009c6a002cbad0da6992461a6a5646b260a7
:10143c00de6956601a00183266689642a9d11a6a9b
:10144c006260a6e7104a13680133136000239b46c1
:10145c00584603b0f0bcbb46b246a946a046f0bd08
:10146c00104500203445002018450020444500203c
:10147c0030450020484300204045002020450020f6
:0c148c0048450020244500202845002091
:020000040000fa
:1014980008d1002806d1f54204d801d3002a01d189
:1014a8006d0d09d10020c143090dc904f0bdf9d162
:1014b8001242f7d1640df5d00020c143490549080f
:1014c800a6e000206146f0bdf0b50127ff070e0039
:1014d8005e403e40b446be0a4c18dd18f442d7d2ee
:1014e800f542e4d2640decd06d0dead06419c9025e
:1014f8003943460dc0023143db023b43db0a10b4db
:101508008e4685b297b26f43140c6c433e0ca419f7
:10151800260c2404bfb227439cb26c43a419190caf
:101528006943250ca4b249190d04090c6419000c6f
:1015380095b245433e0c76193743bfb2360c150cad
:101548004543ad19a6b2240cad192e0437432e0c11
:1015580036199db24543ad19acb22e0c89191d0c34
:1015680045436d182e04290c3443704680b295b259
:1015780045433e0c76193743bfb2360c150c45432c
:10158800ad19a6b2ad19240c2e0437432e0c36190a
:101598009db24543ad19acb22e0c89191d0c4543bb
:1015a8006d182e043443290c75462d0c90b26843ef
:1015b8003e0c80190604bfb23e43070ca0b23f1888
:1015c800120c6a43d019020c80b2240ca4189ab2e7
:1015d8006a43121914042043120c89181b0c6b431c
:1015e800c91810bc01273d05294203d1b61940414d
:1015f8004941013cff077d0d013d641b0bdb6d007c
:10160800ac4209da240500254208be41684161411f
:0a16180066463143f0bd54e74ee78b
:020000040000fa
:0216220070470f
:020000040000fa
:10162400f8b5de4657464e464546e0b502f068fc3e
:10163400494b1a68013a1a601b680024002b7bd1bd
:10164400464b1b68002b77d0454b1b68002b5cd0a6
:10165400434e00239b46434dac46434b9a463400cd
:1016640008e0196a516012e0d96851601ee02368ed
:10167400002b48d0f368db689a6ad869196a8160dc
:10168400d86948601900183150688842e9d0594631
:1016940099621168013911605a699868d968816042
:1016a400986848601f1d5168b942ddd05946596198
:1016b400116801391160d86a2a68904201d96246da
:1016c40010602a498200121892008a1852689a609f
:1016d4009068d86047609760df6aba00d0198000cc
:1016e4008046884440465861d019800042580132ef
:1016f40042501f4a1168da6acb6a9a42b7d9012369
:1017040052461360b3e702f051fa1a4b1c68002cde
:101714000ed0154e012502e0013c002c05d0fff748
:10172400ebfd0028f8d03560f6e7124b00221a6072
:101734000d4b1c68002c08d102f0eefb2000f0bc1d
:10174400bb46b246a946a046f8bd094b1b6802f049
:10175400cbfb0124f0e7c0461045002038450020ab
:1017640080440020304500202445002048430020c8
:08177400484500202845002033
:020000040000fa
:10177c00f0b5c64600b584b004000191002398462c
:10178c0000274425002645e0013ba3632368002b7a
:10179c000bd02369002b0cd102f0bafb0123984625
:1017ac00404604b080bcb846f0bd02f065fca060b9
:1017bc00efe72000103000f0e9fb0028ecd002f03d
:1017cc008ffbe9e702f0a4fb00239846e8e702a8a8
:1017dc0002f0b6fb28e0665530e04523e65432e0d3
:1017ec0002f08afba06800f0e7fe804602f090fb56
:1017fc0039e0200001f0ccf9fff70eff09e02000e2
:10180c0001f0c6f9fff708ff200002f03ffc0028aa
:10181c0038d1012702f070fba36b002bb4d1019bd4
:10182c00002bcfd0002fd2d002f072fb02f08afc3a
:10183c0002f062fb635d5bb20133ccd04523e35c09
:10184c005bb20133c9d002f063fb01a902a801f01d
:10185c00c9fc0028d3d1200002f018fc0028c8d005
:10186c002368002bbcd001992000243002f004fb2b
:10187c00200001f08df9fff7cffe0028c9d102f04e
:10188c002ffbc6e74346002b00d189e702f034fb5f
:10189c00616a002903d0236b1b680521c91aa06853
:0e18ac0001f0f2f802f034fb0023984678e7d2
:020000040000fa
:1018ba00f0b58fb00c934b680d0008938b68160037
:1018ca000993cb680f680393089b0b90002b43dbab
:1018da0002239f4310233a001a400d92099a049258
:1018ea001f4206d033687268134302d0099b023b39
:1018fa00049308233b400a935a1e9341049a2c6985
:10190a00d31a04933368039a06937368013c0793c6
:10191a0000231355049b0593012c20dc0d9b002bff
:10192a0050d10a9b002b03d02023039a013c135564
:10193a002a69039b013a19190b98099b121b0097f4
:10194a0001f05ffa0b9b5b68db0503d56b68984275
:10195a0000da18000fb0f0bd01230893bae7069b1e
:10196a00079a13430ad1049a089b9b1a059a9b1853
:10197a00002b03dc002ad1ddbb07cfd50f23069a43
:10198a00013c134018005730092b01dc3033180092
:10199a000c9b413b192b06d820230343613b192b8f
:1019aa0001d802f016fc039b1855059b013b0593d1
:1019ba00079b1a07069b1b091a43079b06921b09da
:1019ca000793a9e70cce1343abd0039b0c9a1b19c0
:0e19da00013b1a703023039a023c1355a1e71b
:020000040000fa
:1019e800f0b5de4657464e464546e0b583b0019011
:1019f8008c4600296dd005000123374f374a9146a0
:101a08009346160092460de040003549009c0c5460
:101a1800013000240c5451468a605a1c0235634533
:101a280047d213005a1e9046796807220a40012ab5
:101a380017d0b068f468421c31698a4289410a406b
:101a4800944237d001990139cc5c00947968884672
:101a58000721444621400129d6d02149009c0c5435
:101a6800d9e74a469068d468421c494609698a42bf
:101a780089410a4094421dd0697809022c78214393
:101a880000917c68a046072441460c40012c06d0f2
:101a980069460978124c215459468a60bde74000ce
:101aa800694609780e4c215401300099090a2154dd
:101ab800f2e7984602f0b8f9002802d0064b012256
:101ac8009a75404603b0f0bcbb46b246a946a0464c
:101ad800f0bd8846eee7c046001c0042fc430020eb
:041ae800004000209a
:020000040000fa
:101aec00f0b5ce4600b584b00400009101921e0002
:101afc000025442730e032000099200001f032fa32
:101b0c00636a002b08d100280fd102f001fa0120e2
:101b1c0004b080bcb946f0bd2000243000f036fa89
:101b2c000028f2d002f0dcf9efe702f0d9f9ece78b
:101b3c0002f0eef90020ebe702a802f001fa18e03f
:101b4c000023e3551fe00022e25421e0200001f0c5
:101b5c001ff8fff761fd012502f0cef9a26be36bd4
:101b6c009a42c8d3022ec6d0019b002be0d0002d88
:101b7c00e2d002f0cdf902f0e5fa02f0bdf9e15d38
:101b8c0049b20131dcd04523e05c40b20130dad0ff
:101b9c0002f0bef901a902a801f024fb002817d11c
:101bac0002f0aaf9a36b9946e56b02f0b1f9a945cd
:101bbc00ccd101992000103002f05ef9200000f029
:101bcc00e7fffff729fd0028c5d102f089f9c2e72c
:0e1bdc00200000f0ddfffff71ffd002098e75e
:020000040000fa
:101bea00f0b5c64600b584b0040000910192002702
:101bfa0044260023984638e00099200002f099f81c
:101c0a006b1ea3632369002b06d102f082f901201f
:101c1a0004b080bcb846f0bd2000103000f0b7f91f
:101c2a000028f2d002f05df9efe702f072f9002025
:101c3a00eee702a802f085f921e04346a35528e021
:101c4a0045234246e25429e0200000f0a2fffff7b4
:101c5a00e4fc09e0200000f09cfffff7defc200016
:101c6a0002f015fa002835d1012702f046f9a56bd2
:101c7a00002dc1d1019b002bd7d0002fd9d002f063
:101c8a0048f902f060fa02f038f9a35d5bb2013359
:101c9a00d3d04523e35c5bb20133d1d002f039f9ea
:101caa0001a902a801f09ffa0028d3d1200002f06e
:101cba00eef90028c8d001992000243002f0ddf89e
:101cca00200000f066fffff7a8fc0028ccd102f044
:081cda0008f9c9e700209be7af
:020000040000fa
:021ce200fee71b
:020000040000fa
:101ce400f8b5de4657464e464546e0b5354d364bcb
:101cf4002f001e00354a01239b46324b9846b246bc
:101d04001e0016e0580030498c46095c8946ff21c4
:101d14008c4349460c4301306146085c0002e4b23e
:101d24000443013319e0ff2323401385337d002b43
:101d340021d1137e584603423ed0a868eb689842ee
:101d440037d05068072108400128dbd05046c05cda
:101d5400f8318c430443a4b201333869834280418f
:101d640003404046c360536807210b40012bdad17e
:101d7400164b1c85dae7564602f05af9114b1b68dc
:101d8400002bb7d00f4b59681b7f002b08d00d4b8d
:101d94009b699842aed30b4b1b6803209847a9e775
:101da400084b9b699842a5d1064b1b6803209847b2
:101db400a0e7064b01221a75f0bcbb46b246a94601
:101dc400a046f8bdfc43002000400020001c004257
:020000040000fa
:101dd400f8b5ce46474680b5334d2f00a846a946f0
:101de4005be04246126a002a42d0716a336a0120db
:101df4009847b36a0133326b93429241134037e000
:101e04004a46926a5200e0b2284988540132240ab0
:101e14008c543ce002f018f8234b1b6a002b3cd096
:101e2400214b596a3c229b5c002b08d01e4b9b6bb8
:101e3400984232d31c4b1b6a002098472de01a4b62
:101e44009b6b984229d1184b1b6a0020984724e0c9
:101e5400174b1b7e5b0722d5154b1c8da4b2ab6ab6
:101e640001332a6b934292411340fa6a9a42b8d0e2
:101e74000d4ad26a9a42ebd00d4a516807220a40b1
:101e8400012abdd0084a926ae4b208498c54064a31
:101e940093623423d35c002bbcd1034ed8e7c0bc7f
:101ea400b946b046f8bdc046fc430020c8420020f5
:041eb400001c0042cc
:020000040000fa
:101eb800f0b506000f0015001c0085b08b4263d8f2
:101ec80001d1824260d82100280002f077f8390059
:101ed8000090300002f072f8009b21001b1a1a00d3
:101ee8002800039302f05ef800900191b94245d8aa
:101ef80001d1b04242d8009b019c01200021039ae5
:101f0800f61aa74102f04ef804000d00039b002bbf
:101f18002bd0019b009adb0750081843019b5908f6
:101f2800039b9c46b9422cd801d1b04229d8320033
:101f38003b00121a8b41012692185b410027b61804
:101f48005f4101235b429c446346002bead1300089
:101f58003900039a02f01af8039aa4197d41060081
:101f68000f0002f01ff8241a8d410a9b002b01d0a4
:101f78001e605f602000290005b0f0bd0024002528
:0e1f8800c4e7b6197f41dce700240025ede731
:020000040000fa
:021f9600fee764
:020000040000fa
:101f980010b5c368db689a6ad869196a8160d8691c
:101fa8004860180018305168814240d00021996279
:101fb800116801391160274a1268002a3dd15a690f
:101fc8009868d9688160986848601c1d5168a1426a
:101fd80030d000215961116801391160d96a1e4a4f
:101fe8001268914201d91c4a11601c488a00521893
:101ff8009200821852689a609168d9604c60946027
:10200800dc6aa2001119890009185961111989009f
:102018000a5801320a50124a1168da6acb6a00205b
:102028009a4203d90f4b01221a60013010bd196a78
:102038005160bbe7d9685160cbe70b4a5168d96159
:102048008c681c62606088609a6211680131116056
:10205800e1e7c046104500203045002048430020f5
:0c20680048450020244500208044002052
:020000040000fa
:1020740010b52e4b1b68002b03d02d4b01221a6088
:1020840010bd2b4b00221a602a4b1a68116b1a6878
:102094001b6812681b6b9a4203d9274b0a689a4241
:1020a40033d0244b19681868343102f0c3f8234b39
:1020b4001b6823499a00d21892005258002a09d169
:1020c4009a00d21892001f495218013b143a5169e0
:1020d4000029fad01a489a00d118890041184c688e
:1020e40064684c60d218920008321218944216d0d8
:1020f400134a9900c918890052185268d1680d4ac8
:1021040011600e490b601368bae74a689a42c8d155
:102114008a689a42c5d1ca689a42c2d1c7e799006f
:10212400c91889004218d1685160e1e710450020c0
:102134002445002048450020a5a5a5a5304500203c
:08214400484300203443002051
:020000040000fa
:10214c0010b50400902911dc00207f2928dd80398e
:10215c000800102910d801f0cbff31313d0f110fc1
:10216c000f0f240f0f0f0f0f0f0f3d00c0294bd077
:10217c00f02949d0a02928d0002011e01968002aa4
:10218c0007d00a1d1a6000228b5e2360db17636088
:10219c0005e0081d18600b689bb22360626001208b
:1021ac0010bd1968002a04d00a1d1a600023cb56f2
:1021bc00ebe7081d18600b68dbb2eee71968002a24
:1021cc001ed00a1d1a600b68dfe71a68111d196012
:1021dc001368dae707201968002a09d00918814327
:1021ec000a0008321a600a684b6822606360d6e7fe
:1021fc00ca1d824311000831196053681268f4e754
:10220c00081d18600b68c8e71a68111d196013685f
:06221c0023600023bbe774
:020000040000fa
:10222200f0b40125ed070c005c402c40a446ae0a38
:102232004c18df18f4423dd2f74245d2640d4cd01f
:102242007f0d3cd0e41bc9022943cf0adb022b439a
:10225200db0a0600b61a9f4104d2013cb6197f413f
:10226200b6185f416812800d241838dd00188442c8
:1022720025d8e80c0021b6197f41b61a9f4103d335
:1022820040414941f7d304e0b6185f410018494183
:10229200f1d32405b6197f41b61a9f4105d33743be
:1022a200c20717430022012f504161416246114388
:1022b200f0bc70470cd100280ad1f74208d20020a6
:1022c200c143490d0905f1e7002a01d1f74206d0c1
:1022d2000020c143090dc904eae77f0df8d00020b0
:0422e2006146e5e785
:020000040000fa
:0222e600fee711
:020000040000fa
:1022e800f0b583b004000191264b1e68264b1f6889
:1022f800264b1d68264b1868043001f009fd631c45
:102308000dd03419224b1b685c60a6421ed9204ba5
:1023180019680431280001f0d5fb03b0f0bd019b1a
:10232800002b20d01b4a5168194b18688160186827
:102338008c68c4601868043060601868043088606d
:102348001b685a61136801331360e6e7104b19687c
:102358000431380001f0b6fb0f4b1b68a342dcd9ef
:102368000d4b1c60d9e7731e094a126853609e42e0
:10237800cdd8074b19680431380001f0a3fb064b90
:102388001b68cae73445002044450020404500202a
:0c23980048450020584400201845002053
:020000040000fa
:1023a4004b005b0d284af0b50d00591e0400914204
:1023b40039d8264a9e1825d420002900332e20dc43
:1023c400234a9b1826d4234ada4013002700214ac3
:1023d4009f43f24038002f00234097432a4039009e
:1023e40013430ed0002f0cda3400203c25d4802572
:1023f4006d03e5402a0080246403f4402300801820
:102404005941f0bd002d02db00200021f9e7002036
:102414001149f6e720230f4a9b1b9a4001235b4294
:10242400f3401343d2e720002900002be9d1002216
:10243400e90fcb0710001900e3e720248025a41b33
:102444006d03a5402a00d6e7fd07000001fcffff4d
:0c245400e1fbffffffff0f000000f0bfe6
:020000040000fa
:10246000f0b54b6889b004930b6805000c009c46de
:102470008e68cf68079310685168cb0f05930029c9
:1024800044da0b000200002150429941049b002bca
:1024900009db0222634693430793059b002b02d17d
:1024a000079b5a0723d5731e07aa02920a2200939c
:1024b00001920b000200200000f01ffd059b002b85
:1024c00019d02d2301383b542269079b013a121a77
:1024d000391800932800330000f098fc6b68db0586
:1024e00003d56368984200da180009b0f0bd1b07f5
:1024f000db0ff31ad8e7079b5a0702d52b230138c5
:10250000e1e71b07e0d520230138dce7049b002b23
:04251000bfdac5e782
:020000040000fa
:10251400f8b504000d00002850d0c36b0020002b38
:102524004dd00026190c226c100c00292fd181b239
:1025340000291ed10020002e41d101f0e1fc2268c7
:10254400216ce36b4b43d018a0600020a063626051
:102554005b1ad218e260ff234422a3540132a3542d
:10256400002d22d12369002b16d101f0d5fc0120c6
:1025740025e0011c181c9bb292b25a4380b28bb264
:102584004343120c9b181b0cd4d00126d2e780b213
:102594000028fad1101ceee720001030fff7fafcf7
:1025a4000028e2d001f0a0fcdfe72000103001f0a9
:1025b40013fd2000243001f00ffdd6e70020f8bd04
:020000040000fa
:1025c40070b5041e4ad0c26a254b1b68db6a9a4266
:1025d4003cd28369002b05db214b1b68d96a052398
:1025e4005b1a836193009b189b001e4a9b186269c7
:1025f4009a4205d01a4b1b68db6ae36201202ce087
:10260400251d280001f086fb154b1b68da6ae2627f
:10261400154b1b689a4201d9134b1a601149930058
:102624009b189b00cb185b68a3609a68e2605560b6
:102634009d60e06a83001a189200521862611a18a9
:102644009200535801335350012006e0044b1b6899
:10265400406cdb6a98428041404270bd0020fce738
:0c2664004845002048430020304500207d
:020000040000fa
:10267000002941d010b404004c40a446012300229c
:10268000002900d54942002800d5404288422cd379
:1026900001242407a14204d2814202d209011b0174
:1026a000f8e7e400a14204d2814202d249005b0073
:1026b000f8e7884201d3401a1a434c08a04202d3db
:1026c000001b5c0822438c08a04202d3001b9c081c
:1026d0002243cc08a04202d3001bdc08224300287e
:1026e00003d01b0901d00909e3e710006446002c60
:1026f00000d5404210bc704701b5002001f0a4fd98
:1027000002bdc0460029f7d003b5fff7b3ff0ebcea
:082710004243891a1847c04634
:020000040000fa
:1027180010b5031f802464041c60043b1960043b4b
:1027280016491960043b16491960043b154919609c
:10273800043b15491960043b14491960043b1a60ad
:10274800043b134a1a60043b124a1a60043b124abb
:102758001a60043b114a1a60043b114a1a60043b90
:10276800104a1a60043b104a1a60043b0f4a1a6068
:10277800443803235b42036010bdc046114100008a
:1027880012121212030303030202020201010101e1
:102798001111111110101010090909090808080869
:1027a80007070707060606060505050504040404c9
:020000040000fa
:1027b8000d52656365697665642076616c75652080
:1027c8006973203a256420616e64207461736b20fc
:1027d80069642069732025640a0000005461736be2
:1027e8004c65644d67720000000000005461736b13
:1027f80053656375726974794d6772006c656451cd
:1028080000000000736563510000000049444c4516
:10281800000000000d0a204c6564206d6772206975
:102828006e69742066756e6374696f6e0a000000c5
:102838000d0a205365637572697479206d6772207b
:0f284800696e69742066756e6374696f6e0a003d
:020000040000fa
:10285800f0b5d6464f464646c0b582461e4ad36aac
:10286800956a002933d0ab4234d0040001201b4aba
:1028780094469046184f13e05a006646b65c267098
:1028880001326646b25c627001333a6b9342924100
:102898001340814213d9421c0234ab4210d01000bd
:1028a8000f4a566807223240012ae5d04246d25cd8
:1028b80091465246013a4e4616540133e5e71d004b
:1028c800054bdd62e0bcba46b146a846f0bd1d0026
:1028d8000800f5e70020f3e7fc430020c842002089
:0428e800001c00428e
:020000040000fa
:1028ec0070b5040007231a000240034205d0130000
:1028fc00093b834229d30834a41a01f023fc194b59
:10290c001b68002b0ed0002c25d0174b1b68e24304
:10291c009a420dd31c19154a94420cd9fef77cfe31
:10292c001be000240f4a124b07218b431360eae78c
:10293c00fef772fe11e00b4a1568ed180a4b1c608d
:10294c00fef76afe002d0bd107e001f0fbfb054bf7
:10295c001b68002be5d0fef75ffe01f069fc00253b
:10296c00280070bd084500200c450020f73f0000f2
:04297c000700002030
:020000040000fa
:102980001b4b00229a619a8c80218a439a841900f9
:102990001022cb681a42fcd0164b1b689b0e3f2bb3
:1029a00024d09b02802292001343114a93621100ab
:1029b0001022cb681a42fcd00d4b02229a841900d7
:1029c0000e32cb681a42fcd00b4b0c4a5a601a00ec
:1029d00053785bb2002bfbdb074b094a5a80094b4b
:1029e000094a1a62024b00221a627047203bd8e75c
:1029f0000008004024608000000c00400007010037
:0c2a0000194000000004004080000100ac
:020000040000fa
:102a0c001e4b1f4a1a60d22252429a81c022920255
:102a1c005a601a00d369002bfcd1184a13680221a2
:102a2c000b431360d369002bfcd1164b00221a62a6
:102a3c009a62da6234215a5408315a549a6300214a
:102a4c00da871a609a60da60197519779a610b4bfc
:102a5c005a6807231340012b0ad00a4b80221a63b1
:102a6c0092001a61054b80229a757c3a9a757047d0
:102a7c00044b40221a6392001a61f3e7001c0042d7
:082a8c0004011040fc4300208e
:020000040000fa
:102a940070b5041e09d0436c8b4200d20b00e26a6d
:102aa4009a4202d0a16c012900d070bde362a169f1
:102ab400002902db0521cb1aa36193009b189b001c
:102ac400134a9b1862699a42efd1251d280001f030
:102ad40021f9e26a0f4b1b689a4201d90d4b1a6027
:102ae4000b4993009b189b00cb185b68a3609a6802
:102af400e26055609d60e06a83001a1892005218e3
:102b040062611a189200535801335350cde7c046fe
:082b1400484300203045002079
:020000040000fa
:102b1c0000b587b00023029303930493059301330c
:102b2c001448c25c69460731ca5419000133002aa3
:102b3c00f7d102ab5b18013b1a700f480f4b019396
:102b4c0000920023803202a9fef7f8fa012803d084
:102b5c000b4b1b6807b000bd72b60a4b01225242e8
:102b6c001a60094b02321a60084b00221a6000f0fe
:102b7c0053fdede713280000353f000014450020fd
:102b8c0040420000184500202c4500203445002010
:020000040000fa
:102b9c0070b5050001f0b0f94523ec5c64b2002c73
:102bac0011dd2e00243603e0013c64b2002c0ad067
:102bbc006b6a002b07d03000fff7e8f90028f3d040
:102bcc0001f01afbf0e74523ff22ea5401f0a0f9cb
:102bdc0001f092f94423ec5c64b2002c11dd2e0060
:102bec00103603e0013c64b2002c0ad02b69002b98
:102bfc0007d03000fff7caf90028f3d001f0fcfa37
:0e2c0c00f0e74423ff22ea5401f082f970bd84
:020000040000fa
:022c1a00704701
:020000040000fa
:102c1c00f0b5ce46474680b587b0194c194b98464f
:102c2c0000270026184b9946237803ad2b806b8028
:102c3c000223ab80ee800596124bdb68db1998689b
:102c4c003200102100f060f8434601c3984633006f
:102c5c0064222900fef744ff228961680196e3682b
:102c6c00009323004846fef769fa14340c37242fde
:102c7c00dad1fff74dff07b0c0bcb946b046f0bd86
:0c2c8c00604500209c45002095310000b0
:020000040000fa
:102c980070b5041e31d0836c013b8364c16a426cf9
:102ca80091422cd00020002b00d070bd251d28009b
:102cb80001f02ef8626ce26205239b1aa361114ba6
:102cc8001b689a4201d90f4b1a600f4993009b1851
:102cd8009b00cb185b68a3609a68e26055609d60b2
:102ce800e06a83001a189200521862611a1892005a
:102cf8005358013353500120d7e70020d5e700206f
:0c2d0800d3e7c0463045002048430020bf
:020000040000fa
:102d140070b504000d00002833d00021030c2a0ce8
:102d2400002b29d193b2002b18d100292cd12800d3
:102d3400604300260300493324d84830fff7d4fd0c
:102d4400061e1fd00300002d00d048333360f46307
:102d5400356401213000fff7dbfb13e0131c261c54
:102d6400a0b2aab24243b6b29bb27343120c9b18f0
:102d74001b0cdad00121d8e792b2002afad12e1c1a
:0c2d8400eee70026300070bd0026fbe7e3
:020000040000fa
:102d9000f7b51d4f03003c68201e0dd00022210016
:102da000100001920d68ac460d699c4509d1002abe
:102db00005d0156110310800febd2900f2e73d6025
:102dc000f8e79c4506d9002802d00668b44501d230
:102dd000080001920a00002defd10028ecd0050078
:102de00002680169d21a1035102a05d90360eb1860
:102df00019611900103a1a60844202d13960280022
:0c2e0000dae7019b1961fae75045002059
:020000040000fa
:102e0c00f0b589b014000e9a1d0002910123110037
:102e1c001940019003911a4201d1a5420ad822000f
:102e2c000299019800f0d4fea54203d82500280091
:102e3c0009b0f0bd2e1b37003200102e00d9102225
:102e4c00202104a801f040f90f2f0ed80f22019871
:102e5c00324004a900f0bcfe039b002be7d12200fa
:102e6c000299019800f0b4fee1e71022019804a940
:082e7c0000f0aefe103fe7e795
:020000040000fa
:102e840010b50400902911dc00207f291bdd803956
:102e9400080010290ed801f02ff90f0f250d170d7a
:102ea4000d0d1e0d0d0d0d0d0d0d2500a02903d0ca
:102eb400c02901d0002006e01968081d18600b68bd
:102ec40023601a60012010bd1968081d18600b6882
:102ed40023601a80f6e71968081d18600b682360e0
:102ee4001a70efe71968081d18600b6823601a60f0
:062ef400d2175a60e6e768
:020000040000fa
:102efa00f7b5040019000a9ee3686768009333680f
:102f0a00100001932369013b1c00002f00da0127fe
:102f1a000022009dea540123089d002c03dc002bab
:102f2a001cd02000febd02000a4309d1089aba1a31
:102f3a005219002a04dc002df1dd019a9207eed520
:102f4a00099b099adb1700f02efc8c4600991300a6
:102f5a00013c30320a55013d6146dee710223368f2
:062f6a0093433360dde734
:020000040000fa
:102f700070b504001600856b026c002a0cd1036842
:102f80000020002b02d00135a56370bda068fff7bb
:102f900083fe0023a360f6e7002e0dd1406801f008
:102fa0008ff86368226c9b186360a26830009342bc
:102fb000e9d323686360e6e7c06801f081f8226c1a
:102fc0005142e3689b1ae3602268934202d2a368ed
:102fd0005b18e3600020022ed5d1002dd3d0013d37
:022fe000d1e737
:020000040000fa
:022fe200704736
:020000040000fa
:102fe40070b505000c00174b1b78002b0bd0002d7f
:102ff40021d1002c22d0144b1b785bb2002b0bd0b8
:103004000120404270bd114800f038fe01280fd164
:103014000c4b01221a70eae7a0680b4b98606268b7
:103024005a60022119702168536898470020e9e723
:1030340001204042e6e701204042e3e7012040420c
:10304400e0e7c0465d450020c8440020fc44002061
:020000040000fa
:10305400f0b50c004968236887b00600a768e568e6
:103064000593002902db02218b43059305a95368cc
:10307400126802910821200001910097fff73bff9d
:10308400059bdb0602d5302301382b54059b1b0717
:1030940002d5202301382b542269059b013a121ac8
:1030a4002918009330003b00fff7aefe7368db0580
:0e30b40003d56368984200da180007b0f0bd3b
:020000040000fa
:0230c200704755
:020000040000fa
:1030c4000eb400b582b000280fd1154b1b785bb24b
:1030d400002b0ad0124b5b68002b06d0012111484b
:1030e400494200f04dfe002803d102b008bc03b0f1
:1030f400184704ab01930c48039ac82100f016f852
:103104000200431ec62b07d8074900230b54044b67
:1031140098685b685b699847024800f072fde4e7d1
:0c312400c8440020fc44002000420020b1
:020000040000fa
:10313000f0b59bb004000d00160000214c2207a83a
:103140001f0000f0c7ff01235b4202930433ff33eb
:103150000393002c00d101ac0023049405959d42fb
:1031600000d06b1e0693002d06da4f220120084b7b
:1031700040421a601bb0f0bd002d01d00023237027
:103180003a00310002a80894079400f0f7fef1e736
:043190005445002082
:020000040000fa
:10319400f8b50578124e134f02e0200000f0e6fa6d
:1031a400102000f051f80400022df6d8ab00985915
:1031b40064222100fef717fd0128eed1a2882b001e
:1031c40039000020fff77cff074baa005219920038
:1031d4009b181b69002be0d020009847dde7c04610
:0c31e4009c450020b8270000604500203a
:020000040000fa
:1031f00070b505000c0000f085fe124b1a682368bc
:10320000591c1ad06968104800682e68864205d09b
:10321000914203d80023236001240fe0501a834217
:1032200003d800232360012408e09b1a5b18236065
:10323000280000f08bfe002400e0002400f06efe69
:0c324000200070bd344500202045002017
:020000040000fa
:10324c0037b5144d04002b68002b0fd000f0bafddd
:10325c00019001a800f0c7fe0f230f30019998438d
:10326c0000f018fe00280bd000232b60002c00d19e
:10327c0001340f230f349c4304d10c22064b1a60eb
:10328c0000203ebd2000fff77dfd0028f9d0031f74
:0c329c001c60f6e7b045002054450020ff
:020000040000fa
:1032a80000230e4a10b513600d4a13600d4a1360cf
:1032b8000d4a13600d4a13600d4a536213610133be
:1032c800936000f072f800f070f80a4c0a4b9c42c8
:1032d80000d310bd08cc9847f8e7c04658450020f1
:1032e800b8430020b4430020ac430020b043002082
:0c32f800bc430020bc000000c00000002f
:020000040000fa
:1033040010b5144b9b7d002b16d0124a137edbb2f2
:10331400927d52b2002a10db0e4a137edbb2927dfc
:10332400d20701d5db070ed40a4a137edbb2927da5
:10333400520701d55b0709d410bd5bb2002bebda51
:1033440000f060f8e8e7fef7cbfcede7fef740fda0
:08335400f2e7c046001c004234
:020000040000fa
:10335c00f0b50c004968236887b00500a768e668db
:10336c000593002902db02218b43059305a95368c1
:10337c00126802910a21200001910097fff7b7fd16
:10338c002269059b013a121a3118009328003b0060
:10339c00fff736fd6b68db0503d56368984200daee
:0633ac00180007b0f0bd9f
:020000040000fa
:0233b200704762
:020000040000fa
:1033b40010b50f4b06225a6000f07efdfff7defacf
:1033c40000f0b6fefff720fb0a4800f06bfa0a4c47
:1033d40020600a490020fff703fe606008490020ce
:1033e40000f040fda06000f011ff00f0b3fb10bd41
:1033f4000040004134420000d4440020f841000061
:04340400ec41000097
:020000040000fa
:1034080010b5114b5a8b0723110019401a4200d1ed
:1034180010bd0e4bd9870c4b80221a76793a5a8305
:103428001b7e5b0705d5084b04211a8d1a7e0a42bc
:10343800fbd1064b1b6a002bead0044b596a1b6a66
:1034480002209847e4e7c046001c0042fc430020e5
:020000040000fa
:10345800f8b5104b1b68002b1ad00f4f0f4e0d4daf
:1034680000f04cfdfb68dc68201d00f051fc33685f
:10347800013b33602b68013b2b6000f04bfd206b58
:10348800fff7abfd2000fff7a8fd2b68002be7d165
:10349800f8bdc0463c4500206c440020384500205b
:020000040000fa
:1034a800f0b50e0087b0039015001049072204a854
:1034b8001c0000f001feb368776802933668002d9f
:1034c80000d104ad002c03d1280000f047fd040012
:1034d800002f02dbbc4200d93c0022002900029bdd
:1034e80003980096fff78efc07b0f0bd083e000079
:020000040000fa
:1034f80070b5104d04002b68002b0cd0002c12da8c
:103508000d4a2b6812689b1a6242934208db2868ae
:1035180004192c6006e000f0bbfa2b68002bedd1f3
:103528000120404270bd054b2a681b689b1aa342c4
:10353800eddaf5e7e0440020e8440020e444002008
:020000040000fa
:1035480010b5064c2378002b07d1054b002b02d071
:10355800044800e000bf0123237010bd3c44002054
:103568000000000000000000044b10b5002b03d041
:103578000349044800e000bf10bdc0460000000039
:08358800404400200000000097
:020000040000fa
:1035900010b50a4b98470a4b984700f011fa094baf
:1035a000ff229343084a9360084b9847084b98477b
:1035b000084b984700f004fefee7c0461b2c0000b5
:1035c0001b2c00000000000000ed00e0a93200000c
:0835d0001b2c00001b2c000065
:020000040000fa
:0835d80010b500f029fc10bd44
:020000040000fa
:1035e000eff309800e4a1168243808607346f8c06a
:1035f00044464d4656465f46f0c072b6fef73afd69
:1036000062b6074a116808681430f0c8a046a94697
:10361000b246bb4680f309882438f8c81847c0462c
:0436200048450020f9
:020000040000fa
:1036240010b50d4b1968ff2212040a431a60196879
:10363400ff2212060a431a600024084b1c6000f0a3
:1036440009fb074b1c6000f079fdfef711fd00f04b
:103654005dfd002010bdc04620ed00e01ced00e043
:04366400ac45002051
:020000040000fa
:10366800030010b51a78202a0ad011000939042954
:1036780006d92b2a06d000212d2a05d1012102e0e6
:103688000133efe70021013300200a2402e0604300
:103698000133801a1a78303a092af8d9002900d15a
:0436a800404210bdcf
:020000040000fa
:1036ac0030b401256d054c00e54215d85c00e542af
:1036bc0012d80c001c436400044314430fd005d2f1
:1036cc0082428b418041013030bc7047904299411d
:1036dc008041013030bc7047002030bc7047012065
:0436ec0030bc704737
:020000040000fa
:1036f00070b50e001500002811d10c4800f0aefc8a
:1037000000280fd0094c23681b6829003000984717
:1037100005002000083000f076fa280070bd012571
:103720006d42fae701256d42f7e7c046bc44002030
:020000040000fa
:1037300070b50e001500002811d10c4800f08efc69
:1037400000280fd0094c2368db6829003000984717
:1037500005002000083000f056fa280070bd012551
:103760006d42fae701256d42f7e7c046bc440020f0
:020000040000fa
:1037700030b5002817d002000c4c103a21680029ff
:1037800012d015680b684019814206d109691033bf
:103790005b1911611360226005e01033c818824282
:1037a00002d1ed180d6030bd1161f4e750450020e5
:020000040000fa
:1037b000002b11d1002a0fd1002900d1002802d0fe
:1037c0000021c943080007b4024802a14018029032
:1037d00003bdc046750a000003b4684601b50298ef
:1037e000fef76afb019b9e4602b00cbc7047c046c8
:020000040000fa
:1037f00030b401256d054c00e54215d85c00e5426a
:1038000012d80c001c436400044314430cd005d2ae
:1038100082428b418041404230bc70479042994186
:0e3820008041404230bc7047002030bc7047f1
:020000040000fa
:10382e0030b401256d054c00e54215d85c00e5422b
:10383e0012d80c001c436400044314430cd005d270
:10384e00904299418041404230bc704782428b4148
:0e385e008041404230bc7047002030bc7047b3
:020000040000fa
:10386c001c2101231b04984201d3000c10391b0aa4
:10387c00984201d3000a08391b09984201d3000968
:10388c00043902a2105c40187047c04604030202bf
:0c389c000101010100000000000000001c
:020000040000fa
:1038a80070b5041e0fd0094d04220100280000f055
:1038b80003fc074b00221a605a6063886b80054b33
:1038c8001a60012070bd0020fce7c046f8440020c3
:0838d800ec440020f444002040
:020000040000fa
:1038e00070b500280fd10b4800f0b8fb00280dd0b0
:1038f000084c23681b69984705002000083000f039
:1039000082f9280070bd01256d42fae701256d425c
:08391000f7e7c046bc440020ab
:020000040000fa
:1039180070b500280fd10b4800f09cfb00280dd093
:10392800084c23685b69984705002000083000f0c0
:1039380066f9280070bd01256d42fae701256d4240
:08394800f7e7c046bc44002073
:020000040000fa
:1039500070b500280fd10b4800f080fb00280dd077
:10396000084c23689b68984705002000083000f049
:103970004af9280070bd01256d42fae701256d4224
:08398000f7e7c046bc4400203b
:020000040000fa
:1039880070b500280fd10b4800f064fb00280dd05b
:10399800084c23685b68984705002000083000f051
:1039a8002ef9280070bd01256d42fae701256d4208
:0839b800f7e7c046bc44002003
:020000040000fa
:1039c00010b50b480168002905d14368002b02d1ce
:1039d000fff777fb10bd04008368064a9bb20c34e6
:1039e0009b009b5842682000984780002018e9e718
:0839f000900d0000ac40000046
:020000040000fa
:1039f80010b50400812906dc00207f2912dd136838
:103a08000721073305e0002083290bd113687c398f
:103a180007338b4319000120083111601a685b686d
:063a28002260636010bd86
:020000040000fa
:103a30000200002070b50a4b4400e55c002d02d165
:103a40001b19587870bd116801300e78c0b2ae42b3
:103a500003d11b190131587811600a28ebd9f1e71d
:043a6000084000001a
:020000040000fa
:103a6400f4464a1805d200f05ff801d5c0174008a3
:103a7400604701235b05d34206d200f055f801d517
:103a84000120c0074042604701d10042f5d0d01761
:043a9400400870472f
:020000040000fa
:103a9800074a1368002b01d1064b1360064b1968bf
:103aa800002901d105491960054b12681a60704751
:103ab800e8440020b8450020e4440020b84900202c
:043ac800e0440020b6
:020000040000fa
:103acc0030b50d68030008336a1c0ed01c005b680f
:103adc001a68aa42fad963684b6099608c6061607d
:0e3aec00086103680133036030bd0469f3e72d
:020000040000fa
:103afa0070b4012676054c005d00e6420cd8ee4211
:103b0a000ad825430543154303d0994204d190426c
:0e3b1a0002d1012070bc7047002070bc7047c3
:020000040000fa
:103b28004a0010d2520d03231b02ff33d21a0ad4c3
:103b380052421f3209d4400dc90208430123db0752
:0e3b48001843d040704700207047d0177047d8
:020000040000fa
:103b5800bff35f8f62b6074bc32080001958064a2f
:103b68001140c02212040a431a508022d2011a605e
:0c3b78007047c04600e100e0ffff00ffc6
:020000040000fa
:103b840000030000313c0000f136000089390000d8
:103b94005139000031370000e138000019390000c4
:0c3ba4002316000049400000ad3d000069
:020000040000fa
:103bb000084b1b681b68002b04d1074b01225242a3
:103bc0001a607047034b1b68db681a68024b1a6067
:0c3bd000f7e7c0464445002018450020df
:020000040000fa
:103bdc0070b505690400954200d91500002d0bd075
:103bec002a00606900f066fa22696369521b22613f
:0a3bfc0000225b1963611a7070bdae
:020000040000fa
:103c060010b500280cd0006800280bd00023002235
:103c16000021fdf768ff01384342584140b210bd0c
:083c26000020fce70020fae792
:020000040000fa
:103c300010b50c00002800d010bd054800f020f899
:103c40000128f9d12268034b1a6001221a71f3e7a7
:083c5000c4440020bc44002024
:020000040000fa
:103c5800054b04221a60054a00211160044a0549ef
:103c6800116007221a60704710e000e018e000e0d9
:083c780014e000e07fbb000036
:020000040000fa
:103c800010b5041e0cd003680020002b00d010bd1e
:103c9000013000f065f82060431e984140b2f6e71d
:043ca0000020f4e725
:020000040000fa
:103ca40000000000042800000a00000001000000d9
:103cb4000c2800000a000000010000000c2800008d
:043cc4000a000000f2
:020000040000fa
:083cc800eff3108072b67047a3
:020000040000fa
:103cd000074a1168086804c8022181f3148820305b
:103ce00080f30988bff36f8f1047c046c046c046b7
:043cf0004845002023
:020000040000fa
:103cf40010b5fff7e7ff0400fdf7fefa002803d034
:103d0400034b802252051a60200000f04af810bdcf
:043d140004ed00e0da
:020000040000fa
:103d18000369416882688a60416851605a688242d2
:103d280005d000220261186801381860704782685f
:043d38005a60f6e7f0
:020000040000fa
:103d3c0010b5030008001a6c002a0ad0dc68a4181d
:103d4c00dc6099688c4201d31968d960d96800f09d
:043d5c00b1f910bdec
:020000040000fa
:103d600010b5020000210120fef7d4ff041e07d089
:103d7000002383600360c36000220021fdf7b6fecc
:043d8000200010bd52
:020000040000fa
:103d840010b5002809d00068002808d0fdf7f4fc1d
:103d940001384342584140b210bd0020fce70020e6
:023da400fae73c
:020000040000fa
:063da60080f31088704755
:020000040000fa
:043dac00012070473b
:020000040000fa
:103db00004207146084202d0eff3098058e1eff386
:103dc000088055e1c046c046c046c046c046c04611
:020000040000fa
:103dd00010b5054c2368002b01d1fff75dfe034ba6
:103de00018682368c01a10bde0440020e444002095
:020000040000fa
:103df000286e696c29002500494e4600696e6600f0
:0f3e00004e414e006e616e00286e756c6c29008d
:020000040000fa
:103e1000002310b5934206d103201840421e904162
:0e3e20009b08c01810bdc45ccc540133f2e7ff
:020000040000fa
:103e3000054a9368d068834201d3181a7047024a32
:0c3e40001269d318181af9e7fc4300209f
:020000040000fa
:103e4c00054bd86a9b6a984201d8181a7047024ae7
:0c3e5c00126bd318181af9e7fc43002081
:020000040000fa
:103e6800044b4a681a60044b0a895a8002221a7065
:0c3e780000207047004500200445002099
:020000040000fa
:103e840010b50c00044b19681831fff71dfe012111
:0c3e94002000fef727fa10bd4845002072
:020000040000fa
:103ea00003000020044a10b51468844203d1136053
:0c3eb00018611960013010bd5045002061
:020000040000fa
:103ebc00044b0122c2215a5401315a54b032903968
:083ecc009954704700440041c5
:020000040000fa
:103ed400592800004d3e000021400000e91900006f
:083ee400d93500003540000053
:020000040000fa
:103eec00044b802252051a60bff34f8fbff36f8fc4
:083efc007047c04604ed00e030
:020000040000fa
:103f040072b6044a136801331360bff34f8fbff3d3
:083f14006f8f7047ac450020df
:020000040000fa
:103f1c00044b1a68013a1a601b68002b00d162b678
:083f2c007047c046ac450020bf
:020000040000fa
:103f340010b5044cfff78efa2368012bfad9fff76a
:083f4400d3fff7e7484300201a
:020000040000fa
:103f4c00034b1b680360034b1b6843607047c04600
:083f5c0020450020344500203f
:020000040000fa
:103f64000378002b06d003005a780133002afbd1d2
:083f7400181a70470020fce759
:020000040000fa
:103f7c0013b50400019201aafcf774fd6368db061b
:083f8c0001d50120404216bde1
:020000040000fa
:103f9400d0400b00d1409c46203ad34018435242b3
:083fa400634693401843704787
:020000040000fa
:103fac009140030090409c46203a93401943524262
:083fbc006346d340194370472e
:020000040000fa
:103fc40010b5002903d1fff74ffc203002e00800b0
:083fd400fff74afc10bdc046d6
:020000040000fa
:103fdc00030008334360012252428260c3600361d4
:063fec0000230360704792
:020000040000fa
:103ff200006810b5002801da002010bdfff77bfa37
:06400200431cfad1f8e7af
:020000040000fa
:1040080068076c094c836a9074a07ac0008068883d
:0640180000846c820081af
:020000040000fa
:1040200010b5034b1c6bfff711ff013c201a10bdac
:04403000fc4300202d
:020000040000fa
:1040340010b5034b1c69fff7f9fe013c201a10bdb3
:04404400fc43002019
:020000040000fa
:10404800002802d1024b187970470320fce7c046cc
:04405800bc44002044
:020000040000fa
:10405c0010b5012108304942fff78efe431e9841ee
:04406c00c0b210bd11
:020000040000fa
:1040700010b58369023b1b78642b00d010bdfff79d
:0440800027fefbe735
:020000040000fa
:10408400034b1868002802d0836c013383647047a3
:04409400484500207b
:020000040000fa
:1040980010b50400fff732ffa46bfff73bff604247
:0440a800604110bda6
:020000040000fa
:1040ac0023410000113e0000454200004542000043
:0440bc004542000079
:020000040000fa
:1040c00010b5002a05d00023cc5cc45401339342c0
:0440d000fad110bd54
:020000040000fa
:1040d400002a06d00300c9b21218197001339342a2
:0440e400fbd1704755
:020000040000fa
:1040e80003000a7818001a7001310133002af8d148
:0440f8007047c04607
:020000040000fa
:1040fc0002b4714649084900095c49008e4402bc6f
:04410c007047c046f2
:020000040000fa
:1041100082b00023019372b6019b002bfcd002b049
:024120007047e6
:020000040000fa
:104122008a18914201d10020704700230b7001319f
:02413200f7e7ad
:020000040000fa
:0c413400014b82225a607047004000419d
:020000040000fa
:1041400062b6bff34f8fbff36f8f64dfc046c046c8
:020000040000fa
:10415000024a1368013313607047c04610450020bf
:020000040000fa
:1041600010b502490020fef7adff10bd1c2800006d
:020000040000fa
:1041700010b58388022b00d010bdfff7f1fffbe7dd
:020000040000fa
:1041800010b502490020fef79dff10bd3828000041
:020000040000fa
:1041900010b58388022b00d010bdfff7f1fffbe7bd
:020000040000fa
:1041a00010b5fdf795f9029a039bfcf7e9fe10bde7
:020000040000fa
:1041b000f0b40125ed076b40004c2047870f00004d
:020000040000fa
:0e41c00010b50020fff7f6f8fef728fdfee729
:020000040000fa
:0e41ce000300413b192b01d8202318437047f2
:020000040000fa
:0e41dc000300613b192b01d85f231840704788
:020000040000fa
:0c41ec00000000000400000000000000c3
:020000040000fa
:0c41f80030420000843b0000000000008a
:020000040000fa
:0c420400014b01221a6070472445002085
:020000040000fa
:0c421000014b00221a7070475c45002032
:020000040000fa
:0c421c0010b50400fff762ff200010bd89
:020000040000fa
:0642280000230361704752
:020000040000fa
:04423000d43e000078
:020000040000fa
:044234000000000086
:020000040000fa
:0442380072b6fee775
:020000040000fa
:04423c0072b6fee771
:020000040000fa
:044240000400000076
:020000040000fa
:04424400002070479f
:020000040000fa
:044248007047c046b5
:020000040000fa
:0200000400807a
:0440000077c700d8a6
:020000040000fa
:0200000400807a
:044004005c00ffff5e
:00000001FF
