:020000040000fa
:10000000f07f0020813f0000f7260000472a000013
:1000100000000000000000000000000000000000e0
:100020000000000000000000000000002149000066
:100030000000000000000000d13f00004548000023
:100040004324000043240000432400004324000014
:100050004324000043240000432400004324000004
:1000600043240000432400004324000043240000f4
:100070004324000043240000113c000043240000fe
:1000800043240000432400004324000043240000d4
:100090004324000000000000000000004324000092
:1000a00043240000432400004324000043240000b4
:020000040000fa
:1000b000f8b5c046f8bc08bc9e467047193f000022
:1000c000f8b5c046f8bc08bc9e467047f13e00003b
:020000040000fa
:0800d0004825000001000000ba
:020000040000fa
:1000d800f0b59db012930b6814900b934b68119177
:1000e80004938b680d930b691593cb680893136879
:1000f800546806930794069807990022002304f091
:100108006af800280dd10b9b5b073ed408230b9a95
:100118001a400c920d9a09920b9a1a4213d018336e
:100128000ae080200006844606990a00079961447f
:100138000b00069207932d23089a13700d9b013b21
:10014800099301230c93079b06995b00c74a5b0838
:1001580000291cd193421ad1089a129b94460c98f4
:10016800413bc3496044192b00d9c24904f084febd
:10017800089804f0fdfc0b9b0200009308990d9b66
:10018800149803f089fa1db0f0bd2b23d4e79342ed
:1001980002d80cd100290ad0089a129b94460c98d0
:1001a800413bb5496044192be0d9b449dee7002248
:1001b80006980799002304f018fa0026b04f002883
:1001c80000d120e100230393129804f023fec3b268
:1001d8001093049b002b00daebe1109b0a93672b2a
:1001e80012d1049b002b01d10133049365230a9398
:1001f800039b04331ddb039b049a934219da66239d
:100208000a93039b002b14da049b013304930a9b83
:10021800662b0ed1039b002b03da00230026984f90
:100228000393109b672b04d0039a049b9446634462
:100238000493069a079b0e920f93002334003d0007
:10024800139322000e980f992b0002f096fb02f0f0
:1002580055fc8022120694460e9b1690179118930f
:100268000f9b63441993189a199b009201932200db
:100278002b0004f0b1fd80231b06cb1800222900b7
:100288000e900f9320007f4b02f077fb139b040026
:1002980001331393139a049b0d009342d1d100228a
:1002a800794b01f093fc0e9a0f9b04000d0003f0ac
:1002b80073ff002800d0d5e00e9a0f9b200029007c
:1002c80004f093f9002806d01698179904f044f919
:1002d800c00700d4c6e00698079922002b0001f059
:1002e800fdf8002206900791664b3000390001f0b6
:1002f8006dfc069a079b0e900f9103f0cbfe002829
:1003080000d1c7e0039b013303930a9b662b00d0ff
:10031800c2e0049b039d0133049300263700049b2d
:100328000c9ceb1a1693169b9d4200d0dee0002f22
:1003380000d11de10026089b1f190a9b3e70652b02
:100348002dd1159b5d1e089b5e55039bb34202dab7
:100358005b4203930136039b002b00d011e1159bf0
:10036800eb1a0333002b00dd0be12b236a1e002e52
:1003780000d002330899023d8b54129b413b192b44
:1003880001d845230a93089b59190a9b0b70ac4264
:1003980002da380004f070fd099b023b099303233d
:1003a8000b9a1340022b00d0e2e6099b002b00dcdd
:1003b800dee6089804f0dcfb0c9b834200dcf1e0ed
:1003c8001800089b30219c46099a604404f0a6fc5a
:1003d80000230d93cce626002f00039b01330393e3
:1003e8000022284b3000390001f0f0fb04000d001a
:1003f80002000b000698079903f0edfe0028ead0ea
:100408000024012523e00390eae7204b039a9a424f
:1004180012da002c10d10698079900221c4b01f023
:10042800d5fb002206900791194b3000390001f0e6
:10043800cdfb2c0006000f0030003900114b0022c4
:1004480002f09bfa06000f00039b013b0393320066
:10045800069807993b0003f0befe0028d5d1b3e605
:100468000623c2e60024002535e7c0460000f07fd9
:10047800684900006c490000704900007449000098
:100488000000f03f0000244000001440d4feffffad
:10049800000050430e960f970a9d653d6b1e9d41c7
:1004a800039b6d421d4038e7002f0ad1002d08da62
:1004b8002e23089a139901345354099b0137013ba1
:1004c8000993321923009446302102e0089ad15446
:1004d80001336345fad1099a3419961b089a3030ca
:1004e800d054731e01340026099320e0119b139405
:1004f8001b69053ba34200d819e70e9a0f9b069883
:10050800079902f03afa02f0f9fa0490059104f01a
:1005180023f8092800dd092010230b9a1340034310
:10052800c2d1109b672bbfd1002dbdda01368022c6
:100538000e980f9912069446069b013d1a93079b45
:1005480063441b931a9a1b9b00920193049a059b80
:1005580004f042fc80231b06cb18069007930e98e4
:100568000f990022174b02f008fa0e900f91dae665
:100578000b9bdb0600d4dde62e23089a13550134c5
:10058800d8e603980a2102f0c3fc089b3031013dec
:10059800595503980a2102f071fc099b0390013b0d
:1005a8000993d8e6089b09991a5c5b181a54013814
:1005b80002e7109b672b00d152e70a9306230493a6
:0805c80022e6c04600002440b9
:020000040000fa
:1005d000f0b599b012930b68cf680a934b681690e8
:1005e0000e938b680b930b691193136854680693f1
:1005f0000794069807990022002303f0f0fd0028d5
:100600000ed10a9b5b072ed408230a9a0a991a4036
:1006100005920b9a194213d018333b7013000ce06b
:1006200080200006844606990a00079961440b0061
:10063000069207932d233b700b9b5a1e01230593b3
:10064000079b06995b005b0800290ed1af488342e7
:100650000bd1129b059a413bad4cae49b818192bf2
:1006600011d921000fe02b23e5e7a848834202d8e7
:1006700018d1002916d0129b059a413ba64ca749d8
:10068000b818192bedd804f0fbfb200004f074fa25
:100690000a9b0200009339000b9b169803f000f8a8
:1006a00019b0f0bd059b0598591c30233b54129b93
:1006b000413b0f930f987823192800d8203b0598c9
:1006c0007b540230931e05900993002206980799e7
:1006d000002303f08eff002800d16de10023904c31
:1006e000089302930394182310930e9b002b00dbb6
:1006f00010930026029c039d109b01331793069aca
:10070000079b0c920d930c980d9922002b0002f080
:1007100038f902f0f7f922002b001490159101f03e
:1007200059fa02000b000c980d9904f061fb7d4b07
:100730000c900d9100222000290001f04bfa0e9b35
:1007400004000d000136002b07da0c980d990022e9
:10075000002303f04eff002804d1179b9e42d2d104
:10076000109e01360022200029006f4b01f032fa62
:1007700004000d0002000b000c980d9903f02ffdf2
:10078000002800d01ee10c980d9922002b0003f0e8
:1007900030ff002806d01498159903f0e1fec00739
:1007a00000d40fe10698079922002b0000f09afe72
:1007b00006900791079b069a5b005b08002a03d10d
:1007c000524a934200d144e7119b059a053b14938a
:1007d000934200d83de100257342140016001793a0
:1007e00010950c95029a039b0698079902f0c9f898
:1007f00002f088f91290139103f0b2fe031e00d0ac
:10080000e3e00c9a002a00d1dfe00135029a039b55
:100810001298139901f0def902000b00069807996f
:1008200004f0e6fa002206900791029803993d4be6
:1008300001f0d0f90c9b179a013b029003910c93a5
:10084000934203d0149b26009c42cbd3109b002bd9
:100850001ad1002d00dcfde00e9b002b00dcf9e03e
:100860000a9bdb0700d5f5e02e2230213b191a70d8
:100870002a19ba18597001339342fbd16419ed4318
:10088000099b0134eb18099300263b191e70029353
:10089000119b5d1e089b7e55b34202da5b420893b2
:1008a0000136089b002b00d0bce0119beb1a0133f2
:1008b00000d1b7e02b236a1e002e00d00233bb54b8
:1008c0000f9a7023023d192a00d8203b79190b702a
:1008d000ac4202da029804f0d3fa03230a9a1340d6
:1008e000022b11d1099b9c1e002c0ddd380004f059
:1008f00043f9059b984200dba4e0f8182200302160
:1009000004f010fa00230b933800bfe60000f07fdc
:100910006c490000684900007449000070490000fb
:100920000000f03f0000b03f00002040089b029410
:10093000039501330893029a039b1000190000f0fd
:10094000d1fd04000d0002000b000698079903f08a
:1009500046fc0028ead0029a039b0698079903f008
:100960003efc002800d1bee60298039900223d4bd0
:1009700001f030f90022002303f03bfe00280fd0e5
:10098000029803990022384b01f024f900220290ca
:10099000039106980799344b01f01cf906900791d2
:1009a000029803992f4b002201f014f9089b029042
:1009b0000391013b0893cee700232c4c089002934f
:1009c0000394b8e700240025ece6109a002a0ad127
:1009d0000c9a002a07d02e22ba55099a0134013afe
:1009e00009920122109230222e1901e03a55013469
:1009f000b442fbd11800099a5730551b092b01dc72
:100a0000303318000f9b192b06d820230343613b7a
:100a1000192b01d804f009fa6b1e741c0025b85577
:100a20000993f3e608980a2102f076fa013d303185
:100a3000089879550a2102f025fa099b0890013b94
:100a400009932ee7099b3a5c023bfb181a540138c4
:100a50004fe7059c0a9bdb0600d415e72e233b5588
:100a6000013411e70000e03f000050430000f03f78
:020000040000fa
:100a7000f0b5de4657464e464546e0b5bbb0b34bf3
:100a80001b68002b16d1b24b1b68002b06d0b04b55
:100a90001c68b04b0493b04b9b46ace0af494a781e
:100aa0000131af4802f080fc00280bd0a84b1c6835
:100ab000002ceed101203bb0f0bcbb46b246a946ab
:100ac000a046f0bda74b1b78002befd104f0baf97c
:100ad000012803d8a34b01221a70e7e704f0acf910
:100ae000a14902f073fff5e7002363759f4e2700cd
:100af0001237a8465d4631680322380003f000fe35
:100b0000002800d1e8e10c36ae42f4d1ab46002318
:100b100023826ce00d283dd00a283bd0082800d164
:100b200075e17f2800d1a2e11b2800d1bfe1e16976
:100b300020239846a0444346cb1a4f2b00ddbfe14b
:100b4000a2698b1a914200d1b6e14a1ed843091816
:100b500010785070013a9142fad1e269511ce1617a
:100b600000215170a269013281492000723004f0e5
:100b700055f87123e75433682100713128009847f4
:100b8000a3691f70a3690133a361e26993422ed95f
:100b9000e3612ce020239846a044e369434556d006
:100ba0007449336828009847e36900221a70434665
:100bb000a361e3612032002108a804f0b3f867685c
:100bc00005975122414610a804f060f9082208a9af
:100bd00010a802f01bfb039000283dd16649236852
:100be0001b68380098473368049928009847a46820
:100bf000002c00d15ee726686568f36828009847f6
:100c00000028f4d033692800984707001021635e5c
:100c1000002b00d17ee7e218907401331db22582cb
:100c2000032d00d160e7022de1dde668b3689d4247
:100c3000ddd131682000123003f0e5ff002803d138
:100c4000736831002000984700232382cfe74b4987
:100c5000336828009847cae7039b002b05dc484906
:100c600023681b6805989847bde7cc23e35822000a
:100c7000cc325768bb4236d079682200cc32516002
:100c80000b60cc23e35852685a6038000830512278
:100c9000414604f0fbf8cc23e358002b2ad03b60fc
:100ca000cc232200cc3252687a601760e258576039
:100cb000e750d4230022e250089b9946314f324b33
:100cc0009a463968484603f09eff00281ad00c3730
:100cd0005745f6d12d4b99460696aa4643460793ab
:100ce000a0464e465ae00023cc22a3502200cc322c
:100cf0005360cae7cc33e7502300cc335f603f60da
:100d00007f60d6e7039b082b06dd214923685b68db
:100d100008220598984766e77b6808aa039920008f
:100d2000984760e74446069e5546194923685b6824
:100d300008220598984756e74446069e55467b6824
:100d400008aa0399200098474de7c046a84900200b
:100d5000a0490020dc130000803f0000ac490020c7
:100d6000704c00001d4a002018130000383f00009e
:100d700000140000801200003c130000b0120000bc
:100d8000ac130000f447000018480000c8460020db
:100d9000741300001836524b9e4230d07468002cf9
:100da000f8d03569002d13d05122079925a804f0f9
:100db0006df873690093512325aa41462000a84786
:100dc000002820d1082208a925a802f01ffa0390c4
:100dd000039b082ba6dc77683368002bdad0089dcc
:100de0000024b1461e003968280003f00cff0028db
:100df000a2d001340c37b442f5d14e46cae744467e
:100e0000069e55462be74446069e5546ebe6a369eb
:100e100022002032934200d8e9e6e06983421bd2e7
:100e20005a1ec31a01385178117001328242fad128
:100e3000a269013aa261e269013ae26100211170fe
:100e4000a269284927007137380003f0e7fe3368ac
:100e5000390028009847cae6234933682800984794
:100e6000a369013ba361e369013be361bfe6e1697b
:100e7000a269914200d8bae6501c0b1a814205d0f3
:100e8000d0185178117001328242fad1e269013ae8
:100e9000e26100211170a2691449270071373800fe
:100ea00003f0bcfe33683900280098479fe61b23f7
:100eb000a3741a3b23829ae672230022e25458e676
:100ec0000b493368280098474346a361e361094909
:100ed0003368280098478ae6ab464546e660a4e6b4
:100ee00088470020e0130000ec130000f41300001a
:080ef00008140000dc130000ef
:020000040000fa
:100ef8000023f0b51600b1b0039007910493079d45
:100f08002b78002b00d1cfe001235b420c9310ab70
:100f180000240e9380230b940d940f932b5d002bcc
:100f280001d0252b30d1002c06d0290022000398af
:100f38002d1903f0f7fb0795079b1a78252a00d08f
:100f4800a7e001331800002105930793243a03789a
:100f58002b2b25d02dd8202b25d0232b26d000298c
:100f680000d007902a2b2cd003f072f801250d90a1
:100f78000020079a11000b780132303b092b64d905
:100f880000282dd007912be00134c7e701230b99e6
:100f98000b430b9311000130d9e702230b99f7e7b4
:100fa80004230b99f4e708230b99f1e710230b9915
:100fb800eee72d2bead0302befd00029d4d00790c4
:100fc800d2e7336801301a1d1b68079032600d9311
:100fd800002b05da01220b995b424a400b920d93d4
:100fe8000b9bda0702d5022293430b93079b1a78cf
:100ff8002e2a0dd100270c975a785d1c07952a2aae
:1010080025d10233079333681a1d1b6832600c938d
:1010180007a803f087fa079d0700287803f0fafe6f
:10102800252800d1d5e06138172800d9dbe003f086
:101038009dfe1fdab63ea6a6a6da3edadadada9c12
:101048005e7fdadac6da4edada6e280092e728002e
:1010580002f0feff01210c902a0013780135303b85
:10106800092b03d9002fd3d00792d1e70f00f3e75c
:101078003200390008a803f005fa002800d17be007
:101088006b1c079303982b7808aa0ba9fff79cfa07
:101098002418049b1c19a34200dcb0e04f22594bd2
:1010a8001a6001235b420493049831b0f0bd330009
:1010b8000122390008a801f0f5fb00285cd00135b1
:1010c800039808aa0ba9079501f0d0fde0e73300c3
:1010d8000022390008a801f0e5fb00284cd00135b2
:1010e800039808aa0ba9079502f0bafdd0e73300c8
:1010f8000022390008a801f0d5fb00283cd00135b2
:10110800039808aa0ba9079502f024fcc0e733004e
:101118000022390008a801f0c5fb00282cd06b1c60
:1011280007932b78039808aa0ba900f0eeffafe706
:1011380033000022f02108a801f0b4fb00281bd0de
:10114800089b099a0135079513430cd12e4d2800a9
:1011580003f00efd290002000b9b00930d9b0398e2
:1011680002f09afa94e77823dce7049b39001a190d
:1011780008a8330002f007fb0135079589e732001c
:10118800390008a803f07ef90028f5d06b1c0793f6
:1011980003982b7808aa0ba9fef79aff78e7802f07
:1011a800ead1336801351a1d1b68326008aa13702a
:1011b8000123079503980ba902f022fe68e7802f08
:1011c800dad132680135131d3360126800230795a0
:1011d800f0e7802fd0d10b9b0135009301220b49fa
:1011e8000d9b0795bbe7059b0122079300235242fd
:1011f8000c9206490b930d9300930232afe70494c7
:101208007de6c046184a0020604900006649000093
:020000040000fa
:101218000d0a2d2d2d2d2d2d2d20537570706f72cb
:1012280074656420636f6d6d616e642067726f759d
:101238007073202d2d2d2d2d2d0000000d0a202a34
:101248002a2a2000202a2a2a000000000d0a2d2d13
:101258002d2d2d2d2d2d2d2d204275696c74206975
:101268006e20636f6d6d616e6473202d2d2d2d2d95
:101278002d2d2d2d2d0000000d0a00000d0a556e94
:101288006b6e6f776e20636f6d6d616e6420677231
:101298006f75702e205472792068656c700d0a0085
:1012a80008200800080000000d0a3e001b5b2564aa
:1012b800430000001b5b2564440000000d0a202a3f
:1012c8002a2a205175697474696e672074686520cc
:1012d800436f6d6d616e642050726f636573736fd9
:1012e800722e20427965202a2a2a0d0a0000000061
:1012f8000d0a202a2a2a2053797374656d205265b5
:10130800626f6f74202a2a2a0d0a000020092c0017
:101318004661696c656420746f20637265617465e9
:101328002074686520436f6e736f6c652041504967
:101338000d0a0000202a2a2a20436f6d6d616e6411
:101348002050726f636573736f723a20506c6561d9
:101358007365207479706520696e206120636f6df4
:101368006d616e642a2a2a0d0a0000000a0d2054b5
:101378006f6f206d616e7920617267756d656e742f
:10138800732e204d6178696d756d206172677320c9
:10139800737570706f727465643a202564210d0a44
:1013a80000000000202a2a2a20436f6d6d616e64b8
:1013b8002050726f636573736f723a20756e6b6e2f
:1013c8006f776e20636f6d6d616e642e202a2a2af6
:1013d8000d0a00003e000000081b5b4b25731b5bd9
:1013e80025644400081b5b4b000000001b5b4b2579
:1013f800731b5b256444000025731b5b2564440054
:10140800202a2a2a20436f6d6d616e642050726f06
:10141800636573736f72206275666665722065789e
:101428006365656465642e2052657472792e202a7e
:101438002a2a0d0a00000000726573657400000016
:101448003a20526573657420686f73740000000059
:10145800710000003a207175697420636f6d6d61c9
:101468006e642070726f636573736f7200000000a2
:1014780068656c70000000003a2068656c700000b8
:101488001b5b41001b5b42001b5b43001b5b440072
:101498001b5b317e000000001b5b347e00000000f7
:1014a8005359535f434d445f5441534b530000001d
:1014b8004150505f5461736b7300000049444c45c0
:1014c800000000000d48656c6c6f20776f726c64cb
:0b14d8000a0000004d795461736b00a6
:020000040000fa
:1014e400f0b40125ed070f005f405ad48b4200d1c0
:1014f400824205d950404240504059404b405940e7
:101504004e18760ddf187f0d3bd0741c640529d06e
:10151400f41b352c26d80e0ddb022b43db0ac90243
:101524002943c9121700202c1ed2e741e24057403c
:10153400e3415a40a340e3405a40002480185941f3
:101544000ad3b21c520521d0c207012f62411700f1
:101554004008cb0718434908013636054208af4115
:1015640060417141f0bc7047203c06d01f00e74148
:10157400e3405f400024012a6741c0186141ebd376
:10158400dfe7002eeed129400020ebe701363105dc
:101594000020e7e7e742e5d10020c143090dc90473
:1015a400e0e76b400e00871a9e4104d26e40c01bd8
:1015b400b141d21973414e18df18ac0ae642e9d2a0
:1015c400760d7f0d31d0f41b362ccbd8b4460e0dde
:1015d400db022b43db0ac9022943c90a012c32d896
:1015e40004d1d4075208df073a435b08ef0a644288
:1015f400904199411ed0002239424dd124194041d5
:1016040049410124394204d1013400184941394285
:10161400fad06246a24204d9361b013e3605891926
:10162400a0e7f10ac90700209ce736429ad10020be
:10163400002197e70200224394d0b842ded2010091
:1016440020002024e3d1202c13dd203ce2411700ac
:10165400a240e2405740e3415a40a340e3405a408d
:10166400012fbf410137174300227c429841914129
:101674000ce01700e741e2405740e3415a40a340e1
:10168400e3405a407c429041994100220f0303d227
:10169400013e241940414941013e36054708ac4109
:0816a40050417141f0bc704798
:020000040000fa
:1016ac00f0b583b000900f0001939400200001f07e
:1016bc00d1fc061e59d0542001f0ccfc051e51d093
:1016cc005422002103f028fb2e632200a5213000b8
:1016dc0003f022fb043c2e6b361907229643002f95
:1016ec000cd000242a0034323b5d1355002b02d061
:1016fc000134102cf8d143230022ea54089f042f04
:10170c0000d90427ef626f642c1d200003f0c9fb85
:10171c002800183003f0c5fb2d610523db1bab61e2
:10172c006d62019a0099300001f0fafb2860099b68
:10173c00002b00d01d6003f0e9f9394a136801331e
:10174c001360384b1b68002b13d0374b1b68002bd6
:10175c0015d1344b1b68da6aeb6a9a420fd8314bbd
:10176c001d600ce0300002f02af90120404203b069
:10177c00f0bd2c4b1d602a4b1b68012b31d02b4a22
:10178c00136801331360ea6a294b1b689a4201d92a
:10179c00274b1a60274993009b189b00cb185b685a
:1017ac00ab609a68ea6054609c60e86a83001a181f
:1017bc00920052186a611a18920053580133535010
:1017cc0003f0b0f9184b1b680120002bcfd0154b40
:1017dc001b68da6aeb6a9a42c9d203f08bf90120d2
:1017ec00c5e7144e37006437300003f0fbf91436ac
:1017fc00be42f9d1104f380003f0f4f90f4e30000f
:10180c0003f0f0f90e4803f0edf90e4803f0eaf995
:10181c000d4803f0e7f90d4b1f600d4b1e60aee752
:10182c00f8490020084a0020ec490020dc4900203f
:10183c00f049002008480020684900205449002045
:10184c00404900202c49002018490020044a00205f
:04185c00004a00201e
:020000040000fa
:10186000fc4800201c000000000000000044002094
:1018700000020000000000008847002080000000f7
:1018800000000000bc4800204000000000000000f4
:101890001d4a00200100000000000000a8490020af
:1018a0000400000000000000c8460020c000000046
:1018b00000000000ac49002008000000000000000b
:1018c000004000200004000000000000a0490020ab
:1018d00008000000000000007c4900200c0000000f
:1018e00000000000b44900200400000000000000d7
:1018f0001e4a0020010000000000000000460020f9
:10190000c800000000000000884900200c00000012
:1019100000000000b849002008000000000000009e
:10192000944900200c00000000000000c049002085
:101930000800000000000000204a00200400000011
:1019400001000000aaaaaaaac849002008000000b5
:101950000000000000000020004000000000000027
:10196000d04900202c000000000000001849002091
:101970001400000000000000fc49002004000000ea
:10198000000000002c49002028000000000000009a
:10199000004a002008000000000000005449002018
:1019a000280000000000000008480020640000003b
:1019b00000000000084a00200400000000000000b1
:1019c0001c4a002001000000000000000c4a00201a
:1019d00008000000000000006c48002050000000db
:1019e00000000000144a0020080000000000000071
:1019f00000000000000000006666666666666666b7
:020000040000fa
:101a0000f0b5de4657464e464546e0b583b0584be6
:101a10001b68002b00d09de0564b1c68621c009296
:101a20001a60002a11d0544b1b6800229346009a7a
:101a300093421dd8514b1b681b68002b12d04f4d91
:101a40004f4fbc464f4901955ce04c4a11684e4be4
:101a50001868106019604d4a13680133136002f072
:101a600039fee0e700239b46434b012252421a60b5
:101a7000474b1b68434ad96a8b005b189b009b58f5
:101a8000012b01d901239b46424b1b68002b67d0d9
:101a900001239b4664e0384b1a60e9e7dc68546038
:101aa00041e000229a622268013a2260dc6a3a68c8
:101ab000944201d962461460a200121992008a1859
:101ac00052689a609468dc6060609060d86a8200b6
:101ad0001418a400a046884444465c611418a4006d
:101ae0006258013262502a4a12689046da6a4346c6
:101af000db6a9a4201d901239b46019b1b681b6844
:101b0000002bb1d02b68db68db685a6800989042e4
:101b1000c1d35a699c68d868a0609c684460181d4d
:101b200054688442bad000245c611468013c14609b
:101b30009c6a002cbad0da6992461a6a5646b2609c
:101b4000de6956601a00183266689642a9d11a6a90
:101b50006260a6e7104a13680133136000239b46b6
:101b6000584603b0f0bcbb46b246a946a046f0bdfd
:101b7000d0490020f4490020d8490020044a002020
:101b8000f049002008480020004a0020e0490020d9
:0c1b9000084a0020e4490020e849002039
:020000040000fa
:101b9c0008d1002806d1f54204d801d3002a01d17e
:101bac006d0d09d10020c143090dc904f0bdf9d157
:101bbc001242f7d1640df5d00020c1434905490804
:101bcc00a6e000206146f0bdf0b50127ff070e002e
:101bdc005e403e40b446be0a4c18dd18f442d7d2e3
:101bec00f542e4d2640decd06d0dead06419c90253
:101bfc003943460dc0023143db023b43db0a10b4d0
:101c0c008e4685b297b26f43140c6c433e0ca419ec
:101c1c00260c2404bfb227439cb26c43a419190ca4
:101c2c006943250ca4b249190d04090c6419000c64
:101c3c0095b245433e0c76193743bfb2360c150ca2
:101c4c004543ad19a6b2240cad192e0437432e0c06
:101c5c0036199db24543ad19acb22e0c89191d0c29
:101c6c0045436d182e04290c3443704680b295b24e
:101c7c0045433e0c76193743bfb2360c150c454321
:101c8c00ad19a6b2ad19240c2e0437432e0c3619ff
:101c9c009db24543ad19acb22e0c89191d0c4543b0
:101cac006d182e043443290c75462d0c90b26843e4
:101cbc003e0c80190604bfb23e43070ca0b23f187d
:101ccc00120c6a43d019020c80b2240ca4189ab2dc
:101cdc006a43121914042043120c89181b0c6b4311
:101cec00c91810bc01273d05294203d1b619404142
:101cfc004941013cff077d0d013d641b0bdb6d0071
:101d0c00ac4209da240500254208be416841614114
:0a1d1c0066463143f0bd54e74ee780
:020000040000fa
:021d2600704704
:020000040000fa
:101d2800f8b5de4657464e464546e0b502f0f0fea9
:101d3800494b1a68013a1a601b680024002b7bd1b2
:101d4800464b1b68002b77d0454b1b68002b5cd09b
:101d5800434e00239b46434dac46434b9a463400c2
:101d680008e0196a516012e0d96851601ee02368e2
:101d7800002b48d0f368db689a6ad869196a8160d1
:101d8800d86948601900183150688842e9d0594626
:101d980099621168013911605a699868d968816037
:101da800986848601f1d5168b942ddd0594659618d
:101db800116801391160d86a2a68904201d96246cf
:101dc80010602a498200121892008a1852689a6094
:101dd8009068d86047609760df6aba00d0198000c1
:101de8008046884440465861d019800042580132e4
:101df80042501f4a1168da6acb6a9a42b7d901235e
:101e080052461360b3e702f061fc1a4b1c68002cc1
:101e18000ed0154e012502e0013c002c05d0fff73d
:101e2800ebfd0028f8d03560f6e7124b00221a6067
:101e38000d4b1c68002c08d102f076fe2000f0bc87
:101e4800bb46b246a946a046f8bd094b1b6802f03e
:101e580053fe0124f0e7c046d0490020f84900208d
:101e680040490020f0490020e449002008480020ab
:081e7800084a0020e84900209f
:020000040000fa
:101e8000f0b5c64600b5040017004568012903d027
:101e9000464e474b984651e00022444e454f18e0cd
:101ea00023681b68390028009847b16823681b68bd
:101eb00028009847f16823681b68280098473e4926
:101ec00023681b682800984701221836384b9e4229
:101ed0000ad07368002bf8d0002ae1d13749236873
:101ee0001b6828009847dbe7354923681b682800f2
:101ef0009847344e2f4b98462f4f23681b68414616
:101f000028009847316823681b6828009847b16803
:101f100023681b682800984723681b68390028003d
:101f200098470c36284b9e42e7d1284923681b6806
:101f30002800984731e01836464531d07368002ba9
:101f4000f9d07968b06802f05efe0028f3d17768b6
:101f5000336800229046002b1ad0164923681b686c
:101f600028009847396823681b6828009847b96893
:101f700023681b68280098470f4923681b682800be
:101f8000984701239c46e0440c3733684345e4d826
:101f90000e4923681b682800984780bcb846f0bdee
:101fa0000b4923681b6828009847f6e7c8460020bd
:101fb00088470020441200004c1200001812000054
:101fc00054120000f447000018480000801200007e
:041fd0008412000077
:020000040000fa
:101fd400f0b5c64600b584b00400019100239846cc
:101fe40000274425002645e0013ba3632368002b1a
:101ff4000bd02369002b0cd102f098fd01239846e5
:10200400404604b080bcb846f0bd02f057fea06064
:10201400efe72000103000f06dfb0028ecd002f058
:102024006dfde9e702f082fd00239846e8e702a887
:1020340002f094fd28e0665530e04523e65432e092
:1020440002f068fda06800f0c5fe804602f06efd57
:1020540039e0200001f028fafff764fe09e02000cf
:1020640001f022fafff75efe200002f031fe0028a4
:1020740038d1012702f04efda36b002bb4d1019b94
:10208400002bcfd0002fd2d002f050fd02f09efee4
:1020940002f040fd635d5bb20133ccd04523e35cc9
:1020a4005bb20133c9d002f041fd01a902a801f0dd
:1020b40051fd0028d3d1200002f00afe0028c8d028
:1020c4002368002bbcd001992000243002f0c8fc06
:1020d400200001f0e9f9fff725fe0028c9d102f03c
:1020e4000dfdc6e74346002b00d189e702f012fd3f
:1020f400616a002903d0236b1b680521c91aa068f3
:0e21040001f00cf902f012fd0023984678e776
:020000040000fa
:10211200f0b58fb00c934b680d0008938b681600d6
:102122000993cb680f680393089b0b90002b43db4a
:1021320002239f4310233a001a400d92099a0492f7
:102142001f4206d033687268134302d0099b023bd8
:10215200049308233b400a935a1e9341049a2c6924
:10216200d31a04933368039a06937368013c079366
:1021720000231355049b0593012c20dc0d9b002b9f
:1021820050d10a9b002b03d02023039a013c135504
:102192002a69039b013a19190b98099b121b009794
:1021a20001f07dfa0b9b5b68db0503d56b689842f7
:1021b20000da18000fb0f0bd01230893bae7069bbe
:1021c200079a13430ad1049a089b9b1a059a9b18f3
:1021d200002b03dc002ad1ddbb07cfd50f23069ae3
:1021e200013c134018005730092b01dc3033180032
:1021f2000c9b413b192b06d820230343613b192b2f
:1022020001d802f011fe039b1855059b013b059373
:10221200079b1a07069b1b091a43079b06921b0979
:102222000793a9e70cce1343abd0039b0c9a1b195f
:0e223200013b1a703023039a023c1355a1e7ba
:020000040000fa
:10224000f0b5de4657464e464546e0b583b00190b0
:102250008c4600296dd005000123374f374a91463f
:102260009346160092460de040003549009c0c5400
:10227000013000240c5451468a605a1c02356345d3
:1022800047d213005a1e9046796807220a40012a55
:1022900017d0b068f468421c31698a4289410a400b
:1022a000944237d001990139cc5c00947968884612
:1022b0000721444621400129d6d02149009c0c54d5
:1022c000d9e74a469068d468421c494609698a425f
:1022d00089410a4094421dd0697809022c78214333
:1022e00000917c68a046072441460c40012c06d092
:1022f00069460978124c215459468a60bde740006e
:10230000694609780e4c215401300099090a21547c
:10231000f2e7984602f052fb002802d0064b012259
:102320009a75404603b0f0bcbb46b246a946a046eb
:10233000f0bd8846eee7c046001c0042bc480020c5
:042340000044002035
:020000040000fa
:10234400f0b5ce4600b584b00400009101921e00a1
:102354000025442730e032000099200001f08bfa78
:10236400636a002b08d100280fd102f0dffb0120a3
:1023740004b080bcb946f0bd2000243000f0baf9a6
:102384000028f2d002f0bafbefe702f0b7fbece76b
:1023940002f0ccfb0020ebe702a802f0dffb18e020
:1023a4000023e3551fe00022e25421e0200001f065
:1023b4007bf8fff7b7fc012502f0acfba26be36be3
:1023c4009a42c8d3022ec6d0019b002be0d0002d28
:1023d400e2d002f0abfb02f0f9fc02f09bfbe15d02
:1023e40049b20131dcd04523e05c40b20130dad09f
:1023f40002f09cfb01a902a801f0acfb002817d154
:1024040002f088fba36b9946e56b02f08ffba945ac
:10241400ccd101992000103002f022fb200001f001
:1024240043f8fff77ffc0028c5d102f067fbc2e741
:0e243400200001f039f8fff775fc002098e752
:020000040000fa
:02244200fee7b3
:020000040000fa
:10244400f8b5de4657464e464546e0b5354d364b63
:102454002f001e00354a01239b46324b9846b24654
:102464001e0016e0580030498c46095c8946ff215d
:102474008c4349460c4301306146085c0002e4b2d7
:102484000443013319e0ff2323401385337d002bdc
:1024940021d1137e584603423ed0a868eb68984287
:1024a40037d05068072108400128dbd05046c05c73
:1024b400f8318c430443a4b2013338698342804128
:1024c40003404046c360536807210b40012bdad117
:1024d400164b1c85dae7564602f0befb114b1b680f
:1024e400002bb7d00f4b59681b7f002b08d00d4b26
:1024f4009b699842aed30b4b1b6803209847a9e70e
:10250400084b9b699842a5d1064b1b68032098474a
:10251400a0e7064b01221a75f0bcbb46b246a94699
:10252400a046f8bdbc48002000440020001c004226
:020000040000fa
:10253400f8b5ce46474680b5334d2f00a846a94688
:102544005be04246126a002a42d0716a336a012073
:102554009847b36a0133326b93429241134037e098
:102564004a46926a5200e0b2284988540132240a49
:102574008c543ce002f02efa234b1b6a002b3cd017
:10258400214b596a3c229b5c002b08d01e4b9b6b51
:10259400984232d31c4b1b6a002098472de01a4bfb
:1025a4009b6b984229d1184b1b6a0020984724e062
:1025b400174b1b7e5b0722d5154b1c8da4b2ab6a4f
:1025c40001332a6b934292411340fa6a9a42b8d07b
:1025d4000d4ad26a9a42ebd00d4a516807220a404a
:1025e400012abdd0084a926ae4b208498c54064aca
:1025f40093623423d35c002bbcd1034ed8e7c0bc18
:10260400b946b046f8bdc046bc4800208847002003
:04261400001c004264
:020000040000fa
:10261800f0b506000f0015001c0085b08b4263d88a
:1026280001d1824260d82100280002f0d1fa390095
:102638000090300002f0ccfa009b21001b1a1a000f
:102648002800039302f0b8fa00900191b94245d8e6
:1026580001d1b04242d8009b019c01200021039a7d
:10266800f61aa74102f0a8fa04000d00039b002bfc
:102678002bd0019b009adb0750081843019b59088f
:10268800039b9c46b9422cd801d1b04229d83200cc
:102698003b00121a8b41012692185b410027b6189d
:1026a8005f4101235b429c446346002bead1300022
:1026b8003900039a02f074fa039aa4197d410600be
:1026c8000f0002f079fa241a8d410a9b002b01d0e1
:1026d8001e605f602000290005b0f0bd00240025c1
:0e26e800c4e7b6197f41dce700240025ede7ca
:020000040000fa
:0226f600fee7fd
:020000040000fa
:1026f80010b5c368db689a6ad869196a8160d869b5
:102708004860180018305168814240d00021996211
:10271800116801391160274a1268002a3dd15a69a7
:102728009868d9688160986848601c1d5168a14202
:1027380030d000215961116801391160d96a1e4ae7
:102748001268914201d91c4a11601c488a0052182b
:102758009200821852689a609168d9604c609460bf
:10276800dc6aa20011198900091859611119890038
:102778000a5801320a50124a1168da6acb6a0020f4
:102788009a4203d90f4b01221a60013010bd196a11
:102798005160bbe7d9685160cbe70b4a5168d961f2
:1027a8008c681c62606088609a62116801311160ef
:1027b800e1e7c046d0490020f04900200848002041
:0c27c800084a0020e4490020404900209d
:020000040000fa
:1027d40010b52e4b1b68002b03d02d4b01221a6021
:1027e40010bd2b4b00221a602a4b1a68116b1a6811
:1027f4001b6812681b6b9a4203d9274b0a689a42da
:1028040033d0244b19681868343102f055fb234b3c
:102814001b6823499a00d21892005258002a09d101
:102824009a00d21892001f495218013b143a516978
:102834000029fad01a489a00d118890041184c6826
:1028440064684c60d218920008321218944216d070
:10285400134a9900c918890052185268d1680d4a60
:1028640011600e490b601368bae74a689a42c8d1ee
:102874008a689a42c5d1ca689a42c2d1c7e7990008
:10288400c91889004218d1685160e1e7d049002095
:10289400e4490020084a0020a5a5a5a5f049002088
:0828a40008480020f447002061
:020000040000fa
:1028ac0010b50400902911dc00207f2928dd803927
:1028bc000800102910d802f057fa31313d0f110fd2
:1028cc000f0f240f0f0f0f0f0f0f3d00c0294bd010
:1028dc00f02949d0a02928d0002011e01968002a3d
:1028ec0007d00a1d1a6000228b5e2360db17636021
:1028fc0005e0081d18600b689bb223606260012024
:10290c0010bd1968002a04d00a1d1a600023cb568a
:10291c00ebe7081d18600b68dbb2eee71968002abc
:10292c001ed00a1d1a600b68dfe71a68111d1960aa
:10293c001368dae707201968002a09d009188143bf
:10294c000a0008321a600a684b6822606360d6e796
:10295c00ca1d824311000831196053681268f4e7ec
:10296c00081d18600b68c8e71a68111d19601368f8
:06297c0023600023bbe70d
:020000040000fa
:10298200f0b40125ed070c005c402c40a446ae0ad1
:102992004c18df18f4423dd2f74245d2640d4cd0b8
:1029a2007f0d3cd0e41bc9022943cf0adb022b4333
:1029b200db0a0600b61a9f4104d2013cb6197f41d8
:1029c200b6185f416812800d241838dd0018844261
:1029d20025d8e80c0021b6197f41b61a9f4103d3ce
:1029e20040414941f7d304e0b6185f41001849411c
:1029f200f1d32405b6197f41b61a9f4105d3374357
:102a0200c20717430022012f504161416246114320
:102a1200f0bc70470cd100280ad1f74208d200203e
:102a2200c143490d0905f1e7002a01d1f74206d059
:102a32000020c143090dc904eae77f0df8d0002048
:042a42006146e5e71d
:020000040000fa
:022a4600fee7a9
:020000040000fa
:102a4800f0b583b004000191264b1e68264b1f6821
:102a5800264b1d68264b1868043001f001ff631ce3
:102a68000dd03419224b1b685c60a6421ed9204b3e
:102a780019680431280001f0a1fd03b0f0bd019be5
:102a8800002b20d01b4a5168194b186881601868c0
:102a98008c68c46018680430606018680430886006
:102aa8001b685a61136801331360e6e7104b196815
:102ab8000431380001f082fd0f4b1b68a342dcd9ba
:102ac8000d4b1c60d9e7731e094a126853609e4279
:102ad800cdd8074b19680431380001f06ffd064b5b
:102ae8001b68cae7f4490020044a0020004a002075
:0c2af800084a002018490020d84900209e
:020000040000fa
:102b04004b005b0d284af0b50d00591e040091429c
:102b140039d8264a9e1825d420002900332e20dcdb
:102b2400234a9b1826d4234ada4013002700214a5b
:102b34009f43f24038002f00234097432a40390036
:102b440013430ed0002f0cda3400203c25d480250a
:102b54006d03e5402a0080246403f44023008018b8
:102b64005941f0bd002d02db00200021f9e70020cf
:102b74001149f6e720230f4a9b1b9a4001235b422d
:102b8400f3401343d2e720002900002be9d10022af
:102b9400e90fcb0710001900e3e720248025a41bcc
:102ba4006d03a5402a00d6e7fd07000001fcffffe6
:0c2bb400e1fbffffffff0f000000f0bf7f
:020000040000fa
:102bc000f0b5de4657464e464546e0b583b00700b1
:102bd0000b0001910822944663449b46180001f0c3
:102be000cbff0090002837d03e687d6820239a46ae
:102bf000ba44fc695346e41aa0420dda1a4b9946ce
:102c00003b00070098463368494628009847013c36
:102c1000a742f8d14746009c002c0ad0134bb84677
:102c20001f003368390028009847013c002cf8d178
:102c300047465946504602f023f90d4933682800ab
:102c400098473368514628009847009b5344bb611e
:102c5000fb61d423019afa5003b0f0bcbb46b246e4
:102c6000a946a046f0bdc046a8120000ac12000064
:042c7000b01200009e
:020000040000fa
:102c7400f0b54b6889b004930b6805000c009c46c2
:102c84008e68cf68079310685168cb0f05930029ad
:102c940044da0b000200002150429941049b002bae
:102ca40009db0222634693430793059b002b02d161
:102cb400079b5a0723d5731e07aa02920a22009380
:102cc40001920b000200200000f09afd059b002bee
:102cd40019d02d2301383b542269079b013a121a5b
:102ce400391800932800330000f0d8fc6b68db052a
:102cf40003d56368984200da180009b0f0bd1b07d9
:102d0400db0ff31ad8e7079b5a0702d52b230138a8
:102d1400e1e71b07e0d520230138dce7049b002b07
:042d2400bfdac5e766
:020000040000fa
:102d2800f8b504000d00002850d0c36b0020002b1c
:102d38004dd00026190c226c100c00292fd181b21d
:102d480000291ed10020002e41d101f0e1fe2268a9
:102d5800216ce36b4b43d018a0600020a063626035
:102d68005b1ad218e260ff234422a3540132a35411
:102d7800002d22d12369002b16d101f0d5fe0120a8
:102d880025e0011c181c9bb292b25a4380b28bb248
:102d98004343120c9b181b0cd4d00126d2e780b2f7
:102da8000028fad1101ceee720001030fff7a0fc35
:102db8000028e2d001f0a0fedfe72000103001f08b
:102dc80013ff2000243001f00fffd6e70020f8bde4
:020000040000fa
:102dd80070b5041e4ad0c26a254b1b68db6a9a424a
:102de8003cd28369002b05db214b1b68d96a05237c
:102df8005b1a836193009b189b001e4a9b186269ab
:102e08009a4205d01a4b1b68db6ae36201202ce06a
:102e1800251d280001f024fd154b1b68da6ae262c3
:102e2800154b1b689a4201d9134b1a60114993003c
:102e38009b189b00cb185b68a3609a68e26055609a
:102e48009d60e06a83001a189200521862611a188d
:102e58009200535801335350012006e0044b1b687d
:102e6800406cdb6a98428041404270bd0020fce71c
:0c2e7800084a002008480020f049002013
:020000040000fa
:102e8400002941d010b404004c40a4460123002280
:102e9400002900d54942002800d5404288422cd35d
:102ea40001242407a14204d2814202d209011b0158
:102eb400f8e7e400a14204d2814202d249005b0057
:102ec400f8e7884201d3401a1a434c08a04202d3bf
:102ed400001b5c0822438c08a04202d3001b9c0800
:102ee4002243cc08a04202d3001bdc082243002862
:102ef40003d01b0901d00909e3e710006446002c44
:102f040000d5404210bc704701b5002001f0dcff41
:102f140002bdc0460029f7d003b5fff7b3ff0ebcce
:082f24004243891a1847c04618
:020000040000fa
:102f2c0010b5031f802464041c60043b1960043b2f
:102f3c0016491960043b16491960043b1549196080
:102f4c00043b15491960043b14491960043b1a6091
:102f5c00043b134a1a60043b124a1a60043b124a9f
:102f6c001a60043b114a1a60043b114a1a60043b74
:102f7c00104a1a60043b104a1a60043b0f4a1a604c
:102f8c00443803235b42036010bdc046894d0000ea
:102f9c0012121212030303030202020201010101c5
:102fac00111111111010101009090909080808084d
:102fbc0007070707060606060505050504040404ad
:020000040000fa
:102fcc00f0b5d6464f464646c0b582461e4ad36a31
:102fdc00956a002933d0ab4234d0040001201b4a3f
:102fec0094469046184f13e05a006646b65c26701d
:102ffc0001326646b25c627001333a6b9342924185
:10300c001340814213d9421c0234ab4210d0100041
:10301c000f4a566807223240012ae5d04246d25c5c
:10302c0091465246013a4e4616540133e5e71d00cf
:10303c00054bdd62e0bcba46b146a846f0bd1d00aa
:10304c000800f5e70020f3e7bc4800208847002083
:04305c00001c004212
:020000040000fa
:1030600070b5040007231a000240034205d0130084
:10307000093b834229d30834a41a01f0a9fe194b55
:103080001b68002b0ed0002c25d0174b1b68e24389
:103090009a420dd31c19154a94420cd9fef744feee
:1030a0001be000240f4a124b07218b431360eae711
:1030b000fef73afe11e00b4a1568ed180a4b1c604a
:1030c000fef732fe002d0bd107e001f081fe054b2b
:1030d0001b68002be5d0fef727fe01f0f1fe00256e
:1030e000280070bdc8490020cc490020f73f0000ef
:0430f00007000020b5
:020000040000fa
:1030f4001b4b00229a619a8c80218a439a8419007e
:103104001022cb681a42fcd0164b1b689b0e3f2b37
:1031140024d09b02802292001343114a936211002f
:103124001022cb681a42fcd00d4b02229a8419005b
:103134000e32cb681a42fcd00b4b0c4a5a601a0070
:1031440053785bb2002bfbdb074b094a5a80094bcf
:10315400094a1a62024b00221a627047203bd8e7e0
:103164000008004024608000000c004000070100bb
:0c31740019400000000400408000010031
:020000040000fa
:103180000eb430b51d4ca544ffab183304cb0193ee
:103190008021c90002a800f04ffc0400421e184b19
:1031a0009a4224d802ab00221a54164b1b68c3184b
:1031b0008022d200934202d3124b00221a60114b9c
:1031c0001d68114bed1802a9280001f059fe2900d5
:1031d000002001f01dfc032213002340224201d0f5
:1031e0000132d31a074a1b1911685b181360812337
:1031f000db009d4430bc08bc03b01847f8fbffff60
:0c320000fe030000b04900200040002048
:020000040000fa
:10320c00f8b5ce46474680b505008946170000281c
:10321c002ed000241c4b984621e001340025414659
:10322c00280000f039fe002805d0a742f5d9a300ec
:10323c004a46d050f1e7002e1ed001362221300034
:10324c0001f074fd002815d086421ad000230370bb
:10325c00bc4202d2a3004a469e500134451c222196
:10326c00280001f063fd061ed9d000230370d6e7b9
:10327c00002401e0012464422000c0bcb946b046e1
:0c328c00f8bd01246442f7e714130000b1
:020000040000fa
:103298001e4b1f4a1a60d22252429a81c0229202c1
:1032a8005a601a00d369002bfcd1184a136802210e
:1032b8000b431360d369002bfcd1164b00221a6212
:1032c8009a62da6234215a5408315a549a630021b6
:1032d800da871a609a60da60197519779a610b4b68
:1032e8005a6807231340012b0ad00a4b80221a631d
:1032f80092001a61054b80229a757c3a9a7570473c
:10330800044b40221a6392001a61f3e7001c004242
:0833180004011040bc48002034
:020000040000fa
:1033200070b5041e09d0436c8b4200d20b00e26ad8
:103330009a4202d0a16c012900d070bde362a1695c
:10334000002902db0521cb1aa36193009b189b0087
:10335000134a9b1862699a42efd1251d280001f09b
:1033600083fae26a0f4b1b689a4201d90d4b1a602f
:103370000b4993009b189b00cb185b68a3609a686d
:10338000e26055609d60e06a83001a18920052184e
:1033900062611a189200535801335350cde7c0466a
:0833a00008480020f04900205c
:020000040000fa
:1033a80070b506000d009220800000f009fe041e92
:1033b80030d092229200002101f0b0fc26606560b6
:1033c80023002033a361e361b83392229200a51849
:1033d8007d3aff3a2000cc3009e019604168596015
:1033e8000b60a1584b60a3505c33ab4207d0a15887
:1033f8000029f2d1a35043601b605b60f4e700230f
:10340800a360074b1b68002b06d0054b5b689c60cc
:10341800034b5c60200070bd014b1c60f8e7c046a0
:04342800a049002097
:020000040000fa
:10342c0000b587b0002302930393049305930133f3
:10343c001448c25c69460731ca5419000133002a8a
:10344c00f7d102ab5b18013b1a700f480f4b01937d
:10345c0000920023803202a9fef722f9012803d042
:10346c000b4b1b6807b000bd72b60a4b01225242cf
:10347c001a60094b02321a60084b00221a6000f0e5
:10348c00c3fdede7c3140000494b0000d4490020f4
:10349c00c44e0000d8490020ec490020f44900201b
:020000040000fa
:1034ac0070b5050001f032fb4523ec5c64b2002cd6
:1034bc0011dd2e00243603e0013c64b2002c0ad04e
:1034cc006b6a002b07d03000fff710f90028f3d0ff
:1034dc0001f0c4fcf0e74523ff22ea5401f022fb83
:1034ec0001f014fb4423ec5c64b2002c11dd2e00c3
:1034fc00103603e0013c64b2002c0ad02b69002b7f
:10350c0007d03000fff7f2f80028f3d001f0a6fc4a
:0e351c00f0e74423ff22ea5401f004fb70bde7
:020000040000fa
:02352a007047e8
:020000040000fa
:10352c0070b5041e31d0836c013b8364c16a426c5c
:10353c0091422cd00020002b00d070bd251d2800fe
:10354c0001f08cf9626ce26205239b1aa361114baa
:10355c001b689a4201d90f4b1a600f4993009b18b4
:10356c009b00cb185b68a3609a68e26055609d6015
:10357c00e06a83001a189200521862611a189200bd
:10358c005358013353500120d7e70020d5e70020d2
:0c359c00d3e7c046f0490020084800209a
:020000040000fa
:1035a80070b504000d00002833d00021030c2a0c4c
:1035b800002b29d193b2002b18d100292cd1280037
:1035c800604300260300493324d84830fff744fd00
:1035d800061e1fd00300002d00d048333360f4636b
:1035e800356401213000fff79bfb13e0131c261cf8
:1035f800a0b2aab24243b6b29bb27343120c9b1854
:103608001b0cdad00121d8e792b2002afad12e1c7d
:0c361800eee70026300070bd0026fbe746
:020000040000fa
:1036240070b50d0088b0202204000021684601f026
:1036340077fb2a78101e19d06b78002b18d01f2026
:1036440001212b78002b15d00e005a0903409e400f
:1036540033006e469200b658013533436e46b3507c
:10366400efe7013001789142fbd0001b08b070bd38
:103674002000f7e723001f2501200ae00600510976
:103684002a40964032006e4689007158114203d098
:0c36940001331a78002af1d1181be7e777
:020000040000fa
:1036a000f0b589b014000e9a1d000291012311009b
:1036b0001940019003911a4201d1a5420ad8220073
:1036c0000299019801f032f8a54203d8250028009c
:1036d00009b0f0bd2e1b37003200102e00d9102289
:1036e000202104a801f01efb0f2f0ed80f220198f5
:1036f000324004a901f01af8039b002be7d1220005
:103700000299019801f012f8e1e71022019804a94a
:0837100001f00cf8103fe7e79f
:020000040000fa
:1037180070b50d000978040088b0002902d06b78d4
:10372800002b05d1200000f0b5f9001b08b070bdd2
:1037380000212022684601f0f1fa1f2001212b7890
:10374800002b0cd00e005a0903409e4033006e46f1
:103758009200b658013533436e46b350efe7220066
:103768001f2501200ae0060059092b409e4033001e
:103778006e4689007158194203d101321378002b23
:06378800f1d1101bd2e795
:020000040000fa
:10378e0010b50400902911dc00207f291bdd803943
:10379e00080010290ed801f0e6fa0f0f250d170daf
:1037ae000d0d1e0d0d0d0d0d0d0d2500a02903d0b7
:1037be00c02901d0002006e01968081d18600b68aa
:1037ce0023601a60012010bd1968081d18600b686f
:1037de0023601a80f6e71968081d18600b682360cd
:1037ee001a70efe71968081d18600b6823601a60dd
:0637fe00d2175a60e6e755
:020000040000fa
:10380400f7b5040019000a9ee368676800933368fb
:10381400100001932369013b1c00002f00da0127eb
:103824000022009dea540123089d002c03dc002b98
:103834001cd02000febd02000a4309d1089aba1a1e
:103844005219002a04dc002df1dd019a9207eed50d
:10385400099b099adb1700f081fc8c460099130040
:10386400013c30320a55013d6146dee710223368df
:0638740093433360dde721
:020000040000fa
:10387a0070b504001600856b026c002a0cd103682f
:10388a000020002b02d00135a56370bda068fff7a8
:10389a0048fe0023a360f6e7002e0dd1406801f030
:1038aa0032fa6368226c9b186360a2683000934204
:1038ba00e9d323686360e6e7c06801f024fa226c62
:1038ca005142e3689b1ae3602268934202d2a368da
:1038da005b18e3600020022ed5d1002dd3d0013d24
:0238ea00d1e724
:020000040000fa
:1038ec0070b505000c00174b1b78002b0bd0002d6e
:1038fc0021d1002c22d0144b1b785bb2002b0bd0a7
:10390c000120404270bd114800f05cff01280fd12e
:10391c000c4b01221a70eae7a0680b4b98606268a6
:10392c005a60022119702168536898470020e9e712
:10393c0001204042e6e701204042e3e701204042fb
:10394c00e0e7c0461e4a002088490020b449002008
:020000040000fa
:10395c00f0b50c004968236887b00600a768e568d5
:10396c000593002902db02218b43059305a95368bb
:10397c00126802910821200001910097fff73cff8b
:10398c00059bdb0602d5302301382b54059b1b0706
:10399c0002d5202301382b542269059b013a121ab7
:1039ac002918009330003b00fff774fe7368db05a9
:0e39bc0003d56368984200da180007b0f0bd2a
:020000040000fa
:0239ca00704744
:020000040000fa
:1039cc000eb400b582b000280fd1154b1b785bb23a
:1039dc00002b0ad0124b5b68002b06d0012111483a
:1039ec00494200f05fff002803d102b008bc03b0cd
:1039fc00184704ab01930c48039ac82100f016f841
:103a0c000200431ec62b07d8074900230b54044b56
:103a1c0098685b685b699847024800f096fee4e79b
:0c3a2c0088490020b4490020004600201a
:020000040000fa
:103a3800f0b59bb004000d00160000214c2207a829
:103a48001f0001f06bf901235b4202930433ff333b
:103a58000393002c00d101ac0023049405959d42ea
:103a680000d06b1e0693002d06da4f220120084b6a
:103a780040421a601bb0f0bd002d01d00023237016
:103a88003a00310002a80894079401f07df8f1e7a4
:043a9800184a0020a8
:020000040000fa
:103a9c00c9b270b50322040000290ad101f066f8fe
:103aac002418200070bd2378002bfad08b42f8d05c
:103abc0001341442f7d10b48484322680a4e1500d2
:103acc00931945409343aa19aa431343074a134237
:103adc0006d02378002be4d08b42e2d00134f8e7f7
:103aec000434eae701010101fffefefe80808080c4
:020000040000fa
:103afc00f8b50300114940681b681b6898471048cb
:103b0c00c022002101f008f90e4b1868002811d0d2
:103b1c001d001f00002607e083680a4c236000f09c
:103b2c0075fe2068002805d06b688342f4d17e6056
:103b3c003300f2e7044b01221a60f8bdc4120000f6
:0c3b4c00c8460020a0490020a849002025
:020000040000fa
:103b580070b505000c0000f0dbff124b1a682368f3
:103b6800591c1ad06968104800682e68864205d02a
:103b7800914203d80023236001240fe0501a8342a6
:103b880003d800232360012408e09b1a5b182360f4
:103b9800280000f0e1ff002400e0002400f0c4ff4a
:0c3ba800200070bdf4490020e04900201e
:020000040000fa
:103bb40000230e4a10b513600d4a13600d4a1360ba
:103bc4000d4a13600d4a13600d4a536213610133a9
:103bd400936000f074fc00f072fc0a4c0a4b9c42a7
:103be40000d310bd08cc9847f8e7c046144a00201b
:103bf40078480020744800206c4800207048002059
:0c3c04007c480020bc000000c000000054
:020000040000fa
:103c100010b5144b9b7d002b16d0124a137edbb2dd
:103c2000927d52b2002a10db0e4a137edbb2927de7
:103c3000d20701d5db070ed40a4a137edbb2927d90
:103c4000520701d55b0709d410bd5bb2002bebda3c
:103c500000f08af8e8e7fef7f5fbede7fef76afc0f
:083c6000f2e7c046001c00421f
:020000040000fa
:103c6800f0b50c004968236887b00500a768e668c6
:103c78000593002902db02218b43059305a95368ac
:103c8800126802910a21200001910097fff7b6fd02
:103c98002269059b013a121a3118009328003b004b
:103ca800fff7fafc6b68db0503d56368984200da16
:063cb800180007b0f0bd8a
:020000040000fa
:023cbe0070474d
:020000040000fa
:103cc00010b583b2002b19d10004010c104bc00bae
:103cd000401880001b185c68002c12d00c4b4a0066
:103ce000521892009b189868636a984701280ad076
:103cf00002280ad0431e9841404210bd0120404294
:103d0000fbe70020f9e70220f7e70120f5e7c046ce
:043d100088490020be
:020000040000fa
:103d140010b50f4b06225a6000f0ccfefff7e8f90d
:103d240000f0f6fdfff7b6fa0a4800f0b1fa0a4cc3
:103d340020600a490020fff7d7fd60600849002091
:103d440000f072fea06001f093f800f07ffc10bd5b
:103d540000400041b84e0000944900205c4e000031
:043d6400504e0000bd
:020000040000fa
:103d680010b5114b5a8b0723110019401a4200d184
:103d780010bd0e4bd9870c4b80221a76793a5a839c
:103d88001b7e5b0705d5084b04211a8d1a7e0a4253
:103d9800fbd1064b1b6a002bead0044b596a1b6afd
:103da80002209847e4e7c046001c0042bc480020b7
:020000040000fa
:103db800f8b5104b1b68002b1ad00f4f0f4e0d4d46
:103dc80000f0a6fefb68dc68201d00f049fd3368a2
:103dd800013b33602b68013b2b6000f0a5fe206b94
:103de800fff7effd2000fff7ecfd2b68002be7d174
:103df800f8bdc046fc4900202c490020f8490020a5
:020000040000fa
:103e0800f0b50e0087b0039015001049072204a8ea
:103e18001c0000f079ffb368776802933668002dbc
:103e280000d104ad002c03d1280000f0a1fe04004d
:103e3800002f02dbbc4200d93c0022002900029b73
:103e480003980096fff728fc07b0f0bd78490000fa
:020000040000fa
:103e580010b582b080220b490b480c4b019301240a
:103e6800009400235200fdf71dfc094909480a4b3c
:103e78000193009400238022fdf714fcfff7d2fa87
:103e880002b010bda81400000f4e0000c449002065
:0c3e9800b8140000014e0000c0490020da
:020000040000fa
:103ea400f8b504000f00104e002802d13468002c2d
:103eb40008d039002000fff7b3fb235c2518002b42
:103ec40003d1336000252800f8bd39002800fff72e
:103ed40021fc2b5c2a18002b04d0531c33600023d4
:0c3ee4001370f0e73360eee7104a002096
:020000040000fa
:103ef00010b5064c2378002b07d1054b002b02d0c0
:103f0000044800e000bf0123237010bdfc480020de
:103f10000000000000000000044b10b5002b03d08f
:103f20000349044800e000bf10bdc0460000000087
:083f3000004900200000000020
:020000040000fa
:103f380088140000f5480000030000008c140000fd
:103f48009d4a000003000000901400008149000011
:103f58000300000094140000f5490000030000006d
:103f680098140000f944000004000000a0140000a8
:083f7800c54400000400000034
:020000040000fa
:103f800010b50a4b98470a4b984700f063fa094b63
:103f9000ff229343084a9360084b9847084b984781
:103fa000084b984700f0f6fafee7c0462b350000b4
:103fb0002b3500000000000000ed00e0b53b0000e4
:083fc0002b3500002b35000039
:020000040000fa
:083fc80010b5fff749f810bd28
:020000040000fa
:103fd000eff309800e4a1168243808607346f8c070
:103fe00044464d4656465f46f0c072b6fef7f2fbb9
:103ff00062b6074a116808681430f0c8a046a9469e
:10400000b246bb4680f309882438f8c81847c04632
:04401000084a00203a
:020000040000fa
:1040140010b50d4b1968ff2212040a431a6019687f
:10402400ff2212060a431a600024084b1c6000f0a9
:10403400b9fb074b1c6000f0c1fefef7c9fb00f0a2
:10404400a1fe002010bdc04620ed00e01ced00e004
:04405400204a0020de
:020000040000fa
:10405800030010b51a78202a0ad01100093904295a
:1040680006d92b2a06d000212d2a05d1012102e0ec
:104078000133efe70021013300200a2402e0604306
:104088000133801a1a78303a092af8d9002900d160
:04409800404210bdd5
:020000040000fa
:10409c0030b401256d054c00e54215d85c00e542b5
:1040ac0012d80c001c436400044314430fd005d2f7
:1040bc0082428b418041013030bc70479042994123
:1040cc008041013030bc7047002030bc704701206b
:0440dc0030bc70473d
:020000040000fa
:1040e00070b50e001500002811d10c4800f0d4fd69
:1040f00000280fd0094c23681b682900300098471e
:1041000005002000083000f026fb280070bd0125c6
:104110006d42fae701256d42f7e7c0467c49002071
:020000040000fa
:1041200070b50e001500002811d10c4800f0b4fd48
:1041300000280fd0094c2368db682900300098471d
:1041400005002000083000f006fb280070bd0125a6
:104150006d42fae701256d42f7e7c0467c49002031
:020000040000fa
:10416000002b11d1002a0fd1002900d1002802d044
:104170000021c943080007b4024802a14018029078
:1041800003bdc046490d000003b4684601b502985e
:10419000fef742fa019b9e4602b00cbc7047c04637
:020000040000fa
:1041a00030b401256d054c00e54215d85c00e542b0
:1041b00012d80c001c436400044314430cd005d2f5
:1041c00082428b418041404230bc704790429941cd
:0e41d0008041404230bc7047002030bc704738
:020000040000fa
:1041de0030b401256d054c00e54215d85c00e54272
:1041ee0012d80c001c436400044314430cd005d2b7
:1041fe00904299418041404230bc704782428b418f
:0e420e008041404230bc7047002030bc7047f9
:020000040000fa
:10421c00f0b50023070008e0cc5c561efc54451c8e
:10422c000133002c04d032002800002af4d1f0bd58
:10423c002b000021ac19002e04d019700133a342bd
:0c424c00fbd185180028f2d12800f0e713
:020000040000fa
:104258001c2101231b04984201d3000c10391b0aae
:10426800984201d3000a08391b09984201d3000972
:10427800043902a2105c40187047c04604030202c9
:0c42880001010101000000000000000026
:020000040000fa
:1042940070b5041e0fd0094d04220100280000f05f
:1042a40035fd074b00221a605a6063886b80054b0a
:1042b4001a60012070bd0020fce7c046ac49002014
:0842c400a0490020a8490020d8
:020000040000fa
:1042cc0070b500280fd10b4800f0e0fc00280dd091
:1042dc00084c23681b69984705002000083000f043
:1042ec0034fa280070bd01256d42fae701256d42b4
:0842fc00f7e7c0467c490020f1
:020000040000fa
:1043040070b500280fd10b4800f0c4fc00280dd074
:10431400084c23685b69984705002000083000f0ca
:1043240018fa280070bd01256d42fae701256d4297
:08433400f7e7c0467c490020b8
:020000040000fa
:10433c0070b500280fd10b4800f0a8fc00280dd058
:10434c00084c23689b68984705002000083000f053
:10435c00fcf9280070bd01256d42fae701256d427c
:08436c00f7e7c0467c49002080
:020000040000fa
:1043740070b500280fd10b4800f08cfc00280dd03c
:10438400084c23685b68984705002000083000f05b
:10439400e0f9280070bd01256d42fae701256d4260
:0843a400f7e7c0467c49002048
:020000040000fa
:1043ac0010b500280dd10b4b1b785bb2002b0bd03a
:1043bc00084b5b68002b0ad0064880689b689847be
:1043cc0010bd01204042fbe701204042f8e70120ec
:0843dc004042f5e7884900208a
:020000040000fa
:1043e40010b500280dd10b4b1b785bb2002b0bd002
:1043f400084b5b68002b0ad0064a9068db68984734
:1044040010bd01204042fbe701204042f8e70120b3
:084414004042f5e78849002051
:020000040000fa
:10441c0010b500280dd10b4b1b785bb2002b0bd0c9
:10442c00084b5b68002b0ad0064880685b6998478c
:10443c0010bd01204042fbe701204042f8e701207b
:08444c004042f5e78849002019
:020000040000fa
:1044540010b50b480168002905d14368002b02d12f
:10446400fff72bfc10bd04008368064a9bb20c3492
:104474009b009b5842682000984780002018e9e779
:0844840060180000fc4c000070
:020000040000fa
:10448c0010b50400812906dc00207f2912dd136899
:10449c000721073305e0002083290bd113687c39f1
:1044ac0007338b4319000120083111601a685b68cf
:0644bc002260636010bde8
:020000040000fa
:0244c200704741
:020000040000fa
:1044c40070b584b00400c1698369ca1a994201d1e4
:1044d40004b070bd06684568054901a800f09cfb5e
:1044e400336801a928009847e369a361f0e7c0464f
:0444f400b4120000fe
:020000040000fa
:1044f800f0b585b004000500203583695a1bab422e
:1045080001d105b0f0bd07684668054901a800f06b
:1045180081fb3b6801a930009847a561f1e7c046d7
:04452800bc120000c1
:020000040000fa
:10452c000200002070b50a4b4400e55c002d02d15e
:10453c001b19587870bd116801300e78c0b2ae42ac
:10454c0003d11b190131587811600a28ebd9f1e716
:04455c00324c0000dd
:020000040000fa
:10456000f4464a1805d200f05df801d5c01740089e
:10457000604701235b05d34206d200f053f801d512
:104580000120c0074042604701d10042f5d0d0175a
:044590004008704728
:020000040000fa
:1045940000b583b00020fff7bbfb80220649074823
:1045a400002301930133009300239200fdf77cf86c
:1045b400fff750fcfce7c046dc140000814a000011
:020000040000fa
:1045c40030b50d68030008336a1c0ed01c005b680c
:1045d4001a68aa42fad963684b6099608c6061607a
:0e45e400086103680133036030bd0469f3e72a
:020000040000fa
:1045f20070b4012676054c005d00e6420cd8ee420e
:104602000ad825430543154303d0994204d1904269
:0e46120002d1012070bc7047002070bc7047c0
:020000040000fa
:104620004a0010d2520d03231b02ff33d21a0ad4c0
:1046300052421f3209d4400dc90208430123db074f
:0e4640001843d040704700207047d0177047d5
:020000040000fa
:10465000bff35f8f62b6074bc32080001958064a2c
:104660001140c02212040a431a508022d2011a605b
:0c4670007047c04600e100e0ffff00ffc3
:020000040000fa
:10467c0000b583b06b46d971074b5888fff71afb0e
:10468c00022801d003b000bd034b588801226b46b1
:0c469c00d91dfff7bdfef5e7ac4900207a
:020000040000fa
:1046a8000003000081470000e1400000754300005e
:1046b8003d43000021410000cd42000005430000b9
:0c46c800271d0000854c0000bd4d0000c7
:020000040000fa
:1046d400084b1b681b68002b04d1074b0122524274
:1046e4001a607047034b1b68db681a68024b1a6038
:0c46f400f7e7c046044a0020d849002027
:020000040000fa
:1047000070b50500101e0ed00024013a2b5d002b61
:1047100007d0085d002804d0a24202d0661c834264
:0c47200002d0085d181a70bd3400efe7ed
:020000040000fa
:10472c0070b505690400954200d91500002d0bd019
:10473c002a00606900f0e6fa22696369521b226163
:0a474c0000225b1963611a7070bd52
:020000040000fa
:1047560010b500280cd0006800280bd000230022da
:104766000021fdf7ecfd01384342584140b210bd2f
:084776000020fce70020fae737
:020000040000fa
:1047800010b50c00002800d010bd054800f020f83e
:104790000128f9d12268034b1a6001221a71f3e74c
:0847a000844900207c4900203f
:020000040000fa
:1047a800054b04221a60054a00211160044a054994
:1047b800116007221a60704710e000e018e000e07e
:0847c80014e000e07fbb0000db
:020000040000fa
:1047d00010b5041e0cd003680020002b00d010bdc3
:1047e000013000f053f82060431e984140b2f6e7d4
:0447f0000020f4e7ca
:020000040000fa
:1047f40040140000d14a000048140000581400007e
:10480400fd3a00005c14000078140000811e0000d2
:04481400801400000c
:020000040000fa
:0848180010b5fff7d6f810bd42
:020000040000fa
:10482000074a1168086804c8022181f314882030ff
:1048300080f30988bff36f8f1047c046c046c0465b
:04484000084a002002
:020000040000fa
:1048440010b500f02bfb0400fdf7d8f8002803d0c6
:10485400034b802252051a60200000f023fb10bd98
:0448640004ed00e07f
:020000040000fa
:104868000369416882688a60416851605a68824277
:1048780005d0002202611868013818607047826804
:044888005a60f6e795
:020000040000fa
:10488c0010b5020000210120fef788fe041e07d09f
:10489c00002383600360c36000220021fdf74cfd00
:0448ac00200010bd1b
:020000040000fa
:1048b00010b5002809d00068002808d0fdf78afb51
:1048c00001384342584140b210bd0020fce70020af
:0248d000fae705
:020000040000fa
:1048d40010b582b06b46dc1d044b588801222100c0
:1048e400fff762fd207802b010bdc046ac4900203d
:020000040000fa
:1048f40010b5d423c358002b07d01968cc23c35850
:104904008b4201d0fef75af910bdcc23c158f9e708
:020000040000fa
:0c491400014b82225a60704700400041b5
:020000040000fa
:1049200004207146084202d0eff30980bee1eff3a4
:104930000880bbe1c046c046c046c046c046c0462f
:020000040000fa
:1049400010b5041e09d000f043fa00212000fef744
:104950007bf8fdf7e9f9002801d100f0d1f810bd8e
:020000040000fa
:10496000286e696c29002500494e4600696e660074
:0f4970004e414e006e616e00286e756c6c290012
:020000040000fa
:1049800010b504008269c3699a4207d20968406879
:0e49900023681b689847a3690133a36110bd1b
:020000040000fa
:10499e00002310b5934206d103201840421e9041c9
:0e49ae009b08c01810bdc45ccc540133f2e766
:020000040000fa
:1049bc00054a9368d068834201d3181a7047024a9b
:0c49cc001269d318181af9e7bc48002043
:020000040000fa
:1049d800054bd86a9b6a984201d8181a7047024a50
:0c49e800126bd318181af9e7bc48002025
:020000040000fa
:1049f40010b5030082692030824206d91c685868c9
:0c4a0400013a9a6109682368984710bdc8
:020000040000fa
:104a100010b50c00080000f0aff80200024b5888f7
:0c4a20002100fff7fbfc10bdac4900209a
:020000040000fa
:104a2c00044b4a681a60044b0a895a8002221a7095
:0c4a3c0000207047b8490020bc49002051
:020000040000fa
:104a4800bff34f8f034b044ada60bff34f8fc04662
:0c4a5800fde7c04600ed00e00400fa0598
:020000040000fa
:104a640010b50c00044b19681831fff7a9fd01219a
:0c4a74002000fdf7e7ff10bd084a0020fd
:020000040000fa
:104a800070b5054dfa24a40029000020fef79eff12
:0c4a90002000fff755fff7e7cc140000f2
:020000040000fa
:104a9c0010b5d423c358002b06d05968d023c35863
:0a4aac008b4201d0fef786f810bd22
:020000040000fa
:104ab800044b0122c2215a5401315a54b032903960
:084ac8009954704700440041bd
:020000040000fa
:104ad00010b50300034940681b681b689847fff73f
:084ae000b3ff10bdf812000045
:020000040000fa
:104ae800cd2f0000d9490000494c000041220000a8
:084af800994e00005d4c000026
:020000040000fa
:104b0000044b802252051a60bff34f8fbff36f8fa3
:084b10007047c04604ed00e00f
:020000040000fa
:104b180072b6044a136801331360bff34f8fbff3b3
:084b28006f8f7047204a002046
:020000040000fa
:104b3000044b1a68013a1a601b68002b00d162b658
:084b40007047c046204a002026
:020000040000fa
:104b480010b5044cfff734f92368012bfad9fff7a5
:084b5800d3fff7e70848002035
:020000040000fa
:104b6000034b1b680360034b1b6843607047c046e0
:084b7000e0490020f449002097
:020000040000fa
:104b78000378002b06d003005a780133002afbd1b2
:084b8800181a70470020fce739
:020000040000fa
:104b900013b50400019201aafcf7aef96368db06c5
:084ba00001d50120404216bdc1
:020000040000fa
:104ba800d0400b00d1409c46203ad3401843524293
:084bb800634693401843704767
:020000040000fa
:104bc0009140030090409c46203a93401943524242
:084bd0006346d340194370470e
:020000040000fa
:104bd80010b5002903d1fff73bfb203002e00800a5
:084be800fff736fb10bdc046cb
:020000040000fa
:104bf000030008334360012252428260c3600361b4
:064c000000230360704771
:020000040000fa
:104c0600002210b5835c8c5ca34202d10132002bda
:064c1600f8d1181b10bdcf
:020000040000fa
:104c1c000eb403b503aa02ca019200f09bf802b0cd
:064c2c0008bc03b01847ac
:020000040000fa
:104c320068076c094c836a9074a07ac00080688807
:064c420000846c82008179
:020000040000fa
:104c480010b5034b1c6bfff7c3fe013c201a10bdc7
:044c5800bc48002034
:020000040000fa
:104c5c0010b5034b1c69fff7abfe013c201a10bdcd
:044c6c00bc48002020
:020000040000fa
:104c7000114a0000813100007d460000ad4d00006a
:044c8000d548000013
:020000040000fa
:104c8400002802d1024b187970470320fce7c04684
:044c94007c49002037
:020000040000fa
:104c980010b5012108304942fff706fe431e98412e
:044ca800c0b210bdc9
:020000040000fa
:104cac0010b58369023b1b78642b00d010bdfff755
:044cbc00b1fdfbe764
:020000040000fa
:104cc000034b1868002802d0836c0133836470475b
:044cd000084a00206e
:020000040000fa
:104cd40010b50400fff71effa46bfff727ff604227
:044ce400604110bd5e
:020000040000fa
:104ce800034b1b78002b02d1014b01221a7070472d
:044cf8001c4a002032
:020000040000fa
:104cfc009b4d00009f490000c94e0000c94e0000aa
:044d0c00c94e00008c
:020000040000fa
:104d100010b5002a05d00023cc5cc4540133934263
:044d2000fad110bdf7
:020000040000fa
:104d2400002a06d00300c9b2121819700133934245
:044d3400fbd17047f8
:020000040000fa
:104d380010b50c00fef7aefe0378e4b2a34200d033
:044d4800002010bd7a
:020000040000fa
:104d4c0003000a7818001a7001310133002af8d1d7
:044d5c007047c04696
:020000040000fa
:104d600010b513000a000249fef766fe10bdc046ea
:044d7000ffffff7fc3
:020000040000fa
:104d740002b4714649084900095c49008e4402bcea
:044d84007047c0466e
:020000040000fa
:104d880082b00023019372b6019b002bfcd002b0c5
:024d9800704762
:020000040000fa
:104d9a008a18914201d10020704700230b7001311b
:024daa00f7e729
:020000040000fa
:104dac0010b5024b5888fff717fb10bdac4900201b
:020000040000fa
:044dbc00012070471b
:020000040000fa
:104dc00062b6bff34f8fbff36f8f64dfc046c0463c
:020000040000fa
:104dd000024a1368013313607047c046d04900206f
:020000040000fa
:104de00010b5fcf7f7fe029a039bfcf77bfb10bda6
:020000040000fa
:104df000f0b40125ed076b40004c2047eb14000098
:020000040000fa
:0e4e000010b5fff771ff0a20fff79afdf9e7e2
:020000040000fa
:0e4e0e0010b5fbf72efe0a20fff793fdf9e723
:020000040000fa
:0e4e1c000300413b192b01d820231843704797
:020000040000fa
:0e4e2a000300613b192b01d85f23184070472d
:020000040000fa
:0c4e3800014b58887047c046bc49002060
:020000040000fa
:0c4e4400014b18687047c046b8490020b8
:020000040000fa
:0c4e500000000000040000000000000052
:020000040000fa
:0c4e5c00b44e0000a8460000000000005a
:020000040000fa
:0c4e6800014b01221a607047e449002051
:020000040000fa
:0c4e7400014b00221a7070471c4a0020fd
:020000040000fa
:0c4e800010b50400fff762ff200010bd19
:020000040000fa
:0c4e8c0010b50400fff7c4f9200010bdb1
:020000040000fa
:084e980010b5fff78ffd10bdfe
:020000040000fa
:084ea000eff3108072b67047b9
:020000040000fa
:064ea80080f31088704742
:020000040000fa
:064eae00002303617047c0
:020000040000fa
:044eb400e84a0000c8
:020000040000fa
:044eb80000000000f6
:020000040000fa
:044ebc0072b6fee7e5
:020000040000fa
:044ec00072b6fee7e1
:020000040000fa
:044ec40004000000e6
:020000040000fa
:044ec800002070470f
:020000040000fa
:044ecc007047c04625
:020000040000fa
:0200000400807a
:0440000077c700d8a6
:020000040000fa
:0200000400807a
:044004005c00ffff5e
:00000001FF
