:020000040000fa
:10000000f07f0020c18d0000635b00005778000086
:1000100000000000000000000000000000000000e0
:10002000000000000000000000000000ab7f0000a6
:100030000000000000000000e18e0000c99c0000ec
:10004000bf500000bf500000bf500000bf50000074
:10005000ed820000bf500000bf500000bf50000004
:10006000bf500000bf500000bf500000bf50000054
:10007000bf500000c5460000b5890000bf50000019
:10008000bf500000bf5000004d9b0000bf5000005b
:10009000bf5000000000000000000000bf50000042
:1000a000bf500000bf500000bf500000bf50000014
:020000040000fa
:1000b000f8b5c046f8bc08bc9e467047598d000094
:1000c000f8b5c046f8bc08bc9e467047318d0000ac
:020000040000fa
:1000d000c24e000001000000a46200000100000008
:020000040000fa
:1000e000427573206572726f72202835292e25643f
:1000f00020256c780d0a00004661696c65642074e7
:100100006f2077616b652075702074686520636867
:1001100069700d0a000000006661696c65642074f6
:100120006f206c6f6164206669726d776172652003
:1001300066726f6d20666c6173682e0d0a00000098
:10014000447269766572566572496e666f3a203000
:10015000782530386c780d0a000000006661696c03
:10016000656420746f2064652d696e697469616cc3
:10017000697a650d0a0000005b6e6d692073746119
:1001800072745d3a206661696c20696e69742062e0
:1001900075730d0a0000000043686970204944200f
:1001a000256c780d0a0000005b6e6d692073746128
:1001b00072745d3a206661696c20696e697420739f
:1001c00070690d0a000000006661696c6564207446
:1001d0006f20656e61626c6520696e746572727500
:1001e0007074732e2e0d0a005b6e6d692073746f30
:1001f000705d3a20636869705f6465696e69742038
:100200006661696c0d0a00005b6e6d692073746f26
:10021000705d3a2053504920666c617368206469b0
:100220007361626c65206661696c0d0a00000000f4
:100230005b6e6d692073746f705d3a206661696ce6
:1002400020696e6974206275730d0a004572726fc1
:100250007220726563656976696e672053534c201e
:1002600066726f6d20746865204849460d0a00006b
:100270006869665f72656769737465725f63622837
:1002800029206661696c65642077697468207265ed
:10029000743d2564000000005b7370695f636d64ea
:1002a0005d3a204661696c656420636d64207772f5
:1002b0006974652c20627573206572726f722e2ec0
:1002c0002e0d0a000d5b7370695f636d645f72735e
:1002d000705d3a204661696c656420636d642072cc
:1002e0006573706f6e736520726561642c20627532
:1002f00073206572726f722e2e2e0d0a00000000a0
:100300000d5b7370695f636d645f7273705d3a203b
:100310004661696c656420636d6420726573706ffb
:100320006e736520726561640a0000005b7370691a
:100330005f646174615f726561645d3a2046616902
:100340006c6564206461746120726573706f6e7394
:100350006520726561642c20627573206572726f0e
:10036000722e2e2e0d0a00005b7370695f6461743b
:10037000615f726561645d3a204661696c65642005
:100380006461746120726573706f6e73652072654d
:1003900061642e2e2e2825303278290d0a000000a7
:1003a0005b7370695f646174615f726561645d3a1b
:1003b000204661696c6564206461746120626c6fc1
:1003c000636b20726561642c2062757320657272a4
:1003d0006f722e2e2e0d0a005b7370695f6461745c
:1003e000615f726561645d3a204661696c65642095
:1003f0006461746120626c6f636b204352432072ae
:100400006561642c20627573206572726f722e2e86
:100410002e0d0a005b7370695f726561645f7265bf
:10042000675d3a204661696c656420636d642c20c9
:10043000726561642072656720282530386c7829e0
:100440002e2e2e0d0a0000005b7370695f726561cd
:10045000645f7265675d3a204661696c656420631c
:100460006d6420726573706f6e73652c20726561a8
:10047000642072656720282530386c78292e2e2e4e
:100480000d0a00005b7370695f726561645f72657d
:10049000675d3a204661696c65642064617461201f
:1004a000726561642e2e2e0d0a0000005265736580
:1004b0007420616e64207265747279202564202531
:1004c0006c780d0a000000005b7370695f777269d9
:1004d00074655f7265675d3a204661696c6564208a
:1004e000636d642c207772697465207265672028bb
:1004f0002530386c78292e2e2e0d0a005b7370691a
:100500005f77726974655f7265675d3a20466169fd
:100510006c656420636d6420726573706f6e7365c3
:100520002c20777269746520726567202825303821
:100530006c78292e2e2e0d0a00000000526573657e
:100540007420616e642072657472792025642025a0
:100550006c7820256c780d0a000000005b6e6d5fe2
:100560007370695f696e69745d3a204661696c6594
:100570006420696e7465726e616c207265616420be
:1005800070726f746f636f6c207769746820435268
:1005900043206f6e2c207265747279696e672077c4
:1005a00069746820435243206f66662e2e2e0d0a12
:1005b000000000005b6e6d5f7370695f696e697447
:1005c0005d3a204661696c656420696e7465726e7f
:1005d000616c20726561642070726f746f636f6c00
:1005e0002e2e2e0d0a0000005b6e6d5f7370695f2a
:1005f000696e69745d3a204661696c656420696e54
:100600007465726e616c2077726974652070726fa8
:10061000746f636f6c207265672e2e2e0d0a0000ba
:100620005b6e6d5f7370695f696e69745d3a2046d9
:1006300061696c20636d6420726561642063686920
:10064000702069642e2e2e0d0a0000005b6e6d5f17
:100650007370695f696e69745d3a20636869706977
:1006600064202825303878290d0a00005b737069f2
:100670005f726561645f626c6f636b5d3a204661b7
:10068000696c656420636d642c207265616420620e
:100690006c6f636b20282530386c78292e2e2e0d38
:1006a0000a0000005b7370695f726561645f626c71
:1006b0006f636b5d3a204661696c656420636d64ad
:1006c00020726573706f6e73652c20726561642093
:1006d000626c6f636b20282530386c78292e2e2ea3
:1006e0000d0a00005b7370695f726561645f626c24
:1006f0006f636b5d3a204661696c656420626c6f64
:10070000636b206461746120726561642e2e2e0d0e
:100710000a000000526573657420616e6420726582
:1007200074727920256420256c782025640d0a00d8
:100730005b7370695f77726974655f626c6f636b1e
:100740005d3a204661696c656420636d642c207796
:100750007269746520626c6f636b20282530386c79
:1007600078292e2e2e0d0a005b7370695f777269ef
:1007700074655f626c6f636b5d3a204661696c659e
:100780006420636d6420726573706f6e73652c20d6
:10079000777269746520626c6f636b20282530382e
:1007a0006c78292e2e2e0d0a000000005b737069f4
:1007b0005f646174615f77726974655d3a20466158
:1007c000696c6564206461746120626c6f636b2086
:1007d000636d642077726974652c2062757320657f
:1007e00072726f722e2e2e0d0a0000005b737069fc
:1007f0005f646174615f77726974655d3a20466118
:10080000696c6564206461746120626c6f636b2045
:1008100077726974652c20627573206572726f72cd
:100820002e2e2e0d0a0000005b7370695f646174e8
:10083000615f77726974655d3a204661696c6564d1
:10084000206461746120626c6f636b2043524320ab
:1008500077726974652c20627573206572726f728d
:100860002e2e2e0d0a0000005b7370695f7772698f
:1008700074655f626c6f636b5d3a204661696c659d
:100880006420626c6f636b206461746120777269ad
:1008900074652e2e2e0d0a005b7370695f77726986
:1008a00074655f626c6f636b5d3a204661696c656d
:1008b0006420627573206572726f722e2e2e0d0a7f
:1008c000000000005b7370695f77726974655f6236
:1008d0006c6f636b5d3a204661696c65642064618e
:1008e000746120726573706f6e73652072656164e8
:1008f0002c2025782025782025780d0a000000007e
:10090000536c6f77696e6720646f776e2e2e2e0d95
:100910000a0000004661696c656420746f20616c98
:100920006c6f632072782073697a652025640d0ae4
:100930000000000028484946294661696c6564202a
:10094000746f2077616b65757020746865206368cb
:1009500069700d0a00000000484946206d657373f8
:10096000616765206c656e6774682028256429209e
:1009700065786365656473206d6178206c656e676a
:10098000746820282564290d0a000000286869661b
:100990002920574946495f484f53545f5243565f99
:1009a0004354524c5f3120627573206661696c0d4f
:1009b0000a00000028686966292061646472657312
:1009c0007320627573206661696c0d0a0000000077
:1009d000286869662920436f727275707465642097
:1009e0007061636b65742053697a65203d202575bd
:1009f000203c4c203d2025752c2047203d2025758e
:100a00002c204f50203d20253032583e0d0a00004a
:100a1000574946492063616c6c6261636b2069735e
:100a2000206e6f7420726567697374657265640dfa
:100a30000a000000536f636b65742063616c6c6225
:100a400061636b206973206e6f74207265676973d0
:100a500074657265640d0a004f74612063616c6c8b
:100a60006261636b206973206e6f742072656769c1
:100a70007374657265640d0a00000000437279703a
:100a8000746f2063616c6c6261636b206973206eac
:100a90006f7420726567697374657265640d0a000e
:100aa0005369676d612063616c6c6261636b20697f
:100ab00073206e6f74207265676973746572656404
:100ac0000d0a000053534c2063616c6c6261636bd0
:100ad000206973206e6f7420726567697374657224
:100ae00065640d0a00000000286869662920696ea7
:100af00076616c69642067726f75702049440d0ad5
:100b000000000000286869662920686f73742061fe
:100b10007070206469646e27742073657420525865
:100b200020446f6e65203c25753e3c25583e0d0add
:100b30000000000028686966292057726f6e6720e0
:100b400073697a650d0a0000286869662920466184
:100b50006c736520696e7465727275707420256c93
:100b6000780d0a002868696629204661696c656409
:100b700020746f207265616420696e74657272758d
:100b80007074207265670d0a0000000028686966ad
:100b900029204661696c20746f2068616e646c6501
:100ba00020696e7465727275707420256420747289
:100bb0007920616761696e2e2e0d0a0020686966d2
:100bc0005f726563656976653a20496e76616c6926
:100bd0006420617267756d656e740d0a0000000017
:100be0004150502052657175657374656420536976
:100bf0007a65206973206c61726765722074686120
:100c00006e2074686520726563656976656420622c
:100c100075666665722073697a65203c25753e3c71
:100c2000256c753e0d0a00004150502052657175cb
:100c300065737465642041646472657373206265d2
:100c4000796f6e6420746865207265636569766586
:100c50006420627566666572206164647265737390
:100c600020616e64206c656e6774680d0a00000078
:100c7000475270203f2025640d0a000047656e65cd
:100c8000726174656420486f737446696c6548616d
:100c90006e646c657249442069732025750d0a00e5
:100ca000496e76616c6964204f544120726573709f
:100cb000202564203f0d0a0057494e4320697320c8
:100cc0006e6f7420696e20616e20617070726f703b
:100cd000726961746520737461746520666f722037
:100ce00074686973206f7065726174696f6e210d2d
:100cf0000a000000556e61626c6520746f20726599
:100d000061642053504920466c6173680d0a0000ed
:100d1000436f6e666c6963746564204950202220bd
:100d200025752e25752e25752e257520220d0a0078
:100d3000524551204e6f7420646566696e6564206b
:100d400025640d0a000000000a57494e4331353032
:100d500030204669726d7761726520446174613a32
:100d60000d0a00004669726d7761726520566572e2
:100d70003a2025752e25752e25752053564e205266
:100d800065762025750d0a004669726d776172657a
:100d9000204275696c742061742025732054696d3c
:100da000652025730d0a00004669726d77617265d2
:100db000204d696e20447269766572205665723adc
:100dc0002025752e25752e25750d0a00447269762d
:100dd0006572205665723a2025752e25752e25756b
:100de0000d0a000032333a31333a3232000000004b
:100df0004a756e20323920323032360044726976bc
:100e00006572204275696c742061742025732054ca
:100e1000696d652025730d0a0d0a00004d69736d1b
:100e200061746368204669726d77617265205665ea
:100e30007273696f6e0d0a00536f636b65742025c2
:100e4000642073657373696f6e204944203d2025cb
:100e5000640d0a00726563762063616c6c62616385
:100e60006b2073657373696f6e204944203d2025a4
:100e7000640d0a0043757272656e74203c25643ef1
:100e80000d0a0000446973636172642072656376c1
:100e90002063616c6c6261636b2025642025640da6
:100ea0000a00000068696620727820646f6e652011
:100eb0006661696c65640d0a0000000073656e640c
:100ec0002063616c6c6261636b2073657373696f1f
:100ed0006e204944203d2025640d0a004469736357
:100ee0006172642073656e642063616c6c6261631f
:100ef0006b2025642025640d0a0000000d0a574967
:100f00004e433a20496e697469616c697a696e670b
:100f10002e2e2e0d0a0000006d326d5f7769666916
:100f20005f696e69745f686f6c64206661696c6587
:100f3000640d0a000d0a6d326d5f776966695f693d
:100f40006e69745f7374617274206661696c656444
:100f50000d0a00000d0a57494e433a20496e697444
:100f600069616c697a696e672e2e2e636f6d706c85
:100f70006574650d0a0000000d526563656976654c
:100f8000642076616c7565206973203a2564206160
:100f90006e64207461736b2069642069732025641a
:100fa0000a0000005461736b4c65644d6772000069
:100fb0005461736b53656375726974794d67720020
:100fc0005461736b576966694d6772006c65645153
:100fd00000000000736563510000000077696669d6
:100fe0005100000049444c45000000000d0a204c0f
:100ff0006564206d677220696e69742066756e6322
:1010000074696f6e0d0a00000d0a205365637572d6
:10101000697479206d677220696e69742066756ed7
:101020006374696f6e0d0a000d0a205769666920a6
:101030006d67722077696e6320696e6974206675ca
:101040006e6374696f6e0d0a000000000d0a205770
:10105000696669206d677220696e69742066756eb5
:101060006374696f6e0d0a000d0a20576966692066
:101070006d677220696e697469616c697361746906
:0c1080006f6e20737563636573730a0064
:020000040000fa
:10108c00f0b59db012930b6814900b934b681191b3
:10109c0004938b680d930b691593cb6808931368b5
:1010ac00546806930794069807990022002308f0c9
:1010bc00f8f800280dd10b9b5b073ed408230b9a44
:1010cc001a400c920d9a09920b9a1a4213d01833ab
:1010dc000ae080200006844606990a0007996144bc
:1010ec000b00069207932d23089a13700d9b013b5e
:1010fc00099301230c93079b06995b00c74a5b0875
:10110c0000291cd193421ad1089a129b94460c9830
:10111c00413bc3496044192b00d9c24909f066fa16
:10112c00089809f051f80b9b0200009308990d9b4d
:10113c00149806f0bffc1db0f0bd2b23d4e79342ee
:10114c0002d80cd100290ad0089a129b94460c980c
:10115c00413bb5496044192be0d9b449dee7002284
:10116c0006980799002308f03bfc0026b04f002896
:10117c0000d120e100230393129809f0e7f9c3b2e0
:10118c001093049b002b00daebe1109b0a93672b66
:10119c0012d1049b002b01d10133049365230a93d4
:1011ac00039b04331ddb039b049a934219da6623d9
:1011bc000a93039b002b14da049b013304930a9bc0
:1011cc00662b0ed1039b002b03da00230026984fcd
:1011dc000393109b672b04d0039a049b944663449f
:1011ec000493069a079b0e920f93002334003d0044
:1011fc00139322000e980f992b0005f089fb05f034
:10120c0005fd8022120694460e9b1690179118939a
:10121c000f9b63441993189a199b00920193220017
:10122c002b0009f075f980231b06cb18002229002e
:10123c000e900f9320007f4b05f06afb139b04006c
:10124c0001331393139a049b0d009342d1d10022c6
:10125c00794b02f099fe0e9a0f9b04000d0008f0da
:10126c0001f8002800d0d5e00e9a0f9b2000290031
:10127c0008f0b6fb002806d01698179908f0d6fa95
:10128c00c00700d4c6e00698079922002b0002f094
:10129c00f9fa002206900791664b3000390002f0f3
:1012ac0073fe069a079b0e900f9107f057fe0028cd
:1012bc0000d1c7e0039b013303930a9b662b00d03c
:1012cc00c2e0049b039d0133049300263700049b6a
:1012dc000c9ceb1a1693169b9d4200d0dee0002f5f
:1012ec0000d11de10026089b1f190a9b3e70652b3f
:1012fc002dd1159b5d1e089b5e55039bb34202daf4
:10130c005b4203930136039b002b00d011e1159b2c
:10131c00eb1a0333002b00dd0be12b236a1e002e8e
:10132c0000d002330899023d8b54129b413b192b80
:10133c0001d845230a93089b59190a9b0b70ac42a0
:10134c0002da380009f052f9099b023b0993032396
:10135c000b9a1340022b00d0e2e6099b002b00dc19
:10136c00dee6089808f030ff0c9b834200dcf1e0cd
:10137c001800089b30219c46099a604409f006f835
:10138c0000230d93cce626002f00039b013303931f
:10139c000022284b3000390002f0f6fd04000d004d
:1013ac0002000b000698079907f07bff0028ead093
:1013bc000024012523e00390eae7204b039a9a428c
:1013cc0012da002c10d10698079900221c4b02f05f
:1013dc00dbfd002206900791194b3000390002f01a
:1013ec00d3fd2c0006000f0030003900114b0022f9
:1013fc0005f08efa06000f00039b013b03933200ad
:10140c00069807993b0007f04cff0028d5d1b3e6ae
:10141c000623c2e60024002535e7c0460000f07f15
:10142c00409d0000449d0000489d00004c9d000024
:10143c000000f03f0000244000001440d4feffffe9
:10144c00000050430e960f970a9d653d6b1e9d4103
:10145c00039b6d421d4038e7002f0ad1002d08da9e
:10146c002e23089a139901345354099b0137013bdd
:10147c000993321923009446302102e0089ad15482
:10148c0001336345fad1099a3419961b089a303006
:10149c00d054731e01340026099320e0119b139441
:1014ac001b69053ba34200d819e70e9a0f9b0698bf
:1014bc00079905f02dfa05f0a9fb0490059108f0a9
:1014cc00b5f9092800dd092010230b9a13400343ba
:1014dc00c2d1109b672bbfd1002dbdda0136802203
:1014ec000e980f9912069446069b013d1a93079b82
:1014fc0063441b931a9a1b9b00920193049a059bbd
:10150c0009f006f880231b06cb18069007930e985b
:10151c000f990022174b05f0fbf90e900f91dae6ac
:10152c000b9bdb0600d4dde62e23089a1355013401
:10153c00d8e603980a2105f0cbfd089b3031013d1c
:10154c00595503980a2105f079fd099b0390013b3d
:10155c000993d8e6089b09991a5c5b181a54013850
:10156c0002e7109b672b00d152e70a9306230493e2
:08157c0022e6c04600002440f5
:020000040000fa
:10158400f0b599b012930b68cf680a934b68169024
:101594000e938b680b930b6911931368546806932d
:1015a4000794069807990022002307f07efe00287e
:1015b4000ed10a9b5b072ed408230a9a0a991a4073
:1015c40005920b9a194213d018333b7013000ce0a8
:1015d40080200006844606990a00079961440b009e
:1015e400069207932d233b700b9b5a1e01230593f0
:1015f400079b06995b005b0800290ed1af48834224
:101604000bd1129b059a413bad4cae49b818192b2e
:1016140011d921000fe02b23e5e7a848834202d823
:1016240018d1002916d0129b059a413ba64ca74914
:10163400b818192bedd808f0ddff200008f0c8fd1c
:101644000a9b0200009339000b9b169806f036faa9
:1016540019b0f0bd059b0598591c30233b54129bcf
:10166400413b0f930f987823192800d8203b059805
:101674007b540230931e0590099300220698079923
:10168400002308f0b1f9002800d16de10023904c4b
:10169400089302930394182310930e9b002b00dbf2
:1016a40010930026029c039d109b01331793069a06
:1016b400079b0c920d930c980d9922002b0005f0ba
:1016c4002bf905f0a7fa22002b001490159102f0d3
:1016d4005ffc02000b000c980d9908f025ff7d4b70
:1016e4000c900d9100222000290002f051fc0e9b69
:1016f40004000d000136002b07da0c980d99002226
:10170400002308f071f9002804d1179b9e42d2d11e
:10171400109e01360022200029006f4b02f038fc95
:1017240004000d0002000b000c980d9907f0bdfd9c
:10173400002800d01ee10c980d9922002b0008f01f
:1017440053f9002806d01498159908f073f8c007c7
:1017540000d40fe10698079922002b0002f096f8b6
:1017640006900791079b069a5b005b08002a03d149
:10177400524a934200d144e7119b059a053b1493c6
:10178400934200d83de100257342140016001793dc
:1017940010950c95029a039b0698079905f0bcf8de
:1017a40005f038fa1290139108f044f8031e00d0a3
:1017b400e3e00c9a002a00d1dfe00135029a039b92
:1017c4001298139902f0e4fb02000b0006980799a3
:1017d40008f0aafe002206900791029803993d4b57
:1017e40002f0d6fb0c9b179a013b029003910c93d9
:1017f400934203d0149b26009c42cbd3109b002b16
:101804001ad1002d00dcfde00e9b002b00dcf9e07a
:101814000a9bdb0700d5f5e02e2230213b191a7014
:101824002a19ba18597001339342fbd16419ed4354
:10183400099b0134eb18099300263b191e7002938f
:10184400119b5d1e089b7e55b34202da5b420893ee
:101854000136089b002b00d0bce0119beb1a01332e
:1018640000d1b7e02b236a1e002e00d00233bb54f4
:101874000f9a7023023d192a00d8203b79190b7066
:10188400ac4202da029808f0b5fe03230a9a134028
:10189400022b11d1099b9c1e002c0ddd380008f091
:1018a40097fc059b984200dba4e0f8182200302145
:1018b40008f070fd00230b933800bfe60000f07fb2
:1018c400449d0000409d00004c9d0000489d000088
:1018d4000000f03f0000b03f00002040089b02944d
:1018e400039501330893029a039b1000190001f039
:1018f400cdff04000d0002000b000698079907f0c5
:10190400d4fc0028ead0029a039b0698079907f0b2
:10191400ccfc002800d1bee60298039900223d4b7e
:1019240002f036fb0022002308f05ef800280fd0f6
:10193400029803990022384b02f02afb00220290fd
:10194400039106980799344b02f022fb0690079105
:10195400029803992f4b002202f01afb089b029075
:101964000391013b0893cee700232c4c089002938b
:101974000394b8e700240025ece6109a002a0ad163
:101984000c9a002a07d02e22ba55099a0134013a3a
:1019940009920122109230222e1901e03a550134a5
:1019a400b442fbd11800099a5730551b092b01dcae
:1019b400303318000f9b192b06d820230343613bb7
:1019c400192b01d808f0cdfd6b1e741c0025b855e9
:1019d4000993f3e608980a2105f07efb013d3031b6
:1019e400089879550a2105f02dfb099b0890013bc5
:1019f40009932ee7099b3a5c023bfb181a54013801
:101a04004fe7059c0a9bdb0600d415e72e233b55c4
:101a1400013411e70000e03f000050430000f03fb4
:020000040000fa
:101a2400f0b5d6464f464646c0b596b00c001500f4
:101a34000300413bdab2162a13d89300b54ad358af
:101a44009f4606260023102201a9280004f0d6fd93
:101a5400002806d101ab0c27df571b7b0a2b00d8cb
:101a64001fe116b0e0bcba46b146a846f0bd072453
:101a74000023082205a9280004f0c0fd0028f0d1a5
:101a840005ab00255d571b780a2bead805ab9e8869
:101a940008f092fd032800d9c7e105ab5a8801abd1
:101aa4001a809d4b2a019b18db889bb2b34200d05d
:101ab400c2e19a4b1b68002bd3d0984b1b6801aa38
:101ac400210028009847cce70023042205a9280018
:101ad40004f094fd0028c4d105ab5a7801ab1a7008
:101ae4008e4b1b68002bbcd08c4b1b6805aa0020b6
:101af400105601aa01219847b3e70023042205a93f
:101b0400280004f07bfd0028abd105ab5a7801ab6b
:101b14001a70824b1b68002ba3d0804b1b6805aa4c
:101b24000020105601aa022198479ae700230c22ac
:101b340001a9280004f062fd002800d091e701ab60
:101b440009229a565b7a0a2b28d801a80821415603
:101b5400714b09015918c97ac9b214011b19d972f8
:101b6400012199724189083989b219816c490b881c
:101b740001339bb20b800b889bb2002b03d10b88e3
:101b840001339bb20b80664b198889b2624b1201f8
:101b94009b18d98008f010fd032817d805ab01aabb
:101ba400517a1970022199805188d980029a07923a
:101bb4005a4b1b68002b00d153e7584b1b6801aaf2
:101bc4000820105605aa042198474ae708f0eefcbd
:101bd400534b1b889bb201aa527a52b2514906f068
:101be40073f9dbe70023059306935738431e9841a6
:101bf400424203239a430832002305a9280004f033
:101c0400fdfc002800d02ce705ab002018561b78fb
:101c14000a2b00d925e701ab187005aa527852b2f5
:101c24005a703d4b01015b181b899bb2591e8b41b5
:101c34005b42052119400531002a13d105ac6288a5
:101c4400083a92b2344b05015b191a8122795a730e
:101c5400324b1b68002b00d103e7304b1b6801aaf1
:101c64009847fee605aa94782b4b05015b199c73f3
:101c7400d278da73ece70023442205a9280004f0a3
:101c8400bdfc002800d0ece6274b1b68002b00d1dc
:101c9400e7e6254b1b68159905a89847e1e6092650
:101ca400d0e601abdb89984608f086fc03282ad8e5
:101cb400194b3a019b1800221a7301aa0821505e9d
:101cc400824651898c4605a950884881029a089217
:101cd400db889bb2434500d07ee05346002b01ddf8
:101ce400a24525db05ab52469a80002305930b4b96
:101cf4001b68002b00d1b4e6084b1b6805aa310011
:101d040038009847ade608f051fc0849424606f011
:101d1400dbf8cde718850000902c00201c31002052
:101d240088310020380e000018310020540e0000c5
:101d34009cb2cc80564b3a01d358002b00d190e68c
:101d4400534b9b189b889bb2002b00d189e6504bc8
:101d54009b189b7a012b00d083e64d4b9b189b88e4
:101d6400e31a1bb2a046002b04dd494b9b189b8849
:101d74009bb29846464b3a01d1582800604401234f
:101d8400424604f03bfc00281ad1414b3a01d0589a
:101d940005a9059040468880c8884446001bc88031
:101da400981800218180d1503a4b1b688b4200d196
:101db40057e6384b1b6805aa31003800984750e6af
:101dc40008f0fafb002800d14be608f0effb32499b
:101dd400220006f079f844e608f0eefb032816d852
:101de400102c00d83de6012300220021002004f03d
:101df40005fc002800d134e608f0defb002800d101
:101e04002fe608f0d3fb254906f05ef829e608f032
:101e1400cdfb1f4b3f01db19db889bb220494246b7
:101e240006f052f8dce7082422e608f0bffb1d495f
:101e3400320006f049f830e608f0befb032800d86b
:101e44000fe608f0b3fb124b2d015b19db889bb244
:101e54001549320006f038f803e60123142205a9d7
:101e6400280004f0cbfb002800d0fae50f4b069abb
:101e74001b689a4200d0f4e50d4b1b68002b00d17f
:101e8400efe505a90a7c079905989847e9e5c04656
:101e9400902c00201c310020740e0000a40e0000c1
:101ea400840e0000bc0e0000dc0e00001031002087
:041eb40014310020c5
:020000040000fa
:101eb800f0b5c64600b5eab00c1e00d1bce0c54b73
:101ec8005d68002d00d1b7e00438c3b22e2b00d9cd
:101ed800b2e09800c04b1b589f46eb7b002b00d10b
:101ee800aae00023eb730123cb56002b12d10b7809
:101ef8006b74002b0ad18823ec58002c00d19be08e
:101f0800b448002300220021a04795e0287c07f070
:101f1800beff91e000236b748ee02800343004315a
:101f2800062208f02bfa01263a23ee54273b98465e
:101f3800a84427000a3720223900404608f01efa34
:101f48002121380008f04ef93323e8540122a25623
:101f58000a33ea54a2780133ea54e278033bea549c
:101f6800ae744d33ec58002c66d06a7c297c013164
:101f7800c9b298484346a047002805d1954b5a68ee
:101f880088230021d15057e0924b5b681c7c0134b8
:101f9800e4b21c7408f0eafa844205d38d4b5a68ff
:101fa80088230021d15047e08a4c6368187c07f0e9
:101fb8006eff636800229a743ee00b78012b0ed006
:101fc800002b02d1ab735422ab548c23ed58002d57
:101fd80032d08048637822780100a8472ce0ab73a0
:101fe800a133eb5c002bf0d1a433eb58002becd0e1
:101ff800a1230122ea54e8e78c23ed58002d1bd0d9
:1020080000228a56130015331ad0130014330bda42
:102018000523110017310bd0163253425a4153424f
:1020280003229343073303e01432531e9a41931d4e
:10203800684800220100a8476ab080bcb846f0bdd5
:102048000123f5e72b7b002b02d1a1330122ea54af
:10205800e1780906a3781b041943237819436378a8
:102068001b021943a423e9501433eb58002be3d087
:1020780058489847e0e7080005f0e6fa011edbd06b
:10208800544b5a689023d358002bd5d051489847c1
:10209800d2e7c023eb58002bced02121200008f036
:1020a800a1f80600c3b203a920228b54202bc3d861
:1020b800002103a808f06cf9ff223240210003a890
:1020c80008f05cf96223e35c0eaa1370022b0fd0b0
:1020d8006323e35c5a425341dbb23e4cc026ad5900
:1020e8000eaa03a92000a847636800229a51a3e713
:1020f80027002137380008f069f806000eab187180
:10210800402200213d236b44180008f041f9ff22ca
:10211800324039003d236b44180008f02ff9d7e707
:102128002121200008f05ef80600c3b27522ab54e6
:10213800202b00d980e72f005537553a0021380069
:1021480008f026f9ff2232402100380008f016f97d
:102158002123e65c6333ee545f3be35c1b062422d9
:10216800a25c120413432222a25c13432322a25c22
:1021780012021343ab677c239846a8440622210029
:102188002631404608f0faf801238222ab542e3a51
:10219800ab549333ed58002d00d14de70d48683b03
:1021a800e3560193009643463a000100a84743e7e7
:1021b80000228a564e23ea544a33eb58002b00d1aa
:1021c8003ae7044c210020009847626898230021d0
:1021d800d15031e77c3000205c6b00009c23eb5829
:1021e800002b00d128e703a807f06efba51c2121ce
:1021f800280007f0f7ffc2b2290003a806f06efd19
:10220800617803a807f0c0fb2378012b09d0022bc3
:1022180012d00f4842689c23d358002200219847c7
:102228000ae70ea808f026f9094842689c23d35803
:102238000eaa03a99847ffe623344121200007f09e
:10224800d1ffc2b221000ea806f00effece7c0468f
:042258007c300020b6
:020000040000fa
:10225c00ec2f00201c000000000000008531002045
:10226c0001000000000000006c3000201000000095
:10227c0000000000542f00200400000000000000ab
:10228c009231002001000000010000000400000059
:10229c00d83000200c000000000000008a31002023
:1022ac000100000000000000e831002002000000e6
:1022bc000100000000080000c42f002028000000ce
:1022cc0000000000e43000200c00000000000000c2
:1022dc00933100200100000001000000ff0000000d
:1022ec00c03000200800000000000000f03000208a
:1022fc0014000000000000008631002002000000e5
:10230c000000000004310020080000000000000064
:10231c008b31002001000000000000000c31002077
:10232c0004000000000000008c31002002000000be
:10233c000000000010310020080000000000000028
:10234c008e31002001000000000000001831002038
:10235c00080000000000000088310020020000008e
:10236c0000000000902c0020b000000000000000d5
:10237c00002a002008010000000000007c30002032
:10238c001000000000000000d02b0020c000000056
:10239c00000000008f310020010000000000000050
:1023ac00982f00202c0000000000000000280020c6
:1023bc000002000000000000e02d00208000000062
:1023cc0000000000142f002040000000000000005e
:1023dc00c830002008000000000000002031002060
:1023ec000400000000000000d030002008000000b5
:1023fc00000000009c3000200c00000000000000d9
:10240c002431002004000000000000009031002066
:10241c000100000000000000082b0020c800000094
:10242c0000000000a83000200c000000000000009c
:10243c009131002001000000000000002831002034
:10244c000400000000000000402d0020a00000004f
:10245c0000000000582f0020400000000000000089
:10246c008c3000201000000000000000943100208f
:10247c00500000000100000000000000a40f00004c
:10248c000001000001000000cda4000001000000cc
:10249c00b00f00000001000001000000eda40000de
:1024ac0002000000c00f000000010000010000004d
:1024bc000da500000000000000000000000000005e
:1024cc00a49c0000aaaaaaaa2c3100200800000093
:1024dc0000000000000000200028000000000000a8
:1024ec00343100202c0000000000000008300020d7
:1024fc001400000000000000603100200400000007
:10250c00000000001c30002028000000000000002b
:10251c00643100200800000000000000443000205e
:10252c002800000000000000602e00206400000065
:10253c00000000006c3100200800000000000000ca
:10254c0084310020010000000000000074310020e4
:10255c00040000000000000078310020040000009e
:10256c0000000000e4310020040000000100000025
:10257c00010000007c31002004000000000000007d
:10258c00c42e00205000000000000000803100200c
:10259c000400000000000000b43000200c0000001b
:1025ac000000000000000000000000006666666687
:020000040000fa
:1025bc0070b586b0b54db64c2900200007f048fb2d
:1025cc000028f9d003a9b34808f02df8041e00d058
:1025dc0046e10399cb0700d42fe1012399430391e2
:1025ec00ac4808f024f8041e00d02ae1aa4b0122c2
:1025fc009a70039dad042d0d00d10fe100230593be
:10260c0005a9a64808f00ff8041e1fd10598a24b87
:10261c0058609d6004ae0422310006f041f90400bc
:10262c00738800281dd19d4202d0eb1a042b23dca9
:10263c00974807f05dfd6b461b7c072b00d9d5e056
:10264c006b461b7c9b00964ad3589f4607f0b0ff05
:10265c00002800d1f5e007f0a5ff924905f030fc09
:10266c00efe007f0a5ff002800d1eae007f09affa1
:10267c008d4905f025fce4e007f09aff002802d113
:10268c0006246442dde007f08dff04aa53888749d5
:10269c0054780194127800922a0005f011fc06245b
:1026ac006442cee07c4bdb68002b17d07a4bdd68a4
:1026bc00059a083204ab5988083989b25878a8476a
:1026cc00754b9b78002b00d1bee007f071ff002802
:1026dc0000d09ae007f00af80400b5e007f068ffb4
:1026ec000028edd007f05eff714905f0e9fbe7e744
:1026fc00694b1b69002b0ad0674b1d69059a083280
:10270c0004ab5988083989b25878a847d8e707f03c
:10271c004fff0028d4d007f045ff664905f0d0fbe9
:10272c00cee75d4b5b69002b0ad05b4b5d69059a6c
:10273c00083204ab5988083989b25878a847bfe7e2
:10274c0007f036ff0028bbd007f02cff5a4905f0e4
:10275c00b7fbb5e7504b1b6a002b0ad04e4b1d6ada
:10276c00059a083204ab5988083989b25878a847b9
:10277c00a6e707f01dff0028a2d007f013ff4f4972
:10278c0005f09efb9ce7444b9b69002b0ad0424b07
:10279c009d69059a083204ab5988083989b2587872
:1027ac00a8478de707f004ff002889d007f0fafe50
:1027bc00434905f085fb83e7374b5b6a002b0ad056
:1027cc00354b5d6a059a083204ab5988083989b2d1
:1027dc005878a84774e707f0ebfe002800d16fe7a4
:1027ec0007f0e0fe374905f06bfb69e707f0e0fe08
:1027fc00002802d10624644226e007f0d3fe3249b9
:10280c0005f05efb062464421ee007f0cbfe04aa32
:10281c00537812782d4905f053fb5be707f0c8fe9f
:10282c00002802d1022464420be007f0bbfe2849c9
:10283c0005f046fb0224644203e007f0b9fe0028d1
:10284c0007d1134807f054fc002c13d1200006b01c
:10285c0070bd07f0a7fe039a1e4905f031fbf0e7a7
:10286c0007f0a6fe0028ecd007f09cfe1a4905f0f4
:10287c0027fbe6e707f09cfe0028e7d007f092fe66
:10288c001649220005f01cfbe0e7c046ffff0000e4
:10289c00e430002070100000c42f002084100000d1
:1028ac00589d00008c090000b4090000d0090000fc
:1028bc00100a0000340a0000580a00007c0a0000cc
:1028cc00a00a0000c40a0000e80a0000040b000083
:1028dc00340b0000480b0000640b00008c0b000054
:020000040000fa
:1028ec00f0b59fb004001500031fd9b2612900d9bf
:1028fc006be18b00bb4ad3589f460023042203a9eb
:10290c00280003f077fe002864d1b74b1b68002b1e
:10291c0060d003a92c3098475ce00023082203a95f
:10292c00280003f067fe002854d1af4b1b68002b26
:10293c0050d003a91b3098474ce00123302203a947
:10294c00280003f057fe002844d1a74b1b68002b2e
:10295c0040d003a9063098473ce00023182203a975
:10296c00280003f047fe002834d19f4b1b68002b36
:10297c0030d003a9323098472ce0012300220021eb
:10298c00280003f037fe002824d1974b1b68002b3e
:10299c0020d000213d3098471ce06422002103a880
:1029ac0007f0f4fc0023642203a9280003f022fea4
:1029bc0000280fd18c4b1b68002b0bd003a92f3098
:1029cc00984707e00023042203a9280003f012fe15
:1029dc00002801d01fb0f0bd07f0eafd012807d890
:1029ec00814b1b68002bf5d0002134209847f1e770
:1029fc0007f0d8fd039c230cff252b40220e7b49ae
:102a0c002e0026400196240a2540009505f058fa20
:102a1c00e6e7774b00221a700023043203a9280042
:102a2c0003f0e8fd0028d5d103ab1a78714b1a706e
:102a3c006d4b1b68002bcdd003a911309847c9e70b
:102a4c0000232c2203a9280003f0d4fd0028c1d1b7
:102a5c00654b1b68002bbdd003a913309847b9e711
:102a6c00002304221ca9280003f0c4fd0028b1d1c6
:102a7c005d4b1b68002badd01ca904309847a9e70f
:102a8c00002304221ca9280003f0b4fd0028a1d1c6
:102a9c00554b1b68002b9dd01ca96530984799e7b6
:102aac000123642203a9280003f0a4fd002800d010
:102abc0090e74d4b1b68002b00d18be703a9093025
:102acc00984787e70123042203a9280003f092fd0d
:102adc00002800d07ee7444b1b68002b00d179e71f
:102aec0003a92a30984775e70023042203a928007c
:102afc0003f080fd002800d06ce73b4b1b68002bdb
:102b0c0000d167e703a92730984763e70023082221
:102b1c0003a9280003f06efd002800d05ae703ab90
:102b2c009a88039928000830012303f063fd0028dc
:102b3c0000d04fe72c4b1b68002b00d14ae703a9b0
:102b4c002030984746e70023042202a9280003f00e
:102b5c0051fd002800d03de702ab5f881a8803ab1b
:102b6c005a80254b1b68002b00d133e7234b1b6885
:102b7c00002b00d12ee7224b1b88002b00d129e71c
:102b8c0003ac1f4e19e022801c490968781903f028
:102b9c0031fd002800d01de723886288d21a62809c
:102bac00df19bfb2154b1968134b1b6822001d307f
:102bbc0098476388002b00d10ce762883188012389
:102bcc008a42e0d90a000023dde707f0f1fc002877
:102bdc0000d1ffe607f0e6fc0a49220005f070f987
:102bec00f8e6c046e84000000c310020100d000053
:102bfc008b3100208d310020083100200431002061
:082c0c0086310020300d0000ac
:020000040000fa
:102c14000023f0b51600b1b0039007910493079d0b
:102c24002b78002b00d1cfe001235b420c9310ab37
:102c340000240e9380230b940d940f932b5d002b93
:102c440001d0252b30d1002c06d029002200039876
:102c54002d1906f064ff0795079b1a78252a00d0e2
:102c6400a7e001331800002105930793243a037861
:102c74002b2b25d02dd8202b25d0232b26d0002953
:102c840000d007902a2b2cd006f04af901250d908c
:102c94000020079a11000b780132303b092b64d9cc
:102ca40000282dd007912be00134c7e701230b99ad
:102cb4000b430b9311000130d9e702230b99f7e77b
:102cc40004230b99f4e708230b99f1e710230b99dc
:102cd400eee72d2bead0302befd00029d4d007908b
:102ce400d2e7336801301a1d1b68079032600d93d8
:102cf400002b05da01220b995b424a400b920d939b
:102d04000b9bda0702d5022293430b93079b1a7895
:102d14002e2a0dd100270c975a785d1c07952a2a74
:102d240025d10233079333681a1d1b6832600c9354
:102d340007a806f065fd079d0700287807f00afc40
:102d4400252800d1d5e06138172800d9dbe007f049
:102d540035fb1fdab63ea6a6a6da3edadadada9c44
:102d64005e7fdadac6da4edada6e280092e72800f5
:102d740006f0d6f801210c902a0013780135303b77
:102d8400092b03d9002fd3d00792d1e70f00f3e723
:102d94003200390008a806f077fc002800d17be057
:102da4006b1c079303982b7808aa0ba9fef7e8fb82
:102db4002418049b1c19a34200dcb0e04f22594b99
:102dc4001a6001235b420493049831b0f0bd3300d0
:102dd4000122390008a803f03efb00285cd001352d
:102de400039808aa0ba9079503f0ccffe0e733008a
:102df4000022390008a803f02efb00284cd001352e
:102e0400039808aa0ba9079505f029fed0e733001b
:102e14000022390008a803f01efb00283cd001352d
:102e2400039808aa0ba9079505f086f8c0e73300b4
:102e34000022390008a803f00efb00282cd06b1cdc
:102e440007932b78039808aa0ba902f009f8afe7b7
:102e540033000022f02108a803f0fdfa00281bd05b
:102e6400089b099a0135079513430cd12e4d280070
:102e740007f0aef9290002000b9b00930d9b039809
:102e840004f01cfe94e77823dce7049b39001a194c
:102e940008a8330004f04efe0135079589e7320097
:102ea400390008a806f0f0fb0028f5d06b1c079346
:102eb40003982b7808aa0ba9fef7e6f878e7802f89
:102ec400ead1336801351a1d1b68326008aa1370f1
:102ed4000123079503980ba905f066fe68e7802f88
:102ee400dad132680135131d336012680023079567
:102ef400f0e7802fd0d10b9b0135009301220b49c1
:102f04000d9b0795bbe7059b0122079300235242c3
:102f14000c9206490b930d9300930232afe704948d
:102f24007de6c0467c310020389d00003e9d0000b7
:020000040000fa
:102f3400f0b587b00400431e033300d943e10123f5
:102f4400c356012b5cd028dc5a1c00d13be1002b7a
:102f540000d036e10378002b00d134e140688223ad
:102f64005b00c35c002b39d1636801221a7163686a
:102f740000225a7107f002fb02283dd006f0eefb56
:102f840006f058fe6368986807f040fb07f05cfaa7
:102f940007f042fa0023237015e1022b00d010e160
:102fa40040680130ff30894906f056fe012800d000
:102fb40009e10123e356022b00d004e163681b7985
:102fc4001b0700d5ffe007f03afb002800d1fae028
:102fd40060680130ff3007f08ff8f4e00130ff3013
:102fe40007f0f6f96068d43007f0f2f962688223da
:102ff4005b000021d154b7e7002006f0a1ffbde734
:103004004368002b0ad007f0d7fa012809d806f044
:103014005bfa00280bd1ff236370d4e0ff334370c5
:10302400d1e007f0c3fa6a4904f04effefe707f076
:1030340057f800280fd007f0bffa012805d86368b5
:10304400f5225a71ff236370bde007f0affa6149be
:1030540004f03afff3e707f0f6fa000c152805d060
:103064006368f5225a71ff236370ace06068013035
:10307400ff3000230a22012105f0bcfb012802d005
:10308400ff2363709fe063689968200006f020ffc7
:10309400002302930393049305934f4b019301a8d8
:1030a40001f0e4f8002879d106f05af94b4805f00c
:1030b400cbfd4b4b00251d735d739d73dd739d74b8
:1030c40001263f229e54022701329f5401321e21c1
:1030d400995401329f540132b53199540132593116
:1030e400995202329d5208329d541d6506329d54f8
:1030f40034329d5004329d5004329d5004329d5010
:1031040004329d5004329d5004329d5401329d542a
:1031140001329e5402329d5004329d5004329d501f
:1031240004329d5004322f49995004329d50043288
:103134009d5004329d5004329d5004329d500432ff
:103144009d500c32ff2199541c329d50264a23393c
:103154005a502649e0201950254904301950fc21c1
:103164005d502448290005f061ff234833003200f4
:10317400290005f03ffb626882235b00d654606837
:10318400483006f077fe677007f016fab0421ad995
:1031940007f00cfa194904f097fe14e007f00cfa52
:1031a400012808d860680130ff3007f011f963681e
:1031b400f4225a7164e707f0f9f9114904f084fe26
:1031c400f0e7ff23637007b0f0bdc046ffff0000c7
:1031d400fc0e0000180f0000b91e000095670000e7
:1031e400002a0020c0a80a01f180000065490000ff
:1031f400798d0000998c0000d42a0020540f00001f
:04320400340f000083
:020000040000fa
:10320800f0b5de464f464646c0b588b083460e0048
:103218000192009310ab04cb90461f8812ab1b8819
:103228009946874d874c2900200006f013fd002899
:10323800f9d007aa7f23334053705b461370434687
:10324800002b33d03b0008334b449bb207aa538072
:103258007d4a934200d9e1e006f044f8041e00d00c
:10326800d1e00023059302aad3800493049b5a4615
:103278001a430492049b36021e430496049a07ab31
:103288005b881b04134304930499704807f0d1f931
:10329800041e0fd006f036fe6a4806f02bff200009
:1032a80008b0e0bcbb46b146a846f0bd009b083359
:1032b8009bb2cbe700230493049b0222134304939d
:1032c8000499634807f0b5f9041ee3d1002205927a
:1032d80002abda8006331b889bb2fa229200934233
:1032e80033d25b4e02ab9c1dfa256d000fe0012026
:1032f80007f08ff9049b9b0721d5238801339bb2e4
:10330800238023889bb2fa22920093421dd204a9fb
:10331800300007f08af9002817d123889bb2ab4206
:10332800e8d323889bb2ab42e1d807f043f90128e0
:10333800ddd907f039f9474904f0c4fdd7e705a9f5
:10334800454807f072f9041e47d1059b002b47d06a
:10335800059b06930698082207a905f0cffa041ed4
:1033680000d097e7069b08330693019900290bd0f4
:103378000698009d2a0005f0c1fa041e00d089e7ce
:10338800069bac46634406934346002b10d0069a2e
:103398004b4600995b1a9b18069306983a004146db
:1033a80005f0acfa041e00d074e7069bfb180693e0
:1033b800059b9b000493049b0222134304930499e6
:1033c800264807f036f9041e00d063e706f0aaf98c
:1033d80004001c4806f08efe61e70023059359e7b8
:1033e80006f0a0f9040007f0e5f8032802d8032442
:1033f800644251e707f0d8f81949220004f062fd49
:103408000324644248e707f0d5f8002800d143e7d1
:1034180007f0caf8134904f055fd3de707f0caf86c
:10342800002802d10124644236e707f0bdf807ab53
:103438005a880d49044b04f045fd012464422be7ea
:10344800ffff0000e43000203c0600008c10000064
:103458007810000000090000000415006c1000003e
:0c3468001409000034090000580900009d
:020000040000fa
:10347400f0b5de4657464e464546e0b589b081462e
:103484008a46140004928248824906f0f7fb012818
:1034940000d0f8e0012c00d1e4e009239b4600278a
:1034a400a5e007f089f8002800d196e007f07ef83f
:1034b40079494a4604f008fd8fe007f07df80028ba
:1034c40000d18ae007f072f874494a4604f0fcfc23
:1034d40083e03b004246a2427b4102330b2004aa14
:1034e400944660441022524213430370012105f0b4
:1034f400aff900281ed053469819290005f0a8f901
:1035040000282bd0664b1b78002b31d0ae1936b275
:10351400641ba4b2002c3bd0251c444501d96b4646
:10352400dd89adb2002ed4d1a0459b410122934345
:103534000333d3e707f040f8002809d107f03cf83b
:1035440000284ad007f032f8564904f0bdfc44e0a4
:1035540007f02cf8544904f0b7fcefe707f02cf817
:103564000028ebd007f022f8504904f0adfce5e761
:10357400022107a805f06cf90028c7d107f01cf850
:103584000028dbd007f012f8494904f09dfcd5e788
:10359400434b1c78631e9c410234210007a804f0ad
:1035a400d3fe002815d01023e31804aa94466344dc
:1035b400053b1b78002b3cd11023e41804ab9c463c
:1035c4006444063c2378c32b33d1314806f0a0fd74
:1035d40051e006f0f1ff002825d106f0edff0028a8
:1035e40036d106f087fa5b46013b9b463dd30097f4
:1035f400049b3a004946c72001f060fd002800d032
:103604004fe73900c72002f09ffb0590002800d047
:1036140053e707ab1f80049c3e0080239b01984620
:103624006a46d38178e706f0c1ff224904f04cfcd6
:10363400d3e706f0c1ff0028cfd006f0b7ff07acf0
:10364400637822781c49a478009404f03dfcc4e714
:1036540006f0acff1949049b00934b465a4604f00c
:1036640033fcbee70223049317e7094806f050fd34
:1036740006235b420593059809b0f0bcbb46b246ed
:10368400a946a046f0bd06235b420593f3e7c04676
:10369400e0300020ffff0000300700006807000052
:1036a4008a31002068080000ac070000ec07000025
:1036b4002808000098080000c4080000140700004f
:020000040000fa
:1036c400f0b50f00060015000022634b87b0921975
:1036d4007b41009201936149019b8b4200d9b8e080
:1036e40004d15f4b009a9a4200d9b2e001215d48af
:1036f40049428019794100235b4a05f0cbfb06005f
:103704000f00131e029208da574a94466344029348
:1037140001225242d317b6185f4103200021072229
:1037240080197941002305f0b5fb131e049201dad8
:10373400073304930023300039004c4a05f0aafbf8
:10374400141e039004da494be4180300013b03936d
:103754002000474903f076fc0600042800d1013e0e
:10376400444f454977433f19380003f06bfc04008c
:10377400192800d1013c6e21404bff316343df190e
:10378400380003f05ffc042800d101383c4b43436c
:10379400db1900930023984204d10133002c01d19a
:1037a400734273419922009952003339ff390591cc
:1037b4000099914203da0a003b32d318059364233b
:1037c400c8227343a4002018c018039b0600c7171f
:1037d400d91703980023520005f0e6fb0024801952
:1037e4007941284b009ae35c93422ddd092c04ddda
:1037f40001220023801859410c3c0027224e361820
:103804004f41002f25d1e121009b64300133eb604f
:10381400049b0234ab61059b6861eb61090102986a
:103824002c6103f00ffc3c21a860029803f00afc11
:103834003c2103f051fc029869603c2103f04cfcec
:103844003800296007b0f0bd009a0134d31a009300
:10385400c7e701204042f5e78042f100ff84e2011e
:10386400007b1dfe80a243c780510100b13a0200d3
:10387400ac8e00005471ffffb50500004bfaffff4a
:0c38840093feffff04a60000640000801b
:020000040000fa
:10389000f0b40125ed070f005f405ad48b4200d1f0
:1038a000824205d950404240504059404b40594017
:1038b0004e18760ddf187f0d3bd0741c640529d09f
:1038c000f41b352c26d80e0ddb022b43db0ac90274
:1038d0002943c9121700202c1ed2e741e24057406d
:1038e000e3415a40a340e3405a4000248018594124
:1038f0000ad3b21c520521d0c207012f6241170022
:103900004008cb0718434908013636054208af4145
:1039100060417141f0bc7047203c06d01f00e74178
:10392000e3405f400024012a6741c0186141ebd3a6
:10393000dfe7002eeed129400020ebe7013631050c
:103940000020e7e7e742e5d10020c143090dc904a3
:10395000e0e76b400e00871a9e4104d26e40c01b08
:10396000b141d21973414e18df18ac0ae642e9d2d0
:10397000760d7f0d31d0f41b362ccbd8b4460e0d0e
:10398000db022b43db0ac9022943c90a012c32d8c6
:1039900004d1d4075208df073a435b08ef0a6442b8
:1039a000904199411ed0002239424dd12419404105
:1039b00049410124394204d10134001849413942b6
:1039c000fad06246a24204d9361b013e3605891957
:1039d000a0e7f10ac90700209ce736429ad10020ef
:1039e000002197e70200224394d0b842ded20100c2
:1039f00020002024e3d1202c13dd203ce2411700dd
:103a0000a240e2405740e3415a40a340e3405a40bd
:103a1000012fbf410137174300227c429841914159
:103a20000ce01700e741e2405740e3415a40a34011
:103a3000e3405a407c429041994100220f0303d257
:103a4000013e241940414941013e36054708ac4139
:083a500050417141f0bc7047c8
:020000040000fa
:103a5800f0b583b000900f0001939400200003f0ac
:103a680037fc061e00d1b5e0542003f031fc051eda
:103a780000d1a9e05422002106f08afc2e6322001e
:103a8800a521300006f084fc043c2e6b3619072271
:103a98009643002f0cd000242a0034323b5d135586
:103aa800002b02d00134102cf8d143230022ea5411
:103ab800089f042f00d90427ef626f642c1d200093
:103ac80006f0ebfd2800183006f0e7fd2d61052310
:103ad800db1bab616d62019a0099300006f078f942
:103ae8002860099b002b00d01d6006f057fb3b4a5d
:103af8001368013313603a4b1b68002b0cd0394b09
:103b08001b68002b0dd1364b1b68da6aeb6a9a42a8
:103b180007d8334b1d6004e0314b1d601368012b3f
:103b280033d0314a136801331360e96a2f4b1b689d
:103b3800994201d92d4b19602d4a8b005b189b00c7
:103b4800d3185b68ab609968e9604c609c60e86a70
:103b5800830019188900891869611918890089581a
:103b680001311b189b00995006f0eafb1d4b1b689e
:103b78000120002b30d01a4b1b68da6aeb6a9a4294
:103b88002ad206f0fffa012026e0194e37006437e2
:103b9800300006f063fb1436be42f9d1154f3800e9
:103ba80006f05cfb144e300006f058fb134806f094
:103bb80055fb134806f052fb124806f04ffb124b18
:103bc8001f60124b1e60ace7300004f08cfa012035
:103bd800404201e00120404203b0f0bd5c310020ca
:103be8006c31002050310020403100205431002039
:103bf800602e002058300020443000203030002053
:103c08001c3000200830002068310020643100207a
:020000040000fa
:103c1800f0b5de4657464e464546e0b583b05b4ba9
:103c28001b68002b00d0a3e0594b1c68621c009253
:103c38001a60002a11d0574b1b6800229346009a3d
:103c480093421dd8544b1b681b68002b12d0524d51
:103c5800524fbc465249019562e04f4a1168514b98
:103c6800186810601960504a13680133136005f032
:103c780029ffe0e700239b46464b012252421a6087
:103c88004a4b1b68d96a464a8b005b189b009b58b5
:103c9800012b01d901239b46454b1b68002b6dd096
:103ca80001239b466ae03b4b1a60e9e7dc685460f5
:103cb80047e000229a622268013a2260dc6a3a6888
:103cc800944201d962461460a200121992008a181f
:103cd80052689a609468dc6060609060d86a82007c
:103ce8001418a400a046884444465c611418a40033
:103cf8006458a0460124a146c844121892004046c0
:103d080050502a4a12689046da6a4346db6a9a4259
:103d180001d901239b46019b1b681b68002babd074
:103d28002b68db68db685a6800989042bbd35a69f5
:103d38009c68d868a0609c684460181d54688442d8
:103d4800b4d000245c611468013c14609c6a002ca7
:103d5800b4d0da6992461a6a5646b260de6956608d
:103d68001a00183266689642a3d11a6a6260a0e700
:103d7800104a13680133136000239b46584603b06a
:103d8800f0bcbb46b246a946a046f0bd343100207f
:103d9800583100203c310020683100205431002087
:103da800602e002064310020443100206c31002056
:083db800483100204c310020cd
:020000040000fa
:103dc00030b5a3b00400150003006a3bd9b20e2938
:103dd00000d9a4e08b00584ad3589f460023019392
:103de000029303930493102201a9280002f008fc17
:103df000002800d097e0514b1b68002b00d192e0c7
:103e000001a898478fe000230193042201a928000c
:103e100002f0f6fb002800d085e0494b1b68002b20
:103e200000d180e001aa5178107898477be0002308
:103e3000019302930133082201a9280002f0e0fb5c
:103e4000002870d101ab1879002803d13d4b01aa9d
:103e500052791a703c4b1b68002b64d0019a394987
:103e600009789847384b00221a605ce000230193e0
:103e700002930133082201a9280002f0c1fb0028a7
:103e800051d101ab1b79002b0dd02f4b1b68002ba0
:103e900049d0019a2b49097801a8007998472a4b03
:103ea00000221a603fe0274b01aa52791a7006f0ef
:103eb00085fb0128e9d906f07bfb224b1a782349c0
:103ec00004f004f8e1e78422002101a806f064fa76
:103ed0000123842201a9280002f092fb002822d1ac
:103ee0001b4b1b68002b1ed001a90a88887802a9e9
:103ef000984718e0002301930133042201a9280008
:103f000002f07efb00280ed1124b1b68002b0ad05a
:103f100001aa107898470f4b00221a6003e006f0c0
:103f20004dfb002801d123b030bd06f041fb0a490a
:103f3000220003f0cbfff6e728930000fc300020be
:103f40000031002093310020f83000207c0c00006c
:0c3f5000f4300020f0300020a00c000035
:020000040000fa
:103f5c0008d1002806d1f54204d801d3002a01d19a
:103f6c006d0d09d10020c143090dc904f0bdf9d173
:103f7c001242f7d1640df5d00020c1434905490820
:103f8c00a6e000206146f0bdf0b50127ff070e004a
:103f9c005e403e40b446be0a4c18dd18f442d7d2ff
:103fac00f542e4d2640decd06d0dead06419c9026f
:103fbc003943460dc0023143db023b43db0a10b4ec
:103fcc008e4685b297b26f43140c6c433e0ca41909
:103fdc00260c2404bfb227439cb26c43a419190cc1
:103fec006943250ca4b249190d04090c6419000c81
:103ffc0095b245433e0c76193743bfb2360c150cbf
:10400c004543ad19a6b2240cad192e0437432e0c22
:10401c0036199db24543ad19acb22e0c89191d0c45
:10402c0045436d182e04290c3443704680b295b26a
:10403c0045433e0c76193743bfb2360c150c45433d
:10404c00ad19a6b2ad19240c2e0437432e0c36191b
:10405c009db24543ad19acb22e0c89191d0c4543cc
:10406c006d182e043443290c75462d0c90b2684300
:10407c003e0c80190604bfb23e43070ca0b23f1899
:10408c00120c6a43d019020c80b2240ca4189ab2f8
:10409c006a43121914042043120c89181b0c6b432d
:1040ac00c91810bc01273d05294203d1b61940415e
:1040bc004941013cff077d0d013d641b0bdb6d008d
:1040cc00ac4209da240500254208be416841614131
:0a40dc0066463143f0bd54e74ee79d
:020000040000fa
:0240e600704721
:020000040000fa
:1040e8006c2a0000d62b000046290000d62b0000c1
:1040f800d62b0000ac2a0000d62b0000d62b0000df
:10410800d62b0000d62b0000e0290000d62b00009b
:10411800d62b00001e2a0000d62b00004c2a0000d7
:10412800d62b0000d62b0000d62b0000d62b000083
:10413800d62b0000d62b0000d62b00002629000025
:10414800d62b0000522b0000d62b0000d62b0000e7
:10415800182b0000d62b0000d62b0000d62b000011
:10416800d62b0000d62b0000d62b0000f42a000026
:10417800d62b0000d62b0000d02a0000d62b00003a
:1041880006290000d62b0000d62b0000a629000027
:10419800d62b0000d62b000066290000d62b000085
:1041a800d0290000d62b0000d62b0000d62b00000b
:1041b800d62b0000d62b0000d62b0000d62b0000f3
:1041c800d62b000086290000d62b0000d62b000035
:1041d800d62b0000d62b0000d62b0000d62b0000d3
:1041e800d62b0000d62b0000d62b0000d62b0000c3
:1041f800d62b0000d62b0000d62b0000d62b0000b3
:10420800d62b0000d62b0000d62b0000d62b0000a2
:10421800d62b0000d62b0000d62b0000d62b000092
:10422800d62b0000d62b0000d62b0000d62b000082
:10423800d62b0000d62b0000d62b0000d62b000072
:10424800d62b0000d62b0000d62b0000d62b000062
:10425800d62b0000d62b0000d62b0000d62b000052
:08426800d62b00008c2a000097
:020000040000fa
:1042700070b58eb00f236b4401221a70002800d154
:1042800093e04b4b02681a604a4b82681a604a4bb3
:10429000c2681a60494b028a1a80837c002b03d0c3
:1042a0000f236b4404221a70454b00221a700f2012
:1042b000684404f0d5f8041e02d020000eb070bd92
:1042c000404b02221a70002005f01cf9041e06d093
:1042d0003c4b00221a70002003f088fdede73a49bc
:1042e000012003f09ffc04a802f022f9040006f06c
:1042f00065f9012820d806f061f9012822d806f0d6
:104300005df901282bd806f059f9012831d806f0bb
:1043100055f9012838d806f051f901283dd8230075
:104320000d33cad106f04af90028c6d006f040f98c
:10433000264903f0cbfdc0e706f03af9244903f023
:10434000c5fdd8e706f034f904ad6b792a79214927
:104350002e8c0196ad79009503f0b8fdcfe706f0fd
:1043600027f91d4926236b441a226a4403f0aefd47
:10437000c9e706f01df904ad2b7aea7917496d7a81
:10438000009503f0a3fdc2e706f012f914490723d4
:104390000093132203f09afdbde706f009f9114bd3
:1043a000114a124903f092fdb9e70c24644284e7f4
:1043b0000c3100200831002004310020863100201b
:1043c0008b3100208c310020ed2800001c0e0000f5
:1043d000480d0000640d0000880d0000a80d0000cd
:1043e000cc0d0000e40d0000f00d0000fc0d0000fd
:020000040000fa
:1043f00070b50500594c247fe0b2002c00d0a7e036
:1044000000294ad0002d48d0554c66680724344016
:10441000012c5ed0514805604260002444618461f3
:1044200004614e488160002a58d04c4ad3604b4a00
:10443000012111774a4a127e520705d5484a0420c5
:10444000916a117e0142fbd1454a518b0420014300
:104450005183117e7c300143117640498a68c968d6
:10446000914203d93d48c168891a01613c494968b4
:10447000490743d139498969914233d2374a116892
:10448000087837498862916901319161002b5ad0cf
:10449000334b04229a7501205be0002b59d0002a8f
:1044a00057d02f4c666807243440012c0cd02b4881
:1044b000056042600024446184610461002db0d134
:1044c000264900208860aee7002943d1dc07eed5fd
:1044d0003fe0cc073dd4002be9d0f7e71f4a00218d
:1044e000d160a4e71d4a1269002acfd01c4aff21df
:1044f00091621a490a69013a0a61c7e7174a916845
:1045000049089160116949081161d1684908d16071
:10451000916892698a420ad210490a681288d205c3
:10452000d20d0f4882628a6901328a61aee70b4a76
:104530001269002aaad00a4a0a49916207490a69ff
:10454000013a0a61a2e7064b01229a75012000e0b8
:10455000002070bdcc07b9d5fbe7c046982f0020de
:0845600000180042ff010000f9
:020000040000fa
:10456800f8b5de4657464e464546e0b505f016fe18
:104578004a4b1a68013a1a601b680024002b7fd145
:10458800474b1b68002b7bd0464b1b68002b60d029
:10459800444e0020444dac46444b9a46b34609e08d
:1045a800196a516013e0d96851601ee05b461b68c8
:1045b800002b4cd0f368db689a6adf69196ab96026
:1045c800df694f601900183157688f42e8d0986248
:1045d8001168013911605a699f68d968b9609f6884
:1045e8004f601f1d5168b942ddd05861116801390b
:1045f8001160d96a2a68914201d9624611608a001d
:10460800521892002a498a1852689a609468dc60a5
:1046180067609760df6aba00d419a400a04688448e
:1046280044465c61d419a4006458a0460124a146fc
:10463800c844d2199200444654501e4a1168da6a96
:10464800cb6a9a42b2d3012352461360aee705f013
:1046580039fa194b1c68002c0ed0144e012502e0c3
:10466800013c002c05d0fff7d3fa0028f8d03560bc
:10467800f6e7114b00221a600c4b1c68002c08d17d
:1046880005f05efe2000f0bcbb46b246a946a04637
:10469800f8bd05f077fd0124f2e7c046343100206b
:1046a8005c31002030300020543100204831002097
:0c46b800602e00206c3100204c310020ee
:020000040000fa
:1046c40070b5504b586a504b9b7d002b54d04e49cb
:1046d4004c68072214404b4b5a699d699e680b7eb7
:1046e4005b0757d5896a474bdb68934252d9002c44
:1046f40043d1444b5b6899540132434b1b7edb0727
:1047040016d5414b012119753e4b9b68ab4256d9d6
:104714003c4b1b68595d3c4b99620135394b1b6915
:10472400002b01d1b54262d0364bdb68934262d094
:10473400344b5a619d61344b1b7e9b0715d5334b1b
:104744001b78002b18d02f4bdb68934211d12d4bd3
:1047540000221a772c4907240c752c490a701b6a0d
:10476400002b09d0274b1b6a9847284b1b78002b3a
:1047740002d0254b02229a7570bd224b5b6854000f
:10478400e1520132204b1b7edb07d1d51e4b0121a8
:10479400197508e01c4b1b7edb07c9d51a4b012198
:1047a4001975002cb0d0174b9b68ab4213d9154b2d
:1047b4001b686900c95a144b99620135aee7114b65
:1047c4001b69002baad0104bff2199620d490b697c
:1047d400013b0b61a2e70b4b1b69002b9ed00a4bdc
:1047e4000b49996207490b69013b0b6196e7074b3b
:1047f400012119709ce7044b012199750331197546
:1048040096e7c046982f0020001800428f31002000
:04481400ffff0000a2
:020000040000fa
:10481800f8b5002800d089e04b4b5b68002b00d12d
:1048280088e0494a1278002a00d186e0464a927800
:10483800002a07d01b798b4202d00124644277e01a
:10484800414c75e0404a927a002a0bd03e4c1c60dd
:104858006368197163681b791b075cd43a4b0122a2
:104868009a7065e000201a735a739a73da739a740f
:1048780001243f255c553d3d40269d5501361e27a8
:104888009f5501369d55413591365e55013559364e
:104898005e5302355a53002608355e551a650635ab
:1048a800585534355a5104355a5104355a5104353e
:1048b8005a5104355a5104355a5104355855013561
:1048c8005855a2201c5402301a5004301a50043093
:1048d8001a5004301a5004301c4c1c5004301a5022
:1048e80004301a5004301a5004301a5004301a5048
:1048f80004301a500c30ff241c541c301a50144831
:10490800233c1851134804341851134804341851df
:10491800fc201a509ae7002005f010fb05f038fa41
:1049280000280dd1084b01229a7001e0012464424d
:104938002000f8bd01246442fae701246442f7e745
:1049480001246442f4e7c0467c300020c0a80a0174
:0c495800f180000065490000798d00002e
:020000040000fa
:10496400f0b5d64600b586b00300049105924c4ad2
:104974005468002c0bd02600d43600280bd0fc221f
:10498400a458002c03d04648fa3a3100a04706b098
:1049940080bcba46f0bd4349300005f05df90128fa
:1049a400f5d1336a002b03d0b369059a934272d2ce
:1049b400300005f0a1fbeae7386a049905f0e0fc51
:1049c4007b6a049a94469c4462460492ed1a0ce075
:1049d4003b6a002b25d07b6a002b22d0002d3fd0d0
:1049e4007a6aaa422fd2002ae6d100233b627b6274
:1049f4002b4b5a68fc23d358002b12d0300005f0ff
:104a04007bfb27484268fc23d3589a4600230422a0
:104a14003100d0472349300005f01ef90128d7d0d2
:104a2400b5e7d4340023a361300005f065fb1c4bcb
:104a34005a68fc23d458002ca9d019480023022218
:104a44003100a047a3e72700d437386a2a00049925
:104a540005f096fc3b6a5b193b627b6a5b1b7b62dd
:104a6400d434a36905995b1aa36162698c466244d4
:104a74006261002bd8d0300005f03efb0848426844
:104a8400fc23d358029300230193009300223100a6
:104a940000f052fd7be7059d2700d4379ee7c04612
:084aa4007c300020ffff000040
:020000040000fa
:104aac00f0b5c64600b584b00400019100239846c9
:104abc0000274425002645e0013ba3632368002b17
:104acc000bd02369002b0cd105f038fc0123984640
:104adc00404604b080bcb846f0bd05f0abfaa0600f
:104aec00efe72000103001f0d3fb0028ecd005f0ec
:104afc0047fbe9e705f022fc00239846e8e702a80b
:104b0c0005f056fb28e0665530e04523e65432e0cc
:104b1c0005f042fba06802f08bf9804605f00efc14
:104b2c0039e0200002f052fefff718fd09e02000ea
:104b3c0002f04cfefff712fd200005f009fc0028e6
:104b4c0038d1012705f028fba36b002bb4d1019bb6
:104b5c00002bcfd0002fd2d005f0f0fb05f0a0fc3d
:104b6c0005f01afb635d5bb20133ccd04523e35ceb
:104b7c005bb20133c9d005f0e1fb01a902a803f037
:104b8c00abfd0028d3d1200005f0e2fb0028c8d0f3
:104b9c002368002bbcd001992000243005f03cfa8e
:104bac00200002f013fefff7d9fc0028c9d105f054
:104bbc00e7fac6e74346002b00d189e705f0ecfa8b
:104bcc00616a002903d0236b1b680521c91aa068f0
:0e4bdc0002f0aefc05f0b2fb0023984678e72d
:020000040000fa
:024bea00704712
:020000040000fa
:104bec0030b59db01400062819d0072827d001280d
:104bfc0000d088e0002370226946200001f0fafc06
:104c0c00002800d07be0414b1b68002b00d17ae0e0
:104c1c003f4970340c6069460130984773e00023bb
:104c2c0004226946200001f0e5fc002867d1374bcf
:104c3c001b68002b67d069460630984763e0002359
:104c4c0008226946200001f0d5fc041e4ed16b46ab
:104c5c009b886a46d288694648880978002b15d10a
:104c6c002c4b01251d70121a53425a41d3b2022902
:104c7c0024d005d8002924d1264a0021117020e027
:104c8c00032929d1234a032111701ae09b181b1afe
:104c9c005a425341dbb2022910d006d8002910d158
:104cac001c4a1278012a0cd1e6e7032910d1194ac3
:104cbc001278023afd210a4203d0e3e7154a022199
:104ccc001170002b1fd0114b1b68002b12d11ae056
:104cdc00104a1278022af4d00e4a04211170f0e71f
:104cec0005f060fc0c4903f0ebf80ce0074b1b687b
:104cfc00002b04d0074907209847002c03d005f05f
:104d0c0057fc0028ecd11db030bdc046dc30002073
:0c4d1c00d8300020923100204c02000032
:020000040000fa
:104d2800f0b5de4657464e464546e0b583b0834665
:104d38000f009246002399462ae005f03bfc002824
:104d480007d1013803b0f0bcbb46b246a946a0461d
:104d5800f0bd05f029fc3c4903f0b4f801204042bd
:104d6800f0e7002c2edd58464844414603f0eafaa5
:104d7800002831d0354b1b78524613434cd04b4654
:104d880043441bb299464346ff1abfb2002f58d07e
:104d98003b1c80229201974200d9131c9bb2984673
:104da8000a246b46dd1c0f260121280003f0cafaed
:104db8000028c2d02b78b343f02bd2d0013c24b2c8
:104dc800631cf1d15346002b0dd058464844414648
:104dd80003f0b8fa0028d2d105f0ecfb002813d173
:104de80001204042aee705f0e5fb002802d1012092
:104df8004042a7e705f0d8fb6b46da78144903f080
:104e080061f8012040429de705f0cefb114903f00f
:104e180059f80120404295e7022101a803f092facf
:104e28000028acd105f0c6fb002802d10120404281
:104e380088e705f0b9fb084903f044f8012040422f
:104e480080e700207ee7c0462c0300008a3100205e
:0c4e580068030000a0030000d803000065
:020000040000fa
:104e6400f0b58fb00c934b680d0008938b68160057
:104e74000993cb680f680393089b0b90002b43dbcb
:104e840002239f4310233a001a400d92099a049278
:104e94001f4206d033687268134302d0099b023b59
:104ea400049308233b400a935a1e9341049a2c69a5
:104eb400d31a04933368039a06937368013c0793e7
:104ec40000231355049b0593012c20dc0d9b002b20
:104ed40050d10a9b002b03d02023039a013c135585
:104ee4002a69039b013a19190b98099b121b009715
:104ef40002f0e4fd0b9b5b68db0503d56b6898420d
:104f040000da18000fb0f0bd01230893bae7069b3e
:104f1400079a13430ad1049a089b9b1a059a9b1873
:104f2400002b03dc002ad1ddbb07cfd50f23069a63
:104f3400013c134018005730092b01dc30331800b2
:104f44000c9b413b192b06d820230343613b192baf
:104f540001d805f006fb039b1855059b013b0593ff
:104f6400079b1a07069b1b091a43079b06921b09fa
:104f74000793a9e70cce1343abd0039b0c9a1b19e0
:0e4f8400013b1a703023039a023c1355a1e73b
:020000040000fa
:104f9200f0b50d001900002387b00400059310003e
:104fa2009d4207da2b002200002554429d41012335
:104fb2005b420593002907da059b0200db43059358
:104fc2000b0000215042994126002f0002900091cf
:104fd200a94200d96fe002d1a04200d96be000994a
:104fe200029805f032f929000490200005f02df90d
:104ff200049b00991b1a1a000298049305f019f9f0
:1050020000900191a94250d801d1a0424dd8009af6
:10501200019ba41a9d4101200021049a26002f0021
:1050220005f007f9049b002b35d0019b009adb07a2
:1050320052081a43019b00255b080393049b012439
:105042009c460292039bbb4232d802d1029bb342de
:105052002ed832003b00029e039f921bbb41921846
:105062005b4112196b4116001f0001235b429c44f5
:105072006346002be6d180197941049a04000d00a1
:105082003000390005f0c9f8049a05f0d2f8241a64
:105092008d4120002900059b002b04d003000c0049
:1050a20000215842a14107b0f0bd00200021b9e71c
:0c50b200b6197f41d9e700200021ece78f
:020000040000fa
:0250be00fee70b
:020000040000fa
:1050c00070b584b008ac257801ac20703d30c4b216
:1050d0000c2c00d97ce0a0003f4c2058874601ab47
:1050e0000a0c5a700a0a9a70d97005213b4b1b783a
:1050f000002b5bd14e1e01aa6b4603335c187f2345
:10510000374d5b0010784340eb5c0132a242f8d18e
:105110005b0001aa935501a803f09cfb030000204b
:10512000002b46d004b070bd0b0adbb2002d01d0bd
:105130008022134301aa537091700023d37005217c
:10514000d4e701abff225a709a70da700521cde7df
:1051500001aa080c5070080a9070d170190c1171d6
:10516000190a517193710821c0e7080ac0b2002dd5
:1051700001d08023184301ab58709970110ed9707b
:10518000110c1971110a59719a710821aee701ab1e
:10519000080c5870080a9870d970110e1971110c0a
:1051a0005971110a9971da7109219fe70139c9b260
:1051b000b1e705f003fa002802d101204042b1e72f
:1051c00005f0f6f9074902f081fe01204042a9e707
:1051d00001204042a6e7c046c49600008a31002064
:0851e0006c5800009802000069
:020000040000fa
:1051e800f8b50700394c02e0012005f012fa20005a
:1051f80005f017fa0028f7da354805f012fac00763
:105208000dd4344c344d354e012005f002fa2800f7
:1052180005f007fa013c002c22d0b042f4d1022f4d
:105228002dd0032f36d0042f3ed02d492d4805f020
:1052380000fa002401f030fc03051b0de82292005f
:10524800934237d30220204304f026fb05f0b2f93d
:10525800012833d82449204805f0ebf90020f8bd8f
:1052680005f0a8f9032802d805204042f7e705f021
:105278009bf91e4902f026fe05204042efe71c4933
:105288001c4805f0d6f980214903164805f0d1f9e4
:105298000024cfe71649174805f0cbf9002111483b
:1052a80005f0c7f90024c5e70d490e4805f0c1f916
:1052b8008024bfe7200004f0effac7e705f074f98f
:1052c8000d49074a02f0fefdc4e7c046141000006d
:1052d800bc070200012000000c000c009ed0ad109d
:1052e800771330138c100000612f52ef1801000063
:0c52f8007dd51c3cac070200400100000a
:020000040000fa
:10530400f0b5ce46474680b585b081460d003d4890
:105314003d4904f0b3fc012800d06fe00023ff22d4
:1053240049468a425b41dfb2002b04d0c423dbb27e
:10533400984609260de0ca23f9e705f03df900284f
:1053440032d105f039f900284ad104f0d3fb013eeb
:105354004ed300970423002249464046fff7aefe91
:105364000028ead13900404600f0eefc002822d1a2
:105374003a00042103a8fff7d5fc041e26d103aa92
:1053840053781b02917809040b4311780b43d278ac
:10539400120613432b601b4804f0bafe200005b02c
:1053a400c0bcb946b046f0bd05f000f917494a46fd
:1053b40002f08afdc5e705f0fff80028c1d005f02a
:1053c400f5f813494a4602f07ffdbae705f0f4f810
:1053d4000028b6d005f0eaf80e4902f075fdb0e7f2
:1053e40005f0e4f80c494b46320002f06dfdace7e1
:1053f400044804f08dfe06246442cfe70624644288
:10540400cce7c046e0300020ffff00001404000099
:0c5414004804000084040000ac04000008
:020000040000fa
:1054200030b583b0002300933d4a137069463d4870
:10543000fff768ff00282bd1394b1b78002b0dd1cb
:1054400000997c3399432c3b19430091354800f077
:1054500045fe00283ed1324b01221a70802001a95e
:105460004001fff74fff041e43d105f0a7f80328c2
:105470004ed82c4d280004f021ff702301009943e1
:10548000203b1943280000f029fe200003b030bd66
:10549000234b01221a7005f091f800280cd16946bf
:1054a0002048fff72fff0028c6d005f087f8002816
:1054b00008d106246442e8e705f07af81a4902f0b8
:1054c00005fdece705f074f8184902f0fffc06242e
:1054d0006442dae705f072f8002802d1062464423b
:1054e000d3e705f065f8124902f0f0fc06246442a7
:1054f000cbe705f063f8002802d106246442c4e734
:1055000005f056f80b4902f0e1fc06246442bce7c2
:1055100005f04ef8019a084902f0d8fca9e7c04608
:105520008a31002024e800005c050000b40500007a
:0c553000e8050000200600004c0600000a
:020000040000fa
:10553c00f0b583b004000f0015001e00431e0333aa
:10554c0000d976e04368002b00d174e0002900d12b
:10555c0073e083780120002b01d103b0f0bd0191e1
:10556c003849380004f074fb012868d163681a00cc
:10557c00d432019991422fd13a79ff2a2cd0fc22b6
:10558c0000219950002d05d03d627e62089b7b6105
:10559c00099bbb61fb69002b02d07a69934220d92d
:1055ac0063681b791b072bd5012000f0adfc00288c
:1055bc001cd13879099b089a290000f033fc0400af
:1055cc00002000f0a1fc002815d1002c27d03800b9
:1055dc0004f08efd0820c0e7380004f089fd02209d
:1055ec00bbe7380004f084fd0220b6e7380004f075
:1055fc007ffd0820b1e7380004f07afd0820ace705
:10560c00fb68ba69802a00d980227969387902f05e
:10561c004fff002808d16268fc230a99d15038004a
:10562c0004f066fd002098e7380004f061fd0820c6
:10563c0093e7022091e702208fe702208de70d20ef
:08564c008be7c046ffff0000e0
:020000040000fa
:10565400f0b5ce46474680b587b081460f0003912a
:10566400904605ab00221a803848394904f006fbfd
:10567400012867d14346012b55d0092600250be0ac
:1056840004f09aff002828d104f096ff002840d1a6
:1056940004f030fa013e4ad3009543462a004946b5
:1056a400c820fff70bfd0028ead12900c82000f02c
:1056b4004bfb002818d12a0041463800fff732fb83
:1056c400041e1cd1214804f023fd05ab9f4233d1b5
:1056d40005ab1b78039a13702ee004f067ff1d4995
:1056e4004a4602f0f1fbcfe704f066ff0028cbd076
:1056f40004f05cff18494a4602f0e6fbc4e704f0f4
:105704005bff0028c0d004f051ff144902f0dcfb19
:10571400bae704f04bff1249434600934b4632006c
:1057240002f0d2fbb4e705af02239846a5e7074889
:1057340004f0eefc06246442200007b0c0bcb94665
:10574400b046f0bd06246442f6e7c046e0300020cf
:10575400ffff00006c060000a4060000e406000041
:045764001407000026
:020000040000fa
:10576800f0b5de4657464e464546e0b583b0019053
:105778008c4600296dd005000123374f374a9146e2
:105788009346160092460de040003549009c0c54a3
:10579800013000240c5451468a605a1c0235634576
:1057a80047d213005a1e9046796807220a40012af8
:1057b80017d0b068f468421c31698a4289410a40ae
:1057c800944237d001990139cc5c009479688846b5
:1057d8000721444621400129d6d02149009c0c5478
:1057e800d9e74a469068d468421c494609698a4202
:1057f80089410a4094421dd0697809022c782143d6
:1058080000917c68a046072441460c40012c06d034
:1058180069460978124c215459468a60bde7400010
:10582800694609780e4c215401300099090a21541f
:10583800f2e7984604f09efb002802d0064b0122ae
:105848009a75404603b0f0bcbb46b246a946a0468e
:10585800f0bd8846eee7c046001c0042142f002029
:0458680000280020f4
:020000040000fa
:10586c000009121b242d363f48415a536c657e7734
:10587c0019100b023d342f265158434a757c676e24
:10588c00323b2029161f040d7a7368615e574c4514
:10589c002b2239300f061d14636a7178474e555c04
:1058ac00646d767f4049525b2c253e3708011a13f4
:1058bc007d746f6659504b42353c272e1118030ae4
:1058cc00565f444d727b60691e170c053a332821d4
:1058dc004f465d546b627970070e151c232a3138c4
:1058ec004148535a656c777e09001b122d243f36b4
:1058fc0058514a437c756e671019020b343d262fa4
:10590c00737a6168575e454c3b3229201f160d0493
:10591c006a6378714e475c55222b3039060f141d83
:10592c00252c373e0108131a6d647f7649405b5273
:10593c003c352e2718110a03747d666f5059424b63
:10594c00171e050c333a21285f564d447b72696053
:10595c000e071c152a233831464f545d626b707943
:020000040000fa
:10596c00f0b5ce4600b584b00400009101921e0043
:10597c000025442730e032000099200002f086f91f
:10598c00636a002b08d100280fd104f0d7fc01204a
